{
  "_format": "hh-sol-artifact-1",
  "contractName": "SmartSupply",
  "sourceName": "contracts/SmartSupply.sol",
  "abi": [
    {
      "anonymous": false,
      "inputs": [
        {
          "indexed": false,
          "internalType": "uint256",
          "name": "productID",
          "type": "uint256"
        },
        {
          "indexed": false,
          "internalType": "address",
          "name": "entity",
          "type": "address"
        }
      ],
      "name": "BankTransactionChanged",
      "type": "event"
    },
    {
      "anonymous": false,
      "inputs": [
        {
          "indexed": true,
          "internalType": "address",
          "name": "from",
          "type": "address"
        },
        {
          "indexed": false,
          "internalType": "uint256",
          "name": "amount",
          "type": "uint256"
        }
      ],
      "name": "CertificationPercentageChanged",
      "type": "event"
    },
    {
      "anonymous": false,
      "inputs": [
        {
          "indexed": false,
          "internalType": "uint256",
          "name": "productID",
          "type": "uint256"
        },
        {
          "indexed": false,
          "internalType": "address",
          "name": "owner",
          "type": "address"
        }
      ],
      "name": "ChangedNotOnSale",
      "type": "event"
    },
    {
      "anonymous": false,
      "inputs": [
        {
          "indexed": false,
          "internalType": "uint256",
          "name": "productID",
          "type": "uint256"
        },
        {
          "indexed": false,
          "internalType": "address",
          "name": "owner",
          "type": "address"
        }
      ],
      "name": "ChangedOnSale",
      "type": "event"
    },
    {
      "anonymous": false,
      "inputs": [
        {
          "indexed": false,
          "internalType": "uint256",
          "name": "productID",
          "type": "uint256"
        },
        {
          "indexed": false,
          "internalType": "address",
          "name": "retailer",
          "type": "address"
        },
        {
          "indexed": false,
          "internalType": "uint256",
          "name": "newCertificationPrice",
          "type": "uint256"
        }
      ],
      "name": "ChangedOnSaleRetailer",
      "type": "event"
    },
    {
      "anonymous": false,
      "inputs": [
        {
          "indexed": true,
          "internalType": "address",
          "name": "account",
          "type": "address"
        }
      ],
      "name": "CustomerAdded",
      "type": "event"
    },
    {
      "anonymous": false,
      "inputs": [
        {
          "indexed": true,
          "internalType": "address",
          "name": "account",
          "type": "address"
        }
      ],
      "name": "CustomerRemoved",
      "type": "event"
    },
    {
      "anonymous": false,
      "inputs": [
        {
          "indexed": true,
          "internalType": "address",
          "name": "account",
          "type": "address"
        }
      ],
      "name": "DistributorAdded",
      "type": "event"
    },
    {
      "anonymous": false,
      "inputs": [
        {
          "indexed": true,
          "internalType": "address",
          "name": "account",
          "type": "address"
        }
      ],
      "name": "DistributorRemoved",
      "type": "event"
    },
    {
      "anonymous": false,
      "inputs": [
        {
          "indexed": true,
          "internalType": "address",
          "name": "account",
          "type": "address"
        }
      ],
      "name": "EntityVerificationRemoved",
      "type": "event"
    },
    {
      "anonymous": false,
      "inputs": [
        {
          "indexed": true,
          "internalType": "address",
          "name": "account",
          "type": "address"
        }
      ],
      "name": "EntityVerified",
      "type": "event"
    },
    {
      "anonymous": false,
      "inputs": [
        {
          "indexed": true,
          "internalType": "address",
          "name": "from",
          "type": "address"
        },
        {
          "indexed": false,
          "internalType": "uint256",
          "name": "amount",
          "type": "uint256"
        }
      ],
      "name": "FundsAdded",
      "type": "event"
    },
    {
      "anonymous": false,
      "inputs": [
        {
          "indexed": true,
          "internalType": "address",
          "name": "account",
          "type": "address"
        }
      ],
      "name": "ManufacturerAdded",
      "type": "event"
    },
    {
      "anonymous": false,
      "inputs": [
        {
          "indexed": true,
          "internalType": "address",
          "name": "account",
          "type": "address"
        }
      ],
      "name": "ManufacturerRemoved",
      "type": "event"
    },
    {
      "anonymous": false,
      "inputs": [
        {
          "indexed": false,
          "internalType": "uint256",
          "name": "productID",
          "type": "uint256"
        },
        {
          "indexed": false,
          "internalType": "address",
          "name": "manufacturer",
          "type": "address"
        }
      ],
      "name": "ProductProduced",
      "type": "event"
    },
    {
      "anonymous": false,
      "inputs": [
        {
          "indexed": false,
          "internalType": "uint256",
          "name": "productID",
          "type": "uint256"
        },
        {
          "indexed": false,
          "internalType": "address",
          "name": "oldOwner",
          "type": "address"
        },
        {
          "indexed": false,
          "internalType": "address",
          "name": "newOwner",
          "type": "address"
        }
      ],
      "name": "ProductPurchased",
      "type": "event"
    },
    {
      "anonymous": false,
      "inputs": [
        {
          "indexed": false,
          "internalType": "uint256",
          "name": "productID",
          "type": "uint256"
        },
        {
          "indexed": false,
          "internalType": "address",
          "name": "receiver",
          "type": "address"
        }
      ],
      "name": "ProductReceived",
      "type": "event"
    },
    {
      "anonymous": false,
      "inputs": [
        {
          "indexed": false,
          "internalType": "uint256",
          "name": "productID",
          "type": "uint256"
        },
        {
          "indexed": false,
          "internalType": "address",
          "name": "sender",
          "type": "address"
        },
        {
          "indexed": false,
          "internalType": "address",
          "name": "receiver",
          "type": "address"
        }
      ],
      "name": "ProductShipped",
      "type": "event"
    },
    {
      "anonymous": false,
      "inputs": [
        {
          "indexed": true,
          "internalType": "address",
          "name": "account",
          "type": "address"
        }
      ],
      "name": "RetailerAdded",
      "type": "event"
    },
    {
      "anonymous": false,
      "inputs": [
        {
          "indexed": true,
          "internalType": "address",
          "name": "account",
          "type": "address"
        }
      ],
      "name": "RetailerRemoved",
      "type": "event"
    },
    {
      "anonymous": false,
      "inputs": [
        {
          "indexed": false,
          "internalType": "address",
          "name": "receiver",
          "type": "address"
        },
        {
          "indexed": false,
          "internalType": "uint256",
          "name": "amount",
          "type": "uint256"
        }
      ],
      "name": "RewardGiven",
      "type": "event"
    },
    {
      "anonymous": false,
      "inputs": [
        {
          "indexed": true,
          "internalType": "address",
          "name": "from",
          "type": "address"
        },
        {
          "indexed": false,
          "internalType": "uint256",
          "name": "amount",
          "type": "uint256"
        }
      ],
      "name": "VerificationAmountChanged",
      "type": "event"
    },
    {
      "anonymous": false,
      "inputs": [
        {
          "indexed": true,
          "internalType": "address",
          "name": "account",
          "type": "address"
        }
      ],
      "name": "VerificationPermissionGranted",
      "type": "event"
    },
    {
      "anonymous": false,
      "inputs": [
        {
          "indexed": true,
          "internalType": "address",
          "name": "account",
          "type": "address"
        }
      ],
      "name": "VerificationPermissionRevoked",
      "type": "event"
    },
    {
      "stateMutability": "payable",
      "type": "fallback"
    },
    {
      "inputs": [],
      "name": "addCustomer",
      "outputs": [],
      "stateMutability": "nonpayable",
      "type": "function"
    },
    {
      "inputs": [],
      "name": "addDistributor",
      "outputs": [],
      "stateMutability": "nonpayable",
      "type": "function"
    },
    {
      "inputs": [],
      "name": "addFunds",
      "outputs": [],
      "stateMutability": "payable",
      "type": "function"
    },
    {
      "inputs": [],
      "name": "addManufacturer",
      "outputs": [],
      "stateMutability": "nonpayable",
      "type": "function"
    },
    {
      "inputs": [],
      "name": "addRetailer",
      "outputs": [],
      "stateMutability": "nonpayable",
      "type": "function"
    },
    {
      "inputs": [],
      "name": "admin",
      "outputs": [
        {
          "internalType": "address",
          "name": "",
          "type": "address"
        }
      ],
      "stateMutability": "view",
      "type": "function"
    },
    {
      "inputs": [
        {
          "internalType": "uint256",
          "name": "_productID",
          "type": "uint256"
        },
        {
          "internalType": "uint256",
          "name": "_newTransactionID",
          "type": "uint256"
        }
      ],
      "name": "changeBankTransactionID",
      "outputs": [],
      "stateMutability": "nonpayable",
      "type": "function"
    },
    {
      "inputs": [
        {
          "internalType": "uint256",
          "name": "_productID",
          "type": "uint256"
        }
      ],
      "name": "changeNotOnSale",
      "outputs": [],
      "stateMutability": "nonpayable",
      "type": "function"
    },
    {
      "inputs": [
        {
          "internalType": "uint256",
          "name": "_productID",
          "type": "uint256"
        }
      ],
      "name": "changeOnSale",
      "outputs": [],
      "stateMutability": "nonpayable",
      "type": "function"
    },
    {
      "inputs": [
        {
          "internalType": "uint256",
          "name": "_productID",
          "type": "uint256"
        },
        {
          "internalType": "uint256",
          "name": "_newCertificationPrice",
          "type": "uint256"
        }
      ],
      "name": "changeOnSaleRetailer",
      "outputs": [],
      "stateMutability": "nonpayable",
      "type": "function"
    },
    {
      "inputs": [
        {
          "internalType": "address",
          "name": "",
          "type": "address"
        }
      ],
      "name": "customers",
      "outputs": [
        {
          "internalType": "bool",
          "name": "",
          "type": "bool"
        }
      ],
      "stateMutability": "view",
      "type": "function"
    },
    {
      "inputs": [],
      "name": "defaultProductLocation",
      "outputs": [
        {
          "internalType": "enum Utils.ProductLocation",
          "name": "",
          "type": "uint8"
        }
      ],
      "stateMutability": "view",
      "type": "function"
    },
    {
      "inputs": [],
      "name": "defaultProductStage",
      "outputs": [
        {
          "internalType": "enum Utils.ProductStage",
          "name": "",
          "type": "uint8"
        }
      ],
      "stateMutability": "view",
      "type": "function"
    },
    {
      "inputs": [
        {
          "internalType": "address",
          "name": "",
          "type": "address"
        }
      ],
      "name": "distributors",
      "outputs": [
        {
          "internalType": "bool",
          "name": "",
          "type": "bool"
        }
      ],
      "stateMutability": "view",
      "type": "function"
    },
    {
      "inputs": [
        {
          "internalType": "address",
          "name": "",
          "type": "address"
        }
      ],
      "name": "entityVerificationPermission",
      "outputs": [
        {
          "internalType": "bool",
          "name": "",
          "type": "bool"
        }
      ],
      "stateMutability": "view",
      "type": "function"
    },
    {
      "inputs": [],
      "name": "getCertificationPercentage",
      "outputs": [
        {
          "internalType": "uint256",
          "name": "",
          "type": "uint256"
        }
      ],
      "stateMutability": "view",
      "type": "function"
    },
    {
      "inputs": [],
      "name": "getSmartSupplyBalance",
      "outputs": [
        {
          "internalType": "uint256",
          "name": "",
          "type": "uint256"
        }
      ],
      "stateMutability": "view",
      "type": "function"
    },
    {
      "inputs": [],
      "name": "getVerificationAmount",
      "outputs": [
        {
          "internalType": "uint256",
          "name": "",
          "type": "uint256"
        }
      ],
      "stateMutability": "view",
      "type": "function"
    },
    {
      "inputs": [
        {
          "internalType": "address",
          "name": "account",
          "type": "address"
        }
      ],
      "name": "grantVerificationPermission",
      "outputs": [],
      "stateMutability": "nonpayable",
      "type": "function"
    },
    {
      "inputs": [
        {
          "internalType": "address",
          "name": "account",
          "type": "address"
        }
      ],
      "name": "isCustomer",
      "outputs": [
        {
          "internalType": "bool",
          "name": "",
          "type": "bool"
        }
      ],
      "stateMutability": "view",
      "type": "function"
    },
    {
      "inputs": [
        {
          "internalType": "address",
          "name": "account",
          "type": "address"
        }
      ],
      "name": "isDistributor",
      "outputs": [
        {
          "internalType": "bool",
          "name": "",
          "type": "bool"
        }
      ],
      "stateMutability": "view",
      "type": "function"
    },
    {
      "inputs": [
        {
          "internalType": "address",
          "name": "account",
          "type": "address"
        }
      ],
      "name": "isManufacturer",
      "outputs": [
        {
          "internalType": "bool",
          "name": "",
          "type": "bool"
        }
      ],
      "stateMutability": "view",
      "type": "function"
    },
    {
      "inputs": [
        {
          "internalType": "address",
          "name": "account",
          "type": "address"
        }
      ],
      "name": "isRetailer",
      "outputs": [
        {
          "internalType": "bool",
          "name": "",
          "type": "bool"
        }
      ],
      "stateMutability": "view",
      "type": "function"
    },
    {
      "inputs": [
        {
          "internalType": "address",
          "name": "account",
          "type": "address"
        }
      ],
      "name": "isVerificationPermitted",
      "outputs": [
        {
          "internalType": "bool",
          "name": "",
          "type": "bool"
        }
      ],
      "stateMutability": "view",
      "type": "function"
    },
    {
      "inputs": [
        {
          "internalType": "address",
          "name": "account",
          "type": "address"
        }
      ],
      "name": "isVerified",
      "outputs": [
        {
          "internalType": "bool",
          "name": "",
          "type": "bool"
        }
      ],
      "stateMutability": "view",
      "type": "function"
    },
    {
      "inputs": [
        {
          "internalType": "address",
          "name": "",
          "type": "address"
        }
      ],
      "name": "manufacturers",
      "outputs": [
        {
          "internalType": "bool",
          "name": "",
          "type": "bool"
        }
      ],
      "stateMutability": "view",
      "type": "function"
    },
    {
      "inputs": [
        {
          "internalType": "uint256",
          "name": "_productID",
          "type": "uint256"
        },
        {
          "internalType": "uint256",
          "name": "_productUID",
          "type": "uint256"
        }
      ],
      "name": "produceProduct",
      "outputs": [],
      "stateMutability": "nonpayable",
      "type": "function"
    },
    {
      "inputs": [
        {
          "internalType": "uint256",
          "name": "",
          "type": "uint256"
        }
      ],
      "name": "products",
      "outputs": [
        {
          "internalType": "uint256",
          "name": "productID",
          "type": "uint256"
        },
        {
          "internalType": "uint256",
          "name": "productUID",
          "type": "uint256"
        },
        {
          "internalType": "address",
          "name": "previousOwner",
          "type": "address"
        },
        {
          "internalType": "address",
          "name": "currentOwner",
          "type": "address"
        },
        {
          "internalType": "uint256",
          "name": "creationDate",
          "type": "uint256"
        },
        {
          "internalType": "uint256",
          "name": "certificationPrice",
          "type": "uint256"
        },
        {
          "internalType": "enum Utils.ProductStage",
          "name": "productStage",
          "type": "uint8"
        },
        {
          "internalType": "enum Utils.ProductLocation",
          "name": "productLocation",
          "type": "uint8"
        },
        {
          "components": [
            {
              "internalType": "address",
              "name": "manufacturer",
              "type": "address"
            },
            {
              "internalType": "address",
              "name": "distributor",
              "type": "address"
            },
            {
              "internalType": "address",
              "name": "retailer",
              "type": "address"
            },
            {
              "internalType": "address",
              "name": "customer",
              "type": "address"
            }
          ],
          "internalType": "struct Utils.Ownerships",
          "name": "ownerships",
          "type": "tuple"
        },
        {
          "components": [
            {
              "internalType": "uint256",
              "name": "distributorBankTransactionID",
              "type": "uint256"
            },
            {
              "internalType": "uint256",
              "name": "retailerBankTransactionID",
              "type": "uint256"
            }
          ],
          "internalType": "struct Utils.TransactionIDs",
          "name": "transactionIDs",
          "type": "tuple"
        },
        {
          "components": [
            {
              "internalType": "bool",
              "name": "manufacturerRewarded",
              "type": "bool"
            },
            {
              "internalType": "bool",
              "name": "distributorRewarded",
              "type": "bool"
            },
            {
              "internalType": "bool",
              "name": "retailerRewarded",
              "type": "bool"
            }
          ],
          "internalType": "struct Utils.ProductRewards",
          "name": "rewards",
          "type": "tuple"
        }
      ],
      "stateMutability": "view",
      "type": "function"
    },
    {
      "inputs": [
        {
          "internalType": "uint256",
          "name": "_productID",
          "type": "uint256"
        }
      ],
      "name": "purchaseProduct",
      "outputs": [],
      "stateMutability": "payable",
      "type": "function"
    },
    {
      "inputs": [
        {
          "internalType": "uint256",
          "name": "_productID",
          "type": "uint256"
        }
      ],
      "name": "receiveProduct",
      "outputs": [],
      "stateMutability": "nonpayable",
      "type": "function"
    },
    {
      "inputs": [],
      "name": "removeCustomer",
      "outputs": [],
      "stateMutability": "nonpayable",
      "type": "function"
    },
    {
      "inputs": [],
      "name": "removeDistributor",
      "outputs": [],
      "stateMutability": "nonpayable",
      "type": "function"
    },
    {
      "inputs": [],
      "name": "removeManufacturer",
      "outputs": [],
      "stateMutability": "nonpayable",
      "type": "function"
    },
    {
      "inputs": [],
      "name": "removeRetailer",
      "outputs": [],
      "stateMutability": "nonpayable",
      "type": "function"
    },
    {
      "inputs": [
        {
          "internalType": "address",
          "name": "account",
          "type": "address"
        }
      ],
      "name": "removeVerification",
      "outputs": [],
      "stateMutability": "nonpayable",
      "type": "function"
    },
    {
      "inputs": [
        {
          "internalType": "address",
          "name": "",
          "type": "address"
        }
      ],
      "name": "retailers",
      "outputs": [
        {
          "internalType": "bool",
          "name": "",
          "type": "bool"
        }
      ],
      "stateMutability": "view",
      "type": "function"
    },
    {
      "inputs": [
        {
          "internalType": "address",
          "name": "account",
          "type": "address"
        }
      ],
      "name": "revokeVerificationPermission",
      "outputs": [],
      "stateMutability": "nonpayable",
      "type": "function"
    },
    {
      "inputs": [
        {
          "internalType": "uint256",
          "name": "_percentage",
          "type": "uint256"
        }
      ],
      "name": "setCertificationPercentage",
      "outputs": [],
      "stateMutability": "nonpayable",
      "type": "function"
    },
    {
      "inputs": [
        {
          "internalType": "uint256",
          "name": "_amount",
          "type": "uint256"
        }
      ],
      "name": "setVerificationAmount",
      "outputs": [],
      "stateMutability": "nonpayable",
      "type": "function"
    },
    {
      "inputs": [
        {
          "internalType": "uint256",
          "name": "_productID",
          "type": "uint256"
        },
        {
          "internalType": "address",
          "name": "receiver",
          "type": "address"
        }
      ],
      "name": "shipProduct",
      "outputs": [],
      "stateMutability": "nonpayable",
      "type": "function"
    },
    {
      "inputs": [],
      "name": "smartSupplyBalance",
      "outputs": [
        {
          "internalType": "uint256",
          "name": "",
          "type": "uint256"
        }
      ],
      "stateMutability": "view",
      "type": "function"
    },
    {
      "inputs": [
        {
          "internalType": "address",
          "name": "",
          "type": "address"
        }
      ],
      "name": "verificationStatus",
      "outputs": [
        {
          "internalType": "bool",
          "name": "",
          "type": "bool"
        }
      ],
      "stateMutability": "view",
      "type": "function"
    },
    {
      "inputs": [],
      "name": "verifyEntity",
      "outputs": [],
      "stateMutability": "payable",
      "type": "function"
    },
    {
      "inputs": [
        {
          "internalType": "uint256",
          "name": "amount",
          "type": "uint256"
        }
      ],
      "name": "withdrawFunds",
      "outputs": [],
      "stateMutability": "nonpayable",
      "type": "function"
    },
    {
      "stateMutability": "payable",
      "type": "receive"
    }
  ],
  "bytecode": "0x608060405266b1a2bc2ec50000600255600a6003819055805461ffff1916905534801561002b57600080fd5b50600080546001600160a01b0319163317905561431a8061004d6000396000f3fe6080604052600436106102eb5760003560e01c80637bd6221f11610184578063b6d07385116100d6578063ceecd5961161008a578063f851a44011610064578063f851a440146109f5578063f89620e114610a2d578063fc9cc6e214610a4257610331565b8063ceecd596146109aa578063e6361a8e146109bf578063f7d139cb146109d557610331565b8063c18e0ed9116100bb578063c18e0ed914610933578063c4cb905014610953578063cc6427841461097a57610331565b8063b6d07385146108ca578063b9209e33146108fa57610331565b80639bdc080111610138578063a315bd0a11610112578063a315bd0a14610865578063ac52480e14610885578063adafb3d41461089a57610331565b80639bdc080114610833578063a26759cb14610848578063a2c66c361461085057610331565b80638f0c86fa116101695780638f0c86fa146107b557806397cf3c37146107ee5780639a268f351461080357610331565b80637bd6221f146107675780638d426a31146107a057610331565b80632d156a8d1161023d5780635da09b88116101f1578063762b51db116101cb578063762b51db146106145780637acc0b20146106405780637ad844751461075257610331565b80635da09b881461058b5780636b2a5c35146105c45780636b5eb09c146105e457610331565b806338e76a031161022257806338e76a0314610538578063410a0a4b1461054b5780634d8322c71461056b57610331565b80632d156a8d146104e8578063336989ae1461050857610331565b806323630f7b1161029f57806328fd5e831161027957806328fd5e8314610487578063293be2dd146104c057806329d78328146104c857610331565b806323630f7b1461043257806326e1066e1461045257806328443b181461047257610331565b806316479b85116102d057806316479b85146103b057806317d4a491146103c55780631c328f231461041357610331565b80630e8336dd14610370578063155dd5ee1461039057610331565b366103315761032f6040518060400160405280600e81526020017f2d2d2d2d2d20726563656976653a00000000000000000000000000000000000081525034610a62565b005b61032f6040518060400160405280600f81526020017f2d2d2d2d2d2066616c6c6261636b3a000000000000000000000000000000000081525034610a62565b34801561037c57600080fd5b5061032f61038b366004613aae565b610ad9565b34801561039c57600080fd5b5061032f6103ab366004613ada565b610df2565b3480156103bc57600080fd5b5061032f610efd565b3480156103d157600080fd5b506103fe6103e0366004613af3565b6001600160a01b031660009081526004602052604090205460ff1690565b60405190151581526020015b60405180910390f35b34801561041f57600080fd5b506003545b60405190815260200161040a565b34801561043e57600080fd5b5061032f61044d366004613ada565b610ff8565b34801561045e57600080fd5b5061032f61046d366004613af3565b6112a3565b34801561047e57600080fd5b50600254610424565b34801561049357600080fd5b506103fe6104a2366004613af3565b6001600160a01b031660009081526007602052604090205460ff1690565b61032f611355565b3480156104d457600080fd5b5061032f6104e3366004613ada565b61160e565b3480156104f457600080fd5b5061032f610503366004613ada565b611a2a565b34801561051457600080fd5b506103fe610523366004613af3565b60076020526000908152604090205460ff1681565b61032f610546366004613ada565b611d5f565b34801561055757600080fd5b5061032f610566366004613b0e565b61220b565b34801561057757600080fd5b5061032f610586366004613ada565b612526565b34801561059757600080fd5b506103fe6105a6366004613af3565b6001600160a01b031660009081526006602052604090205460ff1690565b3480156105d057600080fd5b5061032f6105df366004613b0e565b6125cd565b3480156105f057600080fd5b506103fe6105ff366004613af3565b60046020526000908152604090205460ff1681565b34801561062057600080fd5b50600a5461063390610100900460ff1681565b60405161040a9190613b5a565b34801561064c57600080fd5b5061073b61065b366004613ada565b600b6020818152600092835260409283902080546001820154600283015460038401546004850154600586015460068701548a51608081018c5260078901546001600160a01b03908116825260088a01548116828c015260098a01548116828e0152600a8a015481166060808401919091528d51808f018f529c8b01548d52600c8b01548d8d01528d519081018e52600d909a015460ff80821615158c52610100808304821615159d8d019d909d5262010000909104811615159d8b019d909d52979b969a9588169997909416979296919580821695929091041692918b565b60405161040a9b9a99989796959493929190613b7e565b34801561075e57600080fd5b5061032f6128f8565b34801561077357600080fd5b506103fe610782366004613af3565b6001600160a01b031660009081526008602052604090205460ff1690565b3480156107ac57600080fd5b50600154610424565b3480156107c157600080fd5b506103fe6107d0366004613af3565b6001600160a01b031660009081526005602052604090205460ff1690565b3480156107fa57600080fd5b5061032f61293a565b34801561080f57600080fd5b506103fe61081e366004613af3565b60066020526000908152604090205460ff1681565b34801561083f57600080fd5b5061032f61299e565b61032f612a99565b34801561085c57600080fd5b5061032f612b5d565b34801561087157600080fd5b5061032f610880366004613b0e565b612bc1565b34801561089157600080fd5b5061032f612eeb565b3480156108a657600080fd5b506103fe6108b5366004613af3565b60096020526000908152604090205460ff1681565b3480156108d657600080fd5b506103fe6108e5366004613af3565b60086020526000908152604090205460ff1681565b34801561090657600080fd5b506103fe610915366004613af3565b6001600160a01b031660009081526009602052604090205460ff1690565b34801561093f57600080fd5b5061032f61094e366004613af3565b612f4f565b34801561095f57600080fd5b50600a5461096d9060ff1681565b60405161040a9190613c4a565b34801561098657600080fd5b506103fe610995366004613af3565b60056020526000908152604090205460ff1681565b3480156109b657600080fd5b5061032f613004565b3480156109cb57600080fd5b5061042460015481565b3480156109e157600080fd5b5061032f6109f0366004613af3565b6130dd565b348015610a0157600080fd5b50600054610a15906001600160a01b031681565b6040516001600160a01b03909116815260200161040a565b348015610a3957600080fd5b5061032f6131f7565b348015610a4e57600080fd5b5061032f610a5d366004613ada565b6132f2565b610ad58282604051602401610a78929190613c58565b60408051601f198184030181529190526020810180517bffffffffffffffffffffffffffffffffffffffffffffffffffffffff167fb60e72cc00000000000000000000000000000000000000000000000000000000179052613392565b5050565b3360009081526004602052604090205460ff1680610b0657503360009081526005602052604090205460ff165b80610b2057503360009081526006602052604090205460ff165b610ba55760405162461bcd60e51b815260206004820152604560248201527f4f6e6c79206d616e756661637475726572732c206469737472696275746f727360448201527f206f722072657461696c6572732063616e20706572666f726d2074686973206160648201526431ba34b7b760d91b608482015260a4015b60405180910390fd5b60036000838152600b602052604090206006015460ff166005811115610bcd57610bcd613b30565b14610c405760405162461bcd60e51b815260206004820152603660248201527f50726f64756374206d7573742062652070757263686173656420627920736f6d60448201527f6520656e7469747920746f2062652073686970706564000000000000000000006064820152608401610b9c565b6000828152600b60205260409020600201546001600160a01b03163314610ccf5760405162461bcd60e51b815260206004820152602c60248201527f50726f647563742063616e206f6e6c792062652073686970706564206279207460448201527f6865206f6c64206f776e657200000000000000000000000000000000000000006064820152608401610b9c565b610cda82338361339e565b6000828152600b602090815260408083206006908101805461ffff191661040417905533845290915290205460ff1615610da2576000828152600b6020526040812060050154610d2b906004613663565b6000848152600b6020526040902060070154909150610d54906001600160a01b0316848361368c565b6000838152600b6020526040902060080154610d7a906001600160a01b0316848361368c565b6000838152600b6020526040902060090154610da0906001600160a01b0316848361368c565b505b604080518381523360208201526001600160a01b038316918101919091527fae22003d449cfb842a57062f1f6ae06a4abdabcdfb0b6e02deee5584df17b277906060015b60405180910390a15050565b6000546001600160a01b03163314610e5b5760405162461bcd60e51b815260206004820152602660248201527f4f6e6c79207468652061646d696e2063616e20706572666f726d20746869732060448201526530b1ba34b7b760d11b6064820152608401610b9c565b600154811115610ead5760405162461bcd60e51b815260206004820152601260248201527f496e73756666696369656e742066756e647300000000000000000000000000006044820152606401610b9c565b8060016000828254610ebf9190613ccb565b9091555050600080546040516001600160a01b039091169183156108fc02918491818181858888f19350505050158015610ad5573d6000803e3d6000fd5b3360009081526006602052604090205460ff1680610f2557506000546001600160a01b031633145b610f975760405162461bcd60e51b815260206004820152603360248201527f4f6e6c792072657461696c657273206f72207468652061646d696e2063616e2060448201527f706572666f726d207468697320616374696f6e000000000000000000000000006064820152608401610b9c565b336000818152600660209081526040808320805460ff199081169091556008835281842080548216905560099092528083208054909216909155517fdb7176e79cffef81cb01767dd0447a0b24bb72ca9778d4b245581086b2a7e6db9190a2565b3360009081526004602052604090205460ff168061102557503360009081526005602052604090205460ff165b8061103f57503360009081526006602052604090205460ff165b6110bf5760405162461bcd60e51b815260206004820152604560248201527f4f6e6c79206d616e756661637475726572732c206469737472696275746f727360448201527f206f722072657461696c6572732063616e20706572666f726d2074686973206160648201526431ba34b7b760d91b608482015260a401610b9c565b6000818152600b60205260409020600301546001600160a01b03163314611150576040805162461bcd60e51b81526020600482015260248101919091527f4f6e6c79207468652063757272656e74206f776e65722063616e206368616e6760448201527f65207468652070726f6475637420737461676520746f204e6f744f6e53616c656064820152608401610b9c565b60036000828152600b602052604090206006015460ff16600581111561117857611178613b30565b141580156111ac575060046000828152600b602052604090206006015460ff1660058111156111a9576111a9613b30565b14155b6112445760405162461bcd60e51b815260206004820152604860248201527f50726f64756374206d757374206e6f7420626520696e2050757263686173656460448201527f206f72205368697070656420737461676520746f206368616e676520746f204e60648201527f6f744f6e53616c65000000000000000000000000000000000000000000000000608482015260a401610b9c565b6000818152600b6020526040902060060180546002919060ff19166001830217905550604080518281523360208201527f34dfd957cdce058c374027e3a6f6ab1771b40b4bcd043a96d4d0f98750b4bfd691015b60405180910390a150565b6000546001600160a01b0316331461130c5760405162461bcd60e51b815260206004820152602660248201527f4f6e6c79207468652061646d696e2063616e20706572666f726d20746869732060448201526530b1ba34b7b760d11b6064820152608401610b9c565b6001600160a01b038116600081815260086020526040808220805460ff19169055517f31ef9270602119277454261e5a5bff0e43801de289dcf5d07dcf5aefc5c151d89190a250565b3360009081526008602052604090205460ff166113da5760405162461bcd60e51b815260206004820152603060248201527f456e74697479206861736e277420676976656e20697473206964656e7469666960448201527f636174696f6e2070726f6f6620796574000000000000000000000000000000006064820152608401610b9c565b3360009081526007602052604090205460ff16156114605760405162461bcd60e51b815260206004820152603060248201527f437573746f6d65727320617265206e6f7420616c6c6f77656420746f2070657260448201527f666f726d207468697320616374696f6e000000000000000000000000000000006064820152608401610b9c565b600060405161146e906139b7565b604051809103906000f08015801561148a573d6000803e3d6000fd5b5090506000816001600160a01b03166328443b186040518163ffffffff1660e01b815260040160206040518083038186803b1580156114c857600080fd5b505afa1580156114dc573d6000803e3d6000fd5b505050506040513d601f19601f820116820180604052508101906115009190613ce2565b9050803410156115785760405162461bcd60e51b815260206004820152602560248201527f496e73756666696369656e74207061796d656e7420666f72207665726966696360448201527f6174696f6e0000000000000000000000000000000000000000000000000000006064820152608401610b9c565b6000349050806001600082825461158f9190613cfb565b909155505060405181815233907f8fe10ae416f22f5e5220b0018a6c1d4ff534d6aa3a471f2a20cb7747fe63e5b99060200160405180910390a233600081815260096020526040808220805460ff19166001179055517fa3710f2b2505ddd76d00993c1fad93af4104d857fa3e237c9548c028c44935cc9190a2505050565b3360009081526007602052604090205460ff168061163b57503360009081526005602052604090205460ff165b8061165557503360009081526006602052604090205460ff165b6116d15760405162461bcd60e51b815260206004820152604160248201527f4f6e6c7920637573746f6d6572732c206469737472696275746f7273206f722060448201527f72657461696c6572732063616e20706572666f726d207468697320616374696f6064820152603760f91b608482015260a401610b9c565b60046000828152600b602052604090206006015460ff1660058111156116f9576116f9613b30565b1461176c5760405162461bcd60e51b815260206004820152603160248201527f50726f64756374206d75737420626520696e202753686970706564272073746160448201527f676520746f2062652072656365697665640000000000000000000000000000006064820152608401610b9c565b60046000828152600b6020526040902060060154610100900460ff16600481111561179957611799613b30565b1461180c5760405162461bcd60e51b815260206004820152603560248201527f50726f64756374206d75737420626520696e20275368697070696e6727206c6f60448201527f636174696f6e20746f20626520726563656976656400000000000000000000006064820152608401610b9c565b6000818152600b60205260409020600301546001600160a01b0316331461189b5760405162461bcd60e51b815260206004820152602e60248201527f4f6e6c79207468652063757272656e74206f776e65722063616e20726563656960448201527f7665207468652070726f647563740000000000000000000000000000000000006064820152608401610b9c565b6000818152600b6020526040902060068101805460ff1916600517905560080154336001600160a01b0390911614156118f9576000818152600b6020526040902060060180546001919061ff001916610100835b02179055506119f5565b6000818152600b60205260409020600901546001600160a01b0316331415611940576000818152600b6020526040902060060180546002919061ff001916610100836118ef565b6000818152600b60205260409020600a01546001600160a01b0316331415611987576000818152600b6020526040902060060180546003919061ff001916610100836118ef565b60405162461bcd60e51b815260206004820152602b60248201527f496e76616c69642063757272656e74206f776e657220666f722075706461746960448201527f6e67206c6f636174696f6e0000000000000000000000000000000000000000006064820152608401610b9c565b604080518281523360208201527f7eb38f83fec1bdc45e831c15e9e3eb2369028929a0e38e3709b7e710362f823b9101611298565b3360009081526004602052604090205460ff1680611a5757503360009081526005602052604090205460ff165b80611a7157503360009081526006602052604090205460ff165b611af15760405162461bcd60e51b815260206004820152604560248201527f4f6e6c79206d616e756661637475726572732c206469737472696275746f727360448201527f206f722072657461696c6572732063616e20706572666f726d2074686973206160648201526431ba34b7b760d91b608482015260a401610b9c565b6000818152600b60205260409020600301546001600160a01b03163314611b805760405162461bcd60e51b815260206004820152603d60248201527f4f6e6c79207468652063757272656e74206f776e65722063616e206368616e6760448201527f65207468652070726f6475637420737461676520746f204f6e53616c650000006064820152608401610b9c565b3360009081526006602052604090205460ff1615611c2c5760405162461bcd60e51b815260206004820152604860248201527f546f20666c6167207468652070726f64756374206f6e53616c6520757365207460448201527f6865206368616e67654f6e53616c6552657461696c65722066756e6374696f6e60648201527f20696e7374656164000000000000000000000000000000000000000000000000608482015260a401610b9c565b60036000828152600b602052604090206006015460ff166005811115611c5457611c54613b30565b14158015611c88575060046000828152600b602052604090206006015460ff166005811115611c8557611c85613b30565b14155b611d085760405162461bcd60e51b815260206004820152604560248201527f50726f64756374206d757374206e6f7420626520696e2050757263686173656460448201527f206f72205368697070656420737461676520746f206368616e676520746f204f6064820152646e53616c6560d81b608482015260a401610b9c565b6000818152600b6020526040902060060180546001919060ff191682800217905550604080518281523360208201527f5ea9686d3fd9cc47111972119dae21c738cc8467f126b047ba099f2e986dc84f9101611298565b3360009081526007602052604090205460ff1680611d8c57503360009081526005602052604090205460ff165b80611da657503360009081526006602052604090205460ff165b611e225760405162461bcd60e51b815260206004820152604160248201527f4f6e6c7920637573746f6d6572732c206469737472696275746f7273206f722060448201527f72657461696c6572732063616e20706572666f726d207468697320616374696f6064820152603760f91b608482015260a401610b9c565b6000818152600b60205260409020600301546001600160a01b0316331415611eb25760405162461bcd60e51b815260206004820152602b60248201527f43757272656e74206f776e6572732063616e277420627579207468656972206f60448201527f776e2070726f64756374730000000000000000000000000000000000000000006064820152608401610b9c565b60016000828152600b602052604090206006015460ff166005811115611eda57611eda613b30565b14611f4d5760405162461bcd60e51b815260206004820152602760248201527f50726f64756374206d757374206265204f6e2053616c6520746f20626520707560448201527f72636861736564000000000000000000000000000000000000000000000000006064820152608401610b9c565b3360009081526007602052604090205460ff16801561203a576000828152600b6020526040902060050154341015611fed5760405162461bcd60e51b815260206004820152602a60248201527f496e73756666696369656e742066756e647320746f207075726368617365207460448201527f68652070726f64756374000000000000000000000000000000000000000000006064820152608401610b9c565b3460016000828254611fff9190613cfb565b909155505060405134815233907f8fe10ae416f22f5e5220b0018a6c1d4ff534d6aa3a471f2a20cb7747fe63e5b99060200160405180910390a25b6000828152600b60209081526040808320600681018054600360ff19909116811790915581018054600290920180546001600160a01b0384166001600160a01b031991821617909155339216821790558352600590915290205460ff16156120c2576000828152600b6020526040902060080180546001600160a01b031916331790556121ac565b3360009081526006602052604090205460ff1615612100576000828152600b6020526040902060090180546001600160a01b031916331790556121ac565b3360009081526007602052604090205460ff161561213e576000828152600b60205260409020600a0180546001600160a01b031916331790556121ac565b60405162461bcd60e51b815260206004820152602d60248201527f496e76616c696420726f6c6520666f72207570646174696e672070726f64756360448201527f7420696e666f726d6174696f6e000000000000000000000000000000000000006064820152608401610b9c565b6000828152600b60209081526040918290206002015482518581526001600160a01b039091169181019190915233918101919091527f405b8e92032184041314dcddf305e0d97d13b103d3fa162eb2b1c760760bdc0a90606001610de6565b3360009081526004602052604090205460ff168061223857503360009081526005602052604090205460ff165b8061225257503360009081526006602052604090205460ff165b6122d25760405162461bcd60e51b815260206004820152604560248201527f4f6e6c79206d616e756661637475726572732c206469737472696275746f727360448201527f206f722072657461696c6572732063616e20706572666f726d2074686973206160648201526431ba34b7b760d91b608482015260a401610b9c565b3360009081526006602052604090205460ff166123575760405162461bcd60e51b815260206004820152603160248201527f4f6e6c792072657461696c6572732063616e206368616e67652074686520636560448201527f7274696669636174696f6e2070726963650000000000000000000000000000006064820152608401610b9c565b6000828152600b60205260409020600301546001600160a01b031633146123e65760405162461bcd60e51b815260206004820152603960248201527f4f6e6c79207468652063757272656e74206f776e65722063616e206368616e6760448201527f65207468652063657274696669636174696f6e207072696365000000000000006064820152608401610b9c565b60036000838152600b602052604090206006015460ff16600581111561240e5761240e613b30565b14158015612442575060046000838152600b602052604090206006015460ff16600581111561243f5761243f613b30565b14155b6124c25760405162461bcd60e51b815260206004820152604560248201527f50726f64756374206d757374206e6f7420626520696e2050757263686173656460448201527f206f72205368697070656420737461676520746f206368616e676520746f204f6064820152646e53616c6560d81b608482015260a401610b9c565b6000828152600b602090815260409182902060068101805460ff19166001179055600501839055815184815233918101919091529081018290527fe4e344f6136444bd4df6c6ade9a7761739c9147339d73a3e0813d8f088d7185790606001610de6565b6000546001600160a01b0316331461258f5760405162461bcd60e51b815260206004820152602660248201527f4f6e6c79207468652061646d696e2063616e20706572666f726d20746869732060448201526530b1ba34b7b760d11b6064820152608401610b9c565b600281905560405181815233907fb77f58d7bdd9979ecd98ed048fc9d5657dfb51e810bb8c078af5b318a68bf1f4906020015b60405180910390a250565b3360009081526004602052604090205460ff16806125f557506000546001600160a01b031633145b6126675760405162461bcd60e51b815260206004820152603760248201527f4f6e6c79206d616e75666163747572657273206f72207468652061646d696e2060448201527f63616e20706572666f726d207468697320616374696f6e0000000000000000006064820152608401610b9c565b61266f6139c4565b8281526020810182905233606082018190526040820152426080820152600060a0820152600a5460c082019060ff1660058111156126af576126af613b30565b908160058111156126c2576126c2613b30565b905250600a5460e0820190610100900460ff1660048111156126e6576126e6613b30565b908160048111156126f9576126f9613b30565b90525060408051608080820183526000602080840182905283850182905260608085018390523385526101008701859052888352600b8252918590208651815590860151600180830191909155948601516002820180546001600160a01b03199081166001600160a01b03938416179091559287015160038301805490941691161790915590840151600482015560a084015160058083019190915560c0850151600683018054949587959293919260ff19169184908111156127be576127be613b30565b021790555060e082015160068201805461ff0019166101008360048111156127e8576127e8613b30565b02179055506101008281015180516007840180546001600160a01b03199081166001600160a01b039384161790915560208084015160088701805484169185169190911790556040808501516009880180548516918616919091179055606090940151600a8701805490931693169290921790556101208501518051600b860155810151600c850155610140909401518051600d9094018054828701519284015161ffff1990911695151561ff001916959095179115159093021762ff000019166201000093151593909302929092179055805186815233928101929092527f97c998f1009a742d52bd2b93e67352e2800f1b46a2a226b31cfa903ec93892f7910160405180910390a150505050565b33600081815260076020526040808220805460ff19166001179055517fcd118a02bd36f224f6f1b93812f78d2bbc2c2dc1bc0f60c176e3b4fe09f1483f9190a2565b336000818152600660209081526040808320805460ff199081166001179091556008835281842080548216905560099092528083208054909216909155517f71ae26cad02663e3d92efd6ec56031a80d74a20c0ab4183faa8bf262261c9baa9190a2565b3360009081526005602052604090205460ff16806129c657506000546001600160a01b031633145b612a385760405162461bcd60e51b815260206004820152603660248201527f4f6e6c79206469737472696275746f7273206f72207468652061646d696e206360448201527f616e20706572666f726d207468697320616374696f6e000000000000000000006064820152608401610b9c565b336000818152600560209081526040808320805460ff199081169091556008835281842080548216905560099092528083208054909216909155517f126174f6cf49c81cdb4a9214c6b8f037bef55b4ec31e4fc776cea2a1c8a88d599190a2565b60003411612b0f5760405162461bcd60e51b815260206004820152602160248201527f46756e64732073656e74206d7573742062652067726561746572207468616e2060448201527f30000000000000000000000000000000000000000000000000000000000000006064820152608401610b9c565b3460016000828254612b219190613cfb565b909155505060405134815233907f8fe10ae416f22f5e5220b0018a6c1d4ff534d6aa3a471f2a20cb7747fe63e5b99060200160405180910390a2565b336000818152600460209081526040808320805460ff199081166001179091556008835281842080548216905560099092528083208054909216909155517f561138658ca49a8540dc70dcfe64c9026c1c5b9344642242dd6562970f9c12789190a2565b6000828152600b60209081526040808320600a8101546008820154600990920154338652600590945291909320546001600160a01b03918216938216929091169060ff168015612c195750336001600160a01b038316145b15612c38576000858152600b6020819052604090912001849055612ceb565b3360009081526006602052604090205460ff168015612c5f5750336001600160a01b038216145b15612c7d576000858152600b60205260409020600c01849055612ceb565b60405162461bcd60e51b815260206004820152603c60248201527f43616c6c657220646f6573206e6f74206861766520746865207269676874207460448201527f6f206368616e67652062616e6b207472616e73616374696f6e204944000000006064820152608401610b9c565b6000858152600b6020526040812060050154612d08906004613663565b3360009081526005602052604090205490915060ff168015612d325750336001600160a01b038416145b8015612d5557506000868152600b60205260409020600d0154610100900460ff16155b8015612dc857506001600160a01b03841615801590612dc8575060046000878152600b602052604090206006015460ff166005811115612d9757612d97613b30565b1480612dc8575060056000878152600b602052604090206006015460ff166005811115612dc657612dc6613b30565b145b15612ddd57612dd833878361368c565b612eab565b3360009081526006602052604090205460ff168015612e045750336001600160a01b038316145b8015612e2857506000868152600b60205260409020600d015462010000900460ff16155b8015612e9b57506001600160a01b03841615801590612e9b575060046000878152600b602052604090206006015460ff166005811115612e6a57612e6a613b30565b1480612e9b575060056000878152600b602052604090206006015460ff166005811115612e9957612e99613b30565b145b15612eab57612eab33878361368c565b604080518781523360208201527fdcd2f9ad8329d46769c3238811ad3ca487334dd220ad05263c0f9ea1a19ccc87910160405180910390a1505050505050565b336000818152600560209081526040808320805460ff199081166001179091556008835281842080548216905560099092528083208054909216909155517fddbf200aa634dc3fb81cfd68583dd1040d1c751d335e1d86b631bde3e977fea89190a2565b6000546001600160a01b03163314612fb85760405162461bcd60e51b815260206004820152602660248201527f4f6e6c79207468652061646d696e2063616e20706572666f726d20746869732060448201526530b1ba34b7b760d11b6064820152608401610b9c565b6001600160a01b038116600081815260086020526040808220805460ff19166001179055517f58169284ef5a04f8626278f2f2b6c44cf8f2d30da1e96100b7016764ad6130689190a250565b3360009081526007602052604090205460ff168061302c57506000546001600160a01b031633145b61309e5760405162461bcd60e51b815260206004820152603360248201527f4f6e6c7920637573746f6d657273206f72207468652061646d696e2063616e2060448201527f706572666f726d207468697320616374696f6e000000000000000000000000006064820152608401610b9c565b33600081815260076020526040808220805460ff19169055517fb4c88a9c5cd906354abdd1cc29e4f94c6c4de90754fb80ce51e6a33417bc81b69190a2565b6000546001600160a01b031633146131465760405162461bcd60e51b815260206004820152602660248201527f4f6e6c79207468652061646d696e2063616e20706572666f726d20746869732060448201526530b1ba34b7b760d11b6064820152608401610b9c565b6001600160a01b03811660009081526009602052604090205460ff166131ae5760405162461bcd60e51b815260206004820152601e60248201527f456e7469747920697320616c7265616479206e6f7420766572696669656400006044820152606401610b9c565b6001600160a01b038116600081815260096020526040808220805460ff19169055517f4e7593da9155b5afbbc5e5bcaaf40b112e7529d1233f4c92780fbf49682842469190a250565b3360009081526004602052604090205460ff168061321f57506000546001600160a01b031633145b6132915760405162461bcd60e51b815260206004820152603760248201527f4f6e6c79206d616e75666163747572657273206f72207468652061646d696e2060448201527f63616e20706572666f726d207468697320616374696f6e0000000000000000006064820152608401610b9c565b336000818152600460209081526040808320805460ff199081169091556008835281842080548216905560099092528083208054909216909155517f2fed5abf6a80d6dfe30b4895481b2fc5d7dce5f8f7b931832f4a2947d5040c7f9190a2565b6000546001600160a01b0316331461335b5760405162461bcd60e51b815260206004820152602660248201527f4f6e6c79207468652061646d696e2063616e20706572666f726d20746869732060448201526530b1ba34b7b760d11b6064820152608401610b9c565b600381905560405181815233907f34949851b962a7f1c28710ba5e9ba656f8257419a4c3da8b9c6bd206856d1e27906020016125c2565b61339b81613996565b50565b816001600160a01b0316816001600160a01b031614156134265760405162461bcd60e51b815260206004820152603e60248201527f50726f647563742063616e6e6f74206265207368697070656420746f2074686560448201527f2073616d65206164647265737320617320746865206f6c64206f776e657200006064820152608401610b9c565b6000838152600b60205260409020600301546001600160a01b038281169116146134b85760405162461bcd60e51b815260206004820152602c60248201527f50726f64756374206d757374206265207368697070656420746f20746865206360448201527f757272656e74206f776e657200000000000000000000000000000000000000006064820152608401610b9c565b6000838152600b60205260409020600201546001600160a01b0383811691161480156135ec57506000838152600b60205260409020600701546001600160a01b0383811691161480156135345750600080848152600b6020526040902060060154610100900460ff16600481111561353257613532613b30565b145b8061359057506000838152600b60205260409020600801546001600160a01b038381169116148015613590575060016000848152600b6020526040902060060154610100900460ff16600481111561358e5761358e613b30565b145b806135ec57506000838152600b60205260409020600901546001600160a01b0383811691161480156135ec575060026000848152600b6020526040902060060154610100900460ff1660048111156135ea576135ea613b30565b145b61365e5760405162461bcd60e51b815260206004820152602a60248201527f496e76616c6964206f6c64206f776e6572206f72206c6f636174696f6e20666f60448201527f72207368697070696e67000000000000000000000000000000000000000000006064820152608401610b9c565b505050565b600081613671600282613d13565b61367b9190613d13565b6136859084613cfb565b9392505050565b6001600160a01b0383166136e25760405162461bcd60e51b815260206004820152601960248201527f496e76616c696420726563697069656e742061646472657373000000000000006044820152606401610b9c565b600081116137325760405162461bcd60e51b815260206004820152601660248201527f496e76616c6964207061796d656e7420616d6f756e74000000000000000000006044820152606401610b9c565b6001600160a01b03831660009081526004602052604090205460ff16156137ef576040516001600160a01b0384169082156108fc029083906000818181858888f19350505050158015613789573d6000803e3d6000fd5b506000828152600b6020908152604091829020600d01805460ff1916600117905581516001600160a01b03861681529081018390527f3ad0c8d1bbd63d54c5f14180eae95cab7c2420b2dbb90603a6e5d206668f52ec91015b60405180910390a1505050565b6001600160a01b03831660009081526005602052604090205460ff16801561382857506000828152600b60208190526040909120015415155b156138c2576040516001600160a01b0384169082156108fc029083906000818181858888f19350505050158015613863573d6000803e3d6000fd5b506000828152600b6020908152604091829020600d01805461ff00191661010017905581516001600160a01b03861681529081018390527f3ad0c8d1bbd63d54c5f14180eae95cab7c2420b2dbb90603a6e5d206668f52ec91016137e2565b6001600160a01b03831660009081526006602052604090205460ff1680156138fa57506000828152600b60205260409020600c015415155b1561365e576040516001600160a01b0384169082156108fc029083906000818181858888f19350505050158015613935573d6000803e3d6000fd5b506000828152600b6020908152604091829020600d01805462ff000019166201000017905581516001600160a01b03861681529081018390527f3ad0c8d1bbd63d54c5f14180eae95cab7c2420b2dbb90603a6e5d206668f52ec91016137e2565b60006a636f6e736f6c652e6c6f679050600080835160208501845afa505050565b6105af80613d3683390190565b604051806101600160405280600081526020016000815260200160006001600160a01b0316815260200160006001600160a01b03168152602001600081526020016000815260200160006005811115613a1f57613a1f613b30565b815260200160008152604080516080810182526000808252602082810182905292820181905260608201529101908152602001613a6f604051806040016040528060008152602001600081525090565b815260408051606081018252600080825260208281018290529282015291015290565b80356001600160a01b0381168114613aa957600080fd5b919050565b60008060408385031215613ac157600080fd5b82359150613ad160208401613a92565b90509250929050565b600060208284031215613aec57600080fd5b5035919050565b600060208284031215613b0557600080fd5b61368582613a92565b60008060408385031215613b2157600080fd5b50508035926020909101359150565b634e487b7160e01b600052602160045260246000fd5b60058110613b5657613b56613b30565b9052565b60208101613b688284613b46565b92915050565b60068110613b5657613b56613b30565b6000610220820190508c82528b60208301526001600160a01b03808c166040840152808b1660608401528960808401528860a0840152613bc160c0840189613b6e565b613bce60e0840188613b46565b855181166101008401526020860151811661012084015260408601518116610140840152606086015116610160830152613c1661018083018580518252602090810151910152565b825115156101c0830152602083015115156101e0830152604083015115156102008301529c9b505050505050505050505050565b60208101613b688284613b6e565b604081526000835180604084015260005b81811015613c865760208187018101516060868401015201613c69565b81811115613c98576000606083860101525b50602083019390935250601f91909101601f191601606001919050565b634e487b7160e01b600052601160045260246000fd5b600082821015613cdd57613cdd613cb5565b500390565b600060208284031215613cf457600080fd5b5051919050565b60008219821115613d0e57613d0e613cb5565b500190565b600082613d3057634e487b7160e01b600052601260045260246000fd5b50049056fe608060405266b1a2bc2ec50000600255600a60035534801561002057600080fd5b50600080546001600160a01b0319163317905561056d806100426000396000f3fe6080604052600436106100965760003560e01c80638d426a3111610069578063e6361a8e1161004e578063e6361a8e14610133578063f851a44014610149578063fc9cc6e21461018157600080fd5b80638d426a3114610116578063a26759cb1461012b57600080fd5b8063155dd5ee1461009b5780631c328f23146100bd57806328443b18146100e15780634d8322c7146100f6575b600080fd5b3480156100a757600080fd5b506100bb6100b63660046104c0565b6101a1565b005b3480156100c957600080fd5b506003545b6040519081526020015b60405180910390f35b3480156100ed57600080fd5b506002546100ce565b34801561010257600080fd5b506100bb6101113660046104c0565b6102b5565b34801561012257600080fd5b506001546100ce565b6100bb61035c565b34801561013f57600080fd5b506100ce60015481565b34801561015557600080fd5b50600054610169906001600160a01b031681565b6040516001600160a01b0390911681526020016100d8565b34801561018d57600080fd5b506100bb61019c3660046104c0565b610420565b6000546001600160a01b0316331461020f5760405162461bcd60e51b815260206004820152602660248201527f4f6e6c79207468652061646d696e2063616e20706572666f726d20746869732060448201526530b1ba34b7b760d11b60648201526084015b60405180910390fd5b6001548111156102615760405162461bcd60e51b815260206004820152601260248201527f496e73756666696369656e742066756e647300000000000000000000000000006044820152606401610206565b80600160008282546102739190610508565b9091555050600080546040516001600160a01b039091169183156108fc02918491818181858888f193505050501580156102b1573d6000803e3d6000fd5b5050565b6000546001600160a01b0316331461031e5760405162461bcd60e51b815260206004820152602660248201527f4f6e6c79207468652061646d696e2063616e20706572666f726d20746869732060448201526530b1ba34b7b760d11b6064820152608401610206565b600281905560405181815233907fb77f58d7bdd9979ecd98ed048fc9d5657dfb51e810bb8c078af5b318a68bf1f4906020015b60405180910390a250565b600034116103d25760405162461bcd60e51b815260206004820152602160248201527f46756e64732073656e74206d7573742062652067726561746572207468616e2060448201527f30000000000000000000000000000000000000000000000000000000000000006064820152608401610206565b34600160008282546103e4919061051f565b909155505060405134815233907f8fe10ae416f22f5e5220b0018a6c1d4ff534d6aa3a471f2a20cb7747fe63e5b99060200160405180910390a2565b6000546001600160a01b031633146104895760405162461bcd60e51b815260206004820152602660248201527f4f6e6c79207468652061646d696e2063616e20706572666f726d20746869732060448201526530b1ba34b7b760d11b6064820152608401610206565b600381905560405181815233907f34949851b962a7f1c28710ba5e9ba656f8257419a4c3da8b9c6bd206856d1e2790602001610351565b6000602082840312156104d257600080fd5b5035919050565b7f4e487b7100000000000000000000000000000000000000000000000000000000600052601160045260246000fd5b60008282101561051a5761051a6104d9565b500390565b60008219821115610532576105326104d9565b50019056fea2646970667358221220f54eb303e1003caaaf27492915c93fd46ebba250299b99fd95e7efaabaf356bc64736f6c63430008090033a2646970667358221220eb145d35605043106243258df021a79f1e18a841c538e8829630e79c3038eec364736f6c63430008090033",
  "linkReferences": {},
  "deployedLinkReferences": {}
}