{
  "_format": "hh-sol-artifact-1",
  "contractName": "SmartSupply",
  "sourceName": "contracts/SmartSupply.sol",
  "abi": [
    {
      "anonymous": false,
      "inputs": [
        {
          "indexed": false,
          "internalType": "uint256",
          "name": "productID",
          "type": "uint256"
        },
        {
          "indexed": false,
          "internalType": "address",
          "name": "entity",
          "type": "address"
        }
      ],
      "name": "BankTransactionChanged",
      "type": "event"
    },
    {
      "anonymous": false,
      "inputs": [
        {
          "indexed": true,
          "internalType": "address",
          "name": "from",
          "type": "address"
        },
        {
          "indexed": false,
          "internalType": "uint256",
          "name": "amount",
          "type": "uint256"
        }
      ],
      "name": "CertificationPercentageChanged",
      "type": "event"
    },
    {
      "anonymous": false,
      "inputs": [
        {
          "indexed": false,
          "internalType": "uint256",
          "name": "productID",
          "type": "uint256"
        },
        {
          "indexed": false,
          "internalType": "address",
          "name": "owner",
          "type": "address"
        }
      ],
      "name": "ChangedNotOnSale",
      "type": "event"
    },
    {
      "anonymous": false,
      "inputs": [
        {
          "indexed": false,
          "internalType": "uint256",
          "name": "productID",
          "type": "uint256"
        },
        {
          "indexed": false,
          "internalType": "address",
          "name": "owner",
          "type": "address"
        }
      ],
      "name": "ChangedOnSale",
      "type": "event"
    },
    {
      "anonymous": false,
      "inputs": [
        {
          "indexed": false,
          "internalType": "uint256",
          "name": "productID",
          "type": "uint256"
        },
        {
          "indexed": false,
          "internalType": "address",
          "name": "retailer",
          "type": "address"
        },
        {
          "indexed": false,
          "internalType": "uint256",
          "name": "newCertificationPrice",
          "type": "uint256"
        }
      ],
      "name": "ChangedOnSaleRetailer",
      "type": "event"
    },
    {
      "anonymous": false,
      "inputs": [
        {
          "indexed": true,
          "internalType": "address",
          "name": "account",
          "type": "address"
        }
      ],
      "name": "CustomerAdded",
      "type": "event"
    },
    {
      "anonymous": false,
      "inputs": [
        {
          "indexed": true,
          "internalType": "address",
          "name": "account",
          "type": "address"
        }
      ],
      "name": "CustomerRemoved",
      "type": "event"
    },
    {
      "anonymous": false,
      "inputs": [
        {
          "indexed": true,
          "internalType": "address",
          "name": "account",
          "type": "address"
        }
      ],
      "name": "DistributorAdded",
      "type": "event"
    },
    {
      "anonymous": false,
      "inputs": [
        {
          "indexed": true,
          "internalType": "address",
          "name": "account",
          "type": "address"
        }
      ],
      "name": "DistributorRemoved",
      "type": "event"
    },
    {
      "anonymous": false,
      "inputs": [
        {
          "indexed": true,
          "internalType": "address",
          "name": "account",
          "type": "address"
        }
      ],
      "name": "EntityVerificationRemoved",
      "type": "event"
    },
    {
      "anonymous": false,
      "inputs": [
        {
          "indexed": true,
          "internalType": "address",
          "name": "account",
          "type": "address"
        }
      ],
      "name": "EntityVerified",
      "type": "event"
    },
    {
      "anonymous": false,
      "inputs": [
        {
          "indexed": true,
          "internalType": "address",
          "name": "from",
          "type": "address"
        },
        {
          "indexed": false,
          "internalType": "uint256",
          "name": "amount",
          "type": "uint256"
        }
      ],
      "name": "FundsAdded",
      "type": "event"
    },
    {
      "anonymous": false,
      "inputs": [
        {
          "indexed": true,
          "internalType": "address",
          "name": "account",
          "type": "address"
        }
      ],
      "name": "ManufacturerAdded",
      "type": "event"
    },
    {
      "anonymous": false,
      "inputs": [
        {
          "indexed": true,
          "internalType": "address",
          "name": "account",
          "type": "address"
        }
      ],
      "name": "ManufacturerRemoved",
      "type": "event"
    },
    {
      "anonymous": false,
      "inputs": [
        {
          "indexed": false,
          "internalType": "uint256",
          "name": "productID",
          "type": "uint256"
        },
        {
          "indexed": false,
          "internalType": "address",
          "name": "manufacturer",
          "type": "address"
        }
      ],
      "name": "ProductProduced",
      "type": "event"
    },
    {
      "anonymous": false,
      "inputs": [
        {
          "indexed": false,
          "internalType": "uint256",
          "name": "productID",
          "type": "uint256"
        },
        {
          "indexed": false,
          "internalType": "address",
          "name": "oldOwner",
          "type": "address"
        },
        {
          "indexed": false,
          "internalType": "address",
          "name": "newOwner",
          "type": "address"
        }
      ],
      "name": "ProductPurchased",
      "type": "event"
    },
    {
      "anonymous": false,
      "inputs": [
        {
          "indexed": false,
          "internalType": "uint256",
          "name": "productID",
          "type": "uint256"
        },
        {
          "indexed": false,
          "internalType": "address",
          "name": "receiver",
          "type": "address"
        }
      ],
      "name": "ProductReceived",
      "type": "event"
    },
    {
      "anonymous": false,
      "inputs": [
        {
          "indexed": false,
          "internalType": "uint256",
          "name": "productID",
          "type": "uint256"
        },
        {
          "indexed": false,
          "internalType": "address",
          "name": "sender",
          "type": "address"
        },
        {
          "indexed": false,
          "internalType": "address",
          "name": "receiver",
          "type": "address"
        }
      ],
      "name": "ProductShipped",
      "type": "event"
    },
    {
      "anonymous": false,
      "inputs": [
        {
          "indexed": true,
          "internalType": "address",
          "name": "account",
          "type": "address"
        }
      ],
      "name": "RetailerAdded",
      "type": "event"
    },
    {
      "anonymous": false,
      "inputs": [
        {
          "indexed": true,
          "internalType": "address",
          "name": "account",
          "type": "address"
        }
      ],
      "name": "RetailerRemoved",
      "type": "event"
    },
    {
      "anonymous": false,
      "inputs": [
        {
          "indexed": false,
          "internalType": "address",
          "name": "receiver",
          "type": "address"
        },
        {
          "indexed": false,
          "internalType": "uint256",
          "name": "amount",
          "type": "uint256"
        }
      ],
      "name": "RewardGiven",
      "type": "event"
    },
    {
      "anonymous": false,
      "inputs": [
        {
          "indexed": true,
          "internalType": "address",
          "name": "from",
          "type": "address"
        },
        {
          "indexed": false,
          "internalType": "uint256",
          "name": "amount",
          "type": "uint256"
        }
      ],
      "name": "VerificationAmountChanged",
      "type": "event"
    },
    {
      "anonymous": false,
      "inputs": [
        {
          "indexed": true,
          "internalType": "address",
          "name": "account",
          "type": "address"
        }
      ],
      "name": "VerificationPermissionGranted",
      "type": "event"
    },
    {
      "anonymous": false,
      "inputs": [
        {
          "indexed": true,
          "internalType": "address",
          "name": "account",
          "type": "address"
        }
      ],
      "name": "VerificationPermissionRevoked",
      "type": "event"
    },
    {
      "inputs": [],
      "name": "addCustomer",
      "outputs": [],
      "stateMutability": "nonpayable",
      "type": "function"
    },
    {
      "inputs": [],
      "name": "addDistributor",
      "outputs": [],
      "stateMutability": "nonpayable",
      "type": "function"
    },
    {
      "inputs": [],
      "name": "addFunds",
      "outputs": [],
      "stateMutability": "payable",
      "type": "function"
    },
    {
      "inputs": [],
      "name": "addManufacturer",
      "outputs": [],
      "stateMutability": "nonpayable",
      "type": "function"
    },
    {
      "inputs": [],
      "name": "addRetailer",
      "outputs": [],
      "stateMutability": "nonpayable",
      "type": "function"
    },
    {
      "inputs": [],
      "name": "admin",
      "outputs": [
        {
          "internalType": "address",
          "name": "",
          "type": "address"
        }
      ],
      "stateMutability": "view",
      "type": "function"
    },
    {
      "inputs": [
        {
          "internalType": "uint256",
          "name": "_productID",
          "type": "uint256"
        },
        {
          "internalType": "uint256",
          "name": "_newTransactionID",
          "type": "uint256"
        }
      ],
      "name": "changeBankTransactionID",
      "outputs": [],
      "stateMutability": "nonpayable",
      "type": "function"
    },
    {
      "inputs": [
        {
          "internalType": "uint256",
          "name": "_productID",
          "type": "uint256"
        }
      ],
      "name": "changeNotOnSale",
      "outputs": [],
      "stateMutability": "nonpayable",
      "type": "function"
    },
    {
      "inputs": [
        {
          "internalType": "uint256",
          "name": "_productID",
          "type": "uint256"
        }
      ],
      "name": "changeOnSale",
      "outputs": [],
      "stateMutability": "nonpayable",
      "type": "function"
    },
    {
      "inputs": [
        {
          "internalType": "uint256",
          "name": "_productID",
          "type": "uint256"
        },
        {
          "internalType": "uint256",
          "name": "_newCertificationPrice",
          "type": "uint256"
        }
      ],
      "name": "changeOnSaleRetailer",
      "outputs": [],
      "stateMutability": "nonpayable",
      "type": "function"
    },
    {
      "inputs": [
        {
          "internalType": "address",
          "name": "",
          "type": "address"
        }
      ],
      "name": "customers",
      "outputs": [
        {
          "internalType": "bool",
          "name": "",
          "type": "bool"
        }
      ],
      "stateMutability": "view",
      "type": "function"
    },
    {
      "inputs": [],
      "name": "defaultProductLocation",
      "outputs": [
        {
          "internalType": "enum Utils.ProductLocation",
          "name": "",
          "type": "uint8"
        }
      ],
      "stateMutability": "view",
      "type": "function"
    },
    {
      "inputs": [],
      "name": "defaultProductStage",
      "outputs": [
        {
          "internalType": "enum Utils.ProductStage",
          "name": "",
          "type": "uint8"
        }
      ],
      "stateMutability": "view",
      "type": "function"
    },
    {
      "inputs": [
        {
          "internalType": "address",
          "name": "",
          "type": "address"
        }
      ],
      "name": "distributors",
      "outputs": [
        {
          "internalType": "bool",
          "name": "",
          "type": "bool"
        }
      ],
      "stateMutability": "view",
      "type": "function"
    },
    {
      "inputs": [
        {
          "internalType": "address",
          "name": "",
          "type": "address"
        }
      ],
      "name": "entityVerificationPermission",
      "outputs": [
        {
          "internalType": "bool",
          "name": "",
          "type": "bool"
        }
      ],
      "stateMutability": "view",
      "type": "function"
    },
    {
      "inputs": [],
      "name": "getCertificationPercentage",
      "outputs": [
        {
          "internalType": "uint256",
          "name": "",
          "type": "uint256"
        }
      ],
      "stateMutability": "view",
      "type": "function"
    },
    {
      "inputs": [],
      "name": "getVerificationAmount",
      "outputs": [
        {
          "internalType": "uint256",
          "name": "",
          "type": "uint256"
        }
      ],
      "stateMutability": "view",
      "type": "function"
    },
    {
      "inputs": [
        {
          "internalType": "address",
          "name": "account",
          "type": "address"
        }
      ],
      "name": "grantVerificationPermission",
      "outputs": [],
      "stateMutability": "nonpayable",
      "type": "function"
    },
    {
      "inputs": [
        {
          "internalType": "address",
          "name": "account",
          "type": "address"
        }
      ],
      "name": "isCustomer",
      "outputs": [
        {
          "internalType": "bool",
          "name": "",
          "type": "bool"
        }
      ],
      "stateMutability": "view",
      "type": "function"
    },
    {
      "inputs": [
        {
          "internalType": "address",
          "name": "account",
          "type": "address"
        }
      ],
      "name": "isDistributor",
      "outputs": [
        {
          "internalType": "bool",
          "name": "",
          "type": "bool"
        }
      ],
      "stateMutability": "view",
      "type": "function"
    },
    {
      "inputs": [
        {
          "internalType": "address",
          "name": "account",
          "type": "address"
        }
      ],
      "name": "isManufacturer",
      "outputs": [
        {
          "internalType": "bool",
          "name": "",
          "type": "bool"
        }
      ],
      "stateMutability": "view",
      "type": "function"
    },
    {
      "inputs": [
        {
          "internalType": "address",
          "name": "account",
          "type": "address"
        }
      ],
      "name": "isRetailer",
      "outputs": [
        {
          "internalType": "bool",
          "name": "",
          "type": "bool"
        }
      ],
      "stateMutability": "view",
      "type": "function"
    },
    {
      "inputs": [
        {
          "internalType": "address",
          "name": "account",
          "type": "address"
        }
      ],
      "name": "isVerificationPermitted",
      "outputs": [
        {
          "internalType": "bool",
          "name": "",
          "type": "bool"
        }
      ],
      "stateMutability": "view",
      "type": "function"
    },
    {
      "inputs": [
        {
          "internalType": "address",
          "name": "account",
          "type": "address"
        }
      ],
      "name": "isVerified",
      "outputs": [
        {
          "internalType": "bool",
          "name": "",
          "type": "bool"
        }
      ],
      "stateMutability": "view",
      "type": "function"
    },
    {
      "inputs": [
        {
          "internalType": "address",
          "name": "",
          "type": "address"
        }
      ],
      "name": "manufacturers",
      "outputs": [
        {
          "internalType": "bool",
          "name": "",
          "type": "bool"
        }
      ],
      "stateMutability": "view",
      "type": "function"
    },
    {
      "inputs": [
        {
          "internalType": "uint256",
          "name": "_productID",
          "type": "uint256"
        },
        {
          "internalType": "uint256",
          "name": "_productUID",
          "type": "uint256"
        }
      ],
      "name": "produceProduct",
      "outputs": [],
      "stateMutability": "nonpayable",
      "type": "function"
    },
    {
      "inputs": [
        {
          "internalType": "uint256",
          "name": "",
          "type": "uint256"
        }
      ],
      "name": "products",
      "outputs": [
        {
          "internalType": "uint256",
          "name": "productID",
          "type": "uint256"
        },
        {
          "internalType": "uint256",
          "name": "productUID",
          "type": "uint256"
        },
        {
          "internalType": "address",
          "name": "previousOwner",
          "type": "address"
        },
        {
          "internalType": "address",
          "name": "currentOwner",
          "type": "address"
        },
        {
          "internalType": "uint256",
          "name": "creationDate",
          "type": "uint256"
        },
        {
          "internalType": "uint256",
          "name": "certificationPrice",
          "type": "uint256"
        },
        {
          "internalType": "enum Utils.ProductStage",
          "name": "productStage",
          "type": "uint8"
        },
        {
          "internalType": "enum Utils.ProductLocation",
          "name": "productLocation",
          "type": "uint8"
        },
        {
          "components": [
            {
              "internalType": "address",
              "name": "manufacturer",
              "type": "address"
            },
            {
              "internalType": "address",
              "name": "distributor",
              "type": "address"
            },
            {
              "internalType": "address",
              "name": "retailer",
              "type": "address"
            },
            {
              "internalType": "address",
              "name": "customer",
              "type": "address"
            }
          ],
          "internalType": "struct Utils.Ownerships",
          "name": "ownerships",
          "type": "tuple"
        },
        {
          "components": [
            {
              "internalType": "uint256",
              "name": "distributorBankTransactionID",
              "type": "uint256"
            },
            {
              "internalType": "uint256",
              "name": "retailerBankTransactionID",
              "type": "uint256"
            }
          ],
          "internalType": "struct Utils.TransactionIDs",
          "name": "transactionIDs",
          "type": "tuple"
        },
        {
          "components": [
            {
              "internalType": "bool",
              "name": "manufacturerRewarded",
              "type": "bool"
            },
            {
              "internalType": "bool",
              "name": "distributorRewarded",
              "type": "bool"
            },
            {
              "internalType": "bool",
              "name": "retailerRewarded",
              "type": "bool"
            }
          ],
          "internalType": "struct Utils.ProductRewards",
          "name": "rewards",
          "type": "tuple"
        }
      ],
      "stateMutability": "view",
      "type": "function"
    },
    {
      "inputs": [
        {
          "internalType": "uint256",
          "name": "_productID",
          "type": "uint256"
        }
      ],
      "name": "purchaseProduct",
      "outputs": [],
      "stateMutability": "payable",
      "type": "function"
    },
    {
      "inputs": [
        {
          "internalType": "uint256",
          "name": "_productID",
          "type": "uint256"
        }
      ],
      "name": "receiveProduct",
      "outputs": [],
      "stateMutability": "nonpayable",
      "type": "function"
    },
    {
      "inputs": [],
      "name": "removeCustomer",
      "outputs": [],
      "stateMutability": "nonpayable",
      "type": "function"
    },
    {
      "inputs": [],
      "name": "removeDistributor",
      "outputs": [],
      "stateMutability": "nonpayable",
      "type": "function"
    },
    {
      "inputs": [],
      "name": "removeManufacturer",
      "outputs": [],
      "stateMutability": "nonpayable",
      "type": "function"
    },
    {
      "inputs": [],
      "name": "removeRetailer",
      "outputs": [],
      "stateMutability": "nonpayable",
      "type": "function"
    },
    {
      "inputs": [
        {
          "internalType": "address",
          "name": "account",
          "type": "address"
        }
      ],
      "name": "removeVerification",
      "outputs": [],
      "stateMutability": "nonpayable",
      "type": "function"
    },
    {
      "inputs": [
        {
          "internalType": "address",
          "name": "",
          "type": "address"
        }
      ],
      "name": "retailers",
      "outputs": [
        {
          "internalType": "bool",
          "name": "",
          "type": "bool"
        }
      ],
      "stateMutability": "view",
      "type": "function"
    },
    {
      "inputs": [
        {
          "internalType": "address",
          "name": "account",
          "type": "address"
        }
      ],
      "name": "revokeVerificationPermission",
      "outputs": [],
      "stateMutability": "nonpayable",
      "type": "function"
    },
    {
      "inputs": [
        {
          "internalType": "uint256",
          "name": "_percentage",
          "type": "uint256"
        }
      ],
      "name": "setCertificationPercentage",
      "outputs": [],
      "stateMutability": "nonpayable",
      "type": "function"
    },
    {
      "inputs": [
        {
          "internalType": "uint256",
          "name": "_amount",
          "type": "uint256"
        }
      ],
      "name": "setVerificationAmount",
      "outputs": [],
      "stateMutability": "nonpayable",
      "type": "function"
    },
    {
      "inputs": [
        {
          "internalType": "uint256",
          "name": "_productID",
          "type": "uint256"
        },
        {
          "internalType": "address",
          "name": "receiver",
          "type": "address"
        }
      ],
      "name": "shipProduct",
      "outputs": [],
      "stateMutability": "nonpayable",
      "type": "function"
    },
    {
      "inputs": [],
      "name": "smartSupplyBalance",
      "outputs": [
        {
          "internalType": "uint256",
          "name": "",
          "type": "uint256"
        }
      ],
      "stateMutability": "view",
      "type": "function"
    },
    {
      "inputs": [
        {
          "internalType": "address",
          "name": "",
          "type": "address"
        }
      ],
      "name": "verificationStatus",
      "outputs": [
        {
          "internalType": "bool",
          "name": "",
          "type": "bool"
        }
      ],
      "stateMutability": "view",
      "type": "function"
    },
    {
      "inputs": [],
      "name": "verifyEntity",
      "outputs": [],
      "stateMutability": "payable",
      "type": "function"
    },
    {
      "inputs": [
        {
          "internalType": "uint256",
          "name": "amount",
          "type": "uint256"
        }
      ],
      "name": "withdrawFunds",
      "outputs": [],
      "stateMutability": "nonpayable",
      "type": "function"
    }
  ],
  "bytecode": "0x60806040526302faf080600255600a6003819055805461ffff1916905534801561002857600080fd5b50600080546001600160a01b031916331790556141488061004a6000396000f3fe6080604052600436106102dc5760003560e01c80637ad8447511610184578063b6d07385116100d6578063ceecd5961161008a578063f851a44011610064578063f851a44014610953578063f89620e11461098b578063fc9cc6e2146109a057600080fd5b8063ceecd59614610908578063e6361a8e1461091d578063f7d139cb1461093357600080fd5b8063c18e0ed9116100bb578063c18e0ed914610891578063c4cb9050146108b1578063cc642784146108d857600080fd5b8063b6d0738514610828578063b9209e331461085857600080fd5b80639bdc080111610138578063a315bd0a11610112578063a315bd0a146107c3578063ac52480e146107e3578063adafb3d4146107f857600080fd5b80639bdc080114610791578063a26759cb146107a6578063a2c66c36146107ae57600080fd5b80638f0c86fa116101695780638f0c86fa1461071357806397cf3c371461074c5780639a268f351461076157600080fd5b80637ad84475146106c55780637bd6221f146106da57600080fd5b806329d783281161023d5780634d8322c7116101f15780636b5eb09c116101cb5780636b5eb09c14610557578063762b51db146105875780637acc0b20146105b357600080fd5b80634d8322c7146104de5780635da09b88146104fe5780636b2a5c351461053757600080fd5b8063336989ae11610222578063336989ae1461047b57806338e76a03146104ab578063410a0a4b146104be57600080fd5b806329d783281461043b5780632d156a8d1461045b57600080fd5b806323630f7b1161029457806328443b181161027957806328443b18146103e557806328fd5e83146103fa578063293be2dd1461043357600080fd5b806323630f7b146103a557806326e1066e146103c557600080fd5b806316479b85116102c557806316479b851461032357806317d4a491146103385780631c328f231461038657600080fd5b80630e8336dd146102e1578063155dd5ee14610303575b600080fd5b3480156102ed57600080fd5b506103016102fc36600461396c565b6109c0565b005b34801561030f57600080fd5b5061030161031e366004613998565b610cd9565b34801561032f57600080fd5b50610301610de8565b34801561034457600080fd5b506103716103533660046139b1565b6001600160a01b031660009081526004602052604090205460ff1690565b60405190151581526020015b60405180910390f35b34801561039257600080fd5b506003545b60405190815260200161037d565b3480156103b157600080fd5b506103016103c0366004613998565b610ee3565b3480156103d157600080fd5b506103016103e03660046139b1565b61118e565b3480156103f157600080fd5b50600254610397565b34801561040657600080fd5b506103716104153660046139b1565b6001600160a01b031660009081526007602052604090205460ff1690565b610301611240565b34801561044757600080fd5b50610301610456366004613998565b6114f9565b34801561046757600080fd5b50610301610476366004613998565b611915565b34801561048757600080fd5b506103716104963660046139b1565b60076020526000908152604090205460ff1681565b6103016104b9366004613998565b611c4a565b3480156104ca57600080fd5b506103016104d93660046139cc565b6120f6565b3480156104ea57600080fd5b506103016104f9366004613998565b612411565b34801561050a57600080fd5b506103716105193660046139b1565b6001600160a01b031660009081526006602052604090205460ff1690565b34801561054357600080fd5b506103016105523660046139cc565b6124b8565b34801561056357600080fd5b506103716105723660046139b1565b60046020526000908152604090205460ff1681565b34801561059357600080fd5b50600a546105a690610100900460ff1681565b60405161037d9190613a18565b3480156105bf57600080fd5b506106ae6105ce366004613998565b600b6020818152600092835260409283902080546001820154600283015460038401546004850154600586015460068701548a51608081018c5260078901546001600160a01b03908116825260088a01548116828c015260098a01548116828e0152600a8a015481166060808401919091528d51808f018f529c8b01548d52600c8b01548d8d01528d519081018e52600d909a015460ff80821615158c52610100808304821615159d8d019d909d5262010000909104811615159d8b019d909d52979b969a9588169997909416979296919580821695929091041692918b565b60405161037d9b9a99989796959493929190613a3c565b3480156106d157600080fd5b506103016127e3565b3480156106e657600080fd5b506103716106f53660046139b1565b6001600160a01b031660009081526008602052604090205460ff1690565b34801561071f57600080fd5b5061037161072e3660046139b1565b6001600160a01b031660009081526005602052604090205460ff1690565b34801561075857600080fd5b50610301612825565b34801561076d57600080fd5b5061037161077c3660046139b1565b60066020526000908152604090205460ff1681565b34801561079d57600080fd5b50610301612889565b610301612984565b3480156107ba57600080fd5b50610301612a48565b3480156107cf57600080fd5b506103016107de3660046139cc565b612aac565b3480156107ef57600080fd5b50610301612dd6565b34801561080457600080fd5b506103716108133660046139b1565b60096020526000908152604090205460ff1681565b34801561083457600080fd5b506103716108433660046139b1565b60086020526000908152604090205460ff1681565b34801561086457600080fd5b506103716108733660046139b1565b6001600160a01b031660009081526009602052604090205460ff1690565b34801561089d57600080fd5b506103016108ac3660046139b1565b612e3a565b3480156108bd57600080fd5b50600a546108cb9060ff1681565b60405161037d9190613b08565b3480156108e457600080fd5b506103716108f33660046139b1565b60056020526000908152604090205460ff1681565b34801561091457600080fd5b50610301612eef565b34801561092957600080fd5b5061039760015481565b34801561093f57600080fd5b5061030161094e3660046139b1565b612fc8565b34801561095f57600080fd5b50600054610973906001600160a01b031681565b6040516001600160a01b03909116815260200161037d565b34801561099757600080fd5b506103016130e2565b3480156109ac57600080fd5b506103016109bb366004613998565b6131dd565b3360009081526004602052604090205460ff16806109ed57503360009081526005602052604090205460ff165b80610a0757503360009081526006602052604090205460ff165b610a8c5760405162461bcd60e51b815260206004820152604560248201527f4f6e6c79206d616e756661637475726572732c206469737472696275746f727360448201527f206f722072657461696c6572732063616e20706572666f726d2074686973206160648201526431ba34b7b760d91b608482015260a4015b60405180910390fd5b60036000838152600b602052604090206006015460ff166005811115610ab457610ab46139ee565b14610b275760405162461bcd60e51b815260206004820152603660248201527f50726f64756374206d7573742062652070757263686173656420627920736f6d60448201527f6520656e7469747920746f2062652073686970706564000000000000000000006064820152608401610a83565b6000828152600b60205260409020600201546001600160a01b03163314610bb65760405162461bcd60e51b815260206004820152602c60248201527f50726f647563742063616e206f6e6c792062652073686970706564206279207460448201527f6865206f6c64206f776e657200000000000000000000000000000000000000006064820152608401610a83565b610bc182338361327d565b6000828152600b602090815260408083206006908101805461ffff191661040417905533845290915290205460ff1615610c89576000828152600b6020526040812060050154610c12906004613542565b6000848152600b6020526040902060070154909150610c3b906001600160a01b0316848361356b565b6000838152600b6020526040902060080154610c61906001600160a01b0316848361356b565b6000838152600b6020526040902060090154610c87906001600160a01b0316848361356b565b505b604080518381523360208201526001600160a01b038316918101919091527fae22003d449cfb842a57062f1f6ae06a4abdabcdfb0b6e02deee5584df17b277906060015b60405180910390a15050565b6000546001600160a01b03163314610d425760405162461bcd60e51b815260206004820152602660248201527f4f6e6c79207468652061646d696e2063616e20706572666f726d20746869732060448201526530b1ba34b7b760d11b6064820152608401610a83565b600154811115610d945760405162461bcd60e51b815260206004820152601260248201527f496e73756666696369656e742066756e647300000000000000000000000000006044820152606401610a83565b8060016000828254610da69190613b2c565b9091555050600080546040516001600160a01b039091169183156108fc02918491818181858888f19350505050158015610de4573d6000803e3d6000fd5b5050565b3360009081526006602052604090205460ff1680610e1057506000546001600160a01b031633145b610e825760405162461bcd60e51b815260206004820152603360248201527f4f6e6c792072657461696c657273206f72207468652061646d696e2063616e2060448201527f706572666f726d207468697320616374696f6e000000000000000000000000006064820152608401610a83565b336000818152600660209081526040808320805460ff199081169091556008835281842080548216905560099092528083208054909216909155517fdb7176e79cffef81cb01767dd0447a0b24bb72ca9778d4b245581086b2a7e6db9190a2565b3360009081526004602052604090205460ff1680610f1057503360009081526005602052604090205460ff165b80610f2a57503360009081526006602052604090205460ff165b610faa5760405162461bcd60e51b815260206004820152604560248201527f4f6e6c79206d616e756661637475726572732c206469737472696275746f727360448201527f206f722072657461696c6572732063616e20706572666f726d2074686973206160648201526431ba34b7b760d91b608482015260a401610a83565b6000818152600b60205260409020600301546001600160a01b0316331461103b576040805162461bcd60e51b81526020600482015260248101919091527f4f6e6c79207468652063757272656e74206f776e65722063616e206368616e6760448201527f65207468652070726f6475637420737461676520746f204e6f744f6e53616c656064820152608401610a83565b60036000828152600b602052604090206006015460ff166005811115611063576110636139ee565b14158015611097575060046000828152600b602052604090206006015460ff166005811115611094576110946139ee565b14155b61112f5760405162461bcd60e51b815260206004820152604860248201527f50726f64756374206d757374206e6f7420626520696e2050757263686173656460448201527f206f72205368697070656420737461676520746f206368616e676520746f204e60648201527f6f744f6e53616c65000000000000000000000000000000000000000000000000608482015260a401610a83565b6000818152600b6020526040902060060180546002919060ff19166001830217905550604080518281523360208201527f34dfd957cdce058c374027e3a6f6ab1771b40b4bcd043a96d4d0f98750b4bfd691015b60405180910390a150565b6000546001600160a01b031633146111f75760405162461bcd60e51b815260206004820152602660248201527f4f6e6c79207468652061646d696e2063616e20706572666f726d20746869732060448201526530b1ba34b7b760d11b6064820152608401610a83565b6001600160a01b038116600081815260086020526040808220805460ff19169055517f31ef9270602119277454261e5a5bff0e43801de289dcf5d07dcf5aefc5c151d89190a250565b3360009081526008602052604090205460ff166112c55760405162461bcd60e51b815260206004820152603060248201527f456e74697479206861736e277420676976656e20697473206964656e7469666960448201527f636174696f6e2070726f6f6620796574000000000000000000000000000000006064820152608401610a83565b3360009081526007602052604090205460ff161561134b5760405162461bcd60e51b815260206004820152603060248201527f437573746f6d65727320617265206e6f7420616c6c6f77656420746f2070657260448201527f666f726d207468697320616374696f6e000000000000000000000000000000006064820152608401610a83565b600060405161135990613875565b604051809103906000f080158015611375573d6000803e3d6000fd5b5090506000816001600160a01b03166328443b186040518163ffffffff1660e01b815260040160206040518083038186803b1580156113b357600080fd5b505afa1580156113c7573d6000803e3d6000fd5b505050506040513d601f19601f820116820180604052508101906113eb9190613b43565b9050803410156114635760405162461bcd60e51b815260206004820152602560248201527f496e73756666696369656e74207061796d656e7420666f72207665726966696360448201527f6174696f6e0000000000000000000000000000000000000000000000000000006064820152608401610a83565b6000349050806001600082825461147a9190613b5c565b909155505060405181815233907f8fe10ae416f22f5e5220b0018a6c1d4ff534d6aa3a471f2a20cb7747fe63e5b99060200160405180910390a233600081815260096020526040808220805460ff19166001179055517fa3710f2b2505ddd76d00993c1fad93af4104d857fa3e237c9548c028c44935cc9190a2505050565b3360009081526007602052604090205460ff168061152657503360009081526005602052604090205460ff165b8061154057503360009081526006602052604090205460ff165b6115bc5760405162461bcd60e51b815260206004820152604160248201527f4f6e6c7920637573746f6d6572732c206469737472696275746f7273206f722060448201527f72657461696c6572732063616e20706572666f726d207468697320616374696f6064820152603760f91b608482015260a401610a83565b60046000828152600b602052604090206006015460ff1660058111156115e4576115e46139ee565b146116575760405162461bcd60e51b815260206004820152603160248201527f50726f64756374206d75737420626520696e202753686970706564272073746160448201527f676520746f2062652072656365697665640000000000000000000000000000006064820152608401610a83565b60046000828152600b6020526040902060060154610100900460ff166004811115611684576116846139ee565b146116f75760405162461bcd60e51b815260206004820152603560248201527f50726f64756374206d75737420626520696e20275368697070696e6727206c6f60448201527f636174696f6e20746f20626520726563656976656400000000000000000000006064820152608401610a83565b6000818152600b60205260409020600301546001600160a01b031633146117865760405162461bcd60e51b815260206004820152602e60248201527f4f6e6c79207468652063757272656e74206f776e65722063616e20726563656960448201527f7665207468652070726f647563740000000000000000000000000000000000006064820152608401610a83565b6000818152600b6020526040902060068101805460ff1916600517905560080154336001600160a01b0390911614156117e4576000818152600b6020526040902060060180546001919061ff001916610100835b02179055506118e0565b6000818152600b60205260409020600901546001600160a01b031633141561182b576000818152600b6020526040902060060180546002919061ff001916610100836117da565b6000818152600b60205260409020600a01546001600160a01b0316331415611872576000818152600b6020526040902060060180546003919061ff001916610100836117da565b60405162461bcd60e51b815260206004820152602b60248201527f496e76616c69642063757272656e74206f776e657220666f722075706461746960448201527f6e67206c6f636174696f6e0000000000000000000000000000000000000000006064820152608401610a83565b604080518281523360208201527f7eb38f83fec1bdc45e831c15e9e3eb2369028929a0e38e3709b7e710362f823b9101611183565b3360009081526004602052604090205460ff168061194257503360009081526005602052604090205460ff165b8061195c57503360009081526006602052604090205460ff165b6119dc5760405162461bcd60e51b815260206004820152604560248201527f4f6e6c79206d616e756661637475726572732c206469737472696275746f727360448201527f206f722072657461696c6572732063616e20706572666f726d2074686973206160648201526431ba34b7b760d91b608482015260a401610a83565b6000818152600b60205260409020600301546001600160a01b03163314611a6b5760405162461bcd60e51b815260206004820152603d60248201527f4f6e6c79207468652063757272656e74206f776e65722063616e206368616e6760448201527f65207468652070726f6475637420737461676520746f204f6e53616c650000006064820152608401610a83565b3360009081526006602052604090205460ff1615611b175760405162461bcd60e51b815260206004820152604860248201527f546f20666c6167207468652070726f64756374206f6e53616c6520757365207460448201527f6865206368616e67654f6e53616c6552657461696c65722066756e6374696f6e60648201527f20696e7374656164000000000000000000000000000000000000000000000000608482015260a401610a83565b60036000828152600b602052604090206006015460ff166005811115611b3f57611b3f6139ee565b14158015611b73575060046000828152600b602052604090206006015460ff166005811115611b7057611b706139ee565b14155b611bf35760405162461bcd60e51b815260206004820152604560248201527f50726f64756374206d757374206e6f7420626520696e2050757263686173656460448201527f206f72205368697070656420737461676520746f206368616e676520746f204f6064820152646e53616c6560d81b608482015260a401610a83565b6000818152600b6020526040902060060180546001919060ff191682800217905550604080518281523360208201527f5ea9686d3fd9cc47111972119dae21c738cc8467f126b047ba099f2e986dc84f9101611183565b3360009081526007602052604090205460ff1680611c7757503360009081526005602052604090205460ff165b80611c9157503360009081526006602052604090205460ff165b611d0d5760405162461bcd60e51b815260206004820152604160248201527f4f6e6c7920637573746f6d6572732c206469737472696275746f7273206f722060448201527f72657461696c6572732063616e20706572666f726d207468697320616374696f6064820152603760f91b608482015260a401610a83565b6000818152600b60205260409020600301546001600160a01b0316331415611d9d5760405162461bcd60e51b815260206004820152602b60248201527f43757272656e74206f776e6572732063616e277420627579207468656972206f60448201527f776e2070726f64756374730000000000000000000000000000000000000000006064820152608401610a83565b60016000828152600b602052604090206006015460ff166005811115611dc557611dc56139ee565b14611e385760405162461bcd60e51b815260206004820152602760248201527f50726f64756374206d757374206265204f6e2053616c6520746f20626520707560448201527f72636861736564000000000000000000000000000000000000000000000000006064820152608401610a83565b3360009081526007602052604090205460ff168015611f25576000828152600b6020526040902060050154341015611ed85760405162461bcd60e51b815260206004820152602a60248201527f496e73756666696369656e742066756e647320746f207075726368617365207460448201527f68652070726f64756374000000000000000000000000000000000000000000006064820152608401610a83565b3460016000828254611eea9190613b5c565b909155505060405134815233907f8fe10ae416f22f5e5220b0018a6c1d4ff534d6aa3a471f2a20cb7747fe63e5b99060200160405180910390a25b6000828152600b60209081526040808320600681018054600360ff19909116811790915581018054600290920180546001600160a01b0384166001600160a01b031991821617909155339216821790558352600590915290205460ff1615611fad576000828152600b6020526040902060080180546001600160a01b03191633179055612097565b3360009081526006602052604090205460ff1615611feb576000828152600b6020526040902060090180546001600160a01b03191633179055612097565b3360009081526007602052604090205460ff1615612029576000828152600b60205260409020600a0180546001600160a01b03191633179055612097565b60405162461bcd60e51b815260206004820152602d60248201527f496e76616c696420726f6c6520666f72207570646174696e672070726f64756360448201527f7420696e666f726d6174696f6e000000000000000000000000000000000000006064820152608401610a83565b6000828152600b60209081526040918290206002015482518581526001600160a01b039091169181019190915233918101919091527f405b8e92032184041314dcddf305e0d97d13b103d3fa162eb2b1c760760bdc0a90606001610ccd565b3360009081526004602052604090205460ff168061212357503360009081526005602052604090205460ff165b8061213d57503360009081526006602052604090205460ff165b6121bd5760405162461bcd60e51b815260206004820152604560248201527f4f6e6c79206d616e756661637475726572732c206469737472696275746f727360448201527f206f722072657461696c6572732063616e20706572666f726d2074686973206160648201526431ba34b7b760d91b608482015260a401610a83565b3360009081526006602052604090205460ff166122425760405162461bcd60e51b815260206004820152603160248201527f4f6e6c792072657461696c6572732063616e206368616e67652074686520636560448201527f7274696669636174696f6e2070726963650000000000000000000000000000006064820152608401610a83565b6000828152600b60205260409020600301546001600160a01b031633146122d15760405162461bcd60e51b815260206004820152603960248201527f4f6e6c79207468652063757272656e74206f776e65722063616e206368616e6760448201527f65207468652063657274696669636174696f6e207072696365000000000000006064820152608401610a83565b60036000838152600b602052604090206006015460ff1660058111156122f9576122f96139ee565b1415801561232d575060046000838152600b602052604090206006015460ff16600581111561232a5761232a6139ee565b14155b6123ad5760405162461bcd60e51b815260206004820152604560248201527f50726f64756374206d757374206e6f7420626520696e2050757263686173656460448201527f206f72205368697070656420737461676520746f206368616e676520746f204f6064820152646e53616c6560d81b608482015260a401610a83565b6000828152600b602090815260409182902060068101805460ff19166001179055600501839055815184815233918101919091529081018290527fe4e344f6136444bd4df6c6ade9a7761739c9147339d73a3e0813d8f088d7185790606001610ccd565b6000546001600160a01b0316331461247a5760405162461bcd60e51b815260206004820152602660248201527f4f6e6c79207468652061646d696e2063616e20706572666f726d20746869732060448201526530b1ba34b7b760d11b6064820152608401610a83565b600281905560405181815233907fb77f58d7bdd9979ecd98ed048fc9d5657dfb51e810bb8c078af5b318a68bf1f4906020015b60405180910390a250565b3360009081526004602052604090205460ff16806124e057506000546001600160a01b031633145b6125525760405162461bcd60e51b815260206004820152603760248201527f4f6e6c79206d616e75666163747572657273206f72207468652061646d696e2060448201527f63616e20706572666f726d207468697320616374696f6e0000000000000000006064820152608401610a83565b61255a613882565b8281526020810182905233606082018190526040820152426080820152600060a0820152600a5460c082019060ff16600581111561259a5761259a6139ee565b908160058111156125ad576125ad6139ee565b905250600a5460e0820190610100900460ff1660048111156125d1576125d16139ee565b908160048111156125e4576125e46139ee565b90525060408051608080820183526000602080840182905283850182905260608085018390523385526101008701859052888352600b8252918590208651815590860151600180830191909155948601516002820180546001600160a01b03199081166001600160a01b03938416179091559287015160038301805490941691161790915590840151600482015560a084015160058083019190915560c0850151600683018054949587959293919260ff19169184908111156126a9576126a96139ee565b021790555060e082015160068201805461ff0019166101008360048111156126d3576126d36139ee565b02179055506101008281015180516007840180546001600160a01b03199081166001600160a01b039384161790915560208084015160088701805484169185169190911790556040808501516009880180548516918616919091179055606090940151600a8701805490931693169290921790556101208501518051600b860155810151600c850155610140909401518051600d9094018054828701519284015161ffff1990911695151561ff001916959095179115159093021762ff000019166201000093151593909302929092179055805186815233928101929092527f97c998f1009a742d52bd2b93e67352e2800f1b46a2a226b31cfa903ec93892f7910160405180910390a150505050565b33600081815260076020526040808220805460ff19166001179055517fcd118a02bd36f224f6f1b93812f78d2bbc2c2dc1bc0f60c176e3b4fe09f1483f9190a2565b336000818152600660209081526040808320805460ff199081166001179091556008835281842080548216905560099092528083208054909216909155517f71ae26cad02663e3d92efd6ec56031a80d74a20c0ab4183faa8bf262261c9baa9190a2565b3360009081526005602052604090205460ff16806128b157506000546001600160a01b031633145b6129235760405162461bcd60e51b815260206004820152603660248201527f4f6e6c79206469737472696275746f7273206f72207468652061646d696e206360448201527f616e20706572666f726d207468697320616374696f6e000000000000000000006064820152608401610a83565b336000818152600560209081526040808320805460ff199081169091556008835281842080548216905560099092528083208054909216909155517f126174f6cf49c81cdb4a9214c6b8f037bef55b4ec31e4fc776cea2a1c8a88d599190a2565b600034116129fa5760405162461bcd60e51b815260206004820152602160248201527f46756e64732073656e74206d7573742062652067726561746572207468616e2060448201527f30000000000000000000000000000000000000000000000000000000000000006064820152608401610a83565b3460016000828254612a0c9190613b5c565b909155505060405134815233907f8fe10ae416f22f5e5220b0018a6c1d4ff534d6aa3a471f2a20cb7747fe63e5b99060200160405180910390a2565b336000818152600460209081526040808320805460ff199081166001179091556008835281842080548216905560099092528083208054909216909155517f561138658ca49a8540dc70dcfe64c9026c1c5b9344642242dd6562970f9c12789190a2565b6000828152600b60209081526040808320600a8101546008820154600990920154338652600590945291909320546001600160a01b03918216938216929091169060ff168015612b045750336001600160a01b038316145b15612b23576000858152600b6020819052604090912001849055612bd6565b3360009081526006602052604090205460ff168015612b4a5750336001600160a01b038216145b15612b68576000858152600b60205260409020600c01849055612bd6565b60405162461bcd60e51b815260206004820152603c60248201527f43616c6c657220646f6573206e6f74206861766520746865207269676874207460448201527f6f206368616e67652062616e6b207472616e73616374696f6e204944000000006064820152608401610a83565b6000858152600b6020526040812060050154612bf3906004613542565b3360009081526005602052604090205490915060ff168015612c1d5750336001600160a01b038416145b8015612c4057506000868152600b60205260409020600d0154610100900460ff16155b8015612cb357506001600160a01b03841615801590612cb3575060046000878152600b602052604090206006015460ff166005811115612c8257612c826139ee565b1480612cb3575060056000878152600b602052604090206006015460ff166005811115612cb157612cb16139ee565b145b15612cc857612cc333878361356b565b612d96565b3360009081526006602052604090205460ff168015612cef5750336001600160a01b038316145b8015612d1357506000868152600b60205260409020600d015462010000900460ff16155b8015612d8657506001600160a01b03841615801590612d86575060046000878152600b602052604090206006015460ff166005811115612d5557612d556139ee565b1480612d86575060056000878152600b602052604090206006015460ff166005811115612d8457612d846139ee565b145b15612d9657612d9633878361356b565b604080518781523360208201527fdcd2f9ad8329d46769c3238811ad3ca487334dd220ad05263c0f9ea1a19ccc87910160405180910390a1505050505050565b336000818152600560209081526040808320805460ff199081166001179091556008835281842080548216905560099092528083208054909216909155517fddbf200aa634dc3fb81cfd68583dd1040d1c751d335e1d86b631bde3e977fea89190a2565b6000546001600160a01b03163314612ea35760405162461bcd60e51b815260206004820152602660248201527f4f6e6c79207468652061646d696e2063616e20706572666f726d20746869732060448201526530b1ba34b7b760d11b6064820152608401610a83565b6001600160a01b038116600081815260086020526040808220805460ff19166001179055517f58169284ef5a04f8626278f2f2b6c44cf8f2d30da1e96100b7016764ad6130689190a250565b3360009081526007602052604090205460ff1680612f1757506000546001600160a01b031633145b612f895760405162461bcd60e51b815260206004820152603360248201527f4f6e6c7920637573746f6d657273206f72207468652061646d696e2063616e2060448201527f706572666f726d207468697320616374696f6e000000000000000000000000006064820152608401610a83565b33600081815260076020526040808220805460ff19169055517fb4c88a9c5cd906354abdd1cc29e4f94c6c4de90754fb80ce51e6a33417bc81b69190a2565b6000546001600160a01b031633146130315760405162461bcd60e51b815260206004820152602660248201527f4f6e6c79207468652061646d696e2063616e20706572666f726d20746869732060448201526530b1ba34b7b760d11b6064820152608401610a83565b6001600160a01b03811660009081526009602052604090205460ff166130995760405162461bcd60e51b815260206004820152601e60248201527f456e7469747920697320616c7265616479206e6f7420766572696669656400006044820152606401610a83565b6001600160a01b038116600081815260096020526040808220805460ff19169055517f4e7593da9155b5afbbc5e5bcaaf40b112e7529d1233f4c92780fbf49682842469190a250565b3360009081526004602052604090205460ff168061310a57506000546001600160a01b031633145b61317c5760405162461bcd60e51b815260206004820152603760248201527f4f6e6c79206d616e75666163747572657273206f72207468652061646d696e2060448201527f63616e20706572666f726d207468697320616374696f6e0000000000000000006064820152608401610a83565b336000818152600460209081526040808320805460ff199081169091556008835281842080548216905560099092528083208054909216909155517f2fed5abf6a80d6dfe30b4895481b2fc5d7dce5f8f7b931832f4a2947d5040c7f9190a2565b6000546001600160a01b031633146132465760405162461bcd60e51b815260206004820152602660248201527f4f6e6c79207468652061646d696e2063616e20706572666f726d20746869732060448201526530b1ba34b7b760d11b6064820152608401610a83565b600381905560405181815233907f34949851b962a7f1c28710ba5e9ba656f8257419a4c3da8b9c6bd206856d1e27906020016124ad565b816001600160a01b0316816001600160a01b031614156133055760405162461bcd60e51b815260206004820152603e60248201527f50726f647563742063616e6e6f74206265207368697070656420746f2074686560448201527f2073616d65206164647265737320617320746865206f6c64206f776e657200006064820152608401610a83565b6000838152600b60205260409020600301546001600160a01b038281169116146133975760405162461bcd60e51b815260206004820152602c60248201527f50726f64756374206d757374206265207368697070656420746f20746865206360448201527f757272656e74206f776e657200000000000000000000000000000000000000006064820152608401610a83565b6000838152600b60205260409020600201546001600160a01b0383811691161480156134cb57506000838152600b60205260409020600701546001600160a01b0383811691161480156134135750600080848152600b6020526040902060060154610100900460ff166004811115613411576134116139ee565b145b8061346f57506000838152600b60205260409020600801546001600160a01b03838116911614801561346f575060016000848152600b6020526040902060060154610100900460ff16600481111561346d5761346d6139ee565b145b806134cb57506000838152600b60205260409020600901546001600160a01b0383811691161480156134cb575060026000848152600b6020526040902060060154610100900460ff1660048111156134c9576134c96139ee565b145b61353d5760405162461bcd60e51b815260206004820152602a60248201527f496e76616c6964206f6c64206f776e6572206f72206c6f636174696f6e20666f60448201527f72207368697070696e67000000000000000000000000000000000000000000006064820152608401610a83565b505050565b600081613550600282613b74565b61355a9190613b74565b6135649084613b5c565b9392505050565b6001600160a01b0383166135c15760405162461bcd60e51b815260206004820152601960248201527f496e76616c696420726563697069656e742061646472657373000000000000006044820152606401610a83565b600081116136115760405162461bcd60e51b815260206004820152601660248201527f496e76616c6964207061796d656e7420616d6f756e74000000000000000000006044820152606401610a83565b6001600160a01b03831660009081526004602052604090205460ff16156136ce576040516001600160a01b0384169082156108fc029083906000818181858888f19350505050158015613668573d6000803e3d6000fd5b506000828152600b6020908152604091829020600d01805460ff1916600117905581516001600160a01b03861681529081018390527f3ad0c8d1bbd63d54c5f14180eae95cab7c2420b2dbb90603a6e5d206668f52ec91015b60405180910390a1505050565b6001600160a01b03831660009081526005602052604090205460ff16801561370757506000828152600b60208190526040909120015415155b156137a1576040516001600160a01b0384169082156108fc029083906000818181858888f19350505050158015613742573d6000803e3d6000fd5b506000828152600b6020908152604091829020600d01805461ff00191661010017905581516001600160a01b03861681529081018390527f3ad0c8d1bbd63d54c5f14180eae95cab7c2420b2dbb90603a6e5d206668f52ec91016136c1565b6001600160a01b03831660009081526006602052604090205460ff1680156137d957506000828152600b60205260409020600c015415155b1561353d576040516001600160a01b0384169082156108fc029083906000818181858888f19350505050158015613814573d6000803e3d6000fd5b506000828152600b6020908152604091829020600d01805462ff000019166201000017905581516001600160a01b03861681529081018390527f3ad0c8d1bbd63d54c5f14180eae95cab7c2420b2dbb90603a6e5d206668f52ec91016136c1565b61057c80613b9783390190565b604051806101600160405280600081526020016000815260200160006001600160a01b0316815260200160006001600160a01b031681526020016000815260200160008152602001600060058111156138dd576138dd6139ee565b81526020016000815260408051608081018252600080825260208281018290529282018190526060820152910190815260200161392d604051806040016040528060008152602001600081525090565b815260408051606081018252600080825260208281018290529282015291015290565b80356001600160a01b038116811461396757600080fd5b919050565b6000806040838503121561397f57600080fd5b8235915061398f60208401613950565b90509250929050565b6000602082840312156139aa57600080fd5b5035919050565b6000602082840312156139c357600080fd5b61356482613950565b600080604083850312156139df57600080fd5b50508035926020909101359150565b634e487b7160e01b600052602160045260246000fd5b60058110613a1457613a146139ee565b9052565b60208101613a268284613a04565b92915050565b60068110613a1457613a146139ee565b6000610220820190508c82528b60208301526001600160a01b03808c166040840152808b1660608401528960808401528860a0840152613a7f60c0840189613a2c565b613a8c60e0840188613a04565b855181166101008401526020860151811661012084015260408601518116610140840152606086015116610160830152613ad461018083018580518252602090810151910152565b825115156101c0830152602083015115156101e0830152604083015115156102008301529c9b505050505050505050505050565b60208101613a268284613a2c565b634e487b7160e01b600052601160045260246000fd5b600082821015613b3e57613b3e613b16565b500390565b600060208284031215613b5557600080fd5b5051919050565b60008219821115613b6f57613b6f613b16565b500190565b600082613b9157634e487b7160e01b600052601260045260246000fd5b50049056fe60806040526302faf080600255600a60035534801561001d57600080fd5b50600080546001600160a01b0319163317905561053d8061003f6000396000f3fe60806040526004361061007b5760003560e01c8063a26759cb1161004e578063a26759cb146100fb578063e6361a8e14610103578063f851a44014610119578063fc9cc6e21461015157600080fd5b8063155dd5ee146100805780631c328f23146100a257806328443b18146100c65780634d8322c7146100db575b600080fd5b34801561008c57600080fd5b506100a061009b366004610490565b610171565b005b3480156100ae57600080fd5b506003545b6040519081526020015b60405180910390f35b3480156100d257600080fd5b506002546100b3565b3480156100e757600080fd5b506100a06100f6366004610490565b610285565b6100a061032c565b34801561010f57600080fd5b506100b360015481565b34801561012557600080fd5b50600054610139906001600160a01b031681565b6040516001600160a01b0390911681526020016100bd565b34801561015d57600080fd5b506100a061016c366004610490565b6103f0565b6000546001600160a01b031633146101df5760405162461bcd60e51b815260206004820152602660248201527f4f6e6c79207468652061646d696e2063616e20706572666f726d20746869732060448201526530b1ba34b7b760d11b60648201526084015b60405180910390fd5b6001548111156102315760405162461bcd60e51b815260206004820152601260248201527f496e73756666696369656e742066756e6473000000000000000000000000000060448201526064016101d6565b806001600082825461024391906104d8565b9091555050600080546040516001600160a01b039091169183156108fc02918491818181858888f19350505050158015610281573d6000803e3d6000fd5b5050565b6000546001600160a01b031633146102ee5760405162461bcd60e51b815260206004820152602660248201527f4f6e6c79207468652061646d696e2063616e20706572666f726d20746869732060448201526530b1ba34b7b760d11b60648201526084016101d6565b600281905560405181815233907fb77f58d7bdd9979ecd98ed048fc9d5657dfb51e810bb8c078af5b318a68bf1f4906020015b60405180910390a250565b600034116103a25760405162461bcd60e51b815260206004820152602160248201527f46756e64732073656e74206d7573742062652067726561746572207468616e2060448201527f300000000000000000000000000000000000000000000000000000000000000060648201526084016101d6565b34600160008282546103b491906104ef565b909155505060405134815233907f8fe10ae416f22f5e5220b0018a6c1d4ff534d6aa3a471f2a20cb7747fe63e5b99060200160405180910390a2565b6000546001600160a01b031633146104595760405162461bcd60e51b815260206004820152602660248201527f4f6e6c79207468652061646d696e2063616e20706572666f726d20746869732060448201526530b1ba34b7b760d11b60648201526084016101d6565b600381905560405181815233907f34949851b962a7f1c28710ba5e9ba656f8257419a4c3da8b9c6bd206856d1e2790602001610321565b6000602082840312156104a257600080fd5b5035919050565b7f4e487b7100000000000000000000000000000000000000000000000000000000600052601160045260246000fd5b6000828210156104ea576104ea6104a9565b500390565b60008219821115610502576105026104a9565b50019056fea264697066735822122058c83704e5573ddfa64e525229f2bc8a34b161e8276b9340e1e16ddf2a24211a64736f6c63430008090033a26469706673582212207005e1edc04d053de2bdaa26deaa9651bc97e067fe8fed36002e724a18443be364736f6c63430008090033",
  "linkReferences": {},
  "deployedLinkReferences": {}
}