{
  "_format": "hh-sol-artifact-1",
  "contractName": "SmartSupply",
  "sourceName": "contracts/SmartSupply.sol",
  "abi": [
    {
      "anonymous": false,
      "inputs": [
        {
          "indexed": false,
          "internalType": "uint256",
          "name": "productID",
          "type": "uint256"
        },
        {
          "indexed": false,
          "internalType": "address",
          "name": "entity",
          "type": "address"
        }
      ],
      "name": "BankTransactionChanged",
      "type": "event"
    },
    {
      "anonymous": false,
      "inputs": [
        {
          "indexed": false,
          "internalType": "uint256",
          "name": "productID",
          "type": "uint256"
        },
        {
          "indexed": false,
          "internalType": "address",
          "name": "owner",
          "type": "address"
        }
      ],
      "name": "ChangedOnSale",
      "type": "event"
    },
    {
      "anonymous": false,
      "inputs": [
        {
          "indexed": true,
          "internalType": "address",
          "name": "account",
          "type": "address"
        }
      ],
      "name": "CustomerAdded",
      "type": "event"
    },
    {
      "anonymous": false,
      "inputs": [
        {
          "indexed": true,
          "internalType": "address",
          "name": "account",
          "type": "address"
        }
      ],
      "name": "CustomerRemoved",
      "type": "event"
    },
    {
      "anonymous": false,
      "inputs": [
        {
          "indexed": true,
          "internalType": "address",
          "name": "account",
          "type": "address"
        }
      ],
      "name": "DistributorAdded",
      "type": "event"
    },
    {
      "anonymous": false,
      "inputs": [
        {
          "indexed": true,
          "internalType": "address",
          "name": "account",
          "type": "address"
        }
      ],
      "name": "DistributorRemoved",
      "type": "event"
    },
    {
      "anonymous": false,
      "inputs": [
        {
          "indexed": true,
          "internalType": "address",
          "name": "from",
          "type": "address"
        },
        {
          "indexed": false,
          "internalType": "uint256",
          "name": "amount",
          "type": "uint256"
        }
      ],
      "name": "FundsAdded",
      "type": "event"
    },
    {
      "anonymous": false,
      "inputs": [
        {
          "indexed": true,
          "internalType": "address",
          "name": "account",
          "type": "address"
        }
      ],
      "name": "ManufacturerAdded",
      "type": "event"
    },
    {
      "anonymous": false,
      "inputs": [
        {
          "indexed": true,
          "internalType": "address",
          "name": "account",
          "type": "address"
        }
      ],
      "name": "ManufacturerRemoved",
      "type": "event"
    },
    {
      "anonymous": false,
      "inputs": [
        {
          "indexed": false,
          "internalType": "uint256",
          "name": "productID",
          "type": "uint256"
        },
        {
          "indexed": false,
          "internalType": "address",
          "name": "manufacturer",
          "type": "address"
        }
      ],
      "name": "ProductProduced",
      "type": "event"
    },
    {
      "anonymous": false,
      "inputs": [
        {
          "indexed": false,
          "internalType": "uint256",
          "name": "productID",
          "type": "uint256"
        },
        {
          "indexed": false,
          "internalType": "address",
          "name": "oldOwner",
          "type": "address"
        },
        {
          "indexed": false,
          "internalType": "address",
          "name": "newOwner",
          "type": "address"
        }
      ],
      "name": "ProductPurchased",
      "type": "event"
    },
    {
      "anonymous": false,
      "inputs": [
        {
          "indexed": false,
          "internalType": "uint256",
          "name": "productID",
          "type": "uint256"
        },
        {
          "indexed": false,
          "internalType": "address",
          "name": "receiver",
          "type": "address"
        }
      ],
      "name": "ProductReceived",
      "type": "event"
    },
    {
      "anonymous": false,
      "inputs": [
        {
          "indexed": false,
          "internalType": "uint256",
          "name": "productID",
          "type": "uint256"
        },
        {
          "indexed": false,
          "internalType": "address",
          "name": "sender",
          "type": "address"
        },
        {
          "indexed": false,
          "internalType": "address",
          "name": "receiver",
          "type": "address"
        }
      ],
      "name": "ProductShipped",
      "type": "event"
    },
    {
      "anonymous": false,
      "inputs": [
        {
          "indexed": true,
          "internalType": "address",
          "name": "account",
          "type": "address"
        }
      ],
      "name": "RetailerAdded",
      "type": "event"
    },
    {
      "anonymous": false,
      "inputs": [
        {
          "indexed": true,
          "internalType": "address",
          "name": "account",
          "type": "address"
        }
      ],
      "name": "RetailerRemoved",
      "type": "event"
    },
    {
      "anonymous": false,
      "inputs": [
        {
          "indexed": false,
          "internalType": "address",
          "name": "receiver",
          "type": "address"
        },
        {
          "indexed": false,
          "internalType": "uint256",
          "name": "amount",
          "type": "uint256"
        }
      ],
      "name": "RewardGiven",
      "type": "event"
    },
    {
      "inputs": [],
      "name": "addCustomer",
      "outputs": [],
      "stateMutability": "nonpayable",
      "type": "function"
    },
    {
      "inputs": [],
      "name": "addDistributor",
      "outputs": [],
      "stateMutability": "nonpayable",
      "type": "function"
    },
    {
      "inputs": [],
      "name": "addFunds",
      "outputs": [],
      "stateMutability": "payable",
      "type": "function"
    },
    {
      "inputs": [],
      "name": "addManufacturer",
      "outputs": [],
      "stateMutability": "nonpayable",
      "type": "function"
    },
    {
      "inputs": [],
      "name": "addRetailer",
      "outputs": [],
      "stateMutability": "nonpayable",
      "type": "function"
    },
    {
      "inputs": [],
      "name": "admin",
      "outputs": [
        {
          "internalType": "address",
          "name": "",
          "type": "address"
        }
      ],
      "stateMutability": "view",
      "type": "function"
    },
    {
      "inputs": [
        {
          "internalType": "uint256",
          "name": "_productID",
          "type": "uint256"
        },
        {
          "internalType": "uint256",
          "name": "_newTransactionID",
          "type": "uint256"
        }
      ],
      "name": "changeBankTransactionID",
      "outputs": [],
      "stateMutability": "nonpayable",
      "type": "function"
    },
    {
      "inputs": [
        {
          "internalType": "uint256",
          "name": "_productID",
          "type": "uint256"
        }
      ],
      "name": "changeOnSale",
      "outputs": [],
      "stateMutability": "nonpayable",
      "type": "function"
    },
    {
      "inputs": [
        {
          "internalType": "address",
          "name": "",
          "type": "address"
        }
      ],
      "name": "customers",
      "outputs": [
        {
          "internalType": "bool",
          "name": "",
          "type": "bool"
        }
      ],
      "stateMutability": "view",
      "type": "function"
    },
    {
      "inputs": [],
      "name": "defaultProductLocation",
      "outputs": [
        {
          "internalType": "enum Utils.ProductLocation",
          "name": "",
          "type": "uint8"
        }
      ],
      "stateMutability": "view",
      "type": "function"
    },
    {
      "inputs": [],
      "name": "defaultProductStage",
      "outputs": [
        {
          "internalType": "enum Utils.ProductStage",
          "name": "",
          "type": "uint8"
        }
      ],
      "stateMutability": "view",
      "type": "function"
    },
    {
      "inputs": [
        {
          "internalType": "address",
          "name": "",
          "type": "address"
        }
      ],
      "name": "distributors",
      "outputs": [
        {
          "internalType": "bool",
          "name": "",
          "type": "bool"
        }
      ],
      "stateMutability": "view",
      "type": "function"
    },
    {
      "inputs": [
        {
          "internalType": "address",
          "name": "",
          "type": "address"
        }
      ],
      "name": "entityVerificationPermission",
      "outputs": [
        {
          "internalType": "bool",
          "name": "",
          "type": "bool"
        }
      ],
      "stateMutability": "view",
      "type": "function"
    },
    {
      "inputs": [],
      "name": "getBalance",
      "outputs": [
        {
          "internalType": "uint256",
          "name": "",
          "type": "uint256"
        }
      ],
      "stateMutability": "view",
      "type": "function"
    },
    {
      "inputs": [],
      "name": "getStatus",
      "outputs": [],
      "stateMutability": "nonpayable",
      "type": "function"
    },
    {
      "inputs": [
        {
          "internalType": "address",
          "name": "account",
          "type": "address"
        }
      ],
      "name": "grantVerificationPermission",
      "outputs": [],
      "stateMutability": "nonpayable",
      "type": "function"
    },
    {
      "inputs": [
        {
          "internalType": "address",
          "name": "account",
          "type": "address"
        }
      ],
      "name": "isCustomer",
      "outputs": [
        {
          "internalType": "bool",
          "name": "",
          "type": "bool"
        }
      ],
      "stateMutability": "view",
      "type": "function"
    },
    {
      "inputs": [
        {
          "internalType": "address",
          "name": "account",
          "type": "address"
        }
      ],
      "name": "isDistributor",
      "outputs": [
        {
          "internalType": "bool",
          "name": "",
          "type": "bool"
        }
      ],
      "stateMutability": "view",
      "type": "function"
    },
    {
      "inputs": [
        {
          "internalType": "address",
          "name": "account",
          "type": "address"
        }
      ],
      "name": "isManufacturer",
      "outputs": [
        {
          "internalType": "bool",
          "name": "",
          "type": "bool"
        }
      ],
      "stateMutability": "view",
      "type": "function"
    },
    {
      "inputs": [
        {
          "internalType": "address",
          "name": "account",
          "type": "address"
        }
      ],
      "name": "isRetailer",
      "outputs": [
        {
          "internalType": "bool",
          "name": "",
          "type": "bool"
        }
      ],
      "stateMutability": "view",
      "type": "function"
    },
    {
      "inputs": [
        {
          "internalType": "address",
          "name": "account",
          "type": "address"
        }
      ],
      "name": "isVerificationPermitted",
      "outputs": [
        {
          "internalType": "bool",
          "name": "",
          "type": "bool"
        }
      ],
      "stateMutability": "view",
      "type": "function"
    },
    {
      "inputs": [
        {
          "internalType": "address",
          "name": "account",
          "type": "address"
        }
      ],
      "name": "isVerified",
      "outputs": [
        {
          "internalType": "bool",
          "name": "",
          "type": "bool"
        }
      ],
      "stateMutability": "view",
      "type": "function"
    },
    {
      "inputs": [
        {
          "internalType": "address",
          "name": "",
          "type": "address"
        }
      ],
      "name": "manufacturers",
      "outputs": [
        {
          "internalType": "bool",
          "name": "",
          "type": "bool"
        }
      ],
      "stateMutability": "view",
      "type": "function"
    },
    {
      "inputs": [
        {
          "internalType": "uint256",
          "name": "_productID",
          "type": "uint256"
        },
        {
          "internalType": "uint256",
          "name": "_productUID",
          "type": "uint256"
        }
      ],
      "name": "produceProduct",
      "outputs": [],
      "stateMutability": "nonpayable",
      "type": "function"
    },
    {
      "inputs": [
        {
          "internalType": "uint256",
          "name": "",
          "type": "uint256"
        }
      ],
      "name": "products",
      "outputs": [
        {
          "internalType": "uint256",
          "name": "productID",
          "type": "uint256"
        },
        {
          "internalType": "uint256",
          "name": "productUID",
          "type": "uint256"
        },
        {
          "internalType": "address",
          "name": "previousOwner",
          "type": "address"
        },
        {
          "internalType": "address",
          "name": "currentOwner",
          "type": "address"
        },
        {
          "internalType": "uint256",
          "name": "creationDate",
          "type": "uint256"
        },
        {
          "internalType": "enum Utils.ProductStage",
          "name": "productStage",
          "type": "uint8"
        },
        {
          "internalType": "enum Utils.ProductLocation",
          "name": "productLocation",
          "type": "uint8"
        },
        {
          "components": [
            {
              "internalType": "address",
              "name": "manufacturer",
              "type": "address"
            },
            {
              "internalType": "address",
              "name": "distributor",
              "type": "address"
            },
            {
              "internalType": "address",
              "name": "retailer",
              "type": "address"
            },
            {
              "internalType": "address",
              "name": "customer",
              "type": "address"
            }
          ],
          "internalType": "struct Utils.Ownerships",
          "name": "ownerships",
          "type": "tuple"
        },
        {
          "components": [
            {
              "internalType": "uint256",
              "name": "distributorBankTransactionID",
              "type": "uint256"
            },
            {
              "internalType": "uint256",
              "name": "retailerBankTransactionID",
              "type": "uint256"
            }
          ],
          "internalType": "struct Utils.TransactionIDs",
          "name": "transactionIDs",
          "type": "tuple"
        },
        {
          "components": [
            {
              "internalType": "bool",
              "name": "manufacturerRewarded",
              "type": "bool"
            },
            {
              "internalType": "bool",
              "name": "distributorRewarded",
              "type": "bool"
            },
            {
              "internalType": "bool",
              "name": "retailerRewarded",
              "type": "bool"
            }
          ],
          "internalType": "struct Utils.ProductRewards",
          "name": "rewards",
          "type": "tuple"
        }
      ],
      "stateMutability": "view",
      "type": "function"
    },
    {
      "inputs": [
        {
          "internalType": "uint256",
          "name": "_productID",
          "type": "uint256"
        }
      ],
      "name": "purchaseProduct",
      "outputs": [],
      "stateMutability": "payable",
      "type": "function"
    },
    {
      "inputs": [
        {
          "internalType": "uint256",
          "name": "_productID",
          "type": "uint256"
        }
      ],
      "name": "receiveProduct",
      "outputs": [],
      "stateMutability": "nonpayable",
      "type": "function"
    },
    {
      "inputs": [],
      "name": "removeCustomer",
      "outputs": [],
      "stateMutability": "nonpayable",
      "type": "function"
    },
    {
      "inputs": [],
      "name": "removeDistributor",
      "outputs": [],
      "stateMutability": "nonpayable",
      "type": "function"
    },
    {
      "inputs": [],
      "name": "removeManufacturer",
      "outputs": [],
      "stateMutability": "nonpayable",
      "type": "function"
    },
    {
      "inputs": [],
      "name": "removeRetailer",
      "outputs": [],
      "stateMutability": "nonpayable",
      "type": "function"
    },
    {
      "inputs": [
        {
          "internalType": "address",
          "name": "account",
          "type": "address"
        }
      ],
      "name": "removeVerification",
      "outputs": [],
      "stateMutability": "nonpayable",
      "type": "function"
    },
    {
      "inputs": [
        {
          "internalType": "address",
          "name": "",
          "type": "address"
        }
      ],
      "name": "retailers",
      "outputs": [
        {
          "internalType": "bool",
          "name": "",
          "type": "bool"
        }
      ],
      "stateMutability": "view",
      "type": "function"
    },
    {
      "inputs": [
        {
          "internalType": "address",
          "name": "account",
          "type": "address"
        }
      ],
      "name": "revokeVerificationPermission",
      "outputs": [],
      "stateMutability": "nonpayable",
      "type": "function"
    },
    {
      "inputs": [
        {
          "internalType": "uint256",
          "name": "_productID",
          "type": "uint256"
        },
        {
          "internalType": "address",
          "name": "receiver",
          "type": "address"
        }
      ],
      "name": "shipProduct",
      "outputs": [],
      "stateMutability": "nonpayable",
      "type": "function"
    },
    {
      "inputs": [],
      "name": "smartSupplyBalance",
      "outputs": [
        {
          "internalType": "uint256",
          "name": "",
          "type": "uint256"
        }
      ],
      "stateMutability": "view",
      "type": "function"
    },
    {
      "inputs": [],
      "name": "status",
      "outputs": [
        {
          "internalType": "string",
          "name": "",
          "type": "string"
        }
      ],
      "stateMutability": "view",
      "type": "function"
    },
    {
      "inputs": [
        {
          "internalType": "address",
          "name": "",
          "type": "address"
        }
      ],
      "name": "verificationStatus",
      "outputs": [
        {
          "internalType": "bool",
          "name": "",
          "type": "bool"
        }
      ],
      "stateMutability": "view",
      "type": "function"
    },
    {
      "inputs": [],
      "name": "verifyEntity",
      "outputs": [],
      "stateMutability": "payable",
      "type": "function"
    },
    {
      "inputs": [
        {
          "internalType": "uint256",
          "name": "amount",
          "type": "uint256"
        }
      ],
      "name": "withdrawFunds",
      "outputs": [],
      "stateMutability": "nonpayable",
      "type": "function"
    }
  ],
  "bytecode": "0x60806040526008805461ffff1916905534801561001b57600080fd5b50600080546001600160a01b031916331790556133938061003d6000396000f3fe6080604052600436106102bb5760003560e01c80637bd6221f1161016e578063b6d07385116100cb578063ceecd5961161007f578063f7d139cb11610064578063f7d139cb146108be578063f851a440146108de578063f89620e11461091657600080fd5b8063ceecd59614610893578063e6361a8e146108a857600080fd5b8063c18e0ed9116100b0578063c18e0ed914610829578063c4cb905014610849578063cc6427841461086357600080fd5b8063b6d07385146107c0578063b9209e33146107f057600080fd5b8063a26759cb11610122578063a315bd0a11610107578063a315bd0a1461075b578063ac52480e1461077b578063adafb3d41461079057600080fd5b8063a26759cb1461073e578063a2c66c361461074657600080fd5b806397cf3c371161015357806397cf3c37146106e45780639a268f35146106f95780639bdc08011461072957600080fd5b80637bd6221f146106725780638f0c86fa146106ab57600080fd5b80632d156a8d1161021c5780636b2a5c35116101d0578063762b51db116101b5578063762b51db146105265780637acc0b20146105525780637ad844751461065d57600080fd5b80636b2a5c35146104d65780636b5eb09c146104f657600080fd5b806338e76a031161020157806338e76a03146104755780634e69d560146104885780635da09b881461049d57600080fd5b80632d156a8d14610425578063336989ae1461044557600080fd5b8063200d2ed21161027357806328fd5e831161025857806328fd5e83146103c4578063293be2dd146103fd57806329d783281461040557600080fd5b8063200d2ed21461038257806326e1066e146103a457600080fd5b8063155dd5ee116102a4578063155dd5ee1461030457806316479b851461032457806317d4a4911461033957600080fd5b80630e8336dd146102c057806312065fe0146102e2575b600080fd5b3480156102cc57600080fd5b506102e06102db3660046130ef565b61092b565b005b3480156102ee57600080fd5b50475b6040519081526020015b60405180910390f35b34801561031057600080fd5b506102e061031f36600461311b565b610c3e565b34801561033057600080fd5b506102e0610d4d565b34801561034557600080fd5b50610372610354366004613134565b6001600160a01b031660009081526002602052604090205460ff1690565b60405190151581526020016102fb565b34801561038e57600080fd5b50610397610e48565b6040516102fb9190613156565b3480156103b057600080fd5b506102e06103bf366004613134565b610ed6565b3480156103d057600080fd5b506103726103df366004613134565b6001600160a01b031660009081526005602052604090205460ff1690565b6102e0610f60565b34801561041157600080fd5b506102e061042036600461311b565b61114a565b34801561043157600080fd5b506102e061044036600461311b565b61156e565b34801561045157600080fd5b50610372610460366004613134565b60056020526000908152604090205460ff1681565b6102e061048336600461311b565b61180f565b34801561049457600080fd5b506102e0611cd5565b3480156104a957600080fd5b506103726104b8366004613134565b6001600160a01b031660009081526004602052604090205460ff1690565b3480156104e257600080fd5b506102e06104f13660046131ab565b611d1c565b34801561050257600080fd5b50610372610511366004613134565b60026020526000908152604090205460ff1681565b34801561053257600080fd5b5060085461054590610100900460ff1681565b6040516102fb9190613201565b34801561055e57600080fd5b5061064761056d36600461311b565b6009602081815260009283526040928390208054600182015460028301546003840154600485015460058601548951608081018b5260068801546001600160a01b03908116825260078901548116828b015260088901548116828d0152998801548a166060808301919091528b51808d018d52600a8a01548152600b8a0154818c01528c519182018d52600c9099015460ff80821615158352610100808304821615159c84019c909c5262010000909104811615159c82019c909c52969a959994851698949093169691958582169594909104909316928a565b6040516102fb9a99989796959493929190613214565b34801561066957600080fd5b506102e0612035565b34801561067e57600080fd5b5061037261068d366004613134565b6001600160a01b031660009081526006602052604090205460ff1690565b3480156106b757600080fd5b506103726106c6366004613134565b6001600160a01b031660009081526003602052604090205460ff1690565b3480156106f057600080fd5b506102e0612077565b34801561070557600080fd5b50610372610714366004613134565b60046020526000908152604090205460ff1681565b34801561073557600080fd5b506102e06120db565b6102e06121d6565b34801561075257600080fd5b506102e061229a565b34801561076757600080fd5b506102e06107763660046131ab565b6122fe565b34801561078757600080fd5b506102e06125ad565b34801561079c57600080fd5b506103726107ab366004613134565b60076020526000908152604090205460ff1681565b3480156107cc57600080fd5b506103726107db366004613134565b60066020526000908152604090205460ff1681565b3480156107fc57600080fd5b5061037261080b366004613134565b6001600160a01b031660009081526007602052604090205460ff1690565b34801561083557600080fd5b506102e0610844366004613134565b612611565b34801561085557600080fd5b506008546105459060ff1681565b34801561086f57600080fd5b5061037261087e366004613134565b60036020526000908152604090205460ff1681565b34801561089f57600080fd5b506102e061269e565b3480156108b457600080fd5b506102f160015481565b3480156108ca57600080fd5b506102e06108d9366004613134565b612777565b3480156108ea57600080fd5b506000546108fe906001600160a01b031681565b6040516001600160a01b0390911681526020016102fb565b34801561092257600080fd5b506102e0612869565b3360009081526002602052604090205460ff168061095857503360009081526003602052604090205460ff165b8061097257503360009081526004602052604090205460ff165b6109f75760405162461bcd60e51b815260206004820152604560248201527f4f6e6c79206d616e756661637475726572732c206469737472696275746f727360448201527f206f722072657461696c6572732063616e20706572666f726d2074686973206160648201526431ba34b7b760d91b608482015260a4015b60405180910390fd5b600260008381526009602052604090206005015460ff166004811115610a1f57610a1f6131cd565b14610a925760405162461bcd60e51b815260206004820152603660248201527f50726f64756374206d7573742062652070757263686173656420627920736f6d60448201527f6520656e7469747920746f20626520736869707065640000000000000000000060648201526084016109ee565b6000828152600960205260409020600201546001600160a01b03163314610b215760405162461bcd60e51b815260206004820152602c60248201527f50726f647563742063616e206f6e6c792062652073686970706564206279207460448201527f6865206f6c64206f776e6572000000000000000000000000000000000000000060648201526084016109ee565b610b2c823383612964565b60008281526009602090815260408083206005908101805461ffff19166104031790556001600160a01b038516845290915290205460ff1615610bee57600082815260096020526040812060060154610b92916001600160a01b03909116906019612c29565b60008281526009602052604090206007810154600a90910154610bc0916001600160a01b0316906019612c29565b60008281526009602052604090206008810154600b90910154610bee916001600160a01b0316906019612c29565b604080518381523360208201526001600160a01b038316918101919091527fae22003d449cfb842a57062f1f6ae06a4abdabcdfb0b6e02deee5584df17b277906060015b60405180910390a15050565b6000546001600160a01b03163314610ca75760405162461bcd60e51b815260206004820152602660248201527f4f6e6c79207468652061646d696e2063616e20706572666f726d20746869732060448201526530b1ba34b7b760d11b60648201526084016109ee565b600154811115610cf95760405162461bcd60e51b815260206004820152601260248201527f496e73756666696369656e742066756e6473000000000000000000000000000060448201526064016109ee565b8060016000828254610d0b91906132f3565b9091555050600080546040516001600160a01b039091169183156108fc02918491818181858888f19350505050158015610d49573d6000803e3d6000fd5b5050565b3360009081526004602052604090205460ff1680610d7557506000546001600160a01b031633145b610de75760405162461bcd60e51b815260206004820152603360248201527f4f6e6c792072657461696c657273206f72207468652061646d696e2063616e2060448201527f706572666f726d207468697320616374696f6e0000000000000000000000000060648201526084016109ee565b336000818152600460209081526040808320805460ff199081169091556006835281842080548216905560079092528083208054909216909155517fdb7176e79cffef81cb01767dd0447a0b24bb72ca9778d4b245581086b2a7e6db9190a2565b600a8054610e559061330a565b80601f0160208091040260200160405190810160405280929190818152602001828054610e819061330a565b8015610ece5780601f10610ea357610100808354040283529160200191610ece565b820191906000526020600020905b815481529060010190602001808311610eb157829003601f168201915b505050505081565b6000546001600160a01b03163314610f3f5760405162461bcd60e51b815260206004820152602660248201527f4f6e6c79207468652061646d696e2063616e20706572666f726d20746869732060448201526530b1ba34b7b760d11b60648201526084016109ee565b6001600160a01b03166000908152600660205260409020805460ff19169055565b3360009081526006602052604090205460ff16610fe55760405162461bcd60e51b815260206004820152603060248201527f456e74697479206861736e277420676976656e20697473206964656e7469666960448201527f636174696f6e2070726f6f66207965740000000000000000000000000000000060648201526084016109ee565b3360009081526005602052604090205460ff161561106b5760405162461bcd60e51b815260206004820152603060248201527f437573746f6d65727320617265206e6f7420616c6c6f77656420746f2070657260448201527f666f726d207468697320616374696f6e0000000000000000000000000000000060648201526084016109ee565b60143410156110e25760405162461bcd60e51b815260206004820152602560248201527f496e73756666696369656e74207061796d656e7420666f72207665726966696360448201527f6174696f6e00000000000000000000000000000000000000000000000000000060648201526084016109ee565b34600160008282546110f49190613345565b909155505060405134815233907f8fe10ae416f22f5e5220b0018a6c1d4ff534d6aa3a471f2a20cb7747fe63e5b99060200160405180910390a2336000908152600760205260409020805460ff19166001179055565b3360009081526005602052604090205460ff168061117757503360009081526003602052604090205460ff165b8061119157503360009081526004602052604090205460ff165b61120d5760405162461bcd60e51b815260206004820152604160248201527f4f6e6c7920637573746f6d6572732c206469737472696275746f7273206f722060448201527f72657461696c6572732063616e20706572666f726d207468697320616374696f6064820152603760f91b608482015260a4016109ee565b600360008281526009602052604090206005015460ff166004811115611235576112356131cd565b146112a85760405162461bcd60e51b815260206004820152603160248201527f50726f64756374206d75737420626520696e202753686970706564272073746160448201527f676520746f20626520726563656976656400000000000000000000000000000060648201526084016109ee565b6004600082815260096020526040902060050154610100900460ff1660048111156112d5576112d56131cd565b146113485760405162461bcd60e51b815260206004820152603560248201527f50726f64756374206d75737420626520696e20275368697070696e6727206c6f60448201527f636174696f6e20746f206265207265636569766564000000000000000000000060648201526084016109ee565b6000818152600960205260409020600301546001600160a01b031633146113d75760405162461bcd60e51b815260206004820152602e60248201527f4f6e6c79207468652063757272656e74206f776e65722063616e20726563656960448201527f7665207468652070726f6475637400000000000000000000000000000000000060648201526084016109ee565b600081815260096020526040902060058101805460ff1916600417905560070154336001600160a01b03909116141561143557600081815260096020526040902060050180546001919061ff001916610100835b0217905550611532565b6000818152600960205260409020600801546001600160a01b031633141561147c57600081815260096020526040902060050180546002919061ff0019166101008361142b565b600081815260096020819052604090912001546001600160a01b03163314156114c457600081815260096020526040902060050180546003919061ff0019166101008361142b565b60405162461bcd60e51b815260206004820152602b60248201527f496e76616c69642063757272656e74206f776e657220666f722075706461746960448201527f6e67206c6f636174696f6e00000000000000000000000000000000000000000060648201526084016109ee565b604080518281523360208201527f7eb38f83fec1bdc45e831c15e9e3eb2369028929a0e38e3709b7e710362f823b91015b60405180910390a150565b3360009081526002602052604090205460ff168061159b57503360009081526003602052604090205460ff165b806115b557503360009081526004602052604090205460ff165b6116355760405162461bcd60e51b815260206004820152604560248201527f4f6e6c79206d616e756661637475726572732c206469737472696275746f727360448201527f206f722072657461696c6572732063616e20706572666f726d2074686973206160648201526431ba34b7b760d91b608482015260a4016109ee565b6000818152600960205260409020600301546001600160a01b031633146116c45760405162461bcd60e51b815260206004820152603d60248201527f4f6e6c79207468652063757272656e74206f776e65722063616e206368616e6760448201527f65207468652070726f6475637420737461676520746f204f6e53616c6500000060648201526084016109ee565b600260008281526009602052604090206005015460ff1660048111156116ec576116ec6131cd565b141580156117205750600360008281526009602052604090206005015460ff16600481111561171d5761171d6131cd565b14155b6117b85760405162461bcd60e51b815260206004820152604560248201527f50726f64756374206d757374206e6f7420626520696e2050757263686173656460448201527f206f72205368697070656420737461676520746f206368616e676520746f204f60648201527f6e53616c65000000000000000000000000000000000000000000000000000000608482015260a4016109ee565b600081815260096020526040902060050180546001919060ff191682800217905550604080518281523360208201527f5ea9686d3fd9cc47111972119dae21c738cc8467f126b047ba099f2e986dc84f9101611563565b3360009081526005602052604090205460ff168061183c57503360009081526003602052604090205460ff165b8061185657503360009081526004602052604090205460ff165b6118d25760405162461bcd60e51b815260206004820152604160248201527f4f6e6c7920637573746f6d6572732c206469737472696275746f7273206f722060448201527f72657461696c6572732063616e20706572666f726d207468697320616374696f6064820152603760f91b608482015260a4016109ee565b6000818152600960205260409020600301546001600160a01b03163314156119625760405162461bcd60e51b815260206004820152602b60248201527f43757272656e74206f776e6572732063616e277420627579207468656972206f60448201527f776e2070726f647563747300000000000000000000000000000000000000000060648201526084016109ee565b600160008281526009602052604090206005015460ff16600481111561198a5761198a6131cd565b146119fd5760405162461bcd60e51b815260206004820152602760248201527f50726f64756374206d757374206265204f6e2053616c6520746f20626520707560448201527f726368617365640000000000000000000000000000000000000000000000000060648201526084016109ee565b3360009081526005602052604090205460ff168015611b0257606434811115611ab45760405162461bcd60e51b815260206004820152605060248201527f437573746f6d657273206d7573742073656e642074686520636f72726563742060448201527f616d6f756e74206f6620636f696e7320746f20627579207468652070726f647560648201527f63742063657274696669636174696f6e00000000000000000000000000000000608482015260a4016109ee565b3460016000828254611ac69190613345565b909155505060405134815233907f8fe10ae416f22f5e5220b0018a6c1d4ff534d6aa3a471f2a20cb7747fe63e5b99060200160405180910390a2505b6000828152600960209081526040808320600581018054600260ff199091168117909155600380830180549290930180546001600160a01b0384166001600160a01b0319918216179091553392168217909255845290915290205460ff1615611b8b57600082815260096020526040902060070180546001600160a01b03191633179055611c76565b3360009081526004602052604090205460ff1615611bc957600082815260096020526040902060080180546001600160a01b03191633179055611c76565b3360009081526005602052604090205460ff1615611c085760008281526009602081905260409091200180546001600160a01b03191633179055611c76565b60405162461bcd60e51b815260206004820152602d60248201527f496e76616c696420726f6c6520666f72207570646174696e672070726f64756360448201527f7420696e666f726d6174696f6e0000000000000000000000000000000000000060648201526084016109ee565b6000828152600960209081526040918290206002015482518581526001600160a01b039091169181019190915233918101919091527f405b8e92032184041314dcddf305e0d97d13b103d3fa162eb2b1c760760bdc0a90606001610c32565b6040805180820190915260058082527f50617965640000000000000000000000000000000000000000000000000000006020909201918252611d1991600a91612f96565b50565b3360009081526002602052604090205460ff1680611d4457506000546001600160a01b031633145b611db65760405162461bcd60e51b815260206004820152603760248201527f4f6e6c79206d616e75666163747572657273206f72207468652061646d696e2060448201527f63616e20706572666f726d207468697320616374696f6e00000000000000000060648201526084016109ee565b611dbe61301a565b828152602081018290523360608201819052604082015242608082015260085460a082019060ff166004811115611df757611df76131cd565b90816004811115611e0a57611e0a6131cd565b90525060085460c0820190610100900460ff166004811115611e2e57611e2e6131cd565b90816004811115611e4157611e416131cd565b905250604080516080808201835260006020808401829052838501829052606080850183905233855260e0870185905288835260098252918590208651815590860151600180830191909155948601516002820180546001600160a01b03199081166001600160a01b0393841617909155928701516003830180549094169116179091559084015160048083019190915560a0850151600583018054949587959293919260ff1916918490811115611efb57611efb6131cd565b021790555060c082015160058201805461ff001916610100836004811115611f2557611f256131cd565b021790555060e082015180516006830180546001600160a01b03199081166001600160a01b0393841617909155602080840151600786018054841691851691909117905560408085015160088701805485169186169190911790556060909401516009860180549093169316929092179055610100808501518051600a860155820151600b850155610120909401518051600c9094018054828401519285015161ffff1990911695151561ff001916959095179115159095021762ff00001916620100009315159390930292909217909255815186815233918101919091527f97c998f1009a742d52bd2b93e67352e2800f1b46a2a226b31cfa903ec93892f7910160405180910390a150505050565b33600081815260056020526040808220805460ff19166001179055517fcd118a02bd36f224f6f1b93812f78d2bbc2c2dc1bc0f60c176e3b4fe09f1483f9190a2565b336000818152600460209081526040808320805460ff199081166001179091556006835281842080548216905560079092528083208054909216909155517f71ae26cad02663e3d92efd6ec56031a80d74a20c0ab4183faa8bf262261c9baa9190a2565b3360009081526003602052604090205460ff168061210357506000546001600160a01b031633145b6121755760405162461bcd60e51b815260206004820152603660248201527f4f6e6c79206469737472696275746f7273206f72207468652061646d696e206360448201527f616e20706572666f726d207468697320616374696f6e0000000000000000000060648201526084016109ee565b336000818152600360209081526040808320805460ff199081169091556006835281842080548216905560079092528083208054909216909155517f126174f6cf49c81cdb4a9214c6b8f037bef55b4ec31e4fc776cea2a1c8a88d599190a2565b6000341161224c5760405162461bcd60e51b815260206004820152602160248201527f46756e64732073656e74206d7573742062652067726561746572207468616e2060448201527f300000000000000000000000000000000000000000000000000000000000000060648201526084016109ee565b346001600082825461225e9190613345565b909155505060405134815233907f8fe10ae416f22f5e5220b0018a6c1d4ff534d6aa3a471f2a20cb7747fe63e5b99060200160405180910390a2565b336000818152600260209081526040808320805460ff199081166001179091556006835281842080548216905560079092528083208054909216909155517f561138658ca49a8540dc70dcfe64c9026c1c5b9344642242dd6562970f9c12789190a2565b3360009081526005602052604090205460ff1680156123375750600082815260096020819052604090912001546001600160a01b031633145b156123415761245b565b3360009081526003602052604090205460ff16801561237957506000828152600960205260409020600701546001600160a01b031633145b15612397576000828152600960205260409020600a0181905561245b565b3360009081526004602052604090205460ff1680156123cf57506000828152600960205260409020600801546001600160a01b031633145b156123ed576000828152600960205260409020600b0181905561245b565b60405162461bcd60e51b815260206004820152603c60248201527f43616c6c657220646f6573206e6f74206861766520746865207269676874207460448201527f6f206368616e67652062616e6b207472616e73616374696f6e2049440000000060648201526084016109ee565b3360009081526003602052604090205460ff16801561249357506000828152600960205260409020600701546001600160a01b031633145b80156124b657506000828152600960205260409020600c0154610100900460ff16155b156124ea576124c733836019612c29565b6000828152600960205260409020600c01805461ff001916610100179055612578565b3360009081526004602052604090205460ff16801561252257506000828152600960205260409020600801546001600160a01b031633145b801561254657506000828152600960205260409020600c015462010000900460ff16155b156125785761255733836019612c29565b6000828152600960205260409020600c01805462ff00001916620100001790555b604080518381523360208201527fdcd2f9ad8329d46769c3238811ad3ca487334dd220ad05263c0f9ea1a19ccc879101610c32565b336000818152600360209081526040808320805460ff199081166001179091556006835281842080548216905560079092528083208054909216909155517fddbf200aa634dc3fb81cfd68583dd1040d1c751d335e1d86b631bde3e977fea89190a2565b6000546001600160a01b0316331461267a5760405162461bcd60e51b815260206004820152602660248201527f4f6e6c79207468652061646d696e2063616e20706572666f726d20746869732060448201526530b1ba34b7b760d11b60648201526084016109ee565b6001600160a01b03166000908152600660205260409020805460ff19166001179055565b3360009081526005602052604090205460ff16806126c657506000546001600160a01b031633145b6127385760405162461bcd60e51b815260206004820152603360248201527f4f6e6c7920637573746f6d657273206f72207468652061646d696e2063616e2060448201527f706572666f726d207468697320616374696f6e0000000000000000000000000060648201526084016109ee565b33600081815260056020526040808220805460ff19169055517fb4c88a9c5cd906354abdd1cc29e4f94c6c4de90754fb80ce51e6a33417bc81b69190a2565b6000546001600160a01b031633146127e05760405162461bcd60e51b815260206004820152602660248201527f4f6e6c79207468652061646d696e2063616e20706572666f726d20746869732060448201526530b1ba34b7b760d11b60648201526084016109ee565b6001600160a01b03811660009081526007602052604090205460ff166128485760405162461bcd60e51b815260206004820152601e60248201527f456e7469747920697320616c7265616479206e6f74207665726966696564000060448201526064016109ee565b6001600160a01b03166000908152600760205260409020805460ff19169055565b3360009081526002602052604090205460ff168061289157506000546001600160a01b031633145b6129035760405162461bcd60e51b815260206004820152603760248201527f4f6e6c79206d616e75666163747572657273206f72207468652061646d696e2060448201527f63616e20706572666f726d207468697320616374696f6e00000000000000000060648201526084016109ee565b336000818152600260209081526040808320805460ff199081169091556006835281842080548216905560079092528083208054909216909155517f2fed5abf6a80d6dfe30b4895481b2fc5d7dce5f8f7b931832f4a2947d5040c7f9190a2565b816001600160a01b0316816001600160a01b031614156129ec5760405162461bcd60e51b815260206004820152603e60248201527f50726f647563742063616e6e6f74206265207368697070656420746f2074686560448201527f2073616d65206164647265737320617320746865206f6c64206f776e6572000060648201526084016109ee565b6000838152600960205260409020600301546001600160a01b03828116911614612a7e5760405162461bcd60e51b815260206004820152602c60248201527f50726f64756374206d757374206265207368697070656420746f20746865206360448201527f757272656e74206f776e6572000000000000000000000000000000000000000060648201526084016109ee565b6000838152600960205260409020600201546001600160a01b038381169116148015612bb257506000838152600960205260409020600601546001600160a01b038381169116148015612afa575060008084815260096020526040902060050154610100900460ff166004811115612af857612af86131cd565b145b80612b5657506000838152600960205260409020600701546001600160a01b038381169116148015612b5657506001600084815260096020526040902060050154610100900460ff166004811115612b5457612b546131cd565b145b80612bb257506000838152600960205260409020600801546001600160a01b038381169116148015612bb257506002600084815260096020526040902060050154610100900460ff166004811115612bb057612bb06131cd565b145b612c245760405162461bcd60e51b815260206004820152602a60248201527f496e76616c6964206f6c64206f776e6572206f72206c6f636174696f6e20666f60448201527f72207368697070696e670000000000000000000000000000000000000000000060648201526084016109ee565b505050565b6001600160a01b038316612c7f5760405162461bcd60e51b815260206004820152601960248201527f496e76616c696420726563697069656e7420616464726573730000000000000060448201526064016109ee565b60008111612ccf5760405162461bcd60e51b815260206004820152601660248201527f496e76616c6964207061796d656e7420616d6f756e740000000000000000000060448201526064016109ee565b6001600160a01b03831660009081526004602052604090205460ff1615612da7576000828152600960205260409020600b015415612c24576040516001600160a01b0384169082156108fc029083906000818181858888f19350505050158015612d3d573d6000803e3d6000fd5b50600082815260096020908152604091829020600c01805462ff000019166201000017905581516001600160a01b03861681529081018390527f3ad0c8d1bbd63d54c5f14180eae95cab7c2420b2dbb90603a6e5d206668f52ec91015b60405180910390a1505050565b6001600160a01b03831660009081526003602052604090205460ff1615612e74576000828152600960205260409020600a015415612c24576040516001600160a01b0384169082156108fc029083906000818181858888f19350505050158015612e15573d6000803e3d6000fd5b50600082815260096020908152604091829020600c01805461ff00191661010017905581516001600160a01b03861681529081018390527f3ad0c8d1bbd63d54c5f14180eae95cab7c2420b2dbb90603a6e5d206668f52ec9101612d9a565b6001600160a01b03831660009081526002602052604090205460ff1615612f28576040516001600160a01b0384169082156108fc029083906000818181858888f19350505050158015612ecb573d6000803e3d6000fd5b50600082815260096020908152604091829020600c01805460ff1916600117905581516001600160a01b03861681529081018390527f3ad0c8d1bbd63d54c5f14180eae95cab7c2420b2dbb90603a6e5d206668f52ec9101612d9a565b60405162461bcd60e51b815260206004820152602f60248201527f496e76616c696420726563697069656e7420726f6c65206f72206d697373696e60448201527f67207472616e73616374696f6e4944000000000000000000000000000000000060648201526084016109ee565b828054612fa29061330a565b90600052602060002090601f016020900481019282612fc4576000855561300a565b82601f10612fdd57805160ff191683800117855561300a565b8280016001018555821561300a579182015b8281111561300a578251825591602001919060010190612fef565b506130169291506130be565b5090565b604080516101408101825260008082526020820181905291810182905260608101829052608081018290529060a082019081526020016000815260408051608081018252600080825260208281018290529282018190526060820152910190815260200161309b604051806040016040528060008152602001600081525090565b815260408051606081018252600080825260208281018290529282015291015290565b5b8082111561301657600081556001016130bf565b80356001600160a01b03811681146130ea57600080fd5b919050565b6000806040838503121561310257600080fd5b82359150613112602084016130d3565b90509250929050565b60006020828403121561312d57600080fd5b5035919050565b60006020828403121561314657600080fd5b61314f826130d3565b9392505050565b600060208083528351808285015260005b8181101561318357858101830151858201604001528201613167565b81811115613195576000604083870101525b50601f01601f1916929092016040019392505050565b600080604083850312156131be57600080fd5b50508035926020909101359150565b634e487b7160e01b600052602160045260246000fd5b60058110611d1957634e487b7160e01b600052602160045260246000fd5b6020810161320e836131e3565b91905290565b6000610200820190508b82528a60208301526001600160a01b03808b166040840152808a16606084015288608084015261324d886131e3565b8760a084015261325c876131e3565b60c083018790528551811660e084015260208601518116610100840152604086015181166101208401526060860151166101408301526132aa61016083018580518252602090810151910152565b825115156101a0830152602083015115156101c0830152604083015115156101e08301529b9a5050505050505050505050565b634e487b7160e01b600052601160045260246000fd5b600082821015613305576133056132dd565b500390565b600181811c9082168061331e57607f821691505b6020821081141561333f57634e487b7160e01b600052602260045260246000fd5b50919050565b60008219821115613358576133586132dd565b50019056fea26469706673582212201b1bc957a4618213f86ab77c66a4074e894f6bcfdc52365e4d615d6be3593fb564736f6c63430008090033",
  "linkReferences": {},
  "deployedLinkReferences": {}
}