{
  "_format": "hh-sol-artifact-1",
  "contractName": "SmartSupply",
  "sourceName": "contracts/SmartSupply.sol",
  "abi": [
    {
      "anonymous": false,
      "inputs": [
        {
          "indexed": false,
          "internalType": "uint256",
          "name": "productID",
          "type": "uint256"
        },
        {
          "indexed": false,
          "internalType": "address",
          "name": "entity",
          "type": "address"
        }
      ],
      "name": "BankTransactionChanged",
      "type": "event"
    },
    {
      "anonymous": false,
      "inputs": [
        {
          "indexed": true,
          "internalType": "address",
          "name": "from",
          "type": "address"
        },
        {
          "indexed": false,
          "internalType": "uint256",
          "name": "amount",
          "type": "uint256"
        }
      ],
      "name": "CertificationPercentageChanged",
      "type": "event"
    },
    {
      "anonymous": false,
      "inputs": [
        {
          "indexed": false,
          "internalType": "uint256",
          "name": "productID",
          "type": "uint256"
        },
        {
          "indexed": false,
          "internalType": "address",
          "name": "retailer",
          "type": "address"
        },
        {
          "indexed": false,
          "internalType": "uint256",
          "name": "newCertificationPrice",
          "type": "uint256"
        }
      ],
      "name": "CertificationPriceChanged",
      "type": "event"
    },
    {
      "anonymous": false,
      "inputs": [
        {
          "indexed": false,
          "internalType": "uint256",
          "name": "productID",
          "type": "uint256"
        },
        {
          "indexed": false,
          "internalType": "address",
          "name": "owner",
          "type": "address"
        }
      ],
      "name": "ChangedNotOnSale",
      "type": "event"
    },
    {
      "anonymous": false,
      "inputs": [
        {
          "indexed": false,
          "internalType": "uint256",
          "name": "productID",
          "type": "uint256"
        },
        {
          "indexed": false,
          "internalType": "address",
          "name": "owner",
          "type": "address"
        }
      ],
      "name": "ChangedOnSale",
      "type": "event"
    },
    {
      "anonymous": false,
      "inputs": [
        {
          "indexed": true,
          "internalType": "address",
          "name": "account",
          "type": "address"
        }
      ],
      "name": "CustomerAdded",
      "type": "event"
    },
    {
      "anonymous": false,
      "inputs": [
        {
          "indexed": true,
          "internalType": "address",
          "name": "account",
          "type": "address"
        }
      ],
      "name": "CustomerRemoved",
      "type": "event"
    },
    {
      "anonymous": false,
      "inputs": [
        {
          "indexed": true,
          "internalType": "address",
          "name": "account",
          "type": "address"
        }
      ],
      "name": "DistributorAdded",
      "type": "event"
    },
    {
      "anonymous": false,
      "inputs": [
        {
          "indexed": true,
          "internalType": "address",
          "name": "account",
          "type": "address"
        }
      ],
      "name": "DistributorRemoved",
      "type": "event"
    },
    {
      "anonymous": false,
      "inputs": [
        {
          "indexed": true,
          "internalType": "address",
          "name": "account",
          "type": "address"
        }
      ],
      "name": "EntityVerificationRemoved",
      "type": "event"
    },
    {
      "anonymous": false,
      "inputs": [
        {
          "indexed": true,
          "internalType": "address",
          "name": "account",
          "type": "address"
        }
      ],
      "name": "EntityVerified",
      "type": "event"
    },
    {
      "anonymous": false,
      "inputs": [
        {
          "indexed": true,
          "internalType": "address",
          "name": "from",
          "type": "address"
        },
        {
          "indexed": false,
          "internalType": "uint256",
          "name": "amount",
          "type": "uint256"
        }
      ],
      "name": "FundsAdded",
      "type": "event"
    },
    {
      "anonymous": false,
      "inputs": [
        {
          "indexed": true,
          "internalType": "address",
          "name": "account",
          "type": "address"
        }
      ],
      "name": "ManufacturerAdded",
      "type": "event"
    },
    {
      "anonymous": false,
      "inputs": [
        {
          "indexed": true,
          "internalType": "address",
          "name": "account",
          "type": "address"
        }
      ],
      "name": "ManufacturerRemoved",
      "type": "event"
    },
    {
      "anonymous": false,
      "inputs": [
        {
          "indexed": false,
          "internalType": "uint256",
          "name": "productID",
          "type": "uint256"
        },
        {
          "indexed": false,
          "internalType": "address",
          "name": "manufacturer",
          "type": "address"
        }
      ],
      "name": "ProductProduced",
      "type": "event"
    },
    {
      "anonymous": false,
      "inputs": [
        {
          "indexed": false,
          "internalType": "uint256",
          "name": "productID",
          "type": "uint256"
        },
        {
          "indexed": false,
          "internalType": "address",
          "name": "oldOwner",
          "type": "address"
        },
        {
          "indexed": false,
          "internalType": "address",
          "name": "newOwner",
          "type": "address"
        }
      ],
      "name": "ProductPurchased",
      "type": "event"
    },
    {
      "anonymous": false,
      "inputs": [
        {
          "indexed": false,
          "internalType": "uint256",
          "name": "productID",
          "type": "uint256"
        },
        {
          "indexed": false,
          "internalType": "address",
          "name": "receiver",
          "type": "address"
        }
      ],
      "name": "ProductReceived",
      "type": "event"
    },
    {
      "anonymous": false,
      "inputs": [
        {
          "indexed": false,
          "internalType": "uint256",
          "name": "productID",
          "type": "uint256"
        },
        {
          "indexed": false,
          "internalType": "address",
          "name": "sender",
          "type": "address"
        },
        {
          "indexed": false,
          "internalType": "address",
          "name": "receiver",
          "type": "address"
        }
      ],
      "name": "ProductShipped",
      "type": "event"
    },
    {
      "anonymous": false,
      "inputs": [
        {
          "indexed": true,
          "internalType": "address",
          "name": "account",
          "type": "address"
        }
      ],
      "name": "RetailerAdded",
      "type": "event"
    },
    {
      "anonymous": false,
      "inputs": [
        {
          "indexed": true,
          "internalType": "address",
          "name": "account",
          "type": "address"
        }
      ],
      "name": "RetailerRemoved",
      "type": "event"
    },
    {
      "anonymous": false,
      "inputs": [
        {
          "indexed": false,
          "internalType": "address",
          "name": "receiver",
          "type": "address"
        },
        {
          "indexed": false,
          "internalType": "uint256",
          "name": "amount",
          "type": "uint256"
        }
      ],
      "name": "RewardGiven",
      "type": "event"
    },
    {
      "anonymous": false,
      "inputs": [
        {
          "indexed": true,
          "internalType": "address",
          "name": "from",
          "type": "address"
        },
        {
          "indexed": false,
          "internalType": "uint256",
          "name": "amount",
          "type": "uint256"
        }
      ],
      "name": "VerificationAmountChanged",
      "type": "event"
    },
    {
      "anonymous": false,
      "inputs": [
        {
          "indexed": true,
          "internalType": "address",
          "name": "account",
          "type": "address"
        }
      ],
      "name": "VerificationPermissionGranted",
      "type": "event"
    },
    {
      "anonymous": false,
      "inputs": [
        {
          "indexed": true,
          "internalType": "address",
          "name": "account",
          "type": "address"
        }
      ],
      "name": "VerificationPermissionRevoked",
      "type": "event"
    },
    {
      "stateMutability": "payable",
      "type": "fallback"
    },
    {
      "inputs": [],
      "name": "addCustomer",
      "outputs": [],
      "stateMutability": "nonpayable",
      "type": "function"
    },
    {
      "inputs": [],
      "name": "addDistributor",
      "outputs": [],
      "stateMutability": "nonpayable",
      "type": "function"
    },
    {
      "inputs": [],
      "name": "addFunds",
      "outputs": [],
      "stateMutability": "payable",
      "type": "function"
    },
    {
      "inputs": [],
      "name": "addManufacturer",
      "outputs": [],
      "stateMutability": "nonpayable",
      "type": "function"
    },
    {
      "inputs": [],
      "name": "addRetailer",
      "outputs": [],
      "stateMutability": "nonpayable",
      "type": "function"
    },
    {
      "inputs": [],
      "name": "admin",
      "outputs": [
        {
          "internalType": "address",
          "name": "",
          "type": "address"
        }
      ],
      "stateMutability": "view",
      "type": "function"
    },
    {
      "inputs": [
        {
          "internalType": "uint256",
          "name": "_productID",
          "type": "uint256"
        },
        {
          "internalType": "uint256",
          "name": "_newTransactionID",
          "type": "uint256"
        }
      ],
      "name": "changeBankTransactionID",
      "outputs": [],
      "stateMutability": "nonpayable",
      "type": "function"
    },
    {
      "inputs": [
        {
          "internalType": "uint256",
          "name": "_productID",
          "type": "uint256"
        },
        {
          "internalType": "uint256",
          "name": "_newCertificationPrice",
          "type": "uint256"
        }
      ],
      "name": "changeCertificationPrice",
      "outputs": [],
      "stateMutability": "nonpayable",
      "type": "function"
    },
    {
      "inputs": [
        {
          "internalType": "uint256",
          "name": "_productID",
          "type": "uint256"
        }
      ],
      "name": "changeNotOnSale",
      "outputs": [],
      "stateMutability": "nonpayable",
      "type": "function"
    },
    {
      "inputs": [
        {
          "internalType": "uint256",
          "name": "_productID",
          "type": "uint256"
        }
      ],
      "name": "changeOnSale",
      "outputs": [],
      "stateMutability": "nonpayable",
      "type": "function"
    },
    {
      "inputs": [
        {
          "internalType": "address",
          "name": "",
          "type": "address"
        }
      ],
      "name": "customers",
      "outputs": [
        {
          "internalType": "bool",
          "name": "",
          "type": "bool"
        }
      ],
      "stateMutability": "view",
      "type": "function"
    },
    {
      "inputs": [],
      "name": "defaultProductLocation",
      "outputs": [
        {
          "internalType": "enum Utils.ProductLocation",
          "name": "",
          "type": "uint8"
        }
      ],
      "stateMutability": "view",
      "type": "function"
    },
    {
      "inputs": [],
      "name": "defaultProductStage",
      "outputs": [
        {
          "internalType": "enum Utils.ProductStage",
          "name": "",
          "type": "uint8"
        }
      ],
      "stateMutability": "view",
      "type": "function"
    },
    {
      "inputs": [
        {
          "internalType": "address",
          "name": "",
          "type": "address"
        }
      ],
      "name": "distributors",
      "outputs": [
        {
          "internalType": "bool",
          "name": "",
          "type": "bool"
        }
      ],
      "stateMutability": "view",
      "type": "function"
    },
    {
      "inputs": [
        {
          "internalType": "address",
          "name": "",
          "type": "address"
        }
      ],
      "name": "entityVerificationPermission",
      "outputs": [
        {
          "internalType": "bool",
          "name": "",
          "type": "bool"
        }
      ],
      "stateMutability": "view",
      "type": "function"
    },
    {
      "inputs": [],
      "name": "getBalance",
      "outputs": [
        {
          "internalType": "uint256",
          "name": "",
          "type": "uint256"
        }
      ],
      "stateMutability": "view",
      "type": "function"
    },
    {
      "inputs": [],
      "name": "getCertificationPercentage",
      "outputs": [
        {
          "internalType": "uint256",
          "name": "",
          "type": "uint256"
        }
      ],
      "stateMutability": "view",
      "type": "function"
    },
    {
      "inputs": [],
      "name": "getStatus",
      "outputs": [],
      "stateMutability": "nonpayable",
      "type": "function"
    },
    {
      "inputs": [],
      "name": "getVerificationAmount",
      "outputs": [
        {
          "internalType": "uint256",
          "name": "",
          "type": "uint256"
        }
      ],
      "stateMutability": "view",
      "type": "function"
    },
    {
      "inputs": [
        {
          "internalType": "address",
          "name": "account",
          "type": "address"
        }
      ],
      "name": "grantVerificationPermission",
      "outputs": [],
      "stateMutability": "nonpayable",
      "type": "function"
    },
    {
      "inputs": [
        {
          "internalType": "address",
          "name": "account",
          "type": "address"
        }
      ],
      "name": "isCustomer",
      "outputs": [
        {
          "internalType": "bool",
          "name": "",
          "type": "bool"
        }
      ],
      "stateMutability": "view",
      "type": "function"
    },
    {
      "inputs": [
        {
          "internalType": "address",
          "name": "account",
          "type": "address"
        }
      ],
      "name": "isDistributor",
      "outputs": [
        {
          "internalType": "bool",
          "name": "",
          "type": "bool"
        }
      ],
      "stateMutability": "view",
      "type": "function"
    },
    {
      "inputs": [
        {
          "internalType": "address",
          "name": "account",
          "type": "address"
        }
      ],
      "name": "isManufacturer",
      "outputs": [
        {
          "internalType": "bool",
          "name": "",
          "type": "bool"
        }
      ],
      "stateMutability": "view",
      "type": "function"
    },
    {
      "inputs": [
        {
          "internalType": "address",
          "name": "account",
          "type": "address"
        }
      ],
      "name": "isRetailer",
      "outputs": [
        {
          "internalType": "bool",
          "name": "",
          "type": "bool"
        }
      ],
      "stateMutability": "view",
      "type": "function"
    },
    {
      "inputs": [
        {
          "internalType": "address",
          "name": "account",
          "type": "address"
        }
      ],
      "name": "isVerificationPermitted",
      "outputs": [
        {
          "internalType": "bool",
          "name": "",
          "type": "bool"
        }
      ],
      "stateMutability": "view",
      "type": "function"
    },
    {
      "inputs": [
        {
          "internalType": "address",
          "name": "account",
          "type": "address"
        }
      ],
      "name": "isVerified",
      "outputs": [
        {
          "internalType": "bool",
          "name": "",
          "type": "bool"
        }
      ],
      "stateMutability": "view",
      "type": "function"
    },
    {
      "inputs": [
        {
          "internalType": "address",
          "name": "",
          "type": "address"
        }
      ],
      "name": "manufacturers",
      "outputs": [
        {
          "internalType": "bool",
          "name": "",
          "type": "bool"
        }
      ],
      "stateMutability": "view",
      "type": "function"
    },
    {
      "inputs": [
        {
          "internalType": "uint256",
          "name": "_productID",
          "type": "uint256"
        },
        {
          "internalType": "uint256",
          "name": "_productUID",
          "type": "uint256"
        }
      ],
      "name": "produceProduct",
      "outputs": [],
      "stateMutability": "nonpayable",
      "type": "function"
    },
    {
      "inputs": [
        {
          "internalType": "uint256",
          "name": "",
          "type": "uint256"
        }
      ],
      "name": "products",
      "outputs": [
        {
          "internalType": "uint256",
          "name": "productID",
          "type": "uint256"
        },
        {
          "internalType": "uint256",
          "name": "productUID",
          "type": "uint256"
        },
        {
          "internalType": "address",
          "name": "previousOwner",
          "type": "address"
        },
        {
          "internalType": "address",
          "name": "currentOwner",
          "type": "address"
        },
        {
          "internalType": "uint256",
          "name": "creationDate",
          "type": "uint256"
        },
        {
          "internalType": "uint256",
          "name": "certificationPrice",
          "type": "uint256"
        },
        {
          "internalType": "enum Utils.ProductStage",
          "name": "productStage",
          "type": "uint8"
        },
        {
          "internalType": "enum Utils.ProductLocation",
          "name": "productLocation",
          "type": "uint8"
        },
        {
          "components": [
            {
              "internalType": "address",
              "name": "manufacturer",
              "type": "address"
            },
            {
              "internalType": "address",
              "name": "distributor",
              "type": "address"
            },
            {
              "internalType": "address",
              "name": "retailer",
              "type": "address"
            },
            {
              "internalType": "address",
              "name": "customer",
              "type": "address"
            }
          ],
          "internalType": "struct Utils.Ownerships",
          "name": "ownerships",
          "type": "tuple"
        },
        {
          "components": [
            {
              "internalType": "uint256",
              "name": "distributorBankTransactionID",
              "type": "uint256"
            },
            {
              "internalType": "uint256",
              "name": "retailerBankTransactionID",
              "type": "uint256"
            }
          ],
          "internalType": "struct Utils.TransactionIDs",
          "name": "transactionIDs",
          "type": "tuple"
        },
        {
          "components": [
            {
              "internalType": "bool",
              "name": "manufacturerRewarded",
              "type": "bool"
            },
            {
              "internalType": "bool",
              "name": "distributorRewarded",
              "type": "bool"
            },
            {
              "internalType": "bool",
              "name": "retailerRewarded",
              "type": "bool"
            }
          ],
          "internalType": "struct Utils.ProductRewards",
          "name": "rewards",
          "type": "tuple"
        }
      ],
      "stateMutability": "view",
      "type": "function"
    },
    {
      "inputs": [
        {
          "internalType": "uint256",
          "name": "_productID",
          "type": "uint256"
        }
      ],
      "name": "purchaseProduct",
      "outputs": [],
      "stateMutability": "payable",
      "type": "function"
    },
    {
      "inputs": [
        {
          "internalType": "uint256",
          "name": "_productID",
          "type": "uint256"
        }
      ],
      "name": "receiveProduct",
      "outputs": [],
      "stateMutability": "nonpayable",
      "type": "function"
    },
    {
      "inputs": [],
      "name": "removeCustomer",
      "outputs": [],
      "stateMutability": "nonpayable",
      "type": "function"
    },
    {
      "inputs": [],
      "name": "removeDistributor",
      "outputs": [],
      "stateMutability": "nonpayable",
      "type": "function"
    },
    {
      "inputs": [],
      "name": "removeManufacturer",
      "outputs": [],
      "stateMutability": "nonpayable",
      "type": "function"
    },
    {
      "inputs": [],
      "name": "removeRetailer",
      "outputs": [],
      "stateMutability": "nonpayable",
      "type": "function"
    },
    {
      "inputs": [
        {
          "internalType": "address",
          "name": "account",
          "type": "address"
        }
      ],
      "name": "removeVerification",
      "outputs": [],
      "stateMutability": "nonpayable",
      "type": "function"
    },
    {
      "inputs": [
        {
          "internalType": "address",
          "name": "",
          "type": "address"
        }
      ],
      "name": "retailers",
      "outputs": [
        {
          "internalType": "bool",
          "name": "",
          "type": "bool"
        }
      ],
      "stateMutability": "view",
      "type": "function"
    },
    {
      "inputs": [
        {
          "internalType": "address",
          "name": "account",
          "type": "address"
        }
      ],
      "name": "revokeVerificationPermission",
      "outputs": [],
      "stateMutability": "nonpayable",
      "type": "function"
    },
    {
      "inputs": [
        {
          "internalType": "uint256",
          "name": "_percentage",
          "type": "uint256"
        }
      ],
      "name": "setCertificationPercentage",
      "outputs": [],
      "stateMutability": "nonpayable",
      "type": "function"
    },
    {
      "inputs": [
        {
          "internalType": "uint256",
          "name": "_amount",
          "type": "uint256"
        }
      ],
      "name": "setVerificationAmount",
      "outputs": [],
      "stateMutability": "nonpayable",
      "type": "function"
    },
    {
      "inputs": [
        {
          "internalType": "uint256",
          "name": "_productID",
          "type": "uint256"
        },
        {
          "internalType": "address",
          "name": "receiver",
          "type": "address"
        }
      ],
      "name": "shipProduct",
      "outputs": [],
      "stateMutability": "nonpayable",
      "type": "function"
    },
    {
      "inputs": [],
      "name": "smartSupplyBalance",
      "outputs": [
        {
          "internalType": "uint256",
          "name": "",
          "type": "uint256"
        }
      ],
      "stateMutability": "view",
      "type": "function"
    },
    {
      "inputs": [],
      "name": "status",
      "outputs": [
        {
          "internalType": "string",
          "name": "",
          "type": "string"
        }
      ],
      "stateMutability": "view",
      "type": "function"
    },
    {
      "inputs": [
        {
          "internalType": "address",
          "name": "",
          "type": "address"
        }
      ],
      "name": "verificationStatus",
      "outputs": [
        {
          "internalType": "bool",
          "name": "",
          "type": "bool"
        }
      ],
      "stateMutability": "view",
      "type": "function"
    },
    {
      "inputs": [],
      "name": "verifyEntity",
      "outputs": [],
      "stateMutability": "payable",
      "type": "function"
    },
    {
      "inputs": [
        {
          "internalType": "uint256",
          "name": "amount",
          "type": "uint256"
        }
      ],
      "name": "withdrawFunds",
      "outputs": [],
      "stateMutability": "nonpayable",
      "type": "function"
    },
    {
      "stateMutability": "payable",
      "type": "receive"
    }
  ],
  "bytecode": "0x60806040526302faf080600255600a6003819055805461ffff1916905534801561002857600080fd5b50600080546001600160a01b031916331790556143c38061004a6000396000f3fe6080604052600436106103015760003560e01c80637acc0b201161018f578063adafb3d4116100e1578063ceecd5961161008a578063f851a44011610064578063f851a44014610a40578063f89620e114610a78578063fc9cc6e214610a8d57610347565b8063ceecd596146109f5578063e6361a8e14610a0a578063f7d139cb14610a2057610347565b8063c18e0ed9116100bb578063c18e0ed91461097e578063c4cb90501461099e578063cc642784146109c557610347565b8063adafb3d4146108e5578063b6d0738514610915578063b9209e331461094557610347565b80639a268f3511610143578063a2c66c361161011d578063a2c66c361461089b578063a315bd0a146108b0578063ac52480e146108d057610347565b80639a268f351461084e5780639bdc08011461087e578063a26759cb1461089357610347565b80637bd6221f116101745780637bd6221f146107c75780638f0c86fa1461080057806397cf3c371461083957610347565b80637acc0b20146106a05780637ad84475146107b257610347565b806328fd5e83116102535780634d8322c7116101fc5780636b2a5c35116101d65780636b2a5c35146106245780636b5eb09c14610644578063762b51db1461067457610347565b80634d8322c7146105b65780634e69d560146105d65780635da09b88146105eb57610347565b80632d156a8d1161022d5780632d156a8d14610553578063336989ae1461057357806338e76a03146105a357610347565b806328fd5e83146104f2578063293be2dd1461052b57806329d783281461053357610347565b80631c328f23116102b557806323630f7b1161028f57806323630f7b1461049d57806326e1066e146104bd57806328443b18146104dd57610347565b80631c328f2314610446578063200d2ed21461045b578063203611431461047d57610347565b8063155dd5ee116102e6578063155dd5ee146103c857806316479b85146103e857806317d4a491146103fd57610347565b80630e8336dd1461038657806312065fe0146103a657610347565b36610347576103456040518060400160405280600e81526020017f2d2d2d2d2d20726563656976653a00000000000000000000000000000000000081525034610aad565b005b6103456040518060400160405280600f81526020017f2d2d2d2d2d2066616c6c6261636b3a000000000000000000000000000000000081525034610aad565b34801561039257600080fd5b506103456103a1366004613b2a565b610b24565b3480156103b257600080fd5b50475b6040519081526020015b60405180910390f35b3480156103d457600080fd5b506103456103e3366004613b56565b610e54565b3480156103f457600080fd5b50610345610f5f565b34801561040957600080fd5b50610436610418366004613b6f565b6001600160a01b031660009081526004602052604090205460ff1690565b60405190151581526020016103bf565b34801561045257600080fd5b506003546103b5565b34801561046757600080fd5b5061047061105a565b6040516103bf9190613bd7565b34801561048957600080fd5b50610345610498366004613bea565b6110e8565b3480156104a957600080fd5b506103456104b8366004613b56565b611318565b3480156104c957600080fd5b506103456104d8366004613b6f565b6115c3565b3480156104e957600080fd5b506002546103b5565b3480156104fe57600080fd5b5061043661050d366004613b6f565b6001600160a01b031660009081526007602052604090205460ff1690565b610345611675565b34801561053f57600080fd5b5061034561054e366004613b56565b61192e565b34801561055f57600080fd5b5061034561056e366004613b56565b611d4a565b34801561057f57600080fd5b5061043661058e366004613b6f565b60076020526000908152604090205460ff1681565b6103456105b1366004613b56565b611feb565b3480156105c257600080fd5b506103456105d1366004613b56565b612410565b3480156105e257600080fd5b506103456124b7565b3480156105f757600080fd5b50610436610606366004613b6f565b6001600160a01b031660009081526006602052604090205460ff1690565b34801561063057600080fd5b5061034561063f366004613bea565b6124fe565b34801561065057600080fd5b5061043661065f366004613b6f565b60046020526000908152604090205460ff1681565b34801561068057600080fd5b50600a5461069390610100900460ff1681565b6040516103bf9190613c36565b3480156106ac57600080fd5b5061079b6106bb366004613b56565b600b6020818152600092835260409283902080546001820154600283015460038401546004850154600586015460068701548a51608081018c5260078901546001600160a01b03908116825260088a01548116828c015260098a01548116828e0152600a8a015481166060808401919091528d51808f018f529c8b01548d52600c8b01548d8d01528d519081018e52600d909a015460ff80821615158c52610100808304821615159d8d019d909d5262010000909104811615159d8b019d909d52979b969a9588169997909416979296919580821695929091041692918b565b6040516103bf9b9a99989796959493929190613c5a565b3480156107be57600080fd5b50610345612829565b3480156107d357600080fd5b506104366107e2366004613b6f565b6001600160a01b031660009081526008602052604090205460ff1690565b34801561080c57600080fd5b5061043661081b366004613b6f565b6001600160a01b031660009081526005602052604090205460ff1690565b34801561084557600080fd5b5061034561286b565b34801561085a57600080fd5b50610436610869366004613b6f565b60066020526000908152604090205460ff1681565b34801561088a57600080fd5b506103456128cf565b6103456129ca565b3480156108a757600080fd5b50610345612a8e565b3480156108bc57600080fd5b506103456108cb366004613bea565b612af2565b3480156108dc57600080fd5b50610345612e6d565b3480156108f157600080fd5b50610436610900366004613b6f565b60096020526000908152604090205460ff1681565b34801561092157600080fd5b50610436610930366004613b6f565b60086020526000908152604090205460ff1681565b34801561095157600080fd5b50610436610960366004613b6f565b6001600160a01b031660009081526009602052604090205460ff1690565b34801561098a57600080fd5b50610345610999366004613b6f565b612ed1565b3480156109aa57600080fd5b50600a546109b89060ff1681565b6040516103bf9190613d26565b3480156109d157600080fd5b506104366109e0366004613b6f565b60056020526000908152604090205460ff1681565b348015610a0157600080fd5b50610345612f86565b348015610a1657600080fd5b506103b560015481565b348015610a2c57600080fd5b50610345610a3b366004613b6f565b61305f565b348015610a4c57600080fd5b50600054610a60906001600160a01b031681565b6040516001600160a01b0390911681526020016103bf565b348015610a8457600080fd5b50610345613179565b348015610a9957600080fd5b50610345610aa8366004613b56565b613274565b610b208282604051602401610ac3929190613d34565b60408051601f198184030181529190526020810180517bffffffffffffffffffffffffffffffffffffffffffffffffffffffff167fb60e72cc00000000000000000000000000000000000000000000000000000000179052613314565b5050565b3360009081526004602052604090205460ff1680610b5157503360009081526005602052604090205460ff165b80610b6b57503360009081526006602052604090205460ff165b610bf05760405162461bcd60e51b815260206004820152604560248201527f4f6e6c79206d616e756661637475726572732c206469737472696275746f727360448201527f206f722072657461696c6572732063616e20706572666f726d2074686973206160648201526431ba34b7b760d91b608482015260a4015b60405180910390fd5b60036000838152600b602052604090206006015460ff166005811115610c1857610c18613c0c565b14610c8b5760405162461bcd60e51b815260206004820152603660248201527f50726f64756374206d7573742062652070757263686173656420627920736f6d60448201527f6520656e7469747920746f2062652073686970706564000000000000000000006064820152608401610be7565b6000828152600b60205260409020600201546001600160a01b03163314610d1a5760405162461bcd60e51b815260206004820152602c60248201527f50726f647563742063616e206f6e6c792062652073686970706564206279207460448201527f6865206f6c64206f776e657200000000000000000000000000000000000000006064820152608401610be7565b610d2582338361331d565b6000828152600b60209081526040808320600601805461ffff19166104041790556001600160a01b0384168352600790915290205460ff1615610e04576000828152600b6020526040812060050154610d7f9060046135e2565b6000848152600b6020526040812060070154919250610da8916001600160a01b0316908361360b565b6000838152600b602081905260409091206008810154910154610dd5916001600160a01b0316908361360b565b6000838152600b602052604090206009810154600c90910154610e02916001600160a01b0316908361360b565b505b604080518381523360208201526001600160a01b038316918101919091527fae22003d449cfb842a57062f1f6ae06a4abdabcdfb0b6e02deee5584df17b277906060015b60405180910390a15050565b6000546001600160a01b03163314610ebd5760405162461bcd60e51b815260206004820152602660248201527f4f6e6c79207468652061646d696e2063616e20706572666f726d20746869732060448201526530b1ba34b7b760d11b6064820152608401610be7565b600154811115610f0f5760405162461bcd60e51b815260206004820152601260248201527f496e73756666696369656e742066756e647300000000000000000000000000006044820152606401610be7565b8060016000828254610f219190613d6c565b9091555050600080546040516001600160a01b039091169183156108fc02918491818181858888f19350505050158015610b20573d6000803e3d6000fd5b3360009081526006602052604090205460ff1680610f8757506000546001600160a01b031633145b610ff95760405162461bcd60e51b815260206004820152603360248201527f4f6e6c792072657461696c657273206f72207468652061646d696e2063616e2060448201527f706572666f726d207468697320616374696f6e000000000000000000000000006064820152608401610be7565b336000818152600660209081526040808320805460ff199081169091556008835281842080548216905560099092528083208054909216909155517fdb7176e79cffef81cb01767dd0447a0b24bb72ca9778d4b245581086b2a7e6db9190a2565b600c805461106790613d83565b80601f016020809104026020016040519081016040528092919081815260200182805461109390613d83565b80156110e05780601f106110b5576101008083540402835291602001916110e0565b820191906000526020600020905b8154815290600101906020018083116110c357829003601f168201915b505050505081565b3360009081526004602052604090205460ff168061111557503360009081526005602052604090205460ff165b8061112f57503360009081526006602052604090205460ff165b6111af5760405162461bcd60e51b815260206004820152604560248201527f4f6e6c79206d616e756661637475726572732c206469737472696275746f727360448201527f206f722072657461696c6572732063616e20706572666f726d2074686973206160648201526431ba34b7b760d91b608482015260a401610be7565b3360009081526006602052604090205460ff166112345760405162461bcd60e51b815260206004820152603160248201527f4f6e6c792072657461696c6572732063616e206368616e67652074686520636560448201527f7274696669636174696f6e2070726963650000000000000000000000000000006064820152608401610be7565b6000828152600b60205260409020600301546001600160a01b031633146112c35760405162461bcd60e51b815260206004820152603960248201527f4f6e6c79207468652063757272656e74206f776e65722063616e206368616e6760448201527f65207468652063657274696669636174696f6e207072696365000000000000006064820152608401610be7565b6000828152600b6020908152604091829020600501839055815184815233918101919091529081018290527fecc61a114f3fa6ab25fda38544eaf5403af5398066e48b4b63cdb77995534f4d90606001610e48565b3360009081526004602052604090205460ff168061134557503360009081526005602052604090205460ff165b8061135f57503360009081526006602052604090205460ff165b6113df5760405162461bcd60e51b815260206004820152604560248201527f4f6e6c79206d616e756661637475726572732c206469737472696275746f727360448201527f206f722072657461696c6572732063616e20706572666f726d2074686973206160648201526431ba34b7b760d91b608482015260a401610be7565b6000818152600b60205260409020600301546001600160a01b03163314611470576040805162461bcd60e51b81526020600482015260248101919091527f4f6e6c79207468652063757272656e74206f776e65722063616e206368616e6760448201527f65207468652070726f6475637420737461676520746f204e6f744f6e53616c656064820152608401610be7565b60036000828152600b602052604090206006015460ff16600581111561149857611498613c0c565b141580156114cc575060046000828152600b602052604090206006015460ff1660058111156114c9576114c9613c0c565b14155b6115645760405162461bcd60e51b815260206004820152604860248201527f50726f64756374206d757374206e6f7420626520696e2050757263686173656460448201527f206f72205368697070656420737461676520746f206368616e676520746f204e60648201527f6f744f6e53616c65000000000000000000000000000000000000000000000000608482015260a401610be7565b6000818152600b6020526040902060060180546002919060ff19166001830217905550604080518281523360208201527f34dfd957cdce058c374027e3a6f6ab1771b40b4bcd043a96d4d0f98750b4bfd691015b60405180910390a150565b6000546001600160a01b0316331461162c5760405162461bcd60e51b815260206004820152602660248201527f4f6e6c79207468652061646d696e2063616e20706572666f726d20746869732060448201526530b1ba34b7b760d11b6064820152608401610be7565b6001600160a01b038116600081815260086020526040808220805460ff19169055517f31ef9270602119277454261e5a5bff0e43801de289dcf5d07dcf5aefc5c151d89190a250565b3360009081526008602052604090205460ff166116fa5760405162461bcd60e51b815260206004820152603060248201527f456e74697479206861736e277420676976656e20697473206964656e7469666960448201527f636174696f6e2070726f6f6620796574000000000000000000000000000000006064820152608401610be7565b3360009081526007602052604090205460ff16156117805760405162461bcd60e51b815260206004820152603060248201527f437573746f6d65727320617265206e6f7420616c6c6f77656420746f2070657260448201527f666f726d207468697320616374696f6e000000000000000000000000000000006064820152608401610be7565b600060405161178e9061399a565b604051809103906000f0801580156117aa573d6000803e3d6000fd5b5090506000816001600160a01b03166328443b186040518163ffffffff1660e01b815260040160206040518083038186803b1580156117e857600080fd5b505afa1580156117fc573d6000803e3d6000fd5b505050506040513d601f19601f820116820180604052508101906118209190613dbe565b9050803410156118985760405162461bcd60e51b815260206004820152602560248201527f496e73756666696369656e74207061796d656e7420666f72207665726966696360448201527f6174696f6e0000000000000000000000000000000000000000000000000000006064820152608401610be7565b600034905080600160008282546118af9190613dd7565b909155505060405181815233907f8fe10ae416f22f5e5220b0018a6c1d4ff534d6aa3a471f2a20cb7747fe63e5b99060200160405180910390a233600081815260096020526040808220805460ff19166001179055517fa3710f2b2505ddd76d00993c1fad93af4104d857fa3e237c9548c028c44935cc9190a2505050565b3360009081526007602052604090205460ff168061195b57503360009081526005602052604090205460ff165b8061197557503360009081526006602052604090205460ff165b6119f15760405162461bcd60e51b815260206004820152604160248201527f4f6e6c7920637573746f6d6572732c206469737472696275746f7273206f722060448201527f72657461696c6572732063616e20706572666f726d207468697320616374696f6064820152603760f91b608482015260a401610be7565b60046000828152600b602052604090206006015460ff166005811115611a1957611a19613c0c565b14611a8c5760405162461bcd60e51b815260206004820152603160248201527f50726f64756374206d75737420626520696e202753686970706564272073746160448201527f676520746f2062652072656365697665640000000000000000000000000000006064820152608401610be7565b60046000828152600b6020526040902060060154610100900460ff166004811115611ab957611ab9613c0c565b14611b2c5760405162461bcd60e51b815260206004820152603560248201527f50726f64756374206d75737420626520696e20275368697070696e6727206c6f60448201527f636174696f6e20746f20626520726563656976656400000000000000000000006064820152608401610be7565b6000818152600b60205260409020600301546001600160a01b03163314611bbb5760405162461bcd60e51b815260206004820152602e60248201527f4f6e6c79207468652063757272656e74206f776e65722063616e20726563656960448201527f7665207468652070726f647563740000000000000000000000000000000000006064820152608401610be7565b6000818152600b6020526040902060068101805460ff1916600517905560080154336001600160a01b039091161415611c19576000818152600b6020526040902060060180546001919061ff001916610100835b0217905550611d15565b6000818152600b60205260409020600901546001600160a01b0316331415611c60576000818152600b6020526040902060060180546002919061ff00191661010083611c0f565b6000818152600b60205260409020600a01546001600160a01b0316331415611ca7576000818152600b6020526040902060060180546003919061ff00191661010083611c0f565b60405162461bcd60e51b815260206004820152602b60248201527f496e76616c69642063757272656e74206f776e657220666f722075706461746960448201527f6e67206c6f636174696f6e0000000000000000000000000000000000000000006064820152608401610be7565b604080518281523360208201527f7eb38f83fec1bdc45e831c15e9e3eb2369028929a0e38e3709b7e710362f823b91016115b8565b3360009081526004602052604090205460ff1680611d7757503360009081526005602052604090205460ff165b80611d9157503360009081526006602052604090205460ff165b611e115760405162461bcd60e51b815260206004820152604560248201527f4f6e6c79206d616e756661637475726572732c206469737472696275746f727360448201527f206f722072657461696c6572732063616e20706572666f726d2074686973206160648201526431ba34b7b760d91b608482015260a401610be7565b6000818152600b60205260409020600301546001600160a01b03163314611ea05760405162461bcd60e51b815260206004820152603d60248201527f4f6e6c79207468652063757272656e74206f776e65722063616e206368616e6760448201527f65207468652070726f6475637420737461676520746f204f6e53616c650000006064820152608401610be7565b60036000828152600b602052604090206006015460ff166005811115611ec857611ec8613c0c565b14158015611efc575060046000828152600b602052604090206006015460ff166005811115611ef957611ef9613c0c565b14155b611f945760405162461bcd60e51b815260206004820152604560248201527f50726f64756374206d757374206e6f7420626520696e2050757263686173656460448201527f206f72205368697070656420737461676520746f206368616e676520746f204f60648201527f6e53616c65000000000000000000000000000000000000000000000000000000608482015260a401610be7565b6000818152600b6020526040902060060180546001919060ff191682800217905550604080518281523360208201527f5ea9686d3fd9cc47111972119dae21c738cc8467f126b047ba099f2e986dc84f91016115b8565b3360009081526007602052604090205460ff168061201857503360009081526005602052604090205460ff165b8061203257503360009081526006602052604090205460ff165b6120ae5760405162461bcd60e51b815260206004820152604160248201527f4f6e6c7920637573746f6d6572732c206469737472696275746f7273206f722060448201527f72657461696c6572732063616e20706572666f726d207468697320616374696f6064820152603760f91b608482015260a401610be7565b6000818152600b60205260409020600301546001600160a01b031633141561213e5760405162461bcd60e51b815260206004820152602b60248201527f43757272656e74206f776e6572732063616e277420627579207468656972206f60448201527f776e2070726f64756374730000000000000000000000000000000000000000006064820152608401610be7565b60016000828152600b602052604090206006015460ff16600581111561216657612166613c0c565b146121d95760405162461bcd60e51b815260206004820152602760248201527f50726f64756374206d757374206265204f6e2053616c6520746f20626520707560448201527f72636861736564000000000000000000000000000000000000000000000000006064820152608401610be7565b3360009081526007602052604090205460ff16801561223f5734600160008282546122049190613dd7565b909155505060405134815233907f8fe10ae416f22f5e5220b0018a6c1d4ff534d6aa3a471f2a20cb7747fe63e5b99060200160405180910390a25b6000828152600b60209081526040808320600681018054600360ff19909116811790915581018054600290920180546001600160a01b0384166001600160a01b031991821617909155339216821790558352600590915290205460ff16156122c7576000828152600b6020526040902060080180546001600160a01b031916331790556123b1565b3360009081526006602052604090205460ff1615612305576000828152600b6020526040902060090180546001600160a01b031916331790556123b1565b3360009081526007602052604090205460ff1615612343576000828152600b60205260409020600a0180546001600160a01b031916331790556123b1565b60405162461bcd60e51b815260206004820152602d60248201527f496e76616c696420726f6c6520666f72207570646174696e672070726f64756360448201527f7420696e666f726d6174696f6e000000000000000000000000000000000000006064820152608401610be7565b6000828152600b60209081526040918290206002015482518581526001600160a01b039091169181019190915233918101919091527f405b8e92032184041314dcddf305e0d97d13b103d3fa162eb2b1c760760bdc0a90606001610e48565b6000546001600160a01b031633146124795760405162461bcd60e51b815260206004820152602660248201527f4f6e6c79207468652061646d696e2063616e20706572666f726d20746869732060448201526530b1ba34b7b760d11b6064820152608401610be7565b600281905560405181815233907fb77f58d7bdd9979ecd98ed048fc9d5657dfb51e810bb8c078af5b318a68bf1f4906020015b60405180910390a250565b6040805180820190915260058082527f506179656400000000000000000000000000000000000000000000000000000060209092019182526124fb91600c916139a7565b50565b3360009081526004602052604090205460ff168061252657506000546001600160a01b031633145b6125985760405162461bcd60e51b815260206004820152603760248201527f4f6e6c79206d616e75666163747572657273206f72207468652061646d696e2060448201527f63616e20706572666f726d207468697320616374696f6e0000000000000000006064820152608401610be7565b6125a0613a2b565b8281526020810182905233606082018190526040820152600060a0820152426080820152600a5460c082019060ff1660058111156125e0576125e0613c0c565b908160058111156125f3576125f3613c0c565b905250600a5460e0820190610100900460ff16600481111561261757612617613c0c565b9081600481111561262a5761262a613c0c565b90525060408051608080820183526000602080840182905283850182905260608085018390523385526101008701859052888352600b8252918590208651815590860151600180830191909155948601516002820180546001600160a01b03199081166001600160a01b03938416179091559287015160038301805490941691161790915590840151600482015560a084015160058083019190915560c0850151600683018054949587959293919260ff19169184908111156126ef576126ef613c0c565b021790555060e082015160068201805461ff00191661010083600481111561271957612719613c0c565b02179055506101008281015180516007840180546001600160a01b03199081166001600160a01b039384161790915560208084015160088701805484169185169190911790556040808501516009880180548516918616919091179055606090940151600a8701805490931693169290921790556101208501518051600b860155810151600c850155610140909401518051600d9094018054828701519284015161ffff1990911695151561ff001916959095179115159093021762ff000019166201000093151593909302929092179055805186815233928101929092527f97c998f1009a742d52bd2b93e67352e2800f1b46a2a226b31cfa903ec93892f7910160405180910390a150505050565b33600081815260076020526040808220805460ff19166001179055517fcd118a02bd36f224f6f1b93812f78d2bbc2c2dc1bc0f60c176e3b4fe09f1483f9190a2565b336000818152600660209081526040808320805460ff199081166001179091556008835281842080548216905560099092528083208054909216909155517f71ae26cad02663e3d92efd6ec56031a80d74a20c0ab4183faa8bf262261c9baa9190a2565b3360009081526005602052604090205460ff16806128f757506000546001600160a01b031633145b6129695760405162461bcd60e51b815260206004820152603660248201527f4f6e6c79206469737472696275746f7273206f72207468652061646d696e206360448201527f616e20706572666f726d207468697320616374696f6e000000000000000000006064820152608401610be7565b336000818152600560209081526040808320805460ff199081169091556008835281842080548216905560099092528083208054909216909155517f126174f6cf49c81cdb4a9214c6b8f037bef55b4ec31e4fc776cea2a1c8a88d599190a2565b60003411612a405760405162461bcd60e51b815260206004820152602160248201527f46756e64732073656e74206d7573742062652067726561746572207468616e2060448201527f30000000000000000000000000000000000000000000000000000000000000006064820152608401610be7565b3460016000828254612a529190613dd7565b909155505060405134815233907f8fe10ae416f22f5e5220b0018a6c1d4ff534d6aa3a471f2a20cb7747fe63e5b99060200160405180910390a2565b336000818152600460209081526040808320805460ff199081166001179091556008835281842080548216905560099092528083208054909216909155517f561138658ca49a8540dc70dcfe64c9026c1c5b9344642242dd6562970f9c12789190a2565b6000828152600b60209081526040808320600a8101546008820154600990920154338652600790945291909320546001600160a01b03918216938216929091169060ff168015612b4a5750336001600160a01b038416145b15612b5457612c4d565b3360009081526005602052604090205460ff168015612b7b5750336001600160a01b038316145b15612b9a576000858152600b6020819052604090912001849055612c4d565b3360009081526006602052604090205460ff168015612bc15750336001600160a01b038216145b15612bdf576000858152600b60205260409020600c01849055612c4d565b60405162461bcd60e51b815260206004820152603c60248201527f43616c6c657220646f6573206e6f74206861766520746865207269676874207460448201527f6f206368616e67652062616e6b207472616e73616374696f6e204944000000006064820152608401610be7565b3360009081526005602052604090205460ff168015612c745750336001600160a01b038316145b8015612c9757506000858152600b60205260409020600d0154610100900460ff16155b8015612d0a57506001600160a01b03831615801590612d0a575060046000868152600b602052604090206006015460ff166005811115612cd957612cd9613c0c565b1480612d0a575060056000868152600b602052604090206006015460ff166005811115612d0857612d08613c0c565b145b15612d3e57612d1b3386601961360b565b6000858152600b60205260409020600d01805461ff001916610100179055612e2e565b3360009081526006602052604090205460ff168015612d655750336001600160a01b038216145b8015612d8957506000858152600b60205260409020600d015462010000900460ff16155b8015612dfc57506001600160a01b03831615801590612dfc575060046000868152600b602052604090206006015460ff166005811115612dcb57612dcb613c0c565b1480612dfc575060056000868152600b602052604090206006015460ff166005811115612dfa57612dfa613c0c565b145b15612e2e57612e0d3386601961360b565b6000858152600b60205260409020600d01805462ff00001916620100001790555b604080518681523360208201527fdcd2f9ad8329d46769c3238811ad3ca487334dd220ad05263c0f9ea1a19ccc87910160405180910390a15050505050565b336000818152600560209081526040808320805460ff199081166001179091556008835281842080548216905560099092528083208054909216909155517fddbf200aa634dc3fb81cfd68583dd1040d1c751d335e1d86b631bde3e977fea89190a2565b6000546001600160a01b03163314612f3a5760405162461bcd60e51b815260206004820152602660248201527f4f6e6c79207468652061646d696e2063616e20706572666f726d20746869732060448201526530b1ba34b7b760d11b6064820152608401610be7565b6001600160a01b038116600081815260086020526040808220805460ff19166001179055517f58169284ef5a04f8626278f2f2b6c44cf8f2d30da1e96100b7016764ad6130689190a250565b3360009081526007602052604090205460ff1680612fae57506000546001600160a01b031633145b6130205760405162461bcd60e51b815260206004820152603360248201527f4f6e6c7920637573746f6d657273206f72207468652061646d696e2063616e2060448201527f706572666f726d207468697320616374696f6e000000000000000000000000006064820152608401610be7565b33600081815260076020526040808220805460ff19169055517fb4c88a9c5cd906354abdd1cc29e4f94c6c4de90754fb80ce51e6a33417bc81b69190a2565b6000546001600160a01b031633146130c85760405162461bcd60e51b815260206004820152602660248201527f4f6e6c79207468652061646d696e2063616e20706572666f726d20746869732060448201526530b1ba34b7b760d11b6064820152608401610be7565b6001600160a01b03811660009081526009602052604090205460ff166131305760405162461bcd60e51b815260206004820152601e60248201527f456e7469747920697320616c7265616479206e6f7420766572696669656400006044820152606401610be7565b6001600160a01b038116600081815260096020526040808220805460ff19169055517f4e7593da9155b5afbbc5e5bcaaf40b112e7529d1233f4c92780fbf49682842469190a250565b3360009081526004602052604090205460ff16806131a157506000546001600160a01b031633145b6132135760405162461bcd60e51b815260206004820152603760248201527f4f6e6c79206d616e75666163747572657273206f72207468652061646d696e2060448201527f63616e20706572666f726d207468697320616374696f6e0000000000000000006064820152608401610be7565b336000818152600460209081526040808320805460ff199081169091556008835281842080548216905560099092528083208054909216909155517f2fed5abf6a80d6dfe30b4895481b2fc5d7dce5f8f7b931832f4a2947d5040c7f9190a2565b6000546001600160a01b031633146132dd5760405162461bcd60e51b815260206004820152602660248201527f4f6e6c79207468652061646d696e2063616e20706572666f726d20746869732060448201526530b1ba34b7b760d11b6064820152608401610be7565b600381905560405181815233907f34949851b962a7f1c28710ba5e9ba656f8257419a4c3da8b9c6bd206856d1e27906020016124ac565b6124fb81613979565b816001600160a01b0316816001600160a01b031614156133a55760405162461bcd60e51b815260206004820152603e60248201527f50726f647563742063616e6e6f74206265207368697070656420746f2074686560448201527f2073616d65206164647265737320617320746865206f6c64206f776e657200006064820152608401610be7565b6000838152600b60205260409020600301546001600160a01b038281169116146134375760405162461bcd60e51b815260206004820152602c60248201527f50726f64756374206d757374206265207368697070656420746f20746865206360448201527f757272656e74206f776e657200000000000000000000000000000000000000006064820152608401610be7565b6000838152600b60205260409020600201546001600160a01b03838116911614801561356b57506000838152600b60205260409020600701546001600160a01b0383811691161480156134b35750600080848152600b6020526040902060060154610100900460ff1660048111156134b1576134b1613c0c565b145b8061350f57506000838152600b60205260409020600801546001600160a01b03838116911614801561350f575060016000848152600b6020526040902060060154610100900460ff16600481111561350d5761350d613c0c565b145b8061356b57506000838152600b60205260409020600901546001600160a01b03838116911614801561356b575060026000848152600b6020526040902060060154610100900460ff16600481111561356957613569613c0c565b145b6135dd5760405162461bcd60e51b815260206004820152602a60248201527f496e76616c6964206f6c64206f776e6572206f72206c6f636174696f6e20666f60448201527f72207368697070696e67000000000000000000000000000000000000000000006064820152608401610be7565b505050565b6000816135f0600282613def565b6135fa9190613def565b6136049084613dd7565b9392505050565b6001600160a01b0383166136615760405162461bcd60e51b815260206004820152601960248201527f496e76616c696420726563697069656e742061646472657373000000000000006044820152606401610be7565b600081116136b15760405162461bcd60e51b815260206004820152601660248201527f496e76616c6964207061796d656e7420616d6f756e74000000000000000000006044820152606401610be7565b6001600160a01b03831660009081526006602052604090205460ff1615613789576000828152600b60205260409020600c0154156135dd576040516001600160a01b0384169082156108fc029083906000818181858888f1935050505015801561371f573d6000803e3d6000fd5b506000828152600b6020908152604091829020600d01805462ff000019166201000017905581516001600160a01b03861681529081018390527f3ad0c8d1bbd63d54c5f14180eae95cab7c2420b2dbb90603a6e5d206668f52ec91015b60405180910390a1505050565b6001600160a01b03831660009081526005602052604090205460ff1615613857576000828152600b602081905260409091200154156135dd576040516001600160a01b0384169082156108fc029083906000818181858888f193505050501580156137f8573d6000803e3d6000fd5b506000828152600b6020908152604091829020600d01805461ff00191661010017905581516001600160a01b03861681529081018390527f3ad0c8d1bbd63d54c5f14180eae95cab7c2420b2dbb90603a6e5d206668f52ec910161377c565b6001600160a01b03831660009081526004602052604090205460ff161561390b576040516001600160a01b0384169082156108fc029083906000818181858888f193505050501580156138ae573d6000803e3d6000fd5b506000828152600b6020908152604091829020600d01805460ff1916600117905581516001600160a01b03861681529081018390527f3ad0c8d1bbd63d54c5f14180eae95cab7c2420b2dbb90603a6e5d206668f52ec910161377c565b60405162461bcd60e51b815260206004820152602f60248201527f496e76616c696420726563697069656e7420726f6c65206f72206d697373696e60448201527f67207472616e73616374696f6e494400000000000000000000000000000000006064820152608401610be7565b60006a636f6e736f6c652e6c6f679050600080835160208501845afa505050565b61057c80613e1283390190565b8280546139b390613d83565b90600052602060002090601f0160209004810192826139d55760008555613a1b565b82601f106139ee57805160ff1916838001178555613a1b565b82800160010185558215613a1b579182015b82811115613a1b578251825591602001919060010190613a00565b50613a27929150613af9565b5090565b604051806101600160405280600081526020016000815260200160006001600160a01b0316815260200160006001600160a01b03168152602001600081526020016000815260200160006005811115613a8657613a86613c0c565b815260200160008152604080516080810182526000808252602082810182905292820181905260608201529101908152602001613ad6604051806040016040528060008152602001600081525090565b815260408051606081018252600080825260208281018290529282015291015290565b5b80821115613a275760008155600101613afa565b80356001600160a01b0381168114613b2557600080fd5b919050565b60008060408385031215613b3d57600080fd5b82359150613b4d60208401613b0e565b90509250929050565b600060208284031215613b6857600080fd5b5035919050565b600060208284031215613b8157600080fd5b61360482613b0e565b6000815180845260005b81811015613bb057602081850181015186830182015201613b94565b81811115613bc2576000602083870101525b50601f01601f19169290920160200192915050565b6020815260006136046020830184613b8a565b60008060408385031215613bfd57600080fd5b50508035926020909101359150565b634e487b7160e01b600052602160045260246000fd5b60058110613c3257613c32613c0c565b9052565b60208101613c448284613c22565b92915050565b60068110613c3257613c32613c0c565b6000610220820190508c82528b60208301526001600160a01b03808c166040840152808b1660608401528960808401528860a0840152613c9d60c0840189613c4a565b613caa60e0840188613c22565b855181166101008401526020860151811661012084015260408601518116610140840152606086015116610160830152613cf261018083018580518252602090810151910152565b825115156101c0830152602083015115156101e0830152604083015115156102008301529c9b505050505050505050505050565b60208101613c448284613c4a565b604081526000613d476040830185613b8a565b90508260208301529392505050565b634e487b7160e01b600052601160045260246000fd5b600082821015613d7e57613d7e613d56565b500390565b600181811c90821680613d9757607f821691505b60208210811415613db857634e487b7160e01b600052602260045260246000fd5b50919050565b600060208284031215613dd057600080fd5b5051919050565b60008219821115613dea57613dea613d56565b500190565b600082613e0c57634e487b7160e01b600052601260045260246000fd5b50049056fe60806040526302faf080600255600a60035534801561001d57600080fd5b50600080546001600160a01b0319163317905561053d8061003f6000396000f3fe60806040526004361061007b5760003560e01c8063a26759cb1161004e578063a26759cb146100fb578063e6361a8e14610103578063f851a44014610119578063fc9cc6e21461015157600080fd5b8063155dd5ee146100805780631c328f23146100a257806328443b18146100c65780634d8322c7146100db575b600080fd5b34801561008c57600080fd5b506100a061009b366004610490565b610171565b005b3480156100ae57600080fd5b506003545b6040519081526020015b60405180910390f35b3480156100d257600080fd5b506002546100b3565b3480156100e757600080fd5b506100a06100f6366004610490565b610285565b6100a061032c565b34801561010f57600080fd5b506100b360015481565b34801561012557600080fd5b50600054610139906001600160a01b031681565b6040516001600160a01b0390911681526020016100bd565b34801561015d57600080fd5b506100a061016c366004610490565b6103f0565b6000546001600160a01b031633146101df5760405162461bcd60e51b815260206004820152602660248201527f4f6e6c79207468652061646d696e2063616e20706572666f726d20746869732060448201526530b1ba34b7b760d11b60648201526084015b60405180910390fd5b6001548111156102315760405162461bcd60e51b815260206004820152601260248201527f496e73756666696369656e742066756e6473000000000000000000000000000060448201526064016101d6565b806001600082825461024391906104d8565b9091555050600080546040516001600160a01b039091169183156108fc02918491818181858888f19350505050158015610281573d6000803e3d6000fd5b5050565b6000546001600160a01b031633146102ee5760405162461bcd60e51b815260206004820152602660248201527f4f6e6c79207468652061646d696e2063616e20706572666f726d20746869732060448201526530b1ba34b7b760d11b60648201526084016101d6565b600281905560405181815233907fb77f58d7bdd9979ecd98ed048fc9d5657dfb51e810bb8c078af5b318a68bf1f4906020015b60405180910390a250565b600034116103a25760405162461bcd60e51b815260206004820152602160248201527f46756e64732073656e74206d7573742062652067726561746572207468616e2060448201527f300000000000000000000000000000000000000000000000000000000000000060648201526084016101d6565b34600160008282546103b491906104ef565b909155505060405134815233907f8fe10ae416f22f5e5220b0018a6c1d4ff534d6aa3a471f2a20cb7747fe63e5b99060200160405180910390a2565b6000546001600160a01b031633146104595760405162461bcd60e51b815260206004820152602660248201527f4f6e6c79207468652061646d696e2063616e20706572666f726d20746869732060448201526530b1ba34b7b760d11b60648201526084016101d6565b600381905560405181815233907f34949851b962a7f1c28710ba5e9ba656f8257419a4c3da8b9c6bd206856d1e2790602001610321565b6000602082840312156104a257600080fd5b5035919050565b7f4e487b7100000000000000000000000000000000000000000000000000000000600052601160045260246000fd5b6000828210156104ea576104ea6104a9565b500390565b60008219821115610502576105026104a9565b50019056fea264697066735822122058c83704e5573ddfa64e525229f2bc8a34b161e8276b9340e1e16ddf2a24211a64736f6c63430008090033a26469706673582212203e9b613d425da761399627e574d3d883326432b82b73f690885536aa5a4856d964736f6c63430008090033",
  "linkReferences": {},
  "deployedLinkReferences": {}
}