{
  "_format": "hh-sol-artifact-1",
  "contractName": "SmartSupply",
  "sourceName": "contracts/SmartSupply.sol",
  "abi": [
    {
      "anonymous": false,
      "inputs": [
        {
          "indexed": false,
          "internalType": "uint256",
          "name": "productID",
          "type": "uint256"
        },
        {
          "indexed": false,
          "internalType": "address",
          "name": "entity",
          "type": "address"
        }
      ],
      "name": "BankTransactionChanged",
      "type": "event"
    },
    {
      "anonymous": false,
      "inputs": [
        {
          "indexed": true,
          "internalType": "address",
          "name": "from",
          "type": "address"
        },
        {
          "indexed": false,
          "internalType": "uint256",
          "name": "amount",
          "type": "uint256"
        }
      ],
      "name": "CertificationPercentageChanged",
      "type": "event"
    },
    {
      "anonymous": false,
      "inputs": [
        {
          "indexed": false,
          "internalType": "uint256",
          "name": "productID",
          "type": "uint256"
        },
        {
          "indexed": false,
          "internalType": "address",
          "name": "owner",
          "type": "address"
        }
      ],
      "name": "ChangedOnSale",
      "type": "event"
    },
    {
      "anonymous": false,
      "inputs": [
        {
          "indexed": true,
          "internalType": "address",
          "name": "account",
          "type": "address"
        }
      ],
      "name": "CustomerAdded",
      "type": "event"
    },
    {
      "anonymous": false,
      "inputs": [
        {
          "indexed": true,
          "internalType": "address",
          "name": "account",
          "type": "address"
        }
      ],
      "name": "CustomerRemoved",
      "type": "event"
    },
    {
      "anonymous": false,
      "inputs": [
        {
          "indexed": true,
          "internalType": "address",
          "name": "account",
          "type": "address"
        }
      ],
      "name": "DistributorAdded",
      "type": "event"
    },
    {
      "anonymous": false,
      "inputs": [
        {
          "indexed": true,
          "internalType": "address",
          "name": "account",
          "type": "address"
        }
      ],
      "name": "DistributorRemoved",
      "type": "event"
    },
    {
      "anonymous": false,
      "inputs": [
        {
          "indexed": true,
          "internalType": "address",
          "name": "account",
          "type": "address"
        }
      ],
      "name": "EntityVerificationRemoved",
      "type": "event"
    },
    {
      "anonymous": false,
      "inputs": [
        {
          "indexed": true,
          "internalType": "address",
          "name": "account",
          "type": "address"
        }
      ],
      "name": "EntityVerified",
      "type": "event"
    },
    {
      "anonymous": false,
      "inputs": [
        {
          "indexed": true,
          "internalType": "address",
          "name": "from",
          "type": "address"
        },
        {
          "indexed": false,
          "internalType": "uint256",
          "name": "amount",
          "type": "uint256"
        }
      ],
      "name": "FundsAdded",
      "type": "event"
    },
    {
      "anonymous": false,
      "inputs": [
        {
          "indexed": true,
          "internalType": "address",
          "name": "account",
          "type": "address"
        }
      ],
      "name": "ManufacturerAdded",
      "type": "event"
    },
    {
      "anonymous": false,
      "inputs": [
        {
          "indexed": true,
          "internalType": "address",
          "name": "account",
          "type": "address"
        }
      ],
      "name": "ManufacturerRemoved",
      "type": "event"
    },
    {
      "anonymous": false,
      "inputs": [
        {
          "indexed": false,
          "internalType": "uint256",
          "name": "productID",
          "type": "uint256"
        },
        {
          "indexed": false,
          "internalType": "address",
          "name": "manufacturer",
          "type": "address"
        }
      ],
      "name": "ProductProduced",
      "type": "event"
    },
    {
      "anonymous": false,
      "inputs": [
        {
          "indexed": false,
          "internalType": "uint256",
          "name": "productID",
          "type": "uint256"
        },
        {
          "indexed": false,
          "internalType": "address",
          "name": "oldOwner",
          "type": "address"
        },
        {
          "indexed": false,
          "internalType": "address",
          "name": "newOwner",
          "type": "address"
        }
      ],
      "name": "ProductPurchased",
      "type": "event"
    },
    {
      "anonymous": false,
      "inputs": [
        {
          "indexed": false,
          "internalType": "uint256",
          "name": "productID",
          "type": "uint256"
        },
        {
          "indexed": false,
          "internalType": "address",
          "name": "receiver",
          "type": "address"
        }
      ],
      "name": "ProductReceived",
      "type": "event"
    },
    {
      "anonymous": false,
      "inputs": [
        {
          "indexed": false,
          "internalType": "uint256",
          "name": "productID",
          "type": "uint256"
        },
        {
          "indexed": false,
          "internalType": "address",
          "name": "sender",
          "type": "address"
        },
        {
          "indexed": false,
          "internalType": "address",
          "name": "receiver",
          "type": "address"
        }
      ],
      "name": "ProductShipped",
      "type": "event"
    },
    {
      "anonymous": false,
      "inputs": [
        {
          "indexed": true,
          "internalType": "address",
          "name": "account",
          "type": "address"
        }
      ],
      "name": "RetailerAdded",
      "type": "event"
    },
    {
      "anonymous": false,
      "inputs": [
        {
          "indexed": true,
          "internalType": "address",
          "name": "account",
          "type": "address"
        }
      ],
      "name": "RetailerRemoved",
      "type": "event"
    },
    {
      "anonymous": false,
      "inputs": [
        {
          "indexed": false,
          "internalType": "address",
          "name": "receiver",
          "type": "address"
        },
        {
          "indexed": false,
          "internalType": "uint256",
          "name": "amount",
          "type": "uint256"
        }
      ],
      "name": "RewardGiven",
      "type": "event"
    },
    {
      "anonymous": false,
      "inputs": [
        {
          "indexed": true,
          "internalType": "address",
          "name": "from",
          "type": "address"
        },
        {
          "indexed": false,
          "internalType": "uint256",
          "name": "amount",
          "type": "uint256"
        }
      ],
      "name": "VerificationAmountChanged",
      "type": "event"
    },
    {
      "anonymous": false,
      "inputs": [
        {
          "indexed": true,
          "internalType": "address",
          "name": "account",
          "type": "address"
        }
      ],
      "name": "VerificationPermissionGranted",
      "type": "event"
    },
    {
      "anonymous": false,
      "inputs": [
        {
          "indexed": true,
          "internalType": "address",
          "name": "account",
          "type": "address"
        }
      ],
      "name": "VerificationPermissionRevoked",
      "type": "event"
    },
    {
      "stateMutability": "payable",
      "type": "fallback"
    },
    {
      "inputs": [],
      "name": "addCustomer",
      "outputs": [],
      "stateMutability": "nonpayable",
      "type": "function"
    },
    {
      "inputs": [],
      "name": "addDistributor",
      "outputs": [],
      "stateMutability": "nonpayable",
      "type": "function"
    },
    {
      "inputs": [],
      "name": "addFunds",
      "outputs": [],
      "stateMutability": "payable",
      "type": "function"
    },
    {
      "inputs": [],
      "name": "addManufacturer",
      "outputs": [],
      "stateMutability": "nonpayable",
      "type": "function"
    },
    {
      "inputs": [],
      "name": "addRetailer",
      "outputs": [],
      "stateMutability": "nonpayable",
      "type": "function"
    },
    {
      "inputs": [],
      "name": "admin",
      "outputs": [
        {
          "internalType": "address",
          "name": "",
          "type": "address"
        }
      ],
      "stateMutability": "view",
      "type": "function"
    },
    {
      "inputs": [
        {
          "internalType": "uint256",
          "name": "_productID",
          "type": "uint256"
        },
        {
          "internalType": "uint256",
          "name": "_newTransactionID",
          "type": "uint256"
        }
      ],
      "name": "changeBankTransactionID",
      "outputs": [],
      "stateMutability": "nonpayable",
      "type": "function"
    },
    {
      "inputs": [
        {
          "internalType": "uint256",
          "name": "_productID",
          "type": "uint256"
        }
      ],
      "name": "changeOnSale",
      "outputs": [],
      "stateMutability": "nonpayable",
      "type": "function"
    },
    {
      "inputs": [
        {
          "internalType": "address",
          "name": "",
          "type": "address"
        }
      ],
      "name": "customers",
      "outputs": [
        {
          "internalType": "bool",
          "name": "",
          "type": "bool"
        }
      ],
      "stateMutability": "view",
      "type": "function"
    },
    {
      "inputs": [],
      "name": "defaultProductLocation",
      "outputs": [
        {
          "internalType": "enum Utils.ProductLocation",
          "name": "",
          "type": "uint8"
        }
      ],
      "stateMutability": "view",
      "type": "function"
    },
    {
      "inputs": [],
      "name": "defaultProductStage",
      "outputs": [
        {
          "internalType": "enum Utils.ProductStage",
          "name": "",
          "type": "uint8"
        }
      ],
      "stateMutability": "view",
      "type": "function"
    },
    {
      "inputs": [
        {
          "internalType": "address",
          "name": "",
          "type": "address"
        }
      ],
      "name": "distributors",
      "outputs": [
        {
          "internalType": "bool",
          "name": "",
          "type": "bool"
        }
      ],
      "stateMutability": "view",
      "type": "function"
    },
    {
      "inputs": [
        {
          "internalType": "address",
          "name": "",
          "type": "address"
        }
      ],
      "name": "entityVerificationPermission",
      "outputs": [
        {
          "internalType": "bool",
          "name": "",
          "type": "bool"
        }
      ],
      "stateMutability": "view",
      "type": "function"
    },
    {
      "inputs": [],
      "name": "getBalance",
      "outputs": [
        {
          "internalType": "uint256",
          "name": "",
          "type": "uint256"
        }
      ],
      "stateMutability": "view",
      "type": "function"
    },
    {
      "inputs": [],
      "name": "getCertificationPercentage",
      "outputs": [
        {
          "internalType": "uint256",
          "name": "",
          "type": "uint256"
        }
      ],
      "stateMutability": "view",
      "type": "function"
    },
    {
      "inputs": [],
      "name": "getStatus",
      "outputs": [],
      "stateMutability": "nonpayable",
      "type": "function"
    },
    {
      "inputs": [],
      "name": "getVerificationAmount",
      "outputs": [
        {
          "internalType": "uint256",
          "name": "",
          "type": "uint256"
        }
      ],
      "stateMutability": "view",
      "type": "function"
    },
    {
      "inputs": [
        {
          "internalType": "address",
          "name": "account",
          "type": "address"
        }
      ],
      "name": "grantVerificationPermission",
      "outputs": [],
      "stateMutability": "nonpayable",
      "type": "function"
    },
    {
      "inputs": [
        {
          "internalType": "address",
          "name": "account",
          "type": "address"
        }
      ],
      "name": "isCustomer",
      "outputs": [
        {
          "internalType": "bool",
          "name": "",
          "type": "bool"
        }
      ],
      "stateMutability": "view",
      "type": "function"
    },
    {
      "inputs": [
        {
          "internalType": "address",
          "name": "account",
          "type": "address"
        }
      ],
      "name": "isDistributor",
      "outputs": [
        {
          "internalType": "bool",
          "name": "",
          "type": "bool"
        }
      ],
      "stateMutability": "view",
      "type": "function"
    },
    {
      "inputs": [
        {
          "internalType": "address",
          "name": "account",
          "type": "address"
        }
      ],
      "name": "isManufacturer",
      "outputs": [
        {
          "internalType": "bool",
          "name": "",
          "type": "bool"
        }
      ],
      "stateMutability": "view",
      "type": "function"
    },
    {
      "inputs": [
        {
          "internalType": "address",
          "name": "account",
          "type": "address"
        }
      ],
      "name": "isRetailer",
      "outputs": [
        {
          "internalType": "bool",
          "name": "",
          "type": "bool"
        }
      ],
      "stateMutability": "view",
      "type": "function"
    },
    {
      "inputs": [
        {
          "internalType": "address",
          "name": "account",
          "type": "address"
        }
      ],
      "name": "isVerificationPermitted",
      "outputs": [
        {
          "internalType": "bool",
          "name": "",
          "type": "bool"
        }
      ],
      "stateMutability": "view",
      "type": "function"
    },
    {
      "inputs": [
        {
          "internalType": "address",
          "name": "account",
          "type": "address"
        }
      ],
      "name": "isVerified",
      "outputs": [
        {
          "internalType": "bool",
          "name": "",
          "type": "bool"
        }
      ],
      "stateMutability": "view",
      "type": "function"
    },
    {
      "inputs": [
        {
          "internalType": "address",
          "name": "",
          "type": "address"
        }
      ],
      "name": "manufacturers",
      "outputs": [
        {
          "internalType": "bool",
          "name": "",
          "type": "bool"
        }
      ],
      "stateMutability": "view",
      "type": "function"
    },
    {
      "inputs": [
        {
          "internalType": "uint256",
          "name": "_productID",
          "type": "uint256"
        },
        {
          "internalType": "uint256",
          "name": "_productUID",
          "type": "uint256"
        }
      ],
      "name": "produceProduct",
      "outputs": [],
      "stateMutability": "nonpayable",
      "type": "function"
    },
    {
      "inputs": [
        {
          "internalType": "uint256",
          "name": "",
          "type": "uint256"
        }
      ],
      "name": "products",
      "outputs": [
        {
          "internalType": "uint256",
          "name": "productID",
          "type": "uint256"
        },
        {
          "internalType": "uint256",
          "name": "productUID",
          "type": "uint256"
        },
        {
          "internalType": "address",
          "name": "previousOwner",
          "type": "address"
        },
        {
          "internalType": "address",
          "name": "currentOwner",
          "type": "address"
        },
        {
          "internalType": "uint256",
          "name": "creationDate",
          "type": "uint256"
        },
        {
          "internalType": "enum Utils.ProductStage",
          "name": "productStage",
          "type": "uint8"
        },
        {
          "internalType": "enum Utils.ProductLocation",
          "name": "productLocation",
          "type": "uint8"
        },
        {
          "components": [
            {
              "internalType": "address",
              "name": "manufacturer",
              "type": "address"
            },
            {
              "internalType": "address",
              "name": "distributor",
              "type": "address"
            },
            {
              "internalType": "address",
              "name": "retailer",
              "type": "address"
            },
            {
              "internalType": "address",
              "name": "customer",
              "type": "address"
            }
          ],
          "internalType": "struct Utils.Ownerships",
          "name": "ownerships",
          "type": "tuple"
        },
        {
          "components": [
            {
              "internalType": "uint256",
              "name": "distributorBankTransactionID",
              "type": "uint256"
            },
            {
              "internalType": "uint256",
              "name": "retailerBankTransactionID",
              "type": "uint256"
            }
          ],
          "internalType": "struct Utils.TransactionIDs",
          "name": "transactionIDs",
          "type": "tuple"
        },
        {
          "components": [
            {
              "internalType": "bool",
              "name": "manufacturerRewarded",
              "type": "bool"
            },
            {
              "internalType": "bool",
              "name": "distributorRewarded",
              "type": "bool"
            },
            {
              "internalType": "bool",
              "name": "retailerRewarded",
              "type": "bool"
            }
          ],
          "internalType": "struct Utils.ProductRewards",
          "name": "rewards",
          "type": "tuple"
        }
      ],
      "stateMutability": "view",
      "type": "function"
    },
    {
      "inputs": [
        {
          "internalType": "uint256",
          "name": "_productID",
          "type": "uint256"
        }
      ],
      "name": "purchaseProduct",
      "outputs": [],
      "stateMutability": "payable",
      "type": "function"
    },
    {
      "inputs": [
        {
          "internalType": "uint256",
          "name": "_productID",
          "type": "uint256"
        }
      ],
      "name": "receiveProduct",
      "outputs": [],
      "stateMutability": "nonpayable",
      "type": "function"
    },
    {
      "inputs": [],
      "name": "removeCustomer",
      "outputs": [],
      "stateMutability": "nonpayable",
      "type": "function"
    },
    {
      "inputs": [],
      "name": "removeDistributor",
      "outputs": [],
      "stateMutability": "nonpayable",
      "type": "function"
    },
    {
      "inputs": [],
      "name": "removeManufacturer",
      "outputs": [],
      "stateMutability": "nonpayable",
      "type": "function"
    },
    {
      "inputs": [],
      "name": "removeRetailer",
      "outputs": [],
      "stateMutability": "nonpayable",
      "type": "function"
    },
    {
      "inputs": [
        {
          "internalType": "address",
          "name": "account",
          "type": "address"
        }
      ],
      "name": "removeVerification",
      "outputs": [],
      "stateMutability": "nonpayable",
      "type": "function"
    },
    {
      "inputs": [
        {
          "internalType": "address",
          "name": "",
          "type": "address"
        }
      ],
      "name": "retailers",
      "outputs": [
        {
          "internalType": "bool",
          "name": "",
          "type": "bool"
        }
      ],
      "stateMutability": "view",
      "type": "function"
    },
    {
      "inputs": [
        {
          "internalType": "address",
          "name": "account",
          "type": "address"
        }
      ],
      "name": "revokeVerificationPermission",
      "outputs": [],
      "stateMutability": "nonpayable",
      "type": "function"
    },
    {
      "inputs": [
        {
          "internalType": "uint256",
          "name": "_percentage",
          "type": "uint256"
        }
      ],
      "name": "setCertificationPercentage",
      "outputs": [],
      "stateMutability": "nonpayable",
      "type": "function"
    },
    {
      "inputs": [
        {
          "internalType": "uint256",
          "name": "_amount",
          "type": "uint256"
        }
      ],
      "name": "setVerificationAmount",
      "outputs": [],
      "stateMutability": "nonpayable",
      "type": "function"
    },
    {
      "inputs": [
        {
          "internalType": "uint256",
          "name": "_productID",
          "type": "uint256"
        },
        {
          "internalType": "address",
          "name": "receiver",
          "type": "address"
        }
      ],
      "name": "shipProduct",
      "outputs": [],
      "stateMutability": "nonpayable",
      "type": "function"
    },
    {
      "inputs": [],
      "name": "smartSupplyBalance",
      "outputs": [
        {
          "internalType": "uint256",
          "name": "",
          "type": "uint256"
        }
      ],
      "stateMutability": "view",
      "type": "function"
    },
    {
      "inputs": [],
      "name": "status",
      "outputs": [
        {
          "internalType": "string",
          "name": "",
          "type": "string"
        }
      ],
      "stateMutability": "view",
      "type": "function"
    },
    {
      "inputs": [
        {
          "internalType": "address",
          "name": "",
          "type": "address"
        }
      ],
      "name": "verificationStatus",
      "outputs": [
        {
          "internalType": "bool",
          "name": "",
          "type": "bool"
        }
      ],
      "stateMutability": "view",
      "type": "function"
    },
    {
      "inputs": [],
      "name": "verifyEntity",
      "outputs": [],
      "stateMutability": "payable",
      "type": "function"
    },
    {
      "inputs": [
        {
          "internalType": "uint256",
          "name": "amount",
          "type": "uint256"
        }
      ],
      "name": "withdrawFunds",
      "outputs": [],
      "stateMutability": "nonpayable",
      "type": "function"
    },
    {
      "stateMutability": "payable",
      "type": "receive"
    }
  ],
  "bytecode": "0x60806040526302faf080600255600a6003819055805461ffff1916905534801561002857600080fd5b50600080546001600160a01b031916331790556138208061004a6000396000f3fe6080604052600436106102eb5760003560e01c80637ad8447511610184578063b6d07385116100d6578063ceecd5961161008a578063f851a44011610064578063f851a440146109d3578063f89620e114610a0b578063fc9cc6e214610a2057610331565b8063ceecd59614610988578063e6361a8e1461099d578063f7d139cb146109b357610331565b8063c18e0ed9116100bb578063c18e0ed91461091e578063c4cb90501461093e578063cc6427841461095857610331565b8063b6d07385146108b5578063b9209e33146108e557610331565b80639bdc080111610138578063a315bd0a11610112578063a315bd0a14610850578063ac52480e14610870578063adafb3d41461088557610331565b80639bdc08011461081e578063a26759cb14610833578063a2c66c361461083b57610331565b80638f0c86fa116101695780638f0c86fa146107a057806397cf3c37146107d95780639a268f35146107ee57610331565b80637ad84475146107525780637bd6221f1461076757610331565b806329d783281161023d5780634e69d560116101f15780636b5eb09c116101cb5780636b5eb09c146105ee578063762b51db1461061e5780637acc0b201461064a57610331565b80634e69d560146105805780635da09b88146105955780636b2a5c35146105ce57610331565b8063336989ae11610222578063336989ae1461051d57806338e76a031461054d5780634d8322c71461056057610331565b806329d78328146104dd5780632d156a8d146104fd57610331565b80631c328f231161029f57806328443b181161027957806328443b181461048757806328fd5e831461049c578063293be2dd146104d557610331565b80631c328f2314610430578063200d2ed21461044557806326e1066e1461046757610331565b8063155dd5ee116102d0578063155dd5ee146103b257806316479b85146103d257806317d4a491146103e757610331565b80630e8336dd1461037057806312065fe01461039057610331565b366103315761032f6040518060400160405280600e81526020017f2d2d2d2d2d20726563656976653a00000000000000000000000000000000000081525034610a40565b005b61032f6040518060400160405280600f81526020017f2d2d2d2d2d2066616c6c6261636b3a000000000000000000000000000000000081525034610a40565b34801561037c57600080fd5b5061032f61038b36600461354f565b610ab7565b34801561039c57600080fd5b50475b6040519081526020015b60405180910390f35b3480156103be57600080fd5b5061032f6103cd36600461357b565b610dca565b3480156103de57600080fd5b5061032f610ed5565b3480156103f357600080fd5b50610420610402366004613594565b6001600160a01b031660009081526004602052604090205460ff1690565b60405190151581526020016103a9565b34801561043c57600080fd5b5060035461039f565b34801561045157600080fd5b5061045a610fd0565b6040516103a99190613603565b34801561047357600080fd5b5061032f610482366004613594565b61105e565b34801561049357600080fd5b5060025461039f565b3480156104a857600080fd5b506104206104b7366004613594565b6001600160a01b031660009081526007602052604090205460ff1690565b61032f611110565b3480156104e957600080fd5b5061032f6104f836600461357b565b611320565b34801561050957600080fd5b5061032f61051836600461357b565b611743565b34801561052957600080fd5b50610420610538366004613594565b60076020526000908152604090205460ff1681565b61032f61055b36600461357b565b6119e4565b34801561056c57600080fd5b5061032f61057b36600461357b565b611ea9565b34801561058c57600080fd5b5061032f611f50565b3480156105a157600080fd5b506104206105b0366004613594565b6001600160a01b031660009081526006602052604090205460ff1690565b3480156105da57600080fd5b5061032f6105e9366004613616565b611f97565b3480156105fa57600080fd5b50610420610609366004613594565b60046020526000908152604090205460ff1681565b34801561062a57600080fd5b50600a5461063d90610100900460ff1681565b6040516103a9919061366c565b34801561065657600080fd5b5061073c61066536600461357b565b600b602081815260009283526040928390208054600182015460028301546003840154600485015460058601548951608081018b5260068801546001600160a01b03908116825260078901548116828b015260088901548116828d0152600989015481166060808401919091528c51808e018e52600a8b015481529b8a01548c8c01528c519081018d52600c9099015460ff80821615158b52610100808304821615159c8c019c909c5262010000909104811615159c8a019c909c52969a959994871698969093169691958582169591041692908a565b6040516103a99a9998979695949392919061367f565b34801561075e57600080fd5b5061032f6122b0565b34801561077357600080fd5b50610420610782366004613594565b6001600160a01b031660009081526008602052604090205460ff1690565b3480156107ac57600080fd5b506104206107bb366004613594565b6001600160a01b031660009081526005602052604090205460ff1690565b3480156107e557600080fd5b5061032f6122f2565b3480156107fa57600080fd5b50610420610809366004613594565b60066020526000908152604090205460ff1681565b34801561082a57600080fd5b5061032f612356565b61032f612451565b34801561084757600080fd5b5061032f612515565b34801561085c57600080fd5b5061032f61086b366004613616565b612579565b34801561087c57600080fd5b5061032f6128f2565b34801561089157600080fd5b506104206108a0366004613594565b60096020526000908152604090205460ff1681565b3480156108c157600080fd5b506104206108d0366004613594565b60086020526000908152604090205460ff1681565b3480156108f157600080fd5b50610420610900366004613594565b6001600160a01b031660009081526009602052604090205460ff1690565b34801561092a57600080fd5b5061032f610939366004613594565b612956565b34801561094a57600080fd5b50600a5461063d9060ff1681565b34801561096457600080fd5b50610420610973366004613594565b60056020526000908152604090205460ff1681565b34801561099457600080fd5b5061032f612a0b565b3480156109a957600080fd5b5061039f60015481565b3480156109bf57600080fd5b5061032f6109ce366004613594565b612ae4565b3480156109df57600080fd5b506000546109f3906001600160a01b031681565b6040516001600160a01b0390911681526020016103a9565b348015610a1757600080fd5b5061032f612bfe565b348015610a2c57600080fd5b5061032f610a3b36600461357b565b612cf9565b610ab38282604051602401610a56929190613748565b60408051601f198184030181529190526020810180517bffffffffffffffffffffffffffffffffffffffffffffffffffffffff167fb60e72cc00000000000000000000000000000000000000000000000000000000179052612d99565b5050565b3360009081526004602052604090205460ff1680610ae457503360009081526005602052604090205460ff165b80610afe57503360009081526006602052604090205460ff165b610b835760405162461bcd60e51b815260206004820152604560248201527f4f6e6c79206d616e756661637475726572732c206469737472696275746f727360448201527f206f722072657461696c6572732063616e20706572666f726d2074686973206160648201526431ba34b7b760d91b608482015260a4015b60405180910390fd5b60026000838152600b602052604090206005015460ff166004811115610bab57610bab613638565b14610c1e5760405162461bcd60e51b815260206004820152603660248201527f50726f64756374206d7573742062652070757263686173656420627920736f6d60448201527f6520656e7469747920746f2062652073686970706564000000000000000000006064820152608401610b7a565b6000828152600b60205260409020600201546001600160a01b03163314610cad5760405162461bcd60e51b815260206004820152602c60248201527f50726f647563742063616e206f6e6c792062652073686970706564206279207460448201527f6865206f6c64206f776e657200000000000000000000000000000000000000006064820152608401610b7a565b610cb8823383612da2565b6000828152600b60209081526040808320600501805461ffff19166104031790556001600160a01b0384168352600790915290205460ff1615610d7a576000828152600b6020526040812060060154610d1e916001600160a01b03909116906019613067565b6000828152600b602052604090206007810154600a90910154610d4c916001600160a01b0316906019613067565b6000828152600b602081905260409091206008810154910154610d7a916001600160a01b0316906019613067565b604080518381523360208201526001600160a01b038316918101919091527fae22003d449cfb842a57062f1f6ae06a4abdabcdfb0b6e02deee5584df17b277906060015b60405180910390a15050565b6000546001600160a01b03163314610e335760405162461bcd60e51b815260206004820152602660248201527f4f6e6c79207468652061646d696e2063616e20706572666f726d20746869732060448201526530b1ba34b7b760d11b6064820152608401610b7a565b600154811115610e855760405162461bcd60e51b815260206004820152601260248201527f496e73756666696369656e742066756e647300000000000000000000000000006044820152606401610b7a565b8060016000828254610e979190613780565b9091555050600080546040516001600160a01b039091169183156108fc02918491818181858888f19350505050158015610ab3573d6000803e3d6000fd5b3360009081526006602052604090205460ff1680610efd57506000546001600160a01b031633145b610f6f5760405162461bcd60e51b815260206004820152603360248201527f4f6e6c792072657461696c657273206f72207468652061646d696e2063616e2060448201527f706572666f726d207468697320616374696f6e000000000000000000000000006064820152608401610b7a565b336000818152600660209081526040808320805460ff199081169091556008835281842080548216905560099092528083208054909216909155517fdb7176e79cffef81cb01767dd0447a0b24bb72ca9778d4b245581086b2a7e6db9190a2565b600c8054610fdd90613797565b80601f016020809104026020016040519081016040528092919081815260200182805461100990613797565b80156110565780601f1061102b57610100808354040283529160200191611056565b820191906000526020600020905b81548152906001019060200180831161103957829003601f168201915b505050505081565b6000546001600160a01b031633146110c75760405162461bcd60e51b815260206004820152602660248201527f4f6e6c79207468652061646d696e2063616e20706572666f726d20746869732060448201526530b1ba34b7b760d11b6064820152608401610b7a565b6001600160a01b038116600081815260086020526040808220805460ff19169055517f31ef9270602119277454261e5a5bff0e43801de289dcf5d07dcf5aefc5c151d89190a250565b3360009081526008602052604090205460ff166111955760405162461bcd60e51b815260206004820152603060248201527f456e74697479206861736e277420676976656e20697473206964656e7469666960448201527f636174696f6e2070726f6f6620796574000000000000000000000000000000006064820152608401610b7a565b3360009081526007602052604090205460ff161561121b5760405162461bcd60e51b815260206004820152603060248201527f437573746f6d65727320617265206e6f7420616c6c6f77656420746f2070657260448201527f666f726d207468697320616374696f6e000000000000000000000000000000006064820152608401610b7a565b60143410156112925760405162461bcd60e51b815260206004820152602560248201527f496e73756666696369656e74207061796d656e7420666f72207665726966696360448201527f6174696f6e0000000000000000000000000000000000000000000000000000006064820152608401610b7a565b34600160008282546112a491906137d2565b909155505060405134815233907f8fe10ae416f22f5e5220b0018a6c1d4ff534d6aa3a471f2a20cb7747fe63e5b99060200160405180910390a233600081815260096020526040808220805460ff19166001179055517fa3710f2b2505ddd76d00993c1fad93af4104d857fa3e237c9548c028c44935cc9190a2565b3360009081526007602052604090205460ff168061134d57503360009081526005602052604090205460ff165b8061136757503360009081526006602052604090205460ff165b6113e35760405162461bcd60e51b815260206004820152604160248201527f4f6e6c7920637573746f6d6572732c206469737472696275746f7273206f722060448201527f72657461696c6572732063616e20706572666f726d207468697320616374696f6064820152603760f91b608482015260a401610b7a565b60036000828152600b602052604090206005015460ff16600481111561140b5761140b613638565b1461147e5760405162461bcd60e51b815260206004820152603160248201527f50726f64756374206d75737420626520696e202753686970706564272073746160448201527f676520746f2062652072656365697665640000000000000000000000000000006064820152608401610b7a565b60046000828152600b6020526040902060050154610100900460ff1660048111156114ab576114ab613638565b1461151e5760405162461bcd60e51b815260206004820152603560248201527f50726f64756374206d75737420626520696e20275368697070696e6727206c6f60448201527f636174696f6e20746f20626520726563656976656400000000000000000000006064820152608401610b7a565b6000818152600b60205260409020600301546001600160a01b031633146115ad5760405162461bcd60e51b815260206004820152602e60248201527f4f6e6c79207468652063757272656e74206f776e65722063616e20726563656960448201527f7665207468652070726f647563740000000000000000000000000000000000006064820152608401610b7a565b6000818152600b6020526040902060058101805460ff1916600417905560070154336001600160a01b03909116141561160b576000818152600b6020526040902060050180546001919061ff001916610100835b0217905550611707565b6000818152600b60205260409020600801546001600160a01b0316331415611652576000818152600b6020526040902060050180546002919061ff00191661010083611601565b6000818152600b60205260409020600901546001600160a01b0316331415611699576000818152600b6020526040902060050180546003919061ff00191661010083611601565b60405162461bcd60e51b815260206004820152602b60248201527f496e76616c69642063757272656e74206f776e657220666f722075706461746960448201527f6e67206c6f636174696f6e0000000000000000000000000000000000000000006064820152608401610b7a565b604080518281523360208201527f7eb38f83fec1bdc45e831c15e9e3eb2369028929a0e38e3709b7e710362f823b91015b60405180910390a150565b3360009081526004602052604090205460ff168061177057503360009081526005602052604090205460ff165b8061178a57503360009081526006602052604090205460ff165b61180a5760405162461bcd60e51b815260206004820152604560248201527f4f6e6c79206d616e756661637475726572732c206469737472696275746f727360448201527f206f722072657461696c6572732063616e20706572666f726d2074686973206160648201526431ba34b7b760d91b608482015260a401610b7a565b6000818152600b60205260409020600301546001600160a01b031633146118995760405162461bcd60e51b815260206004820152603d60248201527f4f6e6c79207468652063757272656e74206f776e65722063616e206368616e6760448201527f65207468652070726f6475637420737461676520746f204f6e53616c650000006064820152608401610b7a565b60026000828152600b602052604090206005015460ff1660048111156118c1576118c1613638565b141580156118f5575060036000828152600b602052604090206005015460ff1660048111156118f2576118f2613638565b14155b61198d5760405162461bcd60e51b815260206004820152604560248201527f50726f64756374206d757374206e6f7420626520696e2050757263686173656460448201527f206f72205368697070656420737461676520746f206368616e676520746f204f60648201527f6e53616c65000000000000000000000000000000000000000000000000000000608482015260a401610b7a565b6000818152600b6020526040902060050180546001919060ff191682800217905550604080518281523360208201527f5ea9686d3fd9cc47111972119dae21c738cc8467f126b047ba099f2e986dc84f9101611738565b3360009081526007602052604090205460ff1680611a1157503360009081526005602052604090205460ff165b80611a2b57503360009081526006602052604090205460ff165b611aa75760405162461bcd60e51b815260206004820152604160248201527f4f6e6c7920637573746f6d6572732c206469737472696275746f7273206f722060448201527f72657461696c6572732063616e20706572666f726d207468697320616374696f6064820152603760f91b608482015260a401610b7a565b6000818152600b60205260409020600301546001600160a01b0316331415611b375760405162461bcd60e51b815260206004820152602b60248201527f43757272656e74206f776e6572732063616e277420627579207468656972206f60448201527f776e2070726f64756374730000000000000000000000000000000000000000006064820152608401610b7a565b60016000828152600b602052604090206005015460ff166004811115611b5f57611b5f613638565b14611bd25760405162461bcd60e51b815260206004820152602760248201527f50726f64756374206d757374206265204f6e2053616c6520746f20626520707560448201527f72636861736564000000000000000000000000000000000000000000000000006064820152608401610b7a565b3360009081526007602052604090205460ff168015611cd757606434811115611c895760405162461bcd60e51b815260206004820152605060248201527f437573746f6d657273206d7573742073656e642074686520636f72726563742060448201527f616d6f756e74206f6620636f696e7320746f20627579207468652070726f647560648201527f63742063657274696669636174696f6e00000000000000000000000000000000608482015260a401610b7a565b3460016000828254611c9b91906137d2565b909155505060405134815233907f8fe10ae416f22f5e5220b0018a6c1d4ff534d6aa3a471f2a20cb7747fe63e5b99060200160405180910390a2505b6000828152600b602090815260408083206005808201805460ff191660029081179091556003830180549190930180546001600160a01b03199081166001600160a01b03841617909155163390811790925590845290915290205460ff1615611d60576000828152600b6020526040902060070180546001600160a01b03191633179055611e4a565b3360009081526006602052604090205460ff1615611d9e576000828152600b6020526040902060080180546001600160a01b03191633179055611e4a565b3360009081526007602052604090205460ff1615611ddc576000828152600b6020526040902060090180546001600160a01b03191633179055611e4a565b60405162461bcd60e51b815260206004820152602d60248201527f496e76616c696420726f6c6520666f72207570646174696e672070726f64756360448201527f7420696e666f726d6174696f6e000000000000000000000000000000000000006064820152608401610b7a565b6000828152600b60209081526040918290206002015482518581526001600160a01b039091169181019190915233918101919091527f405b8e92032184041314dcddf305e0d97d13b103d3fa162eb2b1c760760bdc0a90606001610dbe565b6000546001600160a01b03163314611f125760405162461bcd60e51b815260206004820152602660248201527f4f6e6c79207468652061646d696e2063616e20706572666f726d20746869732060448201526530b1ba34b7b760d11b6064820152608401610b7a565b600281905560405181815233907fb77f58d7bdd9979ecd98ed048fc9d5657dfb51e810bb8c078af5b318a68bf1f4906020015b60405180910390a250565b6040805180820190915260058082527f50617965640000000000000000000000000000000000000000000000000000006020909201918252611f9491600c916133f6565b50565b3360009081526004602052604090205460ff1680611fbf57506000546001600160a01b031633145b6120315760405162461bcd60e51b815260206004820152603760248201527f4f6e6c79206d616e75666163747572657273206f72207468652061646d696e2060448201527f63616e20706572666f726d207468697320616374696f6e0000000000000000006064820152608401610b7a565b61203961347a565b8281526020810182905233606082018190526040820152426080820152600a5460a082019060ff16600481111561207257612072613638565b9081600481111561208557612085613638565b905250600a5460c0820190610100900460ff1660048111156120a9576120a9613638565b908160048111156120bc576120bc613638565b905250604080516080808201835260006020808401829052838501829052606080850183905233855260e08701859052888352600b8252918590208651815590860151600180830191909155948601516002820180546001600160a01b03199081166001600160a01b0393841617909155928701516003830180549094169116179091559084015160048083019190915560a0850151600583018054949587959293919260ff191691849081111561217657612176613638565b021790555060c082015160058201805461ff0019166101008360048111156121a0576121a0613638565b021790555060e082015180516006830180546001600160a01b03199081166001600160a01b0393841617909155602080840151600786018054841691851691909117905560408085015160088701805485169186169190911790556060909401516009860180549093169316929092179055610100808501518051600a860155820151600b850155610120909401518051600c9094018054828401519285015161ffff1990911695151561ff001916959095179115159095021762ff00001916620100009315159390930292909217909255815186815233918101919091527f97c998f1009a742d52bd2b93e67352e2800f1b46a2a226b31cfa903ec93892f7910160405180910390a150505050565b33600081815260076020526040808220805460ff19166001179055517fcd118a02bd36f224f6f1b93812f78d2bbc2c2dc1bc0f60c176e3b4fe09f1483f9190a2565b336000818152600660209081526040808320805460ff199081166001179091556008835281842080548216905560099092528083208054909216909155517f71ae26cad02663e3d92efd6ec56031a80d74a20c0ab4183faa8bf262261c9baa9190a2565b3360009081526005602052604090205460ff168061237e57506000546001600160a01b031633145b6123f05760405162461bcd60e51b815260206004820152603660248201527f4f6e6c79206469737472696275746f7273206f72207468652061646d696e206360448201527f616e20706572666f726d207468697320616374696f6e000000000000000000006064820152608401610b7a565b336000818152600560209081526040808320805460ff199081169091556008835281842080548216905560099092528083208054909216909155517f126174f6cf49c81cdb4a9214c6b8f037bef55b4ec31e4fc776cea2a1c8a88d599190a2565b600034116124c75760405162461bcd60e51b815260206004820152602160248201527f46756e64732073656e74206d7573742062652067726561746572207468616e2060448201527f30000000000000000000000000000000000000000000000000000000000000006064820152608401610b7a565b34600160008282546124d991906137d2565b909155505060405134815233907f8fe10ae416f22f5e5220b0018a6c1d4ff534d6aa3a471f2a20cb7747fe63e5b99060200160405180910390a2565b336000818152600460209081526040808320805460ff199081166001179091556008835281842080548216905560099092528083208054909216909155517f561138658ca49a8540dc70dcfe64c9026c1c5b9344642242dd6562970f9c12789190a2565b6000828152600b602090815260408083206009810154600780830154600890930154338752945291909320546001600160a01b03918216938216929091169060ff1680156125cf5750336001600160a01b038416145b156125d9576126d2565b3360009081526005602052604090205460ff1680156126005750336001600160a01b038316145b1561261e576000858152600b60205260409020600a018490556126d2565b3360009081526006602052604090205460ff1680156126455750336001600160a01b038216145b15612664576000858152600b60208190526040909120018490556126d2565b60405162461bcd60e51b815260206004820152603c60248201527f43616c6c657220646f6573206e6f74206861766520746865207269676874207460448201527f6f206368616e67652062616e6b207472616e73616374696f6e204944000000006064820152608401610b7a565b3360009081526005602052604090205460ff1680156126f95750336001600160a01b038316145b801561271c57506000858152600b60205260409020600c0154610100900460ff16155b801561278f57506001600160a01b0383161580159061278f575060036000868152600b602052604090206005015460ff16600481111561275e5761275e613638565b148061278f575060046000868152600b602052604090206005015460ff16600481111561278d5761278d613638565b145b156127c3576127a033866019613067565b6000858152600b60205260409020600c01805461ff0019166101001790556128b3565b3360009081526006602052604090205460ff1680156127ea5750336001600160a01b038216145b801561280e57506000858152600b60205260409020600c015462010000900460ff16155b801561288157506001600160a01b03831615801590612881575060036000868152600b602052604090206005015460ff16600481111561285057612850613638565b1480612881575060046000868152600b602052604090206005015460ff16600481111561287f5761287f613638565b145b156128b35761289233866019613067565b6000858152600b60205260409020600c01805462ff00001916620100001790555b604080518681523360208201527fdcd2f9ad8329d46769c3238811ad3ca487334dd220ad05263c0f9ea1a19ccc87910160405180910390a15050505050565b336000818152600560209081526040808320805460ff199081166001179091556008835281842080548216905560099092528083208054909216909155517fddbf200aa634dc3fb81cfd68583dd1040d1c751d335e1d86b631bde3e977fea89190a2565b6000546001600160a01b031633146129bf5760405162461bcd60e51b815260206004820152602660248201527f4f6e6c79207468652061646d696e2063616e20706572666f726d20746869732060448201526530b1ba34b7b760d11b6064820152608401610b7a565b6001600160a01b038116600081815260086020526040808220805460ff19166001179055517f58169284ef5a04f8626278f2f2b6c44cf8f2d30da1e96100b7016764ad6130689190a250565b3360009081526007602052604090205460ff1680612a3357506000546001600160a01b031633145b612aa55760405162461bcd60e51b815260206004820152603360248201527f4f6e6c7920637573746f6d657273206f72207468652061646d696e2063616e2060448201527f706572666f726d207468697320616374696f6e000000000000000000000000006064820152608401610b7a565b33600081815260076020526040808220805460ff19169055517fb4c88a9c5cd906354abdd1cc29e4f94c6c4de90754fb80ce51e6a33417bc81b69190a2565b6000546001600160a01b03163314612b4d5760405162461bcd60e51b815260206004820152602660248201527f4f6e6c79207468652061646d696e2063616e20706572666f726d20746869732060448201526530b1ba34b7b760d11b6064820152608401610b7a565b6001600160a01b03811660009081526009602052604090205460ff16612bb55760405162461bcd60e51b815260206004820152601e60248201527f456e7469747920697320616c7265616479206e6f7420766572696669656400006044820152606401610b7a565b6001600160a01b038116600081815260096020526040808220805460ff19169055517f4e7593da9155b5afbbc5e5bcaaf40b112e7529d1233f4c92780fbf49682842469190a250565b3360009081526004602052604090205460ff1680612c2657506000546001600160a01b031633145b612c985760405162461bcd60e51b815260206004820152603760248201527f4f6e6c79206d616e75666163747572657273206f72207468652061646d696e2060448201527f63616e20706572666f726d207468697320616374696f6e0000000000000000006064820152608401610b7a565b336000818152600460209081526040808320805460ff199081169091556008835281842080548216905560099092528083208054909216909155517f2fed5abf6a80d6dfe30b4895481b2fc5d7dce5f8f7b931832f4a2947d5040c7f9190a2565b6000546001600160a01b03163314612d625760405162461bcd60e51b815260206004820152602660248201527f4f6e6c79207468652061646d696e2063616e20706572666f726d20746869732060448201526530b1ba34b7b760d11b6064820152608401610b7a565b600381905560405181815233907f34949851b962a7f1c28710ba5e9ba656f8257419a4c3da8b9c6bd206856d1e2790602001611f45565b611f94816133d5565b816001600160a01b0316816001600160a01b03161415612e2a5760405162461bcd60e51b815260206004820152603e60248201527f50726f647563742063616e6e6f74206265207368697070656420746f2074686560448201527f2073616d65206164647265737320617320746865206f6c64206f776e657200006064820152608401610b7a565b6000838152600b60205260409020600301546001600160a01b03828116911614612ebc5760405162461bcd60e51b815260206004820152602c60248201527f50726f64756374206d757374206265207368697070656420746f20746865206360448201527f757272656e74206f776e657200000000000000000000000000000000000000006064820152608401610b7a565b6000838152600b60205260409020600201546001600160a01b038381169116148015612ff057506000838152600b60205260409020600601546001600160a01b038381169116148015612f385750600080848152600b6020526040902060050154610100900460ff166004811115612f3657612f36613638565b145b80612f9457506000838152600b60205260409020600701546001600160a01b038381169116148015612f94575060016000848152600b6020526040902060050154610100900460ff166004811115612f9257612f92613638565b145b80612ff057506000838152600b60205260409020600801546001600160a01b038381169116148015612ff0575060026000848152600b6020526040902060050154610100900460ff166004811115612fee57612fee613638565b145b6130625760405162461bcd60e51b815260206004820152602a60248201527f496e76616c6964206f6c64206f776e6572206f72206c6f636174696f6e20666f60448201527f72207368697070696e67000000000000000000000000000000000000000000006064820152608401610b7a565b505050565b6001600160a01b0383166130bd5760405162461bcd60e51b815260206004820152601960248201527f496e76616c696420726563697069656e742061646472657373000000000000006044820152606401610b7a565b6000811161310d5760405162461bcd60e51b815260206004820152601660248201527f496e76616c6964207061796d656e7420616d6f756e74000000000000000000006044820152606401610b7a565b6001600160a01b03831660009081526006602052604090205460ff16156131e6576000828152600b60208190526040909120015415613062576040516001600160a01b0384169082156108fc029083906000818181858888f1935050505015801561317c573d6000803e3d6000fd5b506000828152600b6020908152604091829020600c01805462ff000019166201000017905581516001600160a01b03861681529081018390527f3ad0c8d1bbd63d54c5f14180eae95cab7c2420b2dbb90603a6e5d206668f52ec91015b60405180910390a1505050565b6001600160a01b03831660009081526005602052604090205460ff16156132b3576000828152600b60205260409020600a015415613062576040516001600160a01b0384169082156108fc029083906000818181858888f19350505050158015613254573d6000803e3d6000fd5b506000828152600b6020908152604091829020600c01805461ff00191661010017905581516001600160a01b03861681529081018390527f3ad0c8d1bbd63d54c5f14180eae95cab7c2420b2dbb90603a6e5d206668f52ec91016131d9565b6001600160a01b03831660009081526004602052604090205460ff1615613367576040516001600160a01b0384169082156108fc029083906000818181858888f1935050505015801561330a573d6000803e3d6000fd5b506000828152600b6020908152604091829020600c01805460ff1916600117905581516001600160a01b03861681529081018390527f3ad0c8d1bbd63d54c5f14180eae95cab7c2420b2dbb90603a6e5d206668f52ec91016131d9565b60405162461bcd60e51b815260206004820152602f60248201527f496e76616c696420726563697069656e7420726f6c65206f72206d697373696e60448201527f67207472616e73616374696f6e494400000000000000000000000000000000006064820152608401610b7a565b60006a636f6e736f6c652e6c6f679050600080835160208501845afa505050565b82805461340290613797565b90600052602060002090601f016020900481019282613424576000855561346a565b82601f1061343d57805160ff191683800117855561346a565b8280016001018555821561346a579182015b8281111561346a57825182559160200191906001019061344f565b5061347692915061351e565b5090565b604080516101408101825260008082526020820181905291810182905260608101829052608081018290529060a08201908152602001600081526040805160808101825260008082526020828101829052928201819052606082015291019081526020016134fb604051806040016040528060008152602001600081525090565b815260408051606081018252600080825260208281018290529282015291015290565b5b80821115613476576000815560010161351f565b80356001600160a01b038116811461354a57600080fd5b919050565b6000806040838503121561356257600080fd5b8235915061357260208401613533565b90509250929050565b60006020828403121561358d57600080fd5b5035919050565b6000602082840312156135a657600080fd5b6135af82613533565b9392505050565b6000815180845260005b818110156135dc576020818501810151868301820152016135c0565b818111156135ee576000602083870101525b50601f01601f19169290920160200192915050565b6020815260006135af60208301846135b6565b6000806040838503121561362957600080fd5b50508035926020909101359150565b634e487b7160e01b600052602160045260246000fd5b60058110611f9457634e487b7160e01b600052602160045260246000fd5b602081016136798361364e565b91905290565b6000610200820190508b82528a60208301526001600160a01b03808b166040840152808a1660608401528860808401526136b88861364e565b8760a08401526136c78761364e565b60c083018790528551811660e0840152602086015181166101008401526040860151811661012084015260608601511661014083015261371561016083018580518252602090810151910152565b825115156101a0830152602083015115156101c0830152604083015115156101e08301529b9a5050505050505050505050565b60408152600061375b60408301856135b6565b90508260208301529392505050565b634e487b7160e01b600052601160045260246000fd5b6000828210156137925761379261376a565b500390565b600181811c908216806137ab57607f821691505b602082108114156137cc57634e487b7160e01b600052602260045260246000fd5b50919050565b600082198211156137e5576137e561376a565b50019056fea264697066735822122020cfb6ea1e24aca0e319bfe27a6ce9bb2326acfe7ad8168a78732b626e75ae9f64736f6c63430008090033",
  "linkReferences": {},
  "deployedLinkReferences": {}
}