{
  "_format": "hh-sol-artifact-1",
  "contractName": "SmartSupply",
  "sourceName": "contracts/SmartSupply.sol",
  "abi": [
    {
      "anonymous": false,
      "inputs": [
        {
          "indexed": false,
          "internalType": "uint256",
          "name": "productID",
          "type": "uint256"
        },
        {
          "indexed": false,
          "internalType": "address",
          "name": "entity",
          "type": "address"
        }
      ],
      "name": "BankTransactionChanged",
      "type": "event"
    },
    {
      "anonymous": false,
      "inputs": [
        {
          "indexed": true,
          "internalType": "address",
          "name": "from",
          "type": "address"
        },
        {
          "indexed": false,
          "internalType": "uint256",
          "name": "amount",
          "type": "uint256"
        }
      ],
      "name": "CertificationPercentageChanged",
      "type": "event"
    },
    {
      "anonymous": false,
      "inputs": [
        {
          "indexed": false,
          "internalType": "uint256",
          "name": "productID",
          "type": "uint256"
        },
        {
          "indexed": false,
          "internalType": "address",
          "name": "owner",
          "type": "address"
        }
      ],
      "name": "ChangedNotOnSale",
      "type": "event"
    },
    {
      "anonymous": false,
      "inputs": [
        {
          "indexed": false,
          "internalType": "uint256",
          "name": "productID",
          "type": "uint256"
        },
        {
          "indexed": false,
          "internalType": "address",
          "name": "owner",
          "type": "address"
        }
      ],
      "name": "ChangedOnSale",
      "type": "event"
    },
    {
      "anonymous": false,
      "inputs": [
        {
          "indexed": false,
          "internalType": "uint256",
          "name": "productID",
          "type": "uint256"
        },
        {
          "indexed": false,
          "internalType": "address",
          "name": "retailer",
          "type": "address"
        },
        {
          "indexed": false,
          "internalType": "uint256",
          "name": "newCertificationPrice",
          "type": "uint256"
        }
      ],
      "name": "ChangedOnSaleRetailer",
      "type": "event"
    },
    {
      "anonymous": false,
      "inputs": [
        {
          "indexed": true,
          "internalType": "address",
          "name": "account",
          "type": "address"
        }
      ],
      "name": "CustomerAdded",
      "type": "event"
    },
    {
      "anonymous": false,
      "inputs": [
        {
          "indexed": true,
          "internalType": "address",
          "name": "account",
          "type": "address"
        }
      ],
      "name": "CustomerRemoved",
      "type": "event"
    },
    {
      "anonymous": false,
      "inputs": [
        {
          "indexed": true,
          "internalType": "address",
          "name": "account",
          "type": "address"
        }
      ],
      "name": "DistributorAdded",
      "type": "event"
    },
    {
      "anonymous": false,
      "inputs": [
        {
          "indexed": true,
          "internalType": "address",
          "name": "account",
          "type": "address"
        }
      ],
      "name": "DistributorRemoved",
      "type": "event"
    },
    {
      "anonymous": false,
      "inputs": [
        {
          "indexed": true,
          "internalType": "address",
          "name": "account",
          "type": "address"
        }
      ],
      "name": "EntityVerificationRemoved",
      "type": "event"
    },
    {
      "anonymous": false,
      "inputs": [
        {
          "indexed": true,
          "internalType": "address",
          "name": "account",
          "type": "address"
        }
      ],
      "name": "EntityVerified",
      "type": "event"
    },
    {
      "anonymous": false,
      "inputs": [
        {
          "indexed": true,
          "internalType": "address",
          "name": "from",
          "type": "address"
        },
        {
          "indexed": false,
          "internalType": "uint256",
          "name": "amount",
          "type": "uint256"
        }
      ],
      "name": "FundsAdded",
      "type": "event"
    },
    {
      "anonymous": false,
      "inputs": [
        {
          "indexed": true,
          "internalType": "address",
          "name": "account",
          "type": "address"
        }
      ],
      "name": "ManufacturerAdded",
      "type": "event"
    },
    {
      "anonymous": false,
      "inputs": [
        {
          "indexed": true,
          "internalType": "address",
          "name": "account",
          "type": "address"
        }
      ],
      "name": "ManufacturerRemoved",
      "type": "event"
    },
    {
      "anonymous": false,
      "inputs": [
        {
          "indexed": false,
          "internalType": "uint256",
          "name": "productID",
          "type": "uint256"
        },
        {
          "indexed": false,
          "internalType": "address",
          "name": "manufacturer",
          "type": "address"
        }
      ],
      "name": "ProductProduced",
      "type": "event"
    },
    {
      "anonymous": false,
      "inputs": [
        {
          "indexed": false,
          "internalType": "uint256",
          "name": "productID",
          "type": "uint256"
        },
        {
          "indexed": false,
          "internalType": "address",
          "name": "oldOwner",
          "type": "address"
        },
        {
          "indexed": false,
          "internalType": "address",
          "name": "newOwner",
          "type": "address"
        }
      ],
      "name": "ProductPurchased",
      "type": "event"
    },
    {
      "anonymous": false,
      "inputs": [
        {
          "indexed": false,
          "internalType": "uint256",
          "name": "productID",
          "type": "uint256"
        },
        {
          "indexed": false,
          "internalType": "address",
          "name": "receiver",
          "type": "address"
        }
      ],
      "name": "ProductReceived",
      "type": "event"
    },
    {
      "anonymous": false,
      "inputs": [
        {
          "indexed": false,
          "internalType": "uint256",
          "name": "productID",
          "type": "uint256"
        },
        {
          "indexed": false,
          "internalType": "address",
          "name": "sender",
          "type": "address"
        },
        {
          "indexed": false,
          "internalType": "address",
          "name": "receiver",
          "type": "address"
        }
      ],
      "name": "ProductShipped",
      "type": "event"
    },
    {
      "anonymous": false,
      "inputs": [
        {
          "indexed": true,
          "internalType": "address",
          "name": "account",
          "type": "address"
        }
      ],
      "name": "RetailerAdded",
      "type": "event"
    },
    {
      "anonymous": false,
      "inputs": [
        {
          "indexed": true,
          "internalType": "address",
          "name": "account",
          "type": "address"
        }
      ],
      "name": "RetailerRemoved",
      "type": "event"
    },
    {
      "anonymous": false,
      "inputs": [
        {
          "indexed": false,
          "internalType": "address",
          "name": "receiver",
          "type": "address"
        },
        {
          "indexed": false,
          "internalType": "uint256",
          "name": "amount",
          "type": "uint256"
        }
      ],
      "name": "RewardGiven",
      "type": "event"
    },
    {
      "anonymous": false,
      "inputs": [
        {
          "indexed": true,
          "internalType": "address",
          "name": "from",
          "type": "address"
        },
        {
          "indexed": false,
          "internalType": "uint256",
          "name": "amount",
          "type": "uint256"
        }
      ],
      "name": "VerificationAmountChanged",
      "type": "event"
    },
    {
      "anonymous": false,
      "inputs": [
        {
          "indexed": true,
          "internalType": "address",
          "name": "account",
          "type": "address"
        }
      ],
      "name": "VerificationPermissionGranted",
      "type": "event"
    },
    {
      "anonymous": false,
      "inputs": [
        {
          "indexed": true,
          "internalType": "address",
          "name": "account",
          "type": "address"
        }
      ],
      "name": "VerificationPermissionRevoked",
      "type": "event"
    },
    {
      "stateMutability": "payable",
      "type": "fallback"
    },
    {
      "inputs": [],
      "name": "addCustomer",
      "outputs": [],
      "stateMutability": "nonpayable",
      "type": "function"
    },
    {
      "inputs": [],
      "name": "addDistributor",
      "outputs": [],
      "stateMutability": "nonpayable",
      "type": "function"
    },
    {
      "inputs": [
        {
          "internalType": "address",
          "name": "manufacturer",
          "type": "address"
        },
        {
          "internalType": "address",
          "name": "distributor",
          "type": "address"
        },
        {
          "internalType": "address",
          "name": "retailer",
          "type": "address"
        },
        {
          "internalType": "address",
          "name": "customer",
          "type": "address"
        }
      ],
      "name": "addEntities",
      "outputs": [],
      "stateMutability": "nonpayable",
      "type": "function"
    },
    {
      "inputs": [],
      "name": "addFunds",
      "outputs": [],
      "stateMutability": "payable",
      "type": "function"
    },
    {
      "inputs": [],
      "name": "addManufacturer",
      "outputs": [],
      "stateMutability": "nonpayable",
      "type": "function"
    },
    {
      "inputs": [
        {
          "internalType": "uint256",
          "name": "_productID",
          "type": "uint256"
        },
        {
          "internalType": "uint256",
          "name": "_productUID",
          "type": "uint256"
        },
        {
          "internalType": "address",
          "name": "manufacturer",
          "type": "address"
        },
        {
          "internalType": "address",
          "name": "distributor",
          "type": "address"
        },
        {
          "internalType": "address",
          "name": "retailer",
          "type": "address"
        },
        {
          "internalType": "uint256",
          "name": "certificationPrice",
          "type": "uint256"
        }
      ],
      "name": "addProductForDemo",
      "outputs": [],
      "stateMutability": "nonpayable",
      "type": "function"
    },
    {
      "inputs": [],
      "name": "addRetailer",
      "outputs": [],
      "stateMutability": "nonpayable",
      "type": "function"
    },
    {
      "inputs": [],
      "name": "admin",
      "outputs": [
        {
          "internalType": "address",
          "name": "",
          "type": "address"
        }
      ],
      "stateMutability": "view",
      "type": "function"
    },
    {
      "inputs": [
        {
          "internalType": "uint256",
          "name": "_productID",
          "type": "uint256"
        },
        {
          "internalType": "uint256",
          "name": "_newTransactionID",
          "type": "uint256"
        }
      ],
      "name": "changeBankTransactionID",
      "outputs": [],
      "stateMutability": "nonpayable",
      "type": "function"
    },
    {
      "inputs": [
        {
          "internalType": "uint256",
          "name": "_productID",
          "type": "uint256"
        }
      ],
      "name": "changeNotOnSale",
      "outputs": [],
      "stateMutability": "nonpayable",
      "type": "function"
    },
    {
      "inputs": [
        {
          "internalType": "uint256",
          "name": "_productID",
          "type": "uint256"
        }
      ],
      "name": "changeOnSale",
      "outputs": [],
      "stateMutability": "nonpayable",
      "type": "function"
    },
    {
      "inputs": [
        {
          "internalType": "uint256",
          "name": "_productID",
          "type": "uint256"
        },
        {
          "internalType": "uint256",
          "name": "_newCertificationPrice",
          "type": "uint256"
        }
      ],
      "name": "changeOnSaleRetailer",
      "outputs": [],
      "stateMutability": "nonpayable",
      "type": "function"
    },
    {
      "inputs": [
        {
          "internalType": "address",
          "name": "",
          "type": "address"
        }
      ],
      "name": "customers",
      "outputs": [
        {
          "internalType": "bool",
          "name": "",
          "type": "bool"
        }
      ],
      "stateMutability": "view",
      "type": "function"
    },
    {
      "inputs": [],
      "name": "defaultProductLocation",
      "outputs": [
        {
          "internalType": "enum Utils.ProductLocation",
          "name": "",
          "type": "uint8"
        }
      ],
      "stateMutability": "view",
      "type": "function"
    },
    {
      "inputs": [],
      "name": "defaultProductStage",
      "outputs": [
        {
          "internalType": "enum Utils.ProductStage",
          "name": "",
          "type": "uint8"
        }
      ],
      "stateMutability": "view",
      "type": "function"
    },
    {
      "inputs": [
        {
          "internalType": "address",
          "name": "",
          "type": "address"
        }
      ],
      "name": "distributors",
      "outputs": [
        {
          "internalType": "bool",
          "name": "",
          "type": "bool"
        }
      ],
      "stateMutability": "view",
      "type": "function"
    },
    {
      "inputs": [
        {
          "internalType": "address",
          "name": "",
          "type": "address"
        }
      ],
      "name": "entityVerificationPermission",
      "outputs": [
        {
          "internalType": "bool",
          "name": "",
          "type": "bool"
        }
      ],
      "stateMutability": "view",
      "type": "function"
    },
    {
      "inputs": [],
      "name": "getCertificationPercentage",
      "outputs": [
        {
          "internalType": "uint256",
          "name": "",
          "type": "uint256"
        }
      ],
      "stateMutability": "view",
      "type": "function"
    },
    {
      "inputs": [],
      "name": "getSmartSupplyBalance",
      "outputs": [
        {
          "internalType": "uint256",
          "name": "",
          "type": "uint256"
        }
      ],
      "stateMutability": "view",
      "type": "function"
    },
    {
      "inputs": [],
      "name": "getVerificationAmount",
      "outputs": [
        {
          "internalType": "uint256",
          "name": "",
          "type": "uint256"
        }
      ],
      "stateMutability": "view",
      "type": "function"
    },
    {
      "inputs": [
        {
          "internalType": "address",
          "name": "account",
          "type": "address"
        }
      ],
      "name": "grantVerificationPermission",
      "outputs": [],
      "stateMutability": "nonpayable",
      "type": "function"
    },
    {
      "inputs": [
        {
          "internalType": "address",
          "name": "account",
          "type": "address"
        }
      ],
      "name": "isCustomer",
      "outputs": [
        {
          "internalType": "bool",
          "name": "",
          "type": "bool"
        }
      ],
      "stateMutability": "view",
      "type": "function"
    },
    {
      "inputs": [
        {
          "internalType": "address",
          "name": "account",
          "type": "address"
        }
      ],
      "name": "isDistributor",
      "outputs": [
        {
          "internalType": "bool",
          "name": "",
          "type": "bool"
        }
      ],
      "stateMutability": "view",
      "type": "function"
    },
    {
      "inputs": [
        {
          "internalType": "address",
          "name": "account",
          "type": "address"
        }
      ],
      "name": "isManufacturer",
      "outputs": [
        {
          "internalType": "bool",
          "name": "",
          "type": "bool"
        }
      ],
      "stateMutability": "view",
      "type": "function"
    },
    {
      "inputs": [
        {
          "internalType": "address",
          "name": "account",
          "type": "address"
        }
      ],
      "name": "isRetailer",
      "outputs": [
        {
          "internalType": "bool",
          "name": "",
          "type": "bool"
        }
      ],
      "stateMutability": "view",
      "type": "function"
    },
    {
      "inputs": [
        {
          "internalType": "address",
          "name": "account",
          "type": "address"
        }
      ],
      "name": "isVerificationPermitted",
      "outputs": [
        {
          "internalType": "bool",
          "name": "",
          "type": "bool"
        }
      ],
      "stateMutability": "view",
      "type": "function"
    },
    {
      "inputs": [
        {
          "internalType": "address",
          "name": "account",
          "type": "address"
        }
      ],
      "name": "isVerified",
      "outputs": [
        {
          "internalType": "bool",
          "name": "",
          "type": "bool"
        }
      ],
      "stateMutability": "view",
      "type": "function"
    },
    {
      "inputs": [
        {
          "internalType": "address",
          "name": "",
          "type": "address"
        }
      ],
      "name": "manufacturers",
      "outputs": [
        {
          "internalType": "bool",
          "name": "",
          "type": "bool"
        }
      ],
      "stateMutability": "view",
      "type": "function"
    },
    {
      "inputs": [
        {
          "internalType": "uint256",
          "name": "_productID",
          "type": "uint256"
        },
        {
          "internalType": "uint256",
          "name": "_productUID",
          "type": "uint256"
        }
      ],
      "name": "produceProduct",
      "outputs": [],
      "stateMutability": "nonpayable",
      "type": "function"
    },
    {
      "inputs": [
        {
          "internalType": "uint256",
          "name": "",
          "type": "uint256"
        }
      ],
      "name": "products",
      "outputs": [
        {
          "internalType": "uint256",
          "name": "productID",
          "type": "uint256"
        },
        {
          "internalType": "uint256",
          "name": "productUID",
          "type": "uint256"
        },
        {
          "internalType": "address",
          "name": "previousOwner",
          "type": "address"
        },
        {
          "internalType": "address",
          "name": "currentOwner",
          "type": "address"
        },
        {
          "internalType": "uint256",
          "name": "creationDate",
          "type": "uint256"
        },
        {
          "internalType": "uint256",
          "name": "certificationPrice",
          "type": "uint256"
        },
        {
          "internalType": "enum Utils.ProductStage",
          "name": "productStage",
          "type": "uint8"
        },
        {
          "internalType": "enum Utils.ProductLocation",
          "name": "productLocation",
          "type": "uint8"
        },
        {
          "components": [
            {
              "internalType": "address",
              "name": "manufacturer",
              "type": "address"
            },
            {
              "internalType": "address",
              "name": "distributor",
              "type": "address"
            },
            {
              "internalType": "address",
              "name": "retailer",
              "type": "address"
            },
            {
              "internalType": "address",
              "name": "customer",
              "type": "address"
            }
          ],
          "internalType": "struct Utils.Ownerships",
          "name": "ownerships",
          "type": "tuple"
        },
        {
          "components": [
            {
              "internalType": "uint256",
              "name": "distributorBankTransactionID",
              "type": "uint256"
            },
            {
              "internalType": "uint256",
              "name": "retailerBankTransactionID",
              "type": "uint256"
            }
          ],
          "internalType": "struct Utils.TransactionIDs",
          "name": "transactionIDs",
          "type": "tuple"
        },
        {
          "components": [
            {
              "internalType": "bool",
              "name": "manufacturerRewarded",
              "type": "bool"
            },
            {
              "internalType": "bool",
              "name": "distributorRewarded",
              "type": "bool"
            },
            {
              "internalType": "bool",
              "name": "retailerRewarded",
              "type": "bool"
            }
          ],
          "internalType": "struct Utils.ProductRewards",
          "name": "rewards",
          "type": "tuple"
        }
      ],
      "stateMutability": "view",
      "type": "function"
    },
    {
      "inputs": [
        {
          "internalType": "uint256",
          "name": "_productID",
          "type": "uint256"
        }
      ],
      "name": "purchaseProduct",
      "outputs": [],
      "stateMutability": "payable",
      "type": "function"
    },
    {
      "inputs": [
        {
          "internalType": "uint256",
          "name": "_productID",
          "type": "uint256"
        }
      ],
      "name": "receiveProduct",
      "outputs": [],
      "stateMutability": "nonpayable",
      "type": "function"
    },
    {
      "inputs": [],
      "name": "removeCustomer",
      "outputs": [],
      "stateMutability": "nonpayable",
      "type": "function"
    },
    {
      "inputs": [],
      "name": "removeDistributor",
      "outputs": [],
      "stateMutability": "nonpayable",
      "type": "function"
    },
    {
      "inputs": [],
      "name": "removeManufacturer",
      "outputs": [],
      "stateMutability": "nonpayable",
      "type": "function"
    },
    {
      "inputs": [],
      "name": "removeRetailer",
      "outputs": [],
      "stateMutability": "nonpayable",
      "type": "function"
    },
    {
      "inputs": [
        {
          "internalType": "address",
          "name": "account",
          "type": "address"
        }
      ],
      "name": "removeVerification",
      "outputs": [],
      "stateMutability": "nonpayable",
      "type": "function"
    },
    {
      "inputs": [
        {
          "internalType": "address",
          "name": "",
          "type": "address"
        }
      ],
      "name": "retailers",
      "outputs": [
        {
          "internalType": "bool",
          "name": "",
          "type": "bool"
        }
      ],
      "stateMutability": "view",
      "type": "function"
    },
    {
      "inputs": [
        {
          "internalType": "address",
          "name": "account",
          "type": "address"
        }
      ],
      "name": "revokeVerificationPermission",
      "outputs": [],
      "stateMutability": "nonpayable",
      "type": "function"
    },
    {
      "inputs": [
        {
          "internalType": "uint256",
          "name": "_percentage",
          "type": "uint256"
        }
      ],
      "name": "setCertificationPercentage",
      "outputs": [],
      "stateMutability": "nonpayable",
      "type": "function"
    },
    {
      "inputs": [
        {
          "internalType": "uint256",
          "name": "_amount",
          "type": "uint256"
        }
      ],
      "name": "setVerificationAmount",
      "outputs": [],
      "stateMutability": "nonpayable",
      "type": "function"
    },
    {
      "inputs": [
        {
          "internalType": "uint256",
          "name": "_productID",
          "type": "uint256"
        },
        {
          "internalType": "address",
          "name": "receiver",
          "type": "address"
        }
      ],
      "name": "shipProduct",
      "outputs": [],
      "stateMutability": "nonpayable",
      "type": "function"
    },
    {
      "inputs": [],
      "name": "smartSupplyBalance",
      "outputs": [
        {
          "internalType": "uint256",
          "name": "",
          "type": "uint256"
        }
      ],
      "stateMutability": "view",
      "type": "function"
    },
    {
      "inputs": [
        {
          "internalType": "address",
          "name": "",
          "type": "address"
        }
      ],
      "name": "verificationStatus",
      "outputs": [
        {
          "internalType": "bool",
          "name": "",
          "type": "bool"
        }
      ],
      "stateMutability": "view",
      "type": "function"
    },
    {
      "inputs": [],
      "name": "verifyEntity",
      "outputs": [],
      "stateMutability": "payable",
      "type": "function"
    },
    {
      "inputs": [
        {
          "internalType": "uint256",
          "name": "amount",
          "type": "uint256"
        }
      ],
      "name": "withdrawFunds",
      "outputs": [],
      "stateMutability": "nonpayable",
      "type": "function"
    },
    {
      "stateMutability": "payable",
      "type": "receive"
    }
  ],
  "bytecode": "0x608060405266b1a2bc2ec50000600255600a6003819055805461ffff1916905534801561002b57600080fd5b50600080546001600160a01b031916331790556148858061004d6000396000f3fe6080604052600436106103015760003560e01c80637bd6221f1161018f578063adafb3d4116100e1578063ceecd5961161008a578063f851a44011610064578063f851a44014610a4b578063f89620e114610a83578063fc9cc6e214610a9857610347565b8063ceecd59614610a00578063e6361a8e14610a15578063f7d139cb14610a2b57610347565b8063c18e0ed9116100bb578063c18e0ed914610989578063c4cb9050146109a9578063cc642784146109d057610347565b8063adafb3d4146108f0578063b6d0738514610920578063b9209e331461095057610347565b80639a268f3511610143578063a2c66c361161011d578063a2c66c36146108a6578063a315bd0a146108bb578063ac52480e146108db57610347565b80639a268f35146108595780639bdc080114610889578063a26759cb1461089e57610347565b80638f0c86fa116101745780638f0c86fa146107eb578063905e7b7d1461082457806397cf3c371461084457610347565b80637bd6221f1461079d5780638d426a31146107d657610347565b806329d78328116102535780635da09b88116101fc578063762b51db116101d6578063762b51db1461064a5780637acc0b20146106765780637ad844751461078857610347565b80635da09b88146105c15780636b2a5c35146105fa5780636b5eb09c1461061a57610347565b806338e76a031161022d57806338e76a031461056e578063410a0a4b146105815780634d8322c7146105a157610347565b806329d78328146104fe5780632d156a8d1461051e578063336989ae1461053e57610347565b80631f3e30d6116102b557806328443b181161028f57806328443b18146104a857806328fd5e83146104bd578063293be2dd146104f657610347565b80631f3e30d61461044857806323630f7b1461046857806326e1066e1461048857610347565b806316479b85116102e657806316479b85146103c657806317d4a491146103db5780631c328f231461042957610347565b80630e8336dd14610386578063155dd5ee146103a657610347565b36610347576103456040518060400160405280600e81526020017f2d2d2d2d2d20726563656976653a00000000000000000000000000000000000081525034610ab8565b005b6103456040518060400160405280600f81526020017f2d2d2d2d2d2066616c6c6261636b3a000000000000000000000000000000000081525034610ab8565b34801561039257600080fd5b506103456103a1366004613f66565b610b2f565b3480156103b257600080fd5b506103456103c1366004613f92565b610e48565b3480156103d257600080fd5b50610345610f53565b3480156103e757600080fd5b506104146103f6366004613fab565b6001600160a01b031660009081526004602052604090205460ff1690565b60405190151581526020015b60405180910390f35b34801561043557600080fd5b506003545b604051908152602001610420565b34801561045457600080fd5b50610345610463366004613fc6565b61104e565b34801561047457600080fd5b50610345610483366004613f92565b6112c2565b34801561049457600080fd5b506103456104a3366004613fab565b61156d565b3480156104b457600080fd5b5060025461043a565b3480156104c957600080fd5b506104146104d8366004613fab565b6001600160a01b031660009081526007602052604090205460ff1690565b61034561161f565b34801561050a57600080fd5b50610345610519366004613f92565b6118d8565b34801561052a57600080fd5b50610345610539366004613f92565b611cf4565b34801561054a57600080fd5b50610414610559366004613fab565b60076020526000908152604090205460ff1681565b61034561057c366004613f92565b612029565b34801561058d57600080fd5b5061034561059c366004614025565b6124d5565b3480156105ad57600080fd5b506103456105bc366004613f92565b6127f0565b3480156105cd57600080fd5b506104146105dc366004613fab565b6001600160a01b031660009081526006602052604090205460ff1690565b34801561060657600080fd5b50610345610615366004614025565b612897565b34801561062657600080fd5b50610414610635366004613fab565b60046020526000908152604090205460ff1681565b34801561065657600080fd5b50600a5461066990610100900460ff1681565b6040516104209190614071565b34801561068257600080fd5b50610771610691366004613f92565b600b6020818152600092835260409283902080546001820154600283015460038401546004850154600586015460068701548a51608081018c5260078901546001600160a01b03908116825260088a01548116828c015260098a01548116828e0152600a8a015481166060808401919091528d51808f018f529c8b01548d52600c8b01548d8d01528d519081018e52600d909a015460ff80821615158c52610100808304821615159d8d019d909d5262010000909104811615159d8b019d909d52979b969a9588169997909416979296919580821695929091041692918b565b6040516104209b9a99989796959493929190614095565b34801561079457600080fd5b50610345612bc2565b3480156107a957600080fd5b506104146107b8366004613fab565b6001600160a01b031660009081526008602052604090205460ff1690565b3480156107e257600080fd5b5060015461043a565b3480156107f757600080fd5b50610414610806366004613fab565b6001600160a01b031660009081526005602052604090205460ff1690565b34801561083057600080fd5b5061034561083f366004614161565b612c04565b34801561085057600080fd5b50610345612df2565b34801561086557600080fd5b50610414610874366004613fab565b60066020526000908152604090205460ff1681565b34801561089557600080fd5b50610345612e56565b610345612f51565b3480156108b257600080fd5b50610345613015565b3480156108c757600080fd5b506103456108d6366004614025565b613079565b3480156108e757600080fd5b506103456133a3565b3480156108fc57600080fd5b5061041461090b366004613fab565b60096020526000908152604090205460ff1681565b34801561092c57600080fd5b5061041461093b366004613fab565b60086020526000908152604090205460ff1681565b34801561095c57600080fd5b5061041461096b366004613fab565b6001600160a01b031660009081526009602052604090205460ff1690565b34801561099557600080fd5b506103456109a4366004613fab565b613407565b3480156109b557600080fd5b50600a546109c39060ff1681565b60405161042091906141b5565b3480156109dc57600080fd5b506104146109eb366004613fab565b60056020526000908152604090205460ff1681565b348015610a0c57600080fd5b506103456134bc565b348015610a2157600080fd5b5061043a60015481565b348015610a3757600080fd5b50610345610a46366004613fab565b613595565b348015610a5757600080fd5b50600054610a6b906001600160a01b031681565b6040516001600160a01b039091168152602001610420565b348015610a8f57600080fd5b506103456136af565b348015610aa457600080fd5b50610345610ab3366004613f92565b6137aa565b610b2b8282604051602401610ace9291906141c3565b60408051601f198184030181529190526020810180517bffffffffffffffffffffffffffffffffffffffffffffffffffffffff167fb60e72cc0000000000000000000000000000000000000000000000000000000017905261384a565b5050565b3360009081526004602052604090205460ff1680610b5c57503360009081526005602052604090205460ff165b80610b7657503360009081526006602052604090205460ff165b610bfb5760405162461bcd60e51b815260206004820152604560248201527f4f6e6c79206d616e756661637475726572732c206469737472696275746f727360448201527f206f722072657461696c6572732063616e20706572666f726d2074686973206160648201526431ba34b7b760d91b608482015260a4015b60405180910390fd5b60036000838152600b602052604090206006015460ff166005811115610c2357610c23614047565b14610c965760405162461bcd60e51b815260206004820152603660248201527f50726f64756374206d7573742062652070757263686173656420627920736f6d60448201527f6520656e7469747920746f2062652073686970706564000000000000000000006064820152608401610bf2565b6000828152600b60205260409020600201546001600160a01b03163314610d255760405162461bcd60e51b815260206004820152602c60248201527f50726f647563742063616e206f6e6c792062652073686970706564206279207460448201527f6865206f6c64206f776e657200000000000000000000000000000000000000006064820152608401610bf2565b610d30823383613856565b6000828152600b602090815260408083206006908101805461ffff191661040417905533845290915290205460ff1615610df8576000828152600b6020526040812060050154610d81906004613b1b565b6000848152600b6020526040902060070154909150610daa906001600160a01b03168483613b44565b6000838152600b6020526040902060080154610dd0906001600160a01b03168483613b44565b6000838152600b6020526040902060090154610df6906001600160a01b03168483613b44565b505b604080518381523360208201526001600160a01b038316918101919091527fae22003d449cfb842a57062f1f6ae06a4abdabcdfb0b6e02deee5584df17b277906060015b60405180910390a15050565b6000546001600160a01b03163314610eb15760405162461bcd60e51b815260206004820152602660248201527f4f6e6c79207468652061646d696e2063616e20706572666f726d20746869732060448201526530b1ba34b7b760d11b6064820152608401610bf2565b600154811115610f035760405162461bcd60e51b815260206004820152601260248201527f496e73756666696369656e742066756e647300000000000000000000000000006044820152606401610bf2565b8060016000828254610f159190614236565b9091555050600080546040516001600160a01b039091169183156108fc02918491818181858888f19350505050158015610b2b573d6000803e3d6000fd5b3360009081526006602052604090205460ff1680610f7b57506000546001600160a01b031633145b610fed5760405162461bcd60e51b815260206004820152603360248201527f4f6e6c792072657461696c657273206f72207468652061646d696e2063616e2060448201527f706572666f726d207468697320616374696f6e000000000000000000000000006064820152608401610bf2565b336000818152600660209081526040808320805460ff199081169091556008835281842080548216905560099092528083208054909216909155517fdb7176e79cffef81cb01767dd0447a0b24bb72ca9778d4b245581086b2a7e6db9190a2565b611056613e6f565b868152602081018690526001600160a01b0383811660608301528416604082015242608082015260a08101829052600160c0820181905250600260e08201819052506040805160808082018352600060608084018290526001600160a01b038a8116855289811660208087019190915289821686880152610100880186905286518088018852808201859052610457815261012089018190528e8552600b8252938790208851815590880151600180830191909155968801516002820180549184166001600160a01b03199283161790559288015160038201805491909316931692909217905591850151600483015560a085015160058084019190915560c0860151600684018054959693958895949293919260ff199190911691849081111561118357611183614047565b021790555060e082015160068201805461ff0019166101008360048111156111ad576111ad614047565b02179055506101008281015180516007840180546001600160a01b03199081166001600160a01b039384161790915560208084015160088701805484169185169190911790556040808501516009880180548516918616919091179055606090940151600a8701805490931693169290921790556101208501518051600b860155810151600c850155610140909401518051600d9094018054828701519284015161ffff1990911695151561ff001916959095179115159093021762ff00001916620100009315159390930292909217905580518b815233928101929092527f97c998f1009a742d52bd2b93e67352e2800f1b46a2a226b31cfa903ec93892f7910160405180910390a1505050505050505050565b3360009081526004602052604090205460ff16806112ef57503360009081526005602052604090205460ff165b8061130957503360009081526006602052604090205460ff165b6113895760405162461bcd60e51b815260206004820152604560248201527f4f6e6c79206d616e756661637475726572732c206469737472696275746f727360448201527f206f722072657461696c6572732063616e20706572666f726d2074686973206160648201526431ba34b7b760d91b608482015260a401610bf2565b6000818152600b60205260409020600301546001600160a01b0316331461141a576040805162461bcd60e51b81526020600482015260248101919091527f4f6e6c79207468652063757272656e74206f776e65722063616e206368616e6760448201527f65207468652070726f6475637420737461676520746f204e6f744f6e53616c656064820152608401610bf2565b60036000828152600b602052604090206006015460ff16600581111561144257611442614047565b14158015611476575060046000828152600b602052604090206006015460ff16600581111561147357611473614047565b14155b61150e5760405162461bcd60e51b815260206004820152604860248201527f50726f64756374206d757374206e6f7420626520696e2050757263686173656460448201527f206f72205368697070656420737461676520746f206368616e676520746f204e60648201527f6f744f6e53616c65000000000000000000000000000000000000000000000000608482015260a401610bf2565b6000818152600b6020526040902060060180546002919060ff19166001830217905550604080518281523360208201527f34dfd957cdce058c374027e3a6f6ab1771b40b4bcd043a96d4d0f98750b4bfd691015b60405180910390a150565b6000546001600160a01b031633146115d65760405162461bcd60e51b815260206004820152602660248201527f4f6e6c79207468652061646d696e2063616e20706572666f726d20746869732060448201526530b1ba34b7b760d11b6064820152608401610bf2565b6001600160a01b038116600081815260086020526040808220805460ff19169055517f31ef9270602119277454261e5a5bff0e43801de289dcf5d07dcf5aefc5c151d89190a250565b3360009081526008602052604090205460ff166116a45760405162461bcd60e51b815260206004820152603060248201527f456e74697479206861736e277420676976656e20697473206964656e7469666960448201527f636174696f6e2070726f6f6620796574000000000000000000000000000000006064820152608401610bf2565b3360009081526007602052604090205460ff161561172a5760405162461bcd60e51b815260206004820152603060248201527f437573746f6d65727320617265206e6f7420616c6c6f77656420746f2070657260448201527f666f726d207468697320616374696f6e000000000000000000000000000000006064820152608401610bf2565b600060405161173890613f3d565b604051809103906000f080158015611754573d6000803e3d6000fd5b5090506000816001600160a01b03166328443b186040518163ffffffff1660e01b815260040160206040518083038186803b15801561179257600080fd5b505afa1580156117a6573d6000803e3d6000fd5b505050506040513d601f19601f820116820180604052508101906117ca919061424d565b9050803410156118425760405162461bcd60e51b815260206004820152602560248201527f496e73756666696369656e74207061796d656e7420666f72207665726966696360448201527f6174696f6e0000000000000000000000000000000000000000000000000000006064820152608401610bf2565b600034905080600160008282546118599190614266565b909155505060405181815233907f8fe10ae416f22f5e5220b0018a6c1d4ff534d6aa3a471f2a20cb7747fe63e5b99060200160405180910390a233600081815260096020526040808220805460ff19166001179055517fa3710f2b2505ddd76d00993c1fad93af4104d857fa3e237c9548c028c44935cc9190a2505050565b3360009081526007602052604090205460ff168061190557503360009081526005602052604090205460ff165b8061191f57503360009081526006602052604090205460ff165b61199b5760405162461bcd60e51b815260206004820152604160248201527f4f6e6c7920637573746f6d6572732c206469737472696275746f7273206f722060448201527f72657461696c6572732063616e20706572666f726d207468697320616374696f6064820152603760f91b608482015260a401610bf2565b60046000828152600b602052604090206006015460ff1660058111156119c3576119c3614047565b14611a365760405162461bcd60e51b815260206004820152603160248201527f50726f64756374206d75737420626520696e202753686970706564272073746160448201527f676520746f2062652072656365697665640000000000000000000000000000006064820152608401610bf2565b60046000828152600b6020526040902060060154610100900460ff166004811115611a6357611a63614047565b14611ad65760405162461bcd60e51b815260206004820152603560248201527f50726f64756374206d75737420626520696e20275368697070696e6727206c6f60448201527f636174696f6e20746f20626520726563656976656400000000000000000000006064820152608401610bf2565b6000818152600b60205260409020600301546001600160a01b03163314611b655760405162461bcd60e51b815260206004820152602e60248201527f4f6e6c79207468652063757272656e74206f776e65722063616e20726563656960448201527f7665207468652070726f647563740000000000000000000000000000000000006064820152608401610bf2565b6000818152600b6020526040902060068101805460ff1916600517905560080154336001600160a01b039091161415611bc3576000818152600b6020526040902060060180546001919061ff001916610100835b0217905550611cbf565b6000818152600b60205260409020600901546001600160a01b0316331415611c0a576000818152600b6020526040902060060180546002919061ff00191661010083611bb9565b6000818152600b60205260409020600a01546001600160a01b0316331415611c51576000818152600b6020526040902060060180546003919061ff00191661010083611bb9565b60405162461bcd60e51b815260206004820152602b60248201527f496e76616c69642063757272656e74206f776e657220666f722075706461746960448201527f6e67206c6f636174696f6e0000000000000000000000000000000000000000006064820152608401610bf2565b604080518281523360208201527f7eb38f83fec1bdc45e831c15e9e3eb2369028929a0e38e3709b7e710362f823b9101611562565b3360009081526004602052604090205460ff1680611d2157503360009081526005602052604090205460ff165b80611d3b57503360009081526006602052604090205460ff165b611dbb5760405162461bcd60e51b815260206004820152604560248201527f4f6e6c79206d616e756661637475726572732c206469737472696275746f727360448201527f206f722072657461696c6572732063616e20706572666f726d2074686973206160648201526431ba34b7b760d91b608482015260a401610bf2565b6000818152600b60205260409020600301546001600160a01b03163314611e4a5760405162461bcd60e51b815260206004820152603d60248201527f4f6e6c79207468652063757272656e74206f776e65722063616e206368616e6760448201527f65207468652070726f6475637420737461676520746f204f6e53616c650000006064820152608401610bf2565b3360009081526006602052604090205460ff1615611ef65760405162461bcd60e51b815260206004820152604860248201527f546f20666c6167207468652070726f64756374206f6e53616c6520757365207460448201527f6865206368616e67654f6e53616c6552657461696c65722066756e6374696f6e60648201527f20696e7374656164000000000000000000000000000000000000000000000000608482015260a401610bf2565b60036000828152600b602052604090206006015460ff166005811115611f1e57611f1e614047565b14158015611f52575060046000828152600b602052604090206006015460ff166005811115611f4f57611f4f614047565b14155b611fd25760405162461bcd60e51b815260206004820152604560248201527f50726f64756374206d757374206e6f7420626520696e2050757263686173656460448201527f206f72205368697070656420737461676520746f206368616e676520746f204f6064820152646e53616c6560d81b608482015260a401610bf2565b6000818152600b6020526040902060060180546001919060ff191682800217905550604080518281523360208201527f5ea9686d3fd9cc47111972119dae21c738cc8467f126b047ba099f2e986dc84f9101611562565b3360009081526007602052604090205460ff168061205657503360009081526005602052604090205460ff165b8061207057503360009081526006602052604090205460ff165b6120ec5760405162461bcd60e51b815260206004820152604160248201527f4f6e6c7920637573746f6d6572732c206469737472696275746f7273206f722060448201527f72657461696c6572732063616e20706572666f726d207468697320616374696f6064820152603760f91b608482015260a401610bf2565b6000818152600b60205260409020600301546001600160a01b031633141561217c5760405162461bcd60e51b815260206004820152602b60248201527f43757272656e74206f776e6572732063616e277420627579207468656972206f60448201527f776e2070726f64756374730000000000000000000000000000000000000000006064820152608401610bf2565b60016000828152600b602052604090206006015460ff1660058111156121a4576121a4614047565b146122175760405162461bcd60e51b815260206004820152602760248201527f50726f64756374206d757374206265204f6e2053616c6520746f20626520707560448201527f72636861736564000000000000000000000000000000000000000000000000006064820152608401610bf2565b3360009081526007602052604090205460ff168015612304576000828152600b60205260409020600501543410156122b75760405162461bcd60e51b815260206004820152602a60248201527f496e73756666696369656e742066756e647320746f207075726368617365207460448201527f68652070726f64756374000000000000000000000000000000000000000000006064820152608401610bf2565b34600160008282546122c99190614266565b909155505060405134815233907f8fe10ae416f22f5e5220b0018a6c1d4ff534d6aa3a471f2a20cb7747fe63e5b99060200160405180910390a25b6000828152600b60209081526040808320600681018054600360ff19909116811790915581018054600290920180546001600160a01b0384166001600160a01b031991821617909155339216821790558352600590915290205460ff161561238c576000828152600b6020526040902060080180546001600160a01b03191633179055612476565b3360009081526006602052604090205460ff16156123ca576000828152600b6020526040902060090180546001600160a01b03191633179055612476565b3360009081526007602052604090205460ff1615612408576000828152600b60205260409020600a0180546001600160a01b03191633179055612476565b60405162461bcd60e51b815260206004820152602d60248201527f496e76616c696420726f6c6520666f72207570646174696e672070726f64756360448201527f7420696e666f726d6174696f6e000000000000000000000000000000000000006064820152608401610bf2565b6000828152600b60209081526040918290206002015482518581526001600160a01b039091169181019190915233918101919091527f405b8e92032184041314dcddf305e0d97d13b103d3fa162eb2b1c760760bdc0a90606001610e3c565b3360009081526004602052604090205460ff168061250257503360009081526005602052604090205460ff165b8061251c57503360009081526006602052604090205460ff165b61259c5760405162461bcd60e51b815260206004820152604560248201527f4f6e6c79206d616e756661637475726572732c206469737472696275746f727360448201527f206f722072657461696c6572732063616e20706572666f726d2074686973206160648201526431ba34b7b760d91b608482015260a401610bf2565b3360009081526006602052604090205460ff166126215760405162461bcd60e51b815260206004820152603160248201527f4f6e6c792072657461696c6572732063616e206368616e67652074686520636560448201527f7274696669636174696f6e2070726963650000000000000000000000000000006064820152608401610bf2565b6000828152600b60205260409020600301546001600160a01b031633146126b05760405162461bcd60e51b815260206004820152603960248201527f4f6e6c79207468652063757272656e74206f776e65722063616e206368616e6760448201527f65207468652063657274696669636174696f6e207072696365000000000000006064820152608401610bf2565b60036000838152600b602052604090206006015460ff1660058111156126d8576126d8614047565b1415801561270c575060046000838152600b602052604090206006015460ff16600581111561270957612709614047565b14155b61278c5760405162461bcd60e51b815260206004820152604560248201527f50726f64756374206d757374206e6f7420626520696e2050757263686173656460448201527f206f72205368697070656420737461676520746f206368616e676520746f204f6064820152646e53616c6560d81b608482015260a401610bf2565b6000828152600b602090815260409182902060068101805460ff19166001179055600501839055815184815233918101919091529081018290527fe4e344f6136444bd4df6c6ade9a7761739c9147339d73a3e0813d8f088d7185790606001610e3c565b6000546001600160a01b031633146128595760405162461bcd60e51b815260206004820152602660248201527f4f6e6c79207468652061646d696e2063616e20706572666f726d20746869732060448201526530b1ba34b7b760d11b6064820152608401610bf2565b600281905560405181815233907fb77f58d7bdd9979ecd98ed048fc9d5657dfb51e810bb8c078af5b318a68bf1f4906020015b60405180910390a250565b3360009081526004602052604090205460ff16806128bf57506000546001600160a01b031633145b6129315760405162461bcd60e51b815260206004820152603760248201527f4f6e6c79206d616e75666163747572657273206f72207468652061646d696e2060448201527f63616e20706572666f726d207468697320616374696f6e0000000000000000006064820152608401610bf2565b612939613e6f565b8281526020810182905233606082018190526040820152426080820152600060a0820152600a5460c082019060ff16600581111561297957612979614047565b9081600581111561298c5761298c614047565b905250600a5460e0820190610100900460ff1660048111156129b0576129b0614047565b908160048111156129c3576129c3614047565b90525060408051608080820183526000602080840182905283850182905260608085018390523385526101008701859052888352600b8252918590208651815590860151600180830191909155948601516002820180546001600160a01b03199081166001600160a01b03938416179091559287015160038301805490941691161790915590840151600482015560a084015160058083019190915560c0850151600683018054949587959293919260ff1916918490811115612a8857612a88614047565b021790555060e082015160068201805461ff001916610100836004811115612ab257612ab2614047565b02179055506101008281015180516007840180546001600160a01b03199081166001600160a01b039384161790915560208084015160088701805484169185169190911790556040808501516009880180548516918616919091179055606090940151600a8701805490931693169290921790556101208501518051600b860155810151600c850155610140909401518051600d9094018054828701519284015161ffff1990911695151561ff001916959095179115159093021762ff000019166201000093151593909302929092179055805186815233928101929092527f97c998f1009a742d52bd2b93e67352e2800f1b46a2a226b31cfa903ec93892f7910160405180910390a150505050565b33600081815260076020526040808220805460ff19166001179055517fcd118a02bd36f224f6f1b93812f78d2bbc2c2dc1bc0f60c176e3b4fe09f1483f9190a2565b6000546001600160a01b03163314612c6d5760405162461bcd60e51b815260206004820152602660248201527f4f6e6c79207468652061646d696e2063616e20706572666f726d20746869732060448201526530b1ba34b7b760d11b6064820152608401610bf2565b6001600160a01b0384811660008181526004602090815260408083208054600160ff19918216811790925589871680865260058552838620805483168417905589881680875260068652848720805484168517905597891686526007855283862080548316909317909255858552600884528285208054821690558185528285208054821690558685528285208054821690558585526009909352818420805484169055835280832080548316905593825283822080549091169055915190917f561138658ca49a8540dc70dcfe64c9026c1c5b9344642242dd6562970f9c127891a26040516001600160a01b038416907fddbf200aa634dc3fb81cfd68583dd1040d1c751d335e1d86b631bde3e977fea890600090a26040516001600160a01b038316907f71ae26cad02663e3d92efd6ec56031a80d74a20c0ab4183faa8bf262261c9baa90600090a26040516001600160a01b038216907fcd118a02bd36f224f6f1b93812f78d2bbc2c2dc1bc0f60c176e3b4fe09f1483f90600090a250505050565b336000818152600660209081526040808320805460ff199081166001179091556008835281842080548216905560099092528083208054909216909155517f71ae26cad02663e3d92efd6ec56031a80d74a20c0ab4183faa8bf262261c9baa9190a2565b3360009081526005602052604090205460ff1680612e7e57506000546001600160a01b031633145b612ef05760405162461bcd60e51b815260206004820152603660248201527f4f6e6c79206469737472696275746f7273206f72207468652061646d696e206360448201527f616e20706572666f726d207468697320616374696f6e000000000000000000006064820152608401610bf2565b336000818152600560209081526040808320805460ff199081169091556008835281842080548216905560099092528083208054909216909155517f126174f6cf49c81cdb4a9214c6b8f037bef55b4ec31e4fc776cea2a1c8a88d599190a2565b60003411612fc75760405162461bcd60e51b815260206004820152602160248201527f46756e64732073656e74206d7573742062652067726561746572207468616e2060448201527f30000000000000000000000000000000000000000000000000000000000000006064820152608401610bf2565b3460016000828254612fd99190614266565b909155505060405134815233907f8fe10ae416f22f5e5220b0018a6c1d4ff534d6aa3a471f2a20cb7747fe63e5b99060200160405180910390a2565b336000818152600460209081526040808320805460ff199081166001179091556008835281842080548216905560099092528083208054909216909155517f561138658ca49a8540dc70dcfe64c9026c1c5b9344642242dd6562970f9c12789190a2565b6000828152600b60209081526040808320600a8101546008820154600990920154338652600590945291909320546001600160a01b03918216938216929091169060ff1680156130d15750336001600160a01b038316145b156130f0576000858152600b60208190526040909120018490556131a3565b3360009081526006602052604090205460ff1680156131175750336001600160a01b038216145b15613135576000858152600b60205260409020600c018490556131a3565b60405162461bcd60e51b815260206004820152603c60248201527f43616c6c657220646f6573206e6f74206861766520746865207269676874207460448201527f6f206368616e67652062616e6b207472616e73616374696f6e204944000000006064820152608401610bf2565b6000858152600b60205260408120600501546131c0906004613b1b565b3360009081526005602052604090205490915060ff1680156131ea5750336001600160a01b038416145b801561320d57506000868152600b60205260409020600d0154610100900460ff16155b801561328057506001600160a01b03841615801590613280575060046000878152600b602052604090206006015460ff16600581111561324f5761324f614047565b1480613280575060056000878152600b602052604090206006015460ff16600581111561327e5761327e614047565b145b1561329557613290338783613b44565b613363565b3360009081526006602052604090205460ff1680156132bc5750336001600160a01b038316145b80156132e057506000868152600b60205260409020600d015462010000900460ff16155b801561335357506001600160a01b03841615801590613353575060046000878152600b602052604090206006015460ff16600581111561332257613322614047565b1480613353575060056000878152600b602052604090206006015460ff16600581111561335157613351614047565b145b1561336357613363338783613b44565b604080518781523360208201527fdcd2f9ad8329d46769c3238811ad3ca487334dd220ad05263c0f9ea1a19ccc87910160405180910390a1505050505050565b336000818152600560209081526040808320805460ff199081166001179091556008835281842080548216905560099092528083208054909216909155517fddbf200aa634dc3fb81cfd68583dd1040d1c751d335e1d86b631bde3e977fea89190a2565b6000546001600160a01b031633146134705760405162461bcd60e51b815260206004820152602660248201527f4f6e6c79207468652061646d696e2063616e20706572666f726d20746869732060448201526530b1ba34b7b760d11b6064820152608401610bf2565b6001600160a01b038116600081815260086020526040808220805460ff19166001179055517f58169284ef5a04f8626278f2f2b6c44cf8f2d30da1e96100b7016764ad6130689190a250565b3360009081526007602052604090205460ff16806134e457506000546001600160a01b031633145b6135565760405162461bcd60e51b815260206004820152603360248201527f4f6e6c7920637573746f6d657273206f72207468652061646d696e2063616e2060448201527f706572666f726d207468697320616374696f6e000000000000000000000000006064820152608401610bf2565b33600081815260076020526040808220805460ff19169055517fb4c88a9c5cd906354abdd1cc29e4f94c6c4de90754fb80ce51e6a33417bc81b69190a2565b6000546001600160a01b031633146135fe5760405162461bcd60e51b815260206004820152602660248201527f4f6e6c79207468652061646d696e2063616e20706572666f726d20746869732060448201526530b1ba34b7b760d11b6064820152608401610bf2565b6001600160a01b03811660009081526009602052604090205460ff166136665760405162461bcd60e51b815260206004820152601e60248201527f456e7469747920697320616c7265616479206e6f7420766572696669656400006044820152606401610bf2565b6001600160a01b038116600081815260096020526040808220805460ff19169055517f4e7593da9155b5afbbc5e5bcaaf40b112e7529d1233f4c92780fbf49682842469190a250565b3360009081526004602052604090205460ff16806136d757506000546001600160a01b031633145b6137495760405162461bcd60e51b815260206004820152603760248201527f4f6e6c79206d616e75666163747572657273206f72207468652061646d696e2060448201527f63616e20706572666f726d207468697320616374696f6e0000000000000000006064820152608401610bf2565b336000818152600460209081526040808320805460ff199081169091556008835281842080548216905560099092528083208054909216909155517f2fed5abf6a80d6dfe30b4895481b2fc5d7dce5f8f7b931832f4a2947d5040c7f9190a2565b6000546001600160a01b031633146138135760405162461bcd60e51b815260206004820152602660248201527f4f6e6c79207468652061646d696e2063616e20706572666f726d20746869732060448201526530b1ba34b7b760d11b6064820152608401610bf2565b600381905560405181815233907f34949851b962a7f1c28710ba5e9ba656f8257419a4c3da8b9c6bd206856d1e279060200161288c565b61385381613e4e565b50565b816001600160a01b0316816001600160a01b031614156138de5760405162461bcd60e51b815260206004820152603e60248201527f50726f647563742063616e6e6f74206265207368697070656420746f2074686560448201527f2073616d65206164647265737320617320746865206f6c64206f776e657200006064820152608401610bf2565b6000838152600b60205260409020600301546001600160a01b038281169116146139705760405162461bcd60e51b815260206004820152602c60248201527f50726f64756374206d757374206265207368697070656420746f20746865206360448201527f757272656e74206f776e657200000000000000000000000000000000000000006064820152608401610bf2565b6000838152600b60205260409020600201546001600160a01b038381169116148015613aa457506000838152600b60205260409020600701546001600160a01b0383811691161480156139ec5750600080848152600b6020526040902060060154610100900460ff1660048111156139ea576139ea614047565b145b80613a4857506000838152600b60205260409020600801546001600160a01b038381169116148015613a48575060016000848152600b6020526040902060060154610100900460ff166004811115613a4657613a46614047565b145b80613aa457506000838152600b60205260409020600901546001600160a01b038381169116148015613aa4575060026000848152600b6020526040902060060154610100900460ff166004811115613aa257613aa2614047565b145b613b165760405162461bcd60e51b815260206004820152602a60248201527f496e76616c6964206f6c64206f776e6572206f72206c6f636174696f6e20666f60448201527f72207368697070696e67000000000000000000000000000000000000000000006064820152608401610bf2565b505050565b600081613b2960028261427e565b613b33919061427e565b613b3d9084614266565b9392505050565b6001600160a01b038316613b9a5760405162461bcd60e51b815260206004820152601960248201527f496e76616c696420726563697069656e742061646472657373000000000000006044820152606401610bf2565b60008111613bea5760405162461bcd60e51b815260206004820152601660248201527f496e76616c6964207061796d656e7420616d6f756e74000000000000000000006044820152606401610bf2565b6001600160a01b03831660009081526004602052604090205460ff1615613ca7576040516001600160a01b0384169082156108fc029083906000818181858888f19350505050158015613c41573d6000803e3d6000fd5b506000828152600b6020908152604091829020600d01805460ff1916600117905581516001600160a01b03861681529081018390527f3ad0c8d1bbd63d54c5f14180eae95cab7c2420b2dbb90603a6e5d206668f52ec91015b60405180910390a1505050565b6001600160a01b03831660009081526005602052604090205460ff168015613ce057506000828152600b60208190526040909120015415155b15613d7a576040516001600160a01b0384169082156108fc029083906000818181858888f19350505050158015613d1b573d6000803e3d6000fd5b506000828152600b6020908152604091829020600d01805461ff00191661010017905581516001600160a01b03861681529081018390527f3ad0c8d1bbd63d54c5f14180eae95cab7c2420b2dbb90603a6e5d206668f52ec9101613c9a565b6001600160a01b03831660009081526006602052604090205460ff168015613db257506000828152600b60205260409020600c015415155b15613b16576040516001600160a01b0384169082156108fc029083906000818181858888f19350505050158015613ded573d6000803e3d6000fd5b506000828152600b6020908152604091829020600d01805462ff000019166201000017905581516001600160a01b03861681529081018390527f3ad0c8d1bbd63d54c5f14180eae95cab7c2420b2dbb90603a6e5d206668f52ec9101613c9a565b60006a636f6e736f6c652e6c6f679050600080835160208501845afa505050565b604051806101600160405280600081526020016000815260200160006001600160a01b0316815260200160006001600160a01b03168152602001600081526020016000815260200160006005811115613eca57613eca614047565b815260200160008152604080516080810182526000808252602082810182905292820181905260608201529101908152602001613f1a604051806040016040528060008152602001600081525090565b815260408051606081018252600080825260208281018290529282015291015290565b6105af806142a183390190565b80356001600160a01b0381168114613f6157600080fd5b919050565b60008060408385031215613f7957600080fd5b82359150613f8960208401613f4a565b90509250929050565b600060208284031215613fa457600080fd5b5035919050565b600060208284031215613fbd57600080fd5b613b3d82613f4a565b60008060008060008060c08789031215613fdf57600080fd5b8635955060208701359450613ff660408801613f4a565b935061400460608801613f4a565b925061401260808801613f4a565b915060a087013590509295509295509295565b6000806040838503121561403857600080fd5b50508035926020909101359150565b634e487b7160e01b600052602160045260246000fd5b6005811061406d5761406d614047565b9052565b6020810161407f828461405d565b92915050565b6006811061406d5761406d614047565b6000610220820190508c82528b60208301526001600160a01b03808c166040840152808b1660608401528960808401528860a08401526140d860c0840189614085565b6140e560e084018861405d565b85518116610100840152602086015181166101208401526040860151811661014084015260608601511661016083015261412d61018083018580518252602090810151910152565b825115156101c0830152602083015115156101e0830152604083015115156102008301529c9b505050505050505050505050565b6000806000806080858703121561417757600080fd5b61418085613f4a565b935061418e60208601613f4a565b925061419c60408601613f4a565b91506141aa60608601613f4a565b905092959194509250565b6020810161407f8284614085565b604081526000835180604084015260005b818110156141f157602081870181015160608684010152016141d4565b81811115614203576000606083860101525b50602083019390935250601f91909101601f191601606001919050565b634e487b7160e01b600052601160045260246000fd5b60008282101561424857614248614220565b500390565b60006020828403121561425f57600080fd5b5051919050565b6000821982111561427957614279614220565b500190565b60008261429b57634e487b7160e01b600052601260045260246000fd5b50049056fe608060405266b1a2bc2ec50000600255600a60035534801561002057600080fd5b50600080546001600160a01b0319163317905561056d806100426000396000f3fe6080604052600436106100965760003560e01c80638d426a3111610069578063e6361a8e1161004e578063e6361a8e14610133578063f851a44014610149578063fc9cc6e21461018157600080fd5b80638d426a3114610116578063a26759cb1461012b57600080fd5b8063155dd5ee1461009b5780631c328f23146100bd57806328443b18146100e15780634d8322c7146100f6575b600080fd5b3480156100a757600080fd5b506100bb6100b63660046104c0565b6101a1565b005b3480156100c957600080fd5b506003545b6040519081526020015b60405180910390f35b3480156100ed57600080fd5b506002546100ce565b34801561010257600080fd5b506100bb6101113660046104c0565b6102b5565b34801561012257600080fd5b506001546100ce565b6100bb61035c565b34801561013f57600080fd5b506100ce60015481565b34801561015557600080fd5b50600054610169906001600160a01b031681565b6040516001600160a01b0390911681526020016100d8565b34801561018d57600080fd5b506100bb61019c3660046104c0565b610420565b6000546001600160a01b0316331461020f5760405162461bcd60e51b815260206004820152602660248201527f4f6e6c79207468652061646d696e2063616e20706572666f726d20746869732060448201526530b1ba34b7b760d11b60648201526084015b60405180910390fd5b6001548111156102615760405162461bcd60e51b815260206004820152601260248201527f496e73756666696369656e742066756e647300000000000000000000000000006044820152606401610206565b80600160008282546102739190610508565b9091555050600080546040516001600160a01b039091169183156108fc02918491818181858888f193505050501580156102b1573d6000803e3d6000fd5b5050565b6000546001600160a01b0316331461031e5760405162461bcd60e51b815260206004820152602660248201527f4f6e6c79207468652061646d696e2063616e20706572666f726d20746869732060448201526530b1ba34b7b760d11b6064820152608401610206565b600281905560405181815233907fb77f58d7bdd9979ecd98ed048fc9d5657dfb51e810bb8c078af5b318a68bf1f4906020015b60405180910390a250565b600034116103d25760405162461bcd60e51b815260206004820152602160248201527f46756e64732073656e74206d7573742062652067726561746572207468616e2060448201527f30000000000000000000000000000000000000000000000000000000000000006064820152608401610206565b34600160008282546103e4919061051f565b909155505060405134815233907f8fe10ae416f22f5e5220b0018a6c1d4ff534d6aa3a471f2a20cb7747fe63e5b99060200160405180910390a2565b6000546001600160a01b031633146104895760405162461bcd60e51b815260206004820152602660248201527f4f6e6c79207468652061646d696e2063616e20706572666f726d20746869732060448201526530b1ba34b7b760d11b6064820152608401610206565b600381905560405181815233907f34949851b962a7f1c28710ba5e9ba656f8257419a4c3da8b9c6bd206856d1e2790602001610351565b6000602082840312156104d257600080fd5b5035919050565b7f4e487b7100000000000000000000000000000000000000000000000000000000600052601160045260246000fd5b60008282101561051a5761051a6104d9565b500390565b60008219821115610532576105326104d9565b50019056fea2646970667358221220256017c6c9c80393ed61db52577128578d7d989e70ef1268d67ff0567939f53764736f6c63430008090033a2646970667358221220289c5226d5b4da8cecd214196d47db6e9e93543249bfae5f039687c6d323b5b964736f6c63430008090033",
  "linkReferences": {},
  "deployedLinkReferences": {}
}