{
  "_format": "hh-sol-artifact-1",
  "contractName": "SmartSupply",
  "sourceName": "contracts/SmartSupply.sol",
  "abi": [
    {
      "anonymous": false,
      "inputs": [
        {
          "indexed": false,
          "internalType": "uint256",
          "name": "productID",
          "type": "uint256"
        },
        {
          "indexed": false,
          "internalType": "address",
          "name": "entity",
          "type": "address"
        }
      ],
      "name": "BankTransactionChanged",
      "type": "event"
    },
    {
      "anonymous": false,
      "inputs": [
        {
          "indexed": false,
          "internalType": "uint256",
          "name": "productID",
          "type": "uint256"
        },
        {
          "indexed": false,
          "internalType": "address",
          "name": "owner",
          "type": "address"
        }
      ],
      "name": "ChangedOnSale",
      "type": "event"
    },
    {
      "anonymous": false,
      "inputs": [
        {
          "indexed": true,
          "internalType": "address",
          "name": "account",
          "type": "address"
        }
      ],
      "name": "CustomerAdded",
      "type": "event"
    },
    {
      "anonymous": false,
      "inputs": [
        {
          "indexed": true,
          "internalType": "address",
          "name": "account",
          "type": "address"
        }
      ],
      "name": "CustomerRemoved",
      "type": "event"
    },
    {
      "anonymous": false,
      "inputs": [
        {
          "indexed": true,
          "internalType": "address",
          "name": "account",
          "type": "address"
        }
      ],
      "name": "DistributorAdded",
      "type": "event"
    },
    {
      "anonymous": false,
      "inputs": [
        {
          "indexed": true,
          "internalType": "address",
          "name": "account",
          "type": "address"
        }
      ],
      "name": "DistributorRemoved",
      "type": "event"
    },
    {
      "anonymous": false,
      "inputs": [
        {
          "indexed": true,
          "internalType": "address",
          "name": "account",
          "type": "address"
        }
      ],
      "name": "EntityVerificationRemoved",
      "type": "event"
    },
    {
      "anonymous": false,
      "inputs": [
        {
          "indexed": true,
          "internalType": "address",
          "name": "account",
          "type": "address"
        }
      ],
      "name": "EntityVerified",
      "type": "event"
    },
    {
      "anonymous": false,
      "inputs": [
        {
          "indexed": true,
          "internalType": "address",
          "name": "from",
          "type": "address"
        },
        {
          "indexed": false,
          "internalType": "uint256",
          "name": "amount",
          "type": "uint256"
        }
      ],
      "name": "FundsAdded",
      "type": "event"
    },
    {
      "anonymous": false,
      "inputs": [
        {
          "indexed": true,
          "internalType": "address",
          "name": "account",
          "type": "address"
        }
      ],
      "name": "ManufacturerAdded",
      "type": "event"
    },
    {
      "anonymous": false,
      "inputs": [
        {
          "indexed": true,
          "internalType": "address",
          "name": "account",
          "type": "address"
        }
      ],
      "name": "ManufacturerRemoved",
      "type": "event"
    },
    {
      "anonymous": false,
      "inputs": [
        {
          "indexed": false,
          "internalType": "uint256",
          "name": "productID",
          "type": "uint256"
        },
        {
          "indexed": false,
          "internalType": "address",
          "name": "manufacturer",
          "type": "address"
        }
      ],
      "name": "ProductProduced",
      "type": "event"
    },
    {
      "anonymous": false,
      "inputs": [
        {
          "indexed": false,
          "internalType": "uint256",
          "name": "productID",
          "type": "uint256"
        },
        {
          "indexed": false,
          "internalType": "address",
          "name": "oldOwner",
          "type": "address"
        },
        {
          "indexed": false,
          "internalType": "address",
          "name": "newOwner",
          "type": "address"
        }
      ],
      "name": "ProductPurchased",
      "type": "event"
    },
    {
      "anonymous": false,
      "inputs": [
        {
          "indexed": false,
          "internalType": "uint256",
          "name": "productID",
          "type": "uint256"
        },
        {
          "indexed": false,
          "internalType": "address",
          "name": "receiver",
          "type": "address"
        }
      ],
      "name": "ProductReceived",
      "type": "event"
    },
    {
      "anonymous": false,
      "inputs": [
        {
          "indexed": false,
          "internalType": "uint256",
          "name": "productID",
          "type": "uint256"
        },
        {
          "indexed": false,
          "internalType": "address",
          "name": "sender",
          "type": "address"
        },
        {
          "indexed": false,
          "internalType": "address",
          "name": "receiver",
          "type": "address"
        }
      ],
      "name": "ProductShipped",
      "type": "event"
    },
    {
      "anonymous": false,
      "inputs": [
        {
          "indexed": true,
          "internalType": "address",
          "name": "account",
          "type": "address"
        }
      ],
      "name": "RetailerAdded",
      "type": "event"
    },
    {
      "anonymous": false,
      "inputs": [
        {
          "indexed": true,
          "internalType": "address",
          "name": "account",
          "type": "address"
        }
      ],
      "name": "RetailerRemoved",
      "type": "event"
    },
    {
      "anonymous": false,
      "inputs": [
        {
          "indexed": false,
          "internalType": "address",
          "name": "receiver",
          "type": "address"
        },
        {
          "indexed": false,
          "internalType": "uint256",
          "name": "amount",
          "type": "uint256"
        }
      ],
      "name": "RewardGiven",
      "type": "event"
    },
    {
      "anonymous": false,
      "inputs": [
        {
          "indexed": true,
          "internalType": "address",
          "name": "account",
          "type": "address"
        }
      ],
      "name": "VerificationPermissionGranted",
      "type": "event"
    },
    {
      "anonymous": false,
      "inputs": [
        {
          "indexed": true,
          "internalType": "address",
          "name": "account",
          "type": "address"
        }
      ],
      "name": "VerificationPermissionRevoked",
      "type": "event"
    },
    {
      "inputs": [],
      "name": "addCustomer",
      "outputs": [],
      "stateMutability": "nonpayable",
      "type": "function"
    },
    {
      "inputs": [],
      "name": "addDistributor",
      "outputs": [],
      "stateMutability": "nonpayable",
      "type": "function"
    },
    {
      "inputs": [],
      "name": "addFunds",
      "outputs": [],
      "stateMutability": "payable",
      "type": "function"
    },
    {
      "inputs": [],
      "name": "addManufacturer",
      "outputs": [],
      "stateMutability": "nonpayable",
      "type": "function"
    },
    {
      "inputs": [],
      "name": "addRetailer",
      "outputs": [],
      "stateMutability": "nonpayable",
      "type": "function"
    },
    {
      "inputs": [],
      "name": "admin",
      "outputs": [
        {
          "internalType": "address",
          "name": "",
          "type": "address"
        }
      ],
      "stateMutability": "view",
      "type": "function"
    },
    {
      "inputs": [
        {
          "internalType": "uint256",
          "name": "_productID",
          "type": "uint256"
        },
        {
          "internalType": "uint256",
          "name": "_newTransactionID",
          "type": "uint256"
        }
      ],
      "name": "changeBankTransactionID",
      "outputs": [],
      "stateMutability": "nonpayable",
      "type": "function"
    },
    {
      "inputs": [
        {
          "internalType": "uint256",
          "name": "_productID",
          "type": "uint256"
        }
      ],
      "name": "changeOnSale",
      "outputs": [],
      "stateMutability": "nonpayable",
      "type": "function"
    },
    {
      "inputs": [
        {
          "internalType": "address",
          "name": "",
          "type": "address"
        }
      ],
      "name": "customers",
      "outputs": [
        {
          "internalType": "bool",
          "name": "",
          "type": "bool"
        }
      ],
      "stateMutability": "view",
      "type": "function"
    },
    {
      "inputs": [],
      "name": "defaultProductLocation",
      "outputs": [
        {
          "internalType": "enum Utils.ProductLocation",
          "name": "",
          "type": "uint8"
        }
      ],
      "stateMutability": "view",
      "type": "function"
    },
    {
      "inputs": [],
      "name": "defaultProductStage",
      "outputs": [
        {
          "internalType": "enum Utils.ProductStage",
          "name": "",
          "type": "uint8"
        }
      ],
      "stateMutability": "view",
      "type": "function"
    },
    {
      "inputs": [
        {
          "internalType": "address",
          "name": "",
          "type": "address"
        }
      ],
      "name": "distributors",
      "outputs": [
        {
          "internalType": "bool",
          "name": "",
          "type": "bool"
        }
      ],
      "stateMutability": "view",
      "type": "function"
    },
    {
      "inputs": [
        {
          "internalType": "address",
          "name": "",
          "type": "address"
        }
      ],
      "name": "entityVerificationPermission",
      "outputs": [
        {
          "internalType": "bool",
          "name": "",
          "type": "bool"
        }
      ],
      "stateMutability": "view",
      "type": "function"
    },
    {
      "inputs": [],
      "name": "getBalance",
      "outputs": [
        {
          "internalType": "uint256",
          "name": "",
          "type": "uint256"
        }
      ],
      "stateMutability": "view",
      "type": "function"
    },
    {
      "inputs": [],
      "name": "getStatus",
      "outputs": [],
      "stateMutability": "nonpayable",
      "type": "function"
    },
    {
      "inputs": [
        {
          "internalType": "address",
          "name": "account",
          "type": "address"
        }
      ],
      "name": "grantVerificationPermission",
      "outputs": [],
      "stateMutability": "nonpayable",
      "type": "function"
    },
    {
      "inputs": [
        {
          "internalType": "address",
          "name": "account",
          "type": "address"
        }
      ],
      "name": "isCustomer",
      "outputs": [
        {
          "internalType": "bool",
          "name": "",
          "type": "bool"
        }
      ],
      "stateMutability": "view",
      "type": "function"
    },
    {
      "inputs": [
        {
          "internalType": "address",
          "name": "account",
          "type": "address"
        }
      ],
      "name": "isDistributor",
      "outputs": [
        {
          "internalType": "bool",
          "name": "",
          "type": "bool"
        }
      ],
      "stateMutability": "view",
      "type": "function"
    },
    {
      "inputs": [
        {
          "internalType": "address",
          "name": "account",
          "type": "address"
        }
      ],
      "name": "isManufacturer",
      "outputs": [
        {
          "internalType": "bool",
          "name": "",
          "type": "bool"
        }
      ],
      "stateMutability": "view",
      "type": "function"
    },
    {
      "inputs": [
        {
          "internalType": "address",
          "name": "account",
          "type": "address"
        }
      ],
      "name": "isRetailer",
      "outputs": [
        {
          "internalType": "bool",
          "name": "",
          "type": "bool"
        }
      ],
      "stateMutability": "view",
      "type": "function"
    },
    {
      "inputs": [
        {
          "internalType": "address",
          "name": "account",
          "type": "address"
        }
      ],
      "name": "isVerificationPermitted",
      "outputs": [
        {
          "internalType": "bool",
          "name": "",
          "type": "bool"
        }
      ],
      "stateMutability": "view",
      "type": "function"
    },
    {
      "inputs": [
        {
          "internalType": "address",
          "name": "account",
          "type": "address"
        }
      ],
      "name": "isVerified",
      "outputs": [
        {
          "internalType": "bool",
          "name": "",
          "type": "bool"
        }
      ],
      "stateMutability": "view",
      "type": "function"
    },
    {
      "inputs": [
        {
          "internalType": "address",
          "name": "",
          "type": "address"
        }
      ],
      "name": "manufacturers",
      "outputs": [
        {
          "internalType": "bool",
          "name": "",
          "type": "bool"
        }
      ],
      "stateMutability": "view",
      "type": "function"
    },
    {
      "inputs": [
        {
          "internalType": "uint256",
          "name": "_productID",
          "type": "uint256"
        },
        {
          "internalType": "uint256",
          "name": "_productUID",
          "type": "uint256"
        }
      ],
      "name": "produceProduct",
      "outputs": [],
      "stateMutability": "nonpayable",
      "type": "function"
    },
    {
      "inputs": [
        {
          "internalType": "uint256",
          "name": "",
          "type": "uint256"
        }
      ],
      "name": "products",
      "outputs": [
        {
          "internalType": "uint256",
          "name": "productID",
          "type": "uint256"
        },
        {
          "internalType": "uint256",
          "name": "productUID",
          "type": "uint256"
        },
        {
          "internalType": "address",
          "name": "previousOwner",
          "type": "address"
        },
        {
          "internalType": "address",
          "name": "currentOwner",
          "type": "address"
        },
        {
          "internalType": "uint256",
          "name": "creationDate",
          "type": "uint256"
        },
        {
          "internalType": "enum Utils.ProductStage",
          "name": "productStage",
          "type": "uint8"
        },
        {
          "internalType": "enum Utils.ProductLocation",
          "name": "productLocation",
          "type": "uint8"
        },
        {
          "components": [
            {
              "internalType": "address",
              "name": "manufacturer",
              "type": "address"
            },
            {
              "internalType": "address",
              "name": "distributor",
              "type": "address"
            },
            {
              "internalType": "address",
              "name": "retailer",
              "type": "address"
            },
            {
              "internalType": "address",
              "name": "customer",
              "type": "address"
            }
          ],
          "internalType": "struct Utils.Ownerships",
          "name": "ownerships",
          "type": "tuple"
        },
        {
          "components": [
            {
              "internalType": "uint256",
              "name": "distributorBankTransactionID",
              "type": "uint256"
            },
            {
              "internalType": "uint256",
              "name": "retailerBankTransactionID",
              "type": "uint256"
            }
          ],
          "internalType": "struct Utils.TransactionIDs",
          "name": "transactionIDs",
          "type": "tuple"
        },
        {
          "components": [
            {
              "internalType": "bool",
              "name": "manufacturerRewarded",
              "type": "bool"
            },
            {
              "internalType": "bool",
              "name": "distributorRewarded",
              "type": "bool"
            },
            {
              "internalType": "bool",
              "name": "retailerRewarded",
              "type": "bool"
            }
          ],
          "internalType": "struct Utils.ProductRewards",
          "name": "rewards",
          "type": "tuple"
        }
      ],
      "stateMutability": "view",
      "type": "function"
    },
    {
      "inputs": [
        {
          "internalType": "uint256",
          "name": "_productID",
          "type": "uint256"
        }
      ],
      "name": "purchaseProduct",
      "outputs": [],
      "stateMutability": "payable",
      "type": "function"
    },
    {
      "inputs": [
        {
          "internalType": "uint256",
          "name": "_productID",
          "type": "uint256"
        }
      ],
      "name": "receiveProduct",
      "outputs": [],
      "stateMutability": "nonpayable",
      "type": "function"
    },
    {
      "inputs": [],
      "name": "removeCustomer",
      "outputs": [],
      "stateMutability": "nonpayable",
      "type": "function"
    },
    {
      "inputs": [],
      "name": "removeDistributor",
      "outputs": [],
      "stateMutability": "nonpayable",
      "type": "function"
    },
    {
      "inputs": [],
      "name": "removeManufacturer",
      "outputs": [],
      "stateMutability": "nonpayable",
      "type": "function"
    },
    {
      "inputs": [],
      "name": "removeRetailer",
      "outputs": [],
      "stateMutability": "nonpayable",
      "type": "function"
    },
    {
      "inputs": [
        {
          "internalType": "address",
          "name": "account",
          "type": "address"
        }
      ],
      "name": "removeVerification",
      "outputs": [],
      "stateMutability": "nonpayable",
      "type": "function"
    },
    {
      "inputs": [
        {
          "internalType": "address",
          "name": "",
          "type": "address"
        }
      ],
      "name": "retailers",
      "outputs": [
        {
          "internalType": "bool",
          "name": "",
          "type": "bool"
        }
      ],
      "stateMutability": "view",
      "type": "function"
    },
    {
      "inputs": [
        {
          "internalType": "address",
          "name": "account",
          "type": "address"
        }
      ],
      "name": "revokeVerificationPermission",
      "outputs": [],
      "stateMutability": "nonpayable",
      "type": "function"
    },
    {
      "inputs": [
        {
          "internalType": "uint256",
          "name": "_productID",
          "type": "uint256"
        },
        {
          "internalType": "address",
          "name": "receiver",
          "type": "address"
        }
      ],
      "name": "shipProduct",
      "outputs": [],
      "stateMutability": "nonpayable",
      "type": "function"
    },
    {
      "inputs": [],
      "name": "smartSupplyBalance",
      "outputs": [
        {
          "internalType": "uint256",
          "name": "",
          "type": "uint256"
        }
      ],
      "stateMutability": "view",
      "type": "function"
    },
    {
      "inputs": [],
      "name": "status",
      "outputs": [
        {
          "internalType": "string",
          "name": "",
          "type": "string"
        }
      ],
      "stateMutability": "view",
      "type": "function"
    },
    {
      "inputs": [
        {
          "internalType": "address",
          "name": "",
          "type": "address"
        }
      ],
      "name": "verificationStatus",
      "outputs": [
        {
          "internalType": "bool",
          "name": "",
          "type": "bool"
        }
      ],
      "stateMutability": "view",
      "type": "function"
    },
    {
      "inputs": [],
      "name": "verifyEntity",
      "outputs": [],
      "stateMutability": "payable",
      "type": "function"
    },
    {
      "inputs": [
        {
          "internalType": "uint256",
          "name": "amount",
          "type": "uint256"
        }
      ],
      "name": "withdrawFunds",
      "outputs": [],
      "stateMutability": "nonpayable",
      "type": "function"
    }
  ],
  "bytecode": "0x60806040526008805461ffff1916905534801561001b57600080fd5b50600080546001600160a01b031916331790556134318061003d6000396000f3fe6080604052600436106102bb5760003560e01c80637bd6221f1161016e578063b6d07385116100cb578063ceecd5961161007f578063f7d139cb11610064578063f7d139cb146108be578063f851a440146108de578063f89620e11461091657600080fd5b8063ceecd59614610893578063e6361a8e146108a857600080fd5b8063c18e0ed9116100b0578063c18e0ed914610829578063c4cb905014610849578063cc6427841461086357600080fd5b8063b6d07385146107c0578063b9209e33146107f057600080fd5b8063a26759cb11610122578063a315bd0a11610107578063a315bd0a1461075b578063ac52480e1461077b578063adafb3d41461079057600080fd5b8063a26759cb1461073e578063a2c66c361461074657600080fd5b806397cf3c371161015357806397cf3c37146106e45780639a268f35146106f95780639bdc08011461072957600080fd5b80637bd6221f146106725780638f0c86fa146106ab57600080fd5b80632d156a8d1161021c5780636b2a5c35116101d0578063762b51db116101b5578063762b51db146105265780637acc0b20146105525780637ad844751461065d57600080fd5b80636b2a5c35146104d65780636b5eb09c146104f657600080fd5b806338e76a031161020157806338e76a03146104755780634e69d560146104885780635da09b881461049d57600080fd5b80632d156a8d14610425578063336989ae1461044557600080fd5b8063200d2ed21161027357806328fd5e831161025857806328fd5e83146103c4578063293be2dd146103fd57806329d783281461040557600080fd5b8063200d2ed21461038257806326e1066e146103a457600080fd5b8063155dd5ee116102a4578063155dd5ee1461030457806316479b851461032457806317d4a4911461033957600080fd5b80630e8336dd146102c057806312065fe0146102e2575b600080fd5b3480156102cc57600080fd5b506102e06102db36600461318d565b61092b565b005b3480156102ee57600080fd5b50475b6040519081526020015b60405180910390f35b34801561031057600080fd5b506102e061031f3660046131b9565b610c3e565b34801561033057600080fd5b506102e0610d4d565b34801561034557600080fd5b506103726103543660046131d2565b6001600160a01b031660009081526002602052604090205460ff1690565b60405190151581526020016102fb565b34801561038e57600080fd5b50610397610e48565b6040516102fb91906131f4565b3480156103b057600080fd5b506102e06103bf3660046131d2565b610ed6565b3480156103d057600080fd5b506103726103df3660046131d2565b6001600160a01b031660009081526005602052604090205460ff1690565b6102e0610f88565b34801561041157600080fd5b506102e06104203660046131b9565b611198565b34801561043157600080fd5b506102e06104403660046131b9565b6115bc565b34801561045157600080fd5b506103726104603660046131d2565b60056020526000908152604090205460ff1681565b6102e06104833660046131b9565b61185d565b34801561049457600080fd5b506102e0611d23565b3480156104a957600080fd5b506103726104b83660046131d2565b6001600160a01b031660009081526004602052604090205460ff1690565b3480156104e257600080fd5b506102e06104f1366004613249565b611d6a565b34801561050257600080fd5b506103726105113660046131d2565b60026020526000908152604090205460ff1681565b34801561053257600080fd5b5060085461054590610100900460ff1681565b6040516102fb919061329f565b34801561055e57600080fd5b5061064761056d3660046131b9565b6009602081815260009283526040928390208054600182015460028301546003840154600485015460058601548951608081018b5260068801546001600160a01b03908116825260078901548116828b015260088901548116828d0152998801548a166060808301919091528b51808d018d52600a8a01548152600b8a0154818c01528c519182018d52600c9099015460ff80821615158352610100808304821615159c84019c909c5262010000909104811615159c82019c909c52969a959994851698949093169691958582169594909104909316928a565b6040516102fb9a999897969594939291906132b2565b34801561066957600080fd5b506102e0612083565b34801561067e57600080fd5b5061037261068d3660046131d2565b6001600160a01b031660009081526006602052604090205460ff1690565b3480156106b757600080fd5b506103726106c63660046131d2565b6001600160a01b031660009081526003602052604090205460ff1690565b3480156106f057600080fd5b506102e06120c5565b34801561070557600080fd5b506103726107143660046131d2565b60046020526000908152604090205460ff1681565b34801561073557600080fd5b506102e0612129565b6102e0612224565b34801561075257600080fd5b506102e06122e8565b34801561076757600080fd5b506102e0610776366004613249565b61234c565b34801561078757600080fd5b506102e06125fb565b34801561079c57600080fd5b506103726107ab3660046131d2565b60076020526000908152604090205460ff1681565b3480156107cc57600080fd5b506103726107db3660046131d2565b60066020526000908152604090205460ff1681565b3480156107fc57600080fd5b5061037261080b3660046131d2565b6001600160a01b031660009081526007602052604090205460ff1690565b34801561083557600080fd5b506102e06108443660046131d2565b61265f565b34801561085557600080fd5b506008546105459060ff1681565b34801561086f57600080fd5b5061037261087e3660046131d2565b60036020526000908152604090205460ff1681565b34801561089f57600080fd5b506102e0612714565b3480156108b457600080fd5b506102f160015481565b3480156108ca57600080fd5b506102e06108d93660046131d2565b6127ed565b3480156108ea57600080fd5b506000546108fe906001600160a01b031681565b6040516001600160a01b0390911681526020016102fb565b34801561092257600080fd5b506102e0612907565b3360009081526002602052604090205460ff168061095857503360009081526003602052604090205460ff165b8061097257503360009081526004602052604090205460ff165b6109f75760405162461bcd60e51b815260206004820152604560248201527f4f6e6c79206d616e756661637475726572732c206469737472696275746f727360448201527f206f722072657461696c6572732063616e20706572666f726d2074686973206160648201526431ba34b7b760d91b608482015260a4015b60405180910390fd5b600260008381526009602052604090206005015460ff166004811115610a1f57610a1f61326b565b14610a925760405162461bcd60e51b815260206004820152603660248201527f50726f64756374206d7573742062652070757263686173656420627920736f6d60448201527f6520656e7469747920746f20626520736869707065640000000000000000000060648201526084016109ee565b6000828152600960205260409020600201546001600160a01b03163314610b215760405162461bcd60e51b815260206004820152602c60248201527f50726f647563742063616e206f6e6c792062652073686970706564206279207460448201527f6865206f6c64206f776e6572000000000000000000000000000000000000000060648201526084016109ee565b610b2c823383612a02565b60008281526009602090815260408083206005908101805461ffff19166104031790556001600160a01b038516845290915290205460ff1615610bee57600082815260096020526040812060060154610b92916001600160a01b03909116906019612cc7565b60008281526009602052604090206007810154600a90910154610bc0916001600160a01b0316906019612cc7565b60008281526009602052604090206008810154600b90910154610bee916001600160a01b0316906019612cc7565b604080518381523360208201526001600160a01b038316918101919091527fae22003d449cfb842a57062f1f6ae06a4abdabcdfb0b6e02deee5584df17b277906060015b60405180910390a15050565b6000546001600160a01b03163314610ca75760405162461bcd60e51b815260206004820152602660248201527f4f6e6c79207468652061646d696e2063616e20706572666f726d20746869732060448201526530b1ba34b7b760d11b60648201526084016109ee565b600154811115610cf95760405162461bcd60e51b815260206004820152601260248201527f496e73756666696369656e742066756e6473000000000000000000000000000060448201526064016109ee565b8060016000828254610d0b9190613391565b9091555050600080546040516001600160a01b039091169183156108fc02918491818181858888f19350505050158015610d49573d6000803e3d6000fd5b5050565b3360009081526004602052604090205460ff1680610d7557506000546001600160a01b031633145b610de75760405162461bcd60e51b815260206004820152603360248201527f4f6e6c792072657461696c657273206f72207468652061646d696e2063616e2060448201527f706572666f726d207468697320616374696f6e0000000000000000000000000060648201526084016109ee565b336000818152600460209081526040808320805460ff199081169091556006835281842080548216905560079092528083208054909216909155517fdb7176e79cffef81cb01767dd0447a0b24bb72ca9778d4b245581086b2a7e6db9190a2565b600a8054610e55906133a8565b80601f0160208091040260200160405190810160405280929190818152602001828054610e81906133a8565b8015610ece5780601f10610ea357610100808354040283529160200191610ece565b820191906000526020600020905b815481529060010190602001808311610eb157829003601f168201915b505050505081565b6000546001600160a01b03163314610f3f5760405162461bcd60e51b815260206004820152602660248201527f4f6e6c79207468652061646d696e2063616e20706572666f726d20746869732060448201526530b1ba34b7b760d11b60648201526084016109ee565b6001600160a01b038116600081815260066020526040808220805460ff19169055517f31ef9270602119277454261e5a5bff0e43801de289dcf5d07dcf5aefc5c151d89190a250565b3360009081526006602052604090205460ff1661100d5760405162461bcd60e51b815260206004820152603060248201527f456e74697479206861736e277420676976656e20697473206964656e7469666960448201527f636174696f6e2070726f6f66207965740000000000000000000000000000000060648201526084016109ee565b3360009081526005602052604090205460ff16156110935760405162461bcd60e51b815260206004820152603060248201527f437573746f6d65727320617265206e6f7420616c6c6f77656420746f2070657260448201527f666f726d207468697320616374696f6e0000000000000000000000000000000060648201526084016109ee565b601434101561110a5760405162461bcd60e51b815260206004820152602560248201527f496e73756666696369656e74207061796d656e7420666f72207665726966696360448201527f6174696f6e00000000000000000000000000000000000000000000000000000060648201526084016109ee565b346001600082825461111c91906133e3565b909155505060405134815233907f8fe10ae416f22f5e5220b0018a6c1d4ff534d6aa3a471f2a20cb7747fe63e5b99060200160405180910390a233600081815260076020526040808220805460ff19166001179055517fa3710f2b2505ddd76d00993c1fad93af4104d857fa3e237c9548c028c44935cc9190a2565b3360009081526005602052604090205460ff16806111c557503360009081526003602052604090205460ff165b806111df57503360009081526004602052604090205460ff165b61125b5760405162461bcd60e51b815260206004820152604160248201527f4f6e6c7920637573746f6d6572732c206469737472696275746f7273206f722060448201527f72657461696c6572732063616e20706572666f726d207468697320616374696f6064820152603760f91b608482015260a4016109ee565b600360008281526009602052604090206005015460ff1660048111156112835761128361326b565b146112f65760405162461bcd60e51b815260206004820152603160248201527f50726f64756374206d75737420626520696e202753686970706564272073746160448201527f676520746f20626520726563656976656400000000000000000000000000000060648201526084016109ee565b6004600082815260096020526040902060050154610100900460ff1660048111156113235761132361326b565b146113965760405162461bcd60e51b815260206004820152603560248201527f50726f64756374206d75737420626520696e20275368697070696e6727206c6f60448201527f636174696f6e20746f206265207265636569766564000000000000000000000060648201526084016109ee565b6000818152600960205260409020600301546001600160a01b031633146114255760405162461bcd60e51b815260206004820152602e60248201527f4f6e6c79207468652063757272656e74206f776e65722063616e20726563656960448201527f7665207468652070726f6475637400000000000000000000000000000000000060648201526084016109ee565b600081815260096020526040902060058101805460ff1916600417905560070154336001600160a01b03909116141561148357600081815260096020526040902060050180546001919061ff001916610100835b0217905550611580565b6000818152600960205260409020600801546001600160a01b03163314156114ca57600081815260096020526040902060050180546002919061ff00191661010083611479565b600081815260096020819052604090912001546001600160a01b031633141561151257600081815260096020526040902060050180546003919061ff00191661010083611479565b60405162461bcd60e51b815260206004820152602b60248201527f496e76616c69642063757272656e74206f776e657220666f722075706461746960448201527f6e67206c6f636174696f6e00000000000000000000000000000000000000000060648201526084016109ee565b604080518281523360208201527f7eb38f83fec1bdc45e831c15e9e3eb2369028929a0e38e3709b7e710362f823b91015b60405180910390a150565b3360009081526002602052604090205460ff16806115e957503360009081526003602052604090205460ff165b8061160357503360009081526004602052604090205460ff165b6116835760405162461bcd60e51b815260206004820152604560248201527f4f6e6c79206d616e756661637475726572732c206469737472696275746f727360448201527f206f722072657461696c6572732063616e20706572666f726d2074686973206160648201526431ba34b7b760d91b608482015260a4016109ee565b6000818152600960205260409020600301546001600160a01b031633146117125760405162461bcd60e51b815260206004820152603d60248201527f4f6e6c79207468652063757272656e74206f776e65722063616e206368616e6760448201527f65207468652070726f6475637420737461676520746f204f6e53616c6500000060648201526084016109ee565b600260008281526009602052604090206005015460ff16600481111561173a5761173a61326b565b1415801561176e5750600360008281526009602052604090206005015460ff16600481111561176b5761176b61326b565b14155b6118065760405162461bcd60e51b815260206004820152604560248201527f50726f64756374206d757374206e6f7420626520696e2050757263686173656460448201527f206f72205368697070656420737461676520746f206368616e676520746f204f60648201527f6e53616c65000000000000000000000000000000000000000000000000000000608482015260a4016109ee565b600081815260096020526040902060050180546001919060ff191682800217905550604080518281523360208201527f5ea9686d3fd9cc47111972119dae21c738cc8467f126b047ba099f2e986dc84f91016115b1565b3360009081526005602052604090205460ff168061188a57503360009081526003602052604090205460ff165b806118a457503360009081526004602052604090205460ff165b6119205760405162461bcd60e51b815260206004820152604160248201527f4f6e6c7920637573746f6d6572732c206469737472696275746f7273206f722060448201527f72657461696c6572732063616e20706572666f726d207468697320616374696f6064820152603760f91b608482015260a4016109ee565b6000818152600960205260409020600301546001600160a01b03163314156119b05760405162461bcd60e51b815260206004820152602b60248201527f43757272656e74206f776e6572732063616e277420627579207468656972206f60448201527f776e2070726f647563747300000000000000000000000000000000000000000060648201526084016109ee565b600160008281526009602052604090206005015460ff1660048111156119d8576119d861326b565b14611a4b5760405162461bcd60e51b815260206004820152602760248201527f50726f64756374206d757374206265204f6e2053616c6520746f20626520707560448201527f726368617365640000000000000000000000000000000000000000000000000060648201526084016109ee565b3360009081526005602052604090205460ff168015611b5057606434811115611b025760405162461bcd60e51b815260206004820152605060248201527f437573746f6d657273206d7573742073656e642074686520636f72726563742060448201527f616d6f756e74206f6620636f696e7320746f20627579207468652070726f647560648201527f63742063657274696669636174696f6e00000000000000000000000000000000608482015260a4016109ee565b3460016000828254611b1491906133e3565b909155505060405134815233907f8fe10ae416f22f5e5220b0018a6c1d4ff534d6aa3a471f2a20cb7747fe63e5b99060200160405180910390a2505b6000828152600960209081526040808320600581018054600260ff199091168117909155600380830180549290930180546001600160a01b0384166001600160a01b0319918216179091553392168217909255845290915290205460ff1615611bd957600082815260096020526040902060070180546001600160a01b03191633179055611cc4565b3360009081526004602052604090205460ff1615611c1757600082815260096020526040902060080180546001600160a01b03191633179055611cc4565b3360009081526005602052604090205460ff1615611c565760008281526009602081905260409091200180546001600160a01b03191633179055611cc4565b60405162461bcd60e51b815260206004820152602d60248201527f496e76616c696420726f6c6520666f72207570646174696e672070726f64756360448201527f7420696e666f726d6174696f6e0000000000000000000000000000000000000060648201526084016109ee565b6000828152600960209081526040918290206002015482518581526001600160a01b039091169181019190915233918101919091527f405b8e92032184041314dcddf305e0d97d13b103d3fa162eb2b1c760760bdc0a90606001610c32565b6040805180820190915260058082527f50617965640000000000000000000000000000000000000000000000000000006020909201918252611d6791600a91613034565b50565b3360009081526002602052604090205460ff1680611d9257506000546001600160a01b031633145b611e045760405162461bcd60e51b815260206004820152603760248201527f4f6e6c79206d616e75666163747572657273206f72207468652061646d696e2060448201527f63616e20706572666f726d207468697320616374696f6e00000000000000000060648201526084016109ee565b611e0c6130b8565b828152602081018290523360608201819052604082015242608082015260085460a082019060ff166004811115611e4557611e4561326b565b90816004811115611e5857611e5861326b565b90525060085460c0820190610100900460ff166004811115611e7c57611e7c61326b565b90816004811115611e8f57611e8f61326b565b905250604080516080808201835260006020808401829052838501829052606080850183905233855260e0870185905288835260098252918590208651815590860151600180830191909155948601516002820180546001600160a01b03199081166001600160a01b0393841617909155928701516003830180549094169116179091559084015160048083019190915560a0850151600583018054949587959293919260ff1916918490811115611f4957611f4961326b565b021790555060c082015160058201805461ff001916610100836004811115611f7357611f7361326b565b021790555060e082015180516006830180546001600160a01b03199081166001600160a01b0393841617909155602080840151600786018054841691851691909117905560408085015160088701805485169186169190911790556060909401516009860180549093169316929092179055610100808501518051600a860155820151600b850155610120909401518051600c9094018054828401519285015161ffff1990911695151561ff001916959095179115159095021762ff00001916620100009315159390930292909217909255815186815233918101919091527f97c998f1009a742d52bd2b93e67352e2800f1b46a2a226b31cfa903ec93892f7910160405180910390a150505050565b33600081815260056020526040808220805460ff19166001179055517fcd118a02bd36f224f6f1b93812f78d2bbc2c2dc1bc0f60c176e3b4fe09f1483f9190a2565b336000818152600460209081526040808320805460ff199081166001179091556006835281842080548216905560079092528083208054909216909155517f71ae26cad02663e3d92efd6ec56031a80d74a20c0ab4183faa8bf262261c9baa9190a2565b3360009081526003602052604090205460ff168061215157506000546001600160a01b031633145b6121c35760405162461bcd60e51b815260206004820152603660248201527f4f6e6c79206469737472696275746f7273206f72207468652061646d696e206360448201527f616e20706572666f726d207468697320616374696f6e0000000000000000000060648201526084016109ee565b336000818152600360209081526040808320805460ff199081169091556006835281842080548216905560079092528083208054909216909155517f126174f6cf49c81cdb4a9214c6b8f037bef55b4ec31e4fc776cea2a1c8a88d599190a2565b6000341161229a5760405162461bcd60e51b815260206004820152602160248201527f46756e64732073656e74206d7573742062652067726561746572207468616e2060448201527f300000000000000000000000000000000000000000000000000000000000000060648201526084016109ee565b34600160008282546122ac91906133e3565b909155505060405134815233907f8fe10ae416f22f5e5220b0018a6c1d4ff534d6aa3a471f2a20cb7747fe63e5b99060200160405180910390a2565b336000818152600260209081526040808320805460ff199081166001179091556006835281842080548216905560079092528083208054909216909155517f561138658ca49a8540dc70dcfe64c9026c1c5b9344642242dd6562970f9c12789190a2565b3360009081526005602052604090205460ff1680156123855750600082815260096020819052604090912001546001600160a01b031633145b1561238f576124a9565b3360009081526003602052604090205460ff1680156123c757506000828152600960205260409020600701546001600160a01b031633145b156123e5576000828152600960205260409020600a018190556124a9565b3360009081526004602052604090205460ff16801561241d57506000828152600960205260409020600801546001600160a01b031633145b1561243b576000828152600960205260409020600b018190556124a9565b60405162461bcd60e51b815260206004820152603c60248201527f43616c6c657220646f6573206e6f74206861766520746865207269676874207460448201527f6f206368616e67652062616e6b207472616e73616374696f6e2049440000000060648201526084016109ee565b3360009081526003602052604090205460ff1680156124e157506000828152600960205260409020600701546001600160a01b031633145b801561250457506000828152600960205260409020600c0154610100900460ff16155b156125385761251533836019612cc7565b6000828152600960205260409020600c01805461ff0019166101001790556125c6565b3360009081526004602052604090205460ff16801561257057506000828152600960205260409020600801546001600160a01b031633145b801561259457506000828152600960205260409020600c015462010000900460ff16155b156125c6576125a533836019612cc7565b6000828152600960205260409020600c01805462ff00001916620100001790555b604080518381523360208201527fdcd2f9ad8329d46769c3238811ad3ca487334dd220ad05263c0f9ea1a19ccc879101610c32565b336000818152600360209081526040808320805460ff199081166001179091556006835281842080548216905560079092528083208054909216909155517fddbf200aa634dc3fb81cfd68583dd1040d1c751d335e1d86b631bde3e977fea89190a2565b6000546001600160a01b031633146126c85760405162461bcd60e51b815260206004820152602660248201527f4f6e6c79207468652061646d696e2063616e20706572666f726d20746869732060448201526530b1ba34b7b760d11b60648201526084016109ee565b6001600160a01b038116600081815260066020526040808220805460ff19166001179055517f58169284ef5a04f8626278f2f2b6c44cf8f2d30da1e96100b7016764ad6130689190a250565b3360009081526005602052604090205460ff168061273c57506000546001600160a01b031633145b6127ae5760405162461bcd60e51b815260206004820152603360248201527f4f6e6c7920637573746f6d657273206f72207468652061646d696e2063616e2060448201527f706572666f726d207468697320616374696f6e0000000000000000000000000060648201526084016109ee565b33600081815260056020526040808220805460ff19169055517fb4c88a9c5cd906354abdd1cc29e4f94c6c4de90754fb80ce51e6a33417bc81b69190a2565b6000546001600160a01b031633146128565760405162461bcd60e51b815260206004820152602660248201527f4f6e6c79207468652061646d696e2063616e20706572666f726d20746869732060448201526530b1ba34b7b760d11b60648201526084016109ee565b6001600160a01b03811660009081526007602052604090205460ff166128be5760405162461bcd60e51b815260206004820152601e60248201527f456e7469747920697320616c7265616479206e6f74207665726966696564000060448201526064016109ee565b6001600160a01b038116600081815260076020526040808220805460ff19169055517f4e7593da9155b5afbbc5e5bcaaf40b112e7529d1233f4c92780fbf49682842469190a250565b3360009081526002602052604090205460ff168061292f57506000546001600160a01b031633145b6129a15760405162461bcd60e51b815260206004820152603760248201527f4f6e6c79206d616e75666163747572657273206f72207468652061646d696e2060448201527f63616e20706572666f726d207468697320616374696f6e00000000000000000060648201526084016109ee565b336000818152600260209081526040808320805460ff199081169091556006835281842080548216905560079092528083208054909216909155517f2fed5abf6a80d6dfe30b4895481b2fc5d7dce5f8f7b931832f4a2947d5040c7f9190a2565b816001600160a01b0316816001600160a01b03161415612a8a5760405162461bcd60e51b815260206004820152603e60248201527f50726f647563742063616e6e6f74206265207368697070656420746f2074686560448201527f2073616d65206164647265737320617320746865206f6c64206f776e6572000060648201526084016109ee565b6000838152600960205260409020600301546001600160a01b03828116911614612b1c5760405162461bcd60e51b815260206004820152602c60248201527f50726f64756374206d757374206265207368697070656420746f20746865206360448201527f757272656e74206f776e6572000000000000000000000000000000000000000060648201526084016109ee565b6000838152600960205260409020600201546001600160a01b038381169116148015612c5057506000838152600960205260409020600601546001600160a01b038381169116148015612b98575060008084815260096020526040902060050154610100900460ff166004811115612b9657612b9661326b565b145b80612bf457506000838152600960205260409020600701546001600160a01b038381169116148015612bf457506001600084815260096020526040902060050154610100900460ff166004811115612bf257612bf261326b565b145b80612c5057506000838152600960205260409020600801546001600160a01b038381169116148015612c5057506002600084815260096020526040902060050154610100900460ff166004811115612c4e57612c4e61326b565b145b612cc25760405162461bcd60e51b815260206004820152602a60248201527f496e76616c6964206f6c64206f776e6572206f72206c6f636174696f6e20666f60448201527f72207368697070696e670000000000000000000000000000000000000000000060648201526084016109ee565b505050565b6001600160a01b038316612d1d5760405162461bcd60e51b815260206004820152601960248201527f496e76616c696420726563697069656e7420616464726573730000000000000060448201526064016109ee565b60008111612d6d5760405162461bcd60e51b815260206004820152601660248201527f496e76616c6964207061796d656e7420616d6f756e740000000000000000000060448201526064016109ee565b6001600160a01b03831660009081526004602052604090205460ff1615612e45576000828152600960205260409020600b015415612cc2576040516001600160a01b0384169082156108fc029083906000818181858888f19350505050158015612ddb573d6000803e3d6000fd5b50600082815260096020908152604091829020600c01805462ff000019166201000017905581516001600160a01b03861681529081018390527f3ad0c8d1bbd63d54c5f14180eae95cab7c2420b2dbb90603a6e5d206668f52ec91015b60405180910390a1505050565b6001600160a01b03831660009081526003602052604090205460ff1615612f12576000828152600960205260409020600a015415612cc2576040516001600160a01b0384169082156108fc029083906000818181858888f19350505050158015612eb3573d6000803e3d6000fd5b50600082815260096020908152604091829020600c01805461ff00191661010017905581516001600160a01b03861681529081018390527f3ad0c8d1bbd63d54c5f14180eae95cab7c2420b2dbb90603a6e5d206668f52ec9101612e38565b6001600160a01b03831660009081526002602052604090205460ff1615612fc6576040516001600160a01b0384169082156108fc029083906000818181858888f19350505050158015612f69573d6000803e3d6000fd5b50600082815260096020908152604091829020600c01805460ff1916600117905581516001600160a01b03861681529081018390527f3ad0c8d1bbd63d54c5f14180eae95cab7c2420b2dbb90603a6e5d206668f52ec9101612e38565b60405162461bcd60e51b815260206004820152602f60248201527f496e76616c696420726563697069656e7420726f6c65206f72206d697373696e60448201527f67207472616e73616374696f6e4944000000000000000000000000000000000060648201526084016109ee565b828054613040906133a8565b90600052602060002090601f01602090048101928261306257600085556130a8565b82601f1061307b57805160ff19168380011785556130a8565b828001600101855582156130a8579182015b828111156130a857825182559160200191906001019061308d565b506130b492915061315c565b5090565b604080516101408101825260008082526020820181905291810182905260608101829052608081018290529060a0820190815260200160008152604080516080810182526000808252602082810182905292820181905260608201529101908152602001613139604051806040016040528060008152602001600081525090565b815260408051606081018252600080825260208281018290529282015291015290565b5b808211156130b4576000815560010161315d565b80356001600160a01b038116811461318857600080fd5b919050565b600080604083850312156131a057600080fd5b823591506131b060208401613171565b90509250929050565b6000602082840312156131cb57600080fd5b5035919050565b6000602082840312156131e457600080fd5b6131ed82613171565b9392505050565b600060208083528351808285015260005b8181101561322157858101830151858201604001528201613205565b81811115613233576000604083870101525b50601f01601f1916929092016040019392505050565b6000806040838503121561325c57600080fd5b50508035926020909101359150565b634e487b7160e01b600052602160045260246000fd5b60058110611d6757634e487b7160e01b600052602160045260246000fd5b602081016132ac83613281565b91905290565b6000610200820190508b82528a60208301526001600160a01b03808b166040840152808a1660608401528860808401526132eb88613281565b8760a08401526132fa87613281565b60c083018790528551811660e0840152602086015181166101008401526040860151811661012084015260608601511661014083015261334861016083018580518252602090810151910152565b825115156101a0830152602083015115156101c0830152604083015115156101e08301529b9a5050505050505050505050565b634e487b7160e01b600052601160045260246000fd5b6000828210156133a3576133a361337b565b500390565b600181811c908216806133bc57607f821691505b602082108114156133dd57634e487b7160e01b600052602260045260246000fd5b50919050565b600082198211156133f6576133f661337b565b50019056fea2646970667358221220af15b3ec5c5bdb6a4ba466529d75e739bc08338d91c19727ee80151fdb98542064736f6c63430008090033",
  "linkReferences": {},
  "deployedLinkReferences": {}
}