{
  "_format": "hh-sol-artifact-1",
  "contractName": "SmartSupply",
  "sourceName": "contracts/SmartSupply.sol",
  "abi": [
    {
      "anonymous": false,
      "inputs": [
        {
          "indexed": false,
          "internalType": "uint256",
          "name": "productID",
          "type": "uint256"
        },
        {
          "indexed": false,
          "internalType": "address",
          "name": "entity",
          "type": "address"
        }
      ],
      "name": "BankTransactionChanged",
      "type": "event"
    },
    {
      "anonymous": false,
      "inputs": [
        {
          "indexed": true,
          "internalType": "address",
          "name": "from",
          "type": "address"
        },
        {
          "indexed": false,
          "internalType": "uint256",
          "name": "amount",
          "type": "uint256"
        }
      ],
      "name": "CertificationPercentageChanged",
      "type": "event"
    },
    {
      "anonymous": false,
      "inputs": [
        {
          "indexed": false,
          "internalType": "uint256",
          "name": "productID",
          "type": "uint256"
        },
        {
          "indexed": false,
          "internalType": "address",
          "name": "owner",
          "type": "address"
        }
      ],
      "name": "ChangedNotOnSale",
      "type": "event"
    },
    {
      "anonymous": false,
      "inputs": [
        {
          "indexed": false,
          "internalType": "uint256",
          "name": "productID",
          "type": "uint256"
        },
        {
          "indexed": false,
          "internalType": "address",
          "name": "owner",
          "type": "address"
        }
      ],
      "name": "ChangedOnSale",
      "type": "event"
    },
    {
      "anonymous": false,
      "inputs": [
        {
          "indexed": false,
          "internalType": "uint256",
          "name": "productID",
          "type": "uint256"
        },
        {
          "indexed": false,
          "internalType": "address",
          "name": "retailer",
          "type": "address"
        },
        {
          "indexed": false,
          "internalType": "uint256",
          "name": "newCertificationPrice",
          "type": "uint256"
        }
      ],
      "name": "ChangedOnSaleRetailer",
      "type": "event"
    },
    {
      "anonymous": false,
      "inputs": [
        {
          "indexed": true,
          "internalType": "address",
          "name": "account",
          "type": "address"
        }
      ],
      "name": "CustomerAdded",
      "type": "event"
    },
    {
      "anonymous": false,
      "inputs": [
        {
          "indexed": true,
          "internalType": "address",
          "name": "account",
          "type": "address"
        }
      ],
      "name": "CustomerRemoved",
      "type": "event"
    },
    {
      "anonymous": false,
      "inputs": [
        {
          "indexed": true,
          "internalType": "address",
          "name": "account",
          "type": "address"
        }
      ],
      "name": "DistributorAdded",
      "type": "event"
    },
    {
      "anonymous": false,
      "inputs": [
        {
          "indexed": true,
          "internalType": "address",
          "name": "account",
          "type": "address"
        }
      ],
      "name": "DistributorRemoved",
      "type": "event"
    },
    {
      "anonymous": false,
      "inputs": [
        {
          "indexed": true,
          "internalType": "address",
          "name": "account",
          "type": "address"
        }
      ],
      "name": "EntityVerificationRemoved",
      "type": "event"
    },
    {
      "anonymous": false,
      "inputs": [
        {
          "indexed": true,
          "internalType": "address",
          "name": "account",
          "type": "address"
        }
      ],
      "name": "EntityVerified",
      "type": "event"
    },
    {
      "anonymous": false,
      "inputs": [
        {
          "indexed": true,
          "internalType": "address",
          "name": "from",
          "type": "address"
        },
        {
          "indexed": false,
          "internalType": "uint256",
          "name": "amount",
          "type": "uint256"
        }
      ],
      "name": "FundsAdded",
      "type": "event"
    },
    {
      "anonymous": false,
      "inputs": [
        {
          "indexed": true,
          "internalType": "address",
          "name": "account",
          "type": "address"
        }
      ],
      "name": "ManufacturerAdded",
      "type": "event"
    },
    {
      "anonymous": false,
      "inputs": [
        {
          "indexed": true,
          "internalType": "address",
          "name": "account",
          "type": "address"
        }
      ],
      "name": "ManufacturerRemoved",
      "type": "event"
    },
    {
      "anonymous": false,
      "inputs": [
        {
          "indexed": false,
          "internalType": "uint256",
          "name": "productID",
          "type": "uint256"
        },
        {
          "indexed": false,
          "internalType": "address",
          "name": "manufacturer",
          "type": "address"
        }
      ],
      "name": "ProductProduced",
      "type": "event"
    },
    {
      "anonymous": false,
      "inputs": [
        {
          "indexed": false,
          "internalType": "uint256",
          "name": "productID",
          "type": "uint256"
        },
        {
          "indexed": false,
          "internalType": "address",
          "name": "oldOwner",
          "type": "address"
        },
        {
          "indexed": false,
          "internalType": "address",
          "name": "newOwner",
          "type": "address"
        }
      ],
      "name": "ProductPurchased",
      "type": "event"
    },
    {
      "anonymous": false,
      "inputs": [
        {
          "indexed": false,
          "internalType": "uint256",
          "name": "productID",
          "type": "uint256"
        },
        {
          "indexed": false,
          "internalType": "address",
          "name": "receiver",
          "type": "address"
        }
      ],
      "name": "ProductReceived",
      "type": "event"
    },
    {
      "anonymous": false,
      "inputs": [
        {
          "indexed": false,
          "internalType": "uint256",
          "name": "productID",
          "type": "uint256"
        },
        {
          "indexed": false,
          "internalType": "address",
          "name": "sender",
          "type": "address"
        },
        {
          "indexed": false,
          "internalType": "address",
          "name": "receiver",
          "type": "address"
        }
      ],
      "name": "ProductShipped",
      "type": "event"
    },
    {
      "anonymous": false,
      "inputs": [
        {
          "indexed": true,
          "internalType": "address",
          "name": "account",
          "type": "address"
        }
      ],
      "name": "RetailerAdded",
      "type": "event"
    },
    {
      "anonymous": false,
      "inputs": [
        {
          "indexed": true,
          "internalType": "address",
          "name": "account",
          "type": "address"
        }
      ],
      "name": "RetailerRemoved",
      "type": "event"
    },
    {
      "anonymous": false,
      "inputs": [
        {
          "indexed": false,
          "internalType": "address",
          "name": "receiver",
          "type": "address"
        },
        {
          "indexed": false,
          "internalType": "uint256",
          "name": "amount",
          "type": "uint256"
        }
      ],
      "name": "RewardGiven",
      "type": "event"
    },
    {
      "anonymous": false,
      "inputs": [
        {
          "indexed": true,
          "internalType": "address",
          "name": "from",
          "type": "address"
        },
        {
          "indexed": false,
          "internalType": "uint256",
          "name": "amount",
          "type": "uint256"
        }
      ],
      "name": "VerificationAmountChanged",
      "type": "event"
    },
    {
      "anonymous": false,
      "inputs": [
        {
          "indexed": true,
          "internalType": "address",
          "name": "account",
          "type": "address"
        }
      ],
      "name": "VerificationPermissionGranted",
      "type": "event"
    },
    {
      "anonymous": false,
      "inputs": [
        {
          "indexed": true,
          "internalType": "address",
          "name": "account",
          "type": "address"
        }
      ],
      "name": "VerificationPermissionRevoked",
      "type": "event"
    },
    {
      "stateMutability": "payable",
      "type": "fallback"
    },
    {
      "inputs": [],
      "name": "addCustomer",
      "outputs": [],
      "stateMutability": "nonpayable",
      "type": "function"
    },
    {
      "inputs": [],
      "name": "addDistributor",
      "outputs": [],
      "stateMutability": "nonpayable",
      "type": "function"
    },
    {
      "inputs": [],
      "name": "addFunds",
      "outputs": [],
      "stateMutability": "payable",
      "type": "function"
    },
    {
      "inputs": [],
      "name": "addManufacturer",
      "outputs": [],
      "stateMutability": "nonpayable",
      "type": "function"
    },
    {
      "inputs": [],
      "name": "addRetailer",
      "outputs": [],
      "stateMutability": "nonpayable",
      "type": "function"
    },
    {
      "inputs": [],
      "name": "admin",
      "outputs": [
        {
          "internalType": "address",
          "name": "",
          "type": "address"
        }
      ],
      "stateMutability": "view",
      "type": "function"
    },
    {
      "inputs": [
        {
          "internalType": "uint256",
          "name": "_productID",
          "type": "uint256"
        },
        {
          "internalType": "uint256",
          "name": "_newTransactionID",
          "type": "uint256"
        }
      ],
      "name": "changeBankTransactionID",
      "outputs": [],
      "stateMutability": "nonpayable",
      "type": "function"
    },
    {
      "inputs": [
        {
          "internalType": "uint256",
          "name": "_productID",
          "type": "uint256"
        }
      ],
      "name": "changeNotOnSale",
      "outputs": [],
      "stateMutability": "nonpayable",
      "type": "function"
    },
    {
      "inputs": [
        {
          "internalType": "uint256",
          "name": "_productID",
          "type": "uint256"
        }
      ],
      "name": "changeOnSale",
      "outputs": [],
      "stateMutability": "nonpayable",
      "type": "function"
    },
    {
      "inputs": [
        {
          "internalType": "uint256",
          "name": "_productID",
          "type": "uint256"
        },
        {
          "internalType": "uint256",
          "name": "_newCertificationPrice",
          "type": "uint256"
        }
      ],
      "name": "changeOnSaleRetailer",
      "outputs": [],
      "stateMutability": "nonpayable",
      "type": "function"
    },
    {
      "inputs": [
        {
          "internalType": "address",
          "name": "",
          "type": "address"
        }
      ],
      "name": "customers",
      "outputs": [
        {
          "internalType": "bool",
          "name": "",
          "type": "bool"
        }
      ],
      "stateMutability": "view",
      "type": "function"
    },
    {
      "inputs": [],
      "name": "defaultProductLocation",
      "outputs": [
        {
          "internalType": "enum Utils.ProductLocation",
          "name": "",
          "type": "uint8"
        }
      ],
      "stateMutability": "view",
      "type": "function"
    },
    {
      "inputs": [],
      "name": "defaultProductStage",
      "outputs": [
        {
          "internalType": "enum Utils.ProductStage",
          "name": "",
          "type": "uint8"
        }
      ],
      "stateMutability": "view",
      "type": "function"
    },
    {
      "inputs": [
        {
          "internalType": "address",
          "name": "",
          "type": "address"
        }
      ],
      "name": "distributors",
      "outputs": [
        {
          "internalType": "bool",
          "name": "",
          "type": "bool"
        }
      ],
      "stateMutability": "view",
      "type": "function"
    },
    {
      "inputs": [
        {
          "internalType": "address",
          "name": "",
          "type": "address"
        }
      ],
      "name": "entityVerificationPermission",
      "outputs": [
        {
          "internalType": "bool",
          "name": "",
          "type": "bool"
        }
      ],
      "stateMutability": "view",
      "type": "function"
    },
    {
      "inputs": [],
      "name": "getBalance",
      "outputs": [
        {
          "internalType": "uint256",
          "name": "",
          "type": "uint256"
        }
      ],
      "stateMutability": "view",
      "type": "function"
    },
    {
      "inputs": [],
      "name": "getCertificationPercentage",
      "outputs": [
        {
          "internalType": "uint256",
          "name": "",
          "type": "uint256"
        }
      ],
      "stateMutability": "view",
      "type": "function"
    },
    {
      "inputs": [],
      "name": "getStatus",
      "outputs": [],
      "stateMutability": "nonpayable",
      "type": "function"
    },
    {
      "inputs": [],
      "name": "getVerificationAmount",
      "outputs": [
        {
          "internalType": "uint256",
          "name": "",
          "type": "uint256"
        }
      ],
      "stateMutability": "view",
      "type": "function"
    },
    {
      "inputs": [
        {
          "internalType": "address",
          "name": "account",
          "type": "address"
        }
      ],
      "name": "grantVerificationPermission",
      "outputs": [],
      "stateMutability": "nonpayable",
      "type": "function"
    },
    {
      "inputs": [
        {
          "internalType": "address",
          "name": "account",
          "type": "address"
        }
      ],
      "name": "isCustomer",
      "outputs": [
        {
          "internalType": "bool",
          "name": "",
          "type": "bool"
        }
      ],
      "stateMutability": "view",
      "type": "function"
    },
    {
      "inputs": [
        {
          "internalType": "address",
          "name": "account",
          "type": "address"
        }
      ],
      "name": "isDistributor",
      "outputs": [
        {
          "internalType": "bool",
          "name": "",
          "type": "bool"
        }
      ],
      "stateMutability": "view",
      "type": "function"
    },
    {
      "inputs": [
        {
          "internalType": "address",
          "name": "account",
          "type": "address"
        }
      ],
      "name": "isManufacturer",
      "outputs": [
        {
          "internalType": "bool",
          "name": "",
          "type": "bool"
        }
      ],
      "stateMutability": "view",
      "type": "function"
    },
    {
      "inputs": [
        {
          "internalType": "address",
          "name": "account",
          "type": "address"
        }
      ],
      "name": "isRetailer",
      "outputs": [
        {
          "internalType": "bool",
          "name": "",
          "type": "bool"
        }
      ],
      "stateMutability": "view",
      "type": "function"
    },
    {
      "inputs": [
        {
          "internalType": "address",
          "name": "account",
          "type": "address"
        }
      ],
      "name": "isVerificationPermitted",
      "outputs": [
        {
          "internalType": "bool",
          "name": "",
          "type": "bool"
        }
      ],
      "stateMutability": "view",
      "type": "function"
    },
    {
      "inputs": [
        {
          "internalType": "address",
          "name": "account",
          "type": "address"
        }
      ],
      "name": "isVerified",
      "outputs": [
        {
          "internalType": "bool",
          "name": "",
          "type": "bool"
        }
      ],
      "stateMutability": "view",
      "type": "function"
    },
    {
      "inputs": [
        {
          "internalType": "address",
          "name": "",
          "type": "address"
        }
      ],
      "name": "manufacturers",
      "outputs": [
        {
          "internalType": "bool",
          "name": "",
          "type": "bool"
        }
      ],
      "stateMutability": "view",
      "type": "function"
    },
    {
      "inputs": [
        {
          "internalType": "uint256",
          "name": "_productID",
          "type": "uint256"
        },
        {
          "internalType": "uint256",
          "name": "_productUID",
          "type": "uint256"
        }
      ],
      "name": "produceProduct",
      "outputs": [],
      "stateMutability": "nonpayable",
      "type": "function"
    },
    {
      "inputs": [
        {
          "internalType": "uint256",
          "name": "",
          "type": "uint256"
        }
      ],
      "name": "products",
      "outputs": [
        {
          "internalType": "uint256",
          "name": "productID",
          "type": "uint256"
        },
        {
          "internalType": "uint256",
          "name": "productUID",
          "type": "uint256"
        },
        {
          "internalType": "address",
          "name": "previousOwner",
          "type": "address"
        },
        {
          "internalType": "address",
          "name": "currentOwner",
          "type": "address"
        },
        {
          "internalType": "uint256",
          "name": "creationDate",
          "type": "uint256"
        },
        {
          "internalType": "uint256",
          "name": "certificationPrice",
          "type": "uint256"
        },
        {
          "internalType": "enum Utils.ProductStage",
          "name": "productStage",
          "type": "uint8"
        },
        {
          "internalType": "enum Utils.ProductLocation",
          "name": "productLocation",
          "type": "uint8"
        },
        {
          "components": [
            {
              "internalType": "address",
              "name": "manufacturer",
              "type": "address"
            },
            {
              "internalType": "address",
              "name": "distributor",
              "type": "address"
            },
            {
              "internalType": "address",
              "name": "retailer",
              "type": "address"
            },
            {
              "internalType": "address",
              "name": "customer",
              "type": "address"
            }
          ],
          "internalType": "struct Utils.Ownerships",
          "name": "ownerships",
          "type": "tuple"
        },
        {
          "components": [
            {
              "internalType": "uint256",
              "name": "distributorBankTransactionID",
              "type": "uint256"
            },
            {
              "internalType": "uint256",
              "name": "retailerBankTransactionID",
              "type": "uint256"
            }
          ],
          "internalType": "struct Utils.TransactionIDs",
          "name": "transactionIDs",
          "type": "tuple"
        },
        {
          "components": [
            {
              "internalType": "bool",
              "name": "manufacturerRewarded",
              "type": "bool"
            },
            {
              "internalType": "bool",
              "name": "distributorRewarded",
              "type": "bool"
            },
            {
              "internalType": "bool",
              "name": "retailerRewarded",
              "type": "bool"
            }
          ],
          "internalType": "struct Utils.ProductRewards",
          "name": "rewards",
          "type": "tuple"
        }
      ],
      "stateMutability": "view",
      "type": "function"
    },
    {
      "inputs": [
        {
          "internalType": "uint256",
          "name": "_productID",
          "type": "uint256"
        }
      ],
      "name": "purchaseProduct",
      "outputs": [],
      "stateMutability": "payable",
      "type": "function"
    },
    {
      "inputs": [
        {
          "internalType": "uint256",
          "name": "_productID",
          "type": "uint256"
        }
      ],
      "name": "receiveProduct",
      "outputs": [],
      "stateMutability": "nonpayable",
      "type": "function"
    },
    {
      "inputs": [],
      "name": "removeCustomer",
      "outputs": [],
      "stateMutability": "nonpayable",
      "type": "function"
    },
    {
      "inputs": [],
      "name": "removeDistributor",
      "outputs": [],
      "stateMutability": "nonpayable",
      "type": "function"
    },
    {
      "inputs": [],
      "name": "removeManufacturer",
      "outputs": [],
      "stateMutability": "nonpayable",
      "type": "function"
    },
    {
      "inputs": [],
      "name": "removeRetailer",
      "outputs": [],
      "stateMutability": "nonpayable",
      "type": "function"
    },
    {
      "inputs": [
        {
          "internalType": "address",
          "name": "account",
          "type": "address"
        }
      ],
      "name": "removeVerification",
      "outputs": [],
      "stateMutability": "nonpayable",
      "type": "function"
    },
    {
      "inputs": [
        {
          "internalType": "address",
          "name": "",
          "type": "address"
        }
      ],
      "name": "retailers",
      "outputs": [
        {
          "internalType": "bool",
          "name": "",
          "type": "bool"
        }
      ],
      "stateMutability": "view",
      "type": "function"
    },
    {
      "inputs": [
        {
          "internalType": "address",
          "name": "account",
          "type": "address"
        }
      ],
      "name": "revokeVerificationPermission",
      "outputs": [],
      "stateMutability": "nonpayable",
      "type": "function"
    },
    {
      "inputs": [
        {
          "internalType": "uint256",
          "name": "_percentage",
          "type": "uint256"
        }
      ],
      "name": "setCertificationPercentage",
      "outputs": [],
      "stateMutability": "nonpayable",
      "type": "function"
    },
    {
      "inputs": [
        {
          "internalType": "uint256",
          "name": "_amount",
          "type": "uint256"
        }
      ],
      "name": "setVerificationAmount",
      "outputs": [],
      "stateMutability": "nonpayable",
      "type": "function"
    },
    {
      "inputs": [
        {
          "internalType": "uint256",
          "name": "_productID",
          "type": "uint256"
        },
        {
          "internalType": "address",
          "name": "receiver",
          "type": "address"
        }
      ],
      "name": "shipProduct",
      "outputs": [],
      "stateMutability": "nonpayable",
      "type": "function"
    },
    {
      "inputs": [],
      "name": "smartSupplyBalance",
      "outputs": [
        {
          "internalType": "uint256",
          "name": "",
          "type": "uint256"
        }
      ],
      "stateMutability": "view",
      "type": "function"
    },
    {
      "inputs": [],
      "name": "status",
      "outputs": [
        {
          "internalType": "string",
          "name": "",
          "type": "string"
        }
      ],
      "stateMutability": "view",
      "type": "function"
    },
    {
      "inputs": [
        {
          "internalType": "address",
          "name": "",
          "type": "address"
        }
      ],
      "name": "verificationStatus",
      "outputs": [
        {
          "internalType": "bool",
          "name": "",
          "type": "bool"
        }
      ],
      "stateMutability": "view",
      "type": "function"
    },
    {
      "inputs": [],
      "name": "verifyEntity",
      "outputs": [],
      "stateMutability": "payable",
      "type": "function"
    },
    {
      "inputs": [
        {
          "internalType": "uint256",
          "name": "amount",
          "type": "uint256"
        }
      ],
      "name": "withdrawFunds",
      "outputs": [],
      "stateMutability": "nonpayable",
      "type": "function"
    },
    {
      "stateMutability": "payable",
      "type": "receive"
    }
  ],
  "bytecode": "0x60806040526302faf080600255600a6003819055805461ffff1916905534801561002857600080fd5b50600080546001600160a01b031916331790556145218061004a6000396000f3fe6080604052600436106103015760003560e01c80637acc0b201161018f578063adafb3d4116100e1578063ceecd5961161008a578063f851a44011610064578063f851a44014610a40578063f89620e114610a78578063fc9cc6e214610a8d57610347565b8063ceecd596146109f5578063e6361a8e14610a0a578063f7d139cb14610a2057610347565b8063c18e0ed9116100bb578063c18e0ed91461097e578063c4cb90501461099e578063cc642784146109c557610347565b8063adafb3d4146108e5578063b6d0738514610915578063b9209e331461094557610347565b80639a268f3511610143578063a2c66c361161011d578063a2c66c361461089b578063a315bd0a146108b0578063ac52480e146108d057610347565b80639a268f351461084e5780639bdc08011461087e578063a26759cb1461089357610347565b80637bd6221f116101745780637bd6221f146107c75780638f0c86fa1461080057806397cf3c371461083957610347565b80637acc0b20146106a05780637ad84475146107b257610347565b8063293be2dd116102535780634d8322c7116101fc5780636b2a5c35116101d65780636b2a5c35146106245780636b5eb09c14610644578063762b51db1461067457610347565b80634d8322c7146105b65780634e69d560146105d65780635da09b88146105eb57610347565b8063336989ae1161022d578063336989ae1461055357806338e76a0314610583578063410a0a4b1461059657610347565b8063293be2dd1461050b57806329d78328146105135780632d156a8d1461053357610347565b80631c328f23116102b557806326e1066e1161028f57806326e1066e1461049d57806328443b18146104bd57806328fd5e83146104d257610347565b80631c328f2314610446578063200d2ed21461045b57806323630f7b1461047d57610347565b8063155dd5ee116102e6578063155dd5ee146103c857806316479b85146103e857806317d4a491146103fd57610347565b80630e8336dd1461038657806312065fe0146103a657610347565b36610347576103456040518060400160405280600e81526020017f2d2d2d2d2d20726563656976653a00000000000000000000000000000000000081525034610aad565b005b6103456040518060400160405280600f81526020017f2d2d2d2d2d2066616c6c6261636b3a000000000000000000000000000000000081525034610aad565b34801561039257600080fd5b506103456103a1366004613c88565b610b24565b3480156103b257600080fd5b50475b6040519081526020015b60405180910390f35b3480156103d457600080fd5b506103456103e3366004613cb4565b610e54565b3480156103f457600080fd5b50610345610f5f565b34801561040957600080fd5b50610436610418366004613ccd565b6001600160a01b031660009081526004602052604090205460ff1690565b60405190151581526020016103bf565b34801561045257600080fd5b506003546103b5565b34801561046757600080fd5b5061047061105a565b6040516103bf9190613d35565b34801561048957600080fd5b50610345610498366004613cb4565b6110e8565b3480156104a957600080fd5b506103456104b8366004613ccd565b611393565b3480156104c957600080fd5b506002546103b5565b3480156104de57600080fd5b506104366104ed366004613ccd565b6001600160a01b031660009081526007602052604090205460ff1690565b610345611445565b34801561051f57600080fd5b5061034561052e366004613cb4565b6116fe565b34801561053f57600080fd5b5061034561054e366004613cb4565b611b1a565b34801561055f57600080fd5b5061043661056e366004613ccd565b60076020526000908152604090205460ff1681565b610345610591366004613cb4565b611da3565b3480156105a257600080fd5b506103456105b1366004613d48565b61224f565b3480156105c257600080fd5b506103456105d1366004613cb4565b61256a565b3480156105e257600080fd5b50610345612611565b3480156105f757600080fd5b50610436610606366004613ccd565b6001600160a01b031660009081526006602052604090205460ff1690565b34801561063057600080fd5b5061034561063f366004613d48565b612658565b34801561065057600080fd5b5061043661065f366004613ccd565b60046020526000908152604090205460ff1681565b34801561068057600080fd5b50600a5461069390610100900460ff1681565b6040516103bf9190613d94565b3480156106ac57600080fd5b5061079b6106bb366004613cb4565b600b6020818152600092835260409283902080546001820154600283015460038401546004850154600586015460068701548a51608081018c5260078901546001600160a01b03908116825260088a01548116828c015260098a01548116828e0152600a8a015481166060808401919091528d51808f018f529c8b01548d52600c8b01548d8d01528d519081018e52600d909a015460ff80821615158c52610100808304821615159d8d019d909d5262010000909104811615159d8b019d909d52979b969a9588169997909416979296919580821695929091041692918b565b6040516103bf9b9a99989796959493929190613db8565b3480156107be57600080fd5b50610345612987565b3480156107d357600080fd5b506104366107e2366004613ccd565b6001600160a01b031660009081526008602052604090205460ff1690565b34801561080c57600080fd5b5061043661081b366004613ccd565b6001600160a01b031660009081526005602052604090205460ff1690565b34801561084557600080fd5b506103456129c9565b34801561085a57600080fd5b50610436610869366004613ccd565b60066020526000908152604090205460ff1681565b34801561088a57600080fd5b50610345612a2d565b610345612b28565b3480156108a757600080fd5b50610345612bec565b3480156108bc57600080fd5b506103456108cb366004613d48565b612c50565b3480156108dc57600080fd5b50610345612fcb565b3480156108f157600080fd5b50610436610900366004613ccd565b60096020526000908152604090205460ff1681565b34801561092157600080fd5b50610436610930366004613ccd565b60086020526000908152604090205460ff1681565b34801561095157600080fd5b50610436610960366004613ccd565b6001600160a01b031660009081526009602052604090205460ff1690565b34801561098a57600080fd5b50610345610999366004613ccd565b61302f565b3480156109aa57600080fd5b50600a546109b89060ff1681565b6040516103bf9190613e84565b3480156109d157600080fd5b506104366109e0366004613ccd565b60056020526000908152604090205460ff1681565b348015610a0157600080fd5b506103456130e4565b348015610a1657600080fd5b506103b560015481565b348015610a2c57600080fd5b50610345610a3b366004613ccd565b6131bd565b348015610a4c57600080fd5b50600054610a60906001600160a01b031681565b6040516001600160a01b0390911681526020016103bf565b348015610a8457600080fd5b506103456132d7565b348015610a9957600080fd5b50610345610aa8366004613cb4565b6133d2565b610b208282604051602401610ac3929190613e92565b60408051601f198184030181529190526020810180517bffffffffffffffffffffffffffffffffffffffffffffffffffffffff167fb60e72cc00000000000000000000000000000000000000000000000000000000179052613472565b5050565b3360009081526004602052604090205460ff1680610b5157503360009081526005602052604090205460ff165b80610b6b57503360009081526006602052604090205460ff165b610bf05760405162461bcd60e51b815260206004820152604560248201527f4f6e6c79206d616e756661637475726572732c206469737472696275746f727360448201527f206f722072657461696c6572732063616e20706572666f726d2074686973206160648201526431ba34b7b760d91b608482015260a4015b60405180910390fd5b60036000838152600b602052604090206006015460ff166005811115610c1857610c18613d6a565b14610c8b5760405162461bcd60e51b815260206004820152603660248201527f50726f64756374206d7573742062652070757263686173656420627920736f6d60448201527f6520656e7469747920746f2062652073686970706564000000000000000000006064820152608401610be7565b6000828152600b60205260409020600201546001600160a01b03163314610d1a5760405162461bcd60e51b815260206004820152602c60248201527f50726f647563742063616e206f6e6c792062652073686970706564206279207460448201527f6865206f6c64206f776e657200000000000000000000000000000000000000006064820152608401610be7565b610d2582338361347b565b6000828152600b60209081526040808320600601805461ffff19166104041790556001600160a01b0384168352600790915290205460ff1615610e04576000828152600b6020526040812060050154610d7f906004613740565b6000848152600b6020526040812060070154919250610da8916001600160a01b03169083613769565b6000838152600b602081905260409091206008810154910154610dd5916001600160a01b03169083613769565b6000838152600b602052604090206009810154600c90910154610e02916001600160a01b03169083613769565b505b604080518381523360208201526001600160a01b038316918101919091527fae22003d449cfb842a57062f1f6ae06a4abdabcdfb0b6e02deee5584df17b277906060015b60405180910390a15050565b6000546001600160a01b03163314610ebd5760405162461bcd60e51b815260206004820152602660248201527f4f6e6c79207468652061646d696e2063616e20706572666f726d20746869732060448201526530b1ba34b7b760d11b6064820152608401610be7565b600154811115610f0f5760405162461bcd60e51b815260206004820152601260248201527f496e73756666696369656e742066756e647300000000000000000000000000006044820152606401610be7565b8060016000828254610f219190613eca565b9091555050600080546040516001600160a01b039091169183156108fc02918491818181858888f19350505050158015610b20573d6000803e3d6000fd5b3360009081526006602052604090205460ff1680610f8757506000546001600160a01b031633145b610ff95760405162461bcd60e51b815260206004820152603360248201527f4f6e6c792072657461696c657273206f72207468652061646d696e2063616e2060448201527f706572666f726d207468697320616374696f6e000000000000000000000000006064820152608401610be7565b336000818152600660209081526040808320805460ff199081169091556008835281842080548216905560099092528083208054909216909155517fdb7176e79cffef81cb01767dd0447a0b24bb72ca9778d4b245581086b2a7e6db9190a2565b600c805461106790613ee1565b80601f016020809104026020016040519081016040528092919081815260200182805461109390613ee1565b80156110e05780601f106110b5576101008083540402835291602001916110e0565b820191906000526020600020905b8154815290600101906020018083116110c357829003601f168201915b505050505081565b3360009081526004602052604090205460ff168061111557503360009081526005602052604090205460ff165b8061112f57503360009081526006602052604090205460ff165b6111af5760405162461bcd60e51b815260206004820152604560248201527f4f6e6c79206d616e756661637475726572732c206469737472696275746f727360448201527f206f722072657461696c6572732063616e20706572666f726d2074686973206160648201526431ba34b7b760d91b608482015260a401610be7565b6000818152600b60205260409020600301546001600160a01b03163314611240576040805162461bcd60e51b81526020600482015260248101919091527f4f6e6c79207468652063757272656e74206f776e65722063616e206368616e6760448201527f65207468652070726f6475637420737461676520746f204e6f744f6e53616c656064820152608401610be7565b60036000828152600b602052604090206006015460ff16600581111561126857611268613d6a565b1415801561129c575060046000828152600b602052604090206006015460ff16600581111561129957611299613d6a565b14155b6113345760405162461bcd60e51b815260206004820152604860248201527f50726f64756374206d757374206e6f7420626520696e2050757263686173656460448201527f206f72205368697070656420737461676520746f206368616e676520746f204e60648201527f6f744f6e53616c65000000000000000000000000000000000000000000000000608482015260a401610be7565b6000818152600b6020526040902060060180546002919060ff19166001830217905550604080518281523360208201527f34dfd957cdce058c374027e3a6f6ab1771b40b4bcd043a96d4d0f98750b4bfd691015b60405180910390a150565b6000546001600160a01b031633146113fc5760405162461bcd60e51b815260206004820152602660248201527f4f6e6c79207468652061646d696e2063616e20706572666f726d20746869732060448201526530b1ba34b7b760d11b6064820152608401610be7565b6001600160a01b038116600081815260086020526040808220805460ff19169055517f31ef9270602119277454261e5a5bff0e43801de289dcf5d07dcf5aefc5c151d89190a250565b3360009081526008602052604090205460ff166114ca5760405162461bcd60e51b815260206004820152603060248201527f456e74697479206861736e277420676976656e20697473206964656e7469666960448201527f636174696f6e2070726f6f6620796574000000000000000000000000000000006064820152608401610be7565b3360009081526007602052604090205460ff16156115505760405162461bcd60e51b815260206004820152603060248201527f437573746f6d65727320617265206e6f7420616c6c6f77656420746f2070657260448201527f666f726d207468697320616374696f6e000000000000000000000000000000006064820152608401610be7565b600060405161155e90613af8565b604051809103906000f08015801561157a573d6000803e3d6000fd5b5090506000816001600160a01b03166328443b186040518163ffffffff1660e01b815260040160206040518083038186803b1580156115b857600080fd5b505afa1580156115cc573d6000803e3d6000fd5b505050506040513d601f19601f820116820180604052508101906115f09190613f1c565b9050803410156116685760405162461bcd60e51b815260206004820152602560248201527f496e73756666696369656e74207061796d656e7420666f72207665726966696360448201527f6174696f6e0000000000000000000000000000000000000000000000000000006064820152608401610be7565b6000349050806001600082825461167f9190613f35565b909155505060405181815233907f8fe10ae416f22f5e5220b0018a6c1d4ff534d6aa3a471f2a20cb7747fe63e5b99060200160405180910390a233600081815260096020526040808220805460ff19166001179055517fa3710f2b2505ddd76d00993c1fad93af4104d857fa3e237c9548c028c44935cc9190a2505050565b3360009081526007602052604090205460ff168061172b57503360009081526005602052604090205460ff165b8061174557503360009081526006602052604090205460ff165b6117c15760405162461bcd60e51b815260206004820152604160248201527f4f6e6c7920637573746f6d6572732c206469737472696275746f7273206f722060448201527f72657461696c6572732063616e20706572666f726d207468697320616374696f6064820152603760f91b608482015260a401610be7565b60046000828152600b602052604090206006015460ff1660058111156117e9576117e9613d6a565b1461185c5760405162461bcd60e51b815260206004820152603160248201527f50726f64756374206d75737420626520696e202753686970706564272073746160448201527f676520746f2062652072656365697665640000000000000000000000000000006064820152608401610be7565b60046000828152600b6020526040902060060154610100900460ff16600481111561188957611889613d6a565b146118fc5760405162461bcd60e51b815260206004820152603560248201527f50726f64756374206d75737420626520696e20275368697070696e6727206c6f60448201527f636174696f6e20746f20626520726563656976656400000000000000000000006064820152608401610be7565b6000818152600b60205260409020600301546001600160a01b0316331461198b5760405162461bcd60e51b815260206004820152602e60248201527f4f6e6c79207468652063757272656e74206f776e65722063616e20726563656960448201527f7665207468652070726f647563740000000000000000000000000000000000006064820152608401610be7565b6000818152600b6020526040902060068101805460ff1916600517905560080154336001600160a01b0390911614156119e9576000818152600b6020526040902060060180546001919061ff001916610100835b0217905550611ae5565b6000818152600b60205260409020600901546001600160a01b0316331415611a30576000818152600b6020526040902060060180546002919061ff001916610100836119df565b6000818152600b60205260409020600a01546001600160a01b0316331415611a77576000818152600b6020526040902060060180546003919061ff001916610100836119df565b60405162461bcd60e51b815260206004820152602b60248201527f496e76616c69642063757272656e74206f776e657220666f722075706461746960448201527f6e67206c6f636174696f6e0000000000000000000000000000000000000000006064820152608401610be7565b604080518281523360208201527f7eb38f83fec1bdc45e831c15e9e3eb2369028929a0e38e3709b7e710362f823b9101611388565b3360009081526004602052604090205460ff1680611b4757503360009081526005602052604090205460ff165b80611b6157503360009081526006602052604090205460ff165b611be15760405162461bcd60e51b815260206004820152604560248201527f4f6e6c79206d616e756661637475726572732c206469737472696275746f727360448201527f206f722072657461696c6572732063616e20706572666f726d2074686973206160648201526431ba34b7b760d91b608482015260a401610be7565b6000818152600b60205260409020600301546001600160a01b03163314611c705760405162461bcd60e51b815260206004820152603d60248201527f4f6e6c79207468652063757272656e74206f776e65722063616e206368616e6760448201527f65207468652070726f6475637420737461676520746f204f6e53616c650000006064820152608401610be7565b60036000828152600b602052604090206006015460ff166005811115611c9857611c98613d6a565b14158015611ccc575060046000828152600b602052604090206006015460ff166005811115611cc957611cc9613d6a565b14155b611d4c5760405162461bcd60e51b815260206004820152604560248201527f50726f64756374206d757374206e6f7420626520696e2050757263686173656460448201527f206f72205368697070656420737461676520746f206368616e676520746f204f6064820152646e53616c6560d81b608482015260a401610be7565b6000818152600b6020526040902060060180546001919060ff191682800217905550604080518281523360208201527f5ea9686d3fd9cc47111972119dae21c738cc8467f126b047ba099f2e986dc84f9101611388565b3360009081526007602052604090205460ff1680611dd057503360009081526005602052604090205460ff165b80611dea57503360009081526006602052604090205460ff165b611e665760405162461bcd60e51b815260206004820152604160248201527f4f6e6c7920637573746f6d6572732c206469737472696275746f7273206f722060448201527f72657461696c6572732063616e20706572666f726d207468697320616374696f6064820152603760f91b608482015260a401610be7565b6000818152600b60205260409020600301546001600160a01b0316331415611ef65760405162461bcd60e51b815260206004820152602b60248201527f43757272656e74206f776e6572732063616e277420627579207468656972206f60448201527f776e2070726f64756374730000000000000000000000000000000000000000006064820152608401610be7565b60016000828152600b602052604090206006015460ff166005811115611f1e57611f1e613d6a565b14611f915760405162461bcd60e51b815260206004820152602760248201527f50726f64756374206d757374206265204f6e2053616c6520746f20626520707560448201527f72636861736564000000000000000000000000000000000000000000000000006064820152608401610be7565b3360009081526007602052604090205460ff16801561207e576000828152600b60205260409020600501543410156120315760405162461bcd60e51b815260206004820152602a60248201527f496e73756666696369656e742066756e647320746f207075726368617365207460448201527f68652070726f64756374000000000000000000000000000000000000000000006064820152608401610be7565b34600160008282546120439190613f35565b909155505060405134815233907f8fe10ae416f22f5e5220b0018a6c1d4ff534d6aa3a471f2a20cb7747fe63e5b99060200160405180910390a25b6000828152600b60209081526040808320600681018054600360ff19909116811790915581018054600290920180546001600160a01b0384166001600160a01b031991821617909155339216821790558352600590915290205460ff1615612106576000828152600b6020526040902060080180546001600160a01b031916331790556121f0565b3360009081526006602052604090205460ff1615612144576000828152600b6020526040902060090180546001600160a01b031916331790556121f0565b3360009081526007602052604090205460ff1615612182576000828152600b60205260409020600a0180546001600160a01b031916331790556121f0565b60405162461bcd60e51b815260206004820152602d60248201527f496e76616c696420726f6c6520666f72207570646174696e672070726f64756360448201527f7420696e666f726d6174696f6e000000000000000000000000000000000000006064820152608401610be7565b6000828152600b60209081526040918290206002015482518581526001600160a01b039091169181019190915233918101919091527f405b8e92032184041314dcddf305e0d97d13b103d3fa162eb2b1c760760bdc0a90606001610e48565b3360009081526004602052604090205460ff168061227c57503360009081526005602052604090205460ff165b8061229657503360009081526006602052604090205460ff165b6123165760405162461bcd60e51b815260206004820152604560248201527f4f6e6c79206d616e756661637475726572732c206469737472696275746f727360448201527f206f722072657461696c6572732063616e20706572666f726d2074686973206160648201526431ba34b7b760d91b608482015260a401610be7565b3360009081526006602052604090205460ff1661239b5760405162461bcd60e51b815260206004820152603160248201527f4f6e6c792072657461696c6572732063616e206368616e67652074686520636560448201527f7274696669636174696f6e2070726963650000000000000000000000000000006064820152608401610be7565b6000828152600b60205260409020600301546001600160a01b0316331461242a5760405162461bcd60e51b815260206004820152603960248201527f4f6e6c79207468652063757272656e74206f776e65722063616e206368616e6760448201527f65207468652063657274696669636174696f6e207072696365000000000000006064820152608401610be7565b60036000838152600b602052604090206006015460ff16600581111561245257612452613d6a565b14158015612486575060046000838152600b602052604090206006015460ff16600581111561248357612483613d6a565b14155b6125065760405162461bcd60e51b815260206004820152604560248201527f50726f64756374206d757374206e6f7420626520696e2050757263686173656460448201527f206f72205368697070656420737461676520746f206368616e676520746f204f6064820152646e53616c6560d81b608482015260a401610be7565b6000828152600b602090815260409182902060068101805460ff19166001179055600501839055815184815233918101919091529081018290527fe4e344f6136444bd4df6c6ade9a7761739c9147339d73a3e0813d8f088d7185790606001610e48565b6000546001600160a01b031633146125d35760405162461bcd60e51b815260206004820152602660248201527f4f6e6c79207468652061646d696e2063616e20706572666f726d20746869732060448201526530b1ba34b7b760d11b6064820152608401610be7565b600281905560405181815233907fb77f58d7bdd9979ecd98ed048fc9d5657dfb51e810bb8c078af5b318a68bf1f4906020015b60405180910390a250565b6040805180820190915260058082527f5061796564000000000000000000000000000000000000000000000000000000602090920191825261265591600c91613b05565b50565b3360009081526004602052604090205460ff168061268057506000546001600160a01b031633145b6126f25760405162461bcd60e51b815260206004820152603760248201527f4f6e6c79206d616e75666163747572657273206f72207468652061646d696e2060448201527f63616e20706572666f726d207468697320616374696f6e0000000000000000006064820152608401610be7565b6126fa613b89565b828152602081018290523360608201819052604082015264174876e80060a0820152426080820152600a5460c082019060ff16600581111561273e5761273e613d6a565b9081600581111561275157612751613d6a565b905250600a5460e0820190610100900460ff16600481111561277557612775613d6a565b9081600481111561278857612788613d6a565b90525060408051608080820183526000602080840182905283850182905260608085018390523385526101008701859052888352600b8252918590208651815590860151600180830191909155948601516002820180546001600160a01b03199081166001600160a01b03938416179091559287015160038301805490941691161790915590840151600482015560a084015160058083019190915560c0850151600683018054949587959293919260ff191691849081111561284d5761284d613d6a565b021790555060e082015160068201805461ff00191661010083600481111561287757612877613d6a565b02179055506101008281015180516007840180546001600160a01b03199081166001600160a01b039384161790915560208084015160088701805484169185169190911790556040808501516009880180548516918616919091179055606090940151600a8701805490931693169290921790556101208501518051600b860155810151600c850155610140909401518051600d9094018054828701519284015161ffff1990911695151561ff001916959095179115159093021762ff000019166201000093151593909302929092179055805186815233928101929092527f97c998f1009a742d52bd2b93e67352e2800f1b46a2a226b31cfa903ec93892f7910160405180910390a150505050565b33600081815260076020526040808220805460ff19166001179055517fcd118a02bd36f224f6f1b93812f78d2bbc2c2dc1bc0f60c176e3b4fe09f1483f9190a2565b336000818152600660209081526040808320805460ff199081166001179091556008835281842080548216905560099092528083208054909216909155517f71ae26cad02663e3d92efd6ec56031a80d74a20c0ab4183faa8bf262261c9baa9190a2565b3360009081526005602052604090205460ff1680612a5557506000546001600160a01b031633145b612ac75760405162461bcd60e51b815260206004820152603660248201527f4f6e6c79206469737472696275746f7273206f72207468652061646d696e206360448201527f616e20706572666f726d207468697320616374696f6e000000000000000000006064820152608401610be7565b336000818152600560209081526040808320805460ff199081169091556008835281842080548216905560099092528083208054909216909155517f126174f6cf49c81cdb4a9214c6b8f037bef55b4ec31e4fc776cea2a1c8a88d599190a2565b60003411612b9e5760405162461bcd60e51b815260206004820152602160248201527f46756e64732073656e74206d7573742062652067726561746572207468616e2060448201527f30000000000000000000000000000000000000000000000000000000000000006064820152608401610be7565b3460016000828254612bb09190613f35565b909155505060405134815233907f8fe10ae416f22f5e5220b0018a6c1d4ff534d6aa3a471f2a20cb7747fe63e5b99060200160405180910390a2565b336000818152600460209081526040808320805460ff199081166001179091556008835281842080548216905560099092528083208054909216909155517f561138658ca49a8540dc70dcfe64c9026c1c5b9344642242dd6562970f9c12789190a2565b6000828152600b60209081526040808320600a8101546008820154600990920154338652600790945291909320546001600160a01b03918216938216929091169060ff168015612ca85750336001600160a01b038416145b15612cb257612dab565b3360009081526005602052604090205460ff168015612cd95750336001600160a01b038316145b15612cf8576000858152600b6020819052604090912001849055612dab565b3360009081526006602052604090205460ff168015612d1f5750336001600160a01b038216145b15612d3d576000858152600b60205260409020600c01849055612dab565b60405162461bcd60e51b815260206004820152603c60248201527f43616c6c657220646f6573206e6f74206861766520746865207269676874207460448201527f6f206368616e67652062616e6b207472616e73616374696f6e204944000000006064820152608401610be7565b3360009081526005602052604090205460ff168015612dd25750336001600160a01b038316145b8015612df557506000858152600b60205260409020600d0154610100900460ff16155b8015612e6857506001600160a01b03831615801590612e68575060046000868152600b602052604090206006015460ff166005811115612e3757612e37613d6a565b1480612e68575060056000868152600b602052604090206006015460ff166005811115612e6657612e66613d6a565b145b15612e9c57612e7933866019613769565b6000858152600b60205260409020600d01805461ff001916610100179055612f8c565b3360009081526006602052604090205460ff168015612ec35750336001600160a01b038216145b8015612ee757506000858152600b60205260409020600d015462010000900460ff16155b8015612f5a57506001600160a01b03831615801590612f5a575060046000868152600b602052604090206006015460ff166005811115612f2957612f29613d6a565b1480612f5a575060056000868152600b602052604090206006015460ff166005811115612f5857612f58613d6a565b145b15612f8c57612f6b33866019613769565b6000858152600b60205260409020600d01805462ff00001916620100001790555b604080518681523360208201527fdcd2f9ad8329d46769c3238811ad3ca487334dd220ad05263c0f9ea1a19ccc87910160405180910390a15050505050565b336000818152600560209081526040808320805460ff199081166001179091556008835281842080548216905560099092528083208054909216909155517fddbf200aa634dc3fb81cfd68583dd1040d1c751d335e1d86b631bde3e977fea89190a2565b6000546001600160a01b031633146130985760405162461bcd60e51b815260206004820152602660248201527f4f6e6c79207468652061646d696e2063616e20706572666f726d20746869732060448201526530b1ba34b7b760d11b6064820152608401610be7565b6001600160a01b038116600081815260086020526040808220805460ff19166001179055517f58169284ef5a04f8626278f2f2b6c44cf8f2d30da1e96100b7016764ad6130689190a250565b3360009081526007602052604090205460ff168061310c57506000546001600160a01b031633145b61317e5760405162461bcd60e51b815260206004820152603360248201527f4f6e6c7920637573746f6d657273206f72207468652061646d696e2063616e2060448201527f706572666f726d207468697320616374696f6e000000000000000000000000006064820152608401610be7565b33600081815260076020526040808220805460ff19169055517fb4c88a9c5cd906354abdd1cc29e4f94c6c4de90754fb80ce51e6a33417bc81b69190a2565b6000546001600160a01b031633146132265760405162461bcd60e51b815260206004820152602660248201527f4f6e6c79207468652061646d696e2063616e20706572666f726d20746869732060448201526530b1ba34b7b760d11b6064820152608401610be7565b6001600160a01b03811660009081526009602052604090205460ff1661328e5760405162461bcd60e51b815260206004820152601e60248201527f456e7469747920697320616c7265616479206e6f7420766572696669656400006044820152606401610be7565b6001600160a01b038116600081815260096020526040808220805460ff19169055517f4e7593da9155b5afbbc5e5bcaaf40b112e7529d1233f4c92780fbf49682842469190a250565b3360009081526004602052604090205460ff16806132ff57506000546001600160a01b031633145b6133715760405162461bcd60e51b815260206004820152603760248201527f4f6e6c79206d616e75666163747572657273206f72207468652061646d696e2060448201527f63616e20706572666f726d207468697320616374696f6e0000000000000000006064820152608401610be7565b336000818152600460209081526040808320805460ff199081169091556008835281842080548216905560099092528083208054909216909155517f2fed5abf6a80d6dfe30b4895481b2fc5d7dce5f8f7b931832f4a2947d5040c7f9190a2565b6000546001600160a01b0316331461343b5760405162461bcd60e51b815260206004820152602660248201527f4f6e6c79207468652061646d696e2063616e20706572666f726d20746869732060448201526530b1ba34b7b760d11b6064820152608401610be7565b600381905560405181815233907f34949851b962a7f1c28710ba5e9ba656f8257419a4c3da8b9c6bd206856d1e2790602001612606565b61265581613ad7565b816001600160a01b0316816001600160a01b031614156135035760405162461bcd60e51b815260206004820152603e60248201527f50726f647563742063616e6e6f74206265207368697070656420746f2074686560448201527f2073616d65206164647265737320617320746865206f6c64206f776e657200006064820152608401610be7565b6000838152600b60205260409020600301546001600160a01b038281169116146135955760405162461bcd60e51b815260206004820152602c60248201527f50726f64756374206d757374206265207368697070656420746f20746865206360448201527f757272656e74206f776e657200000000000000000000000000000000000000006064820152608401610be7565b6000838152600b60205260409020600201546001600160a01b0383811691161480156136c957506000838152600b60205260409020600701546001600160a01b0383811691161480156136115750600080848152600b6020526040902060060154610100900460ff16600481111561360f5761360f613d6a565b145b8061366d57506000838152600b60205260409020600801546001600160a01b03838116911614801561366d575060016000848152600b6020526040902060060154610100900460ff16600481111561366b5761366b613d6a565b145b806136c957506000838152600b60205260409020600901546001600160a01b0383811691161480156136c9575060026000848152600b6020526040902060060154610100900460ff1660048111156136c7576136c7613d6a565b145b61373b5760405162461bcd60e51b815260206004820152602a60248201527f496e76616c6964206f6c64206f776e6572206f72206c6f636174696f6e20666f60448201527f72207368697070696e67000000000000000000000000000000000000000000006064820152608401610be7565b505050565b60008161374e600282613f4d565b6137589190613f4d565b6137629084613f35565b9392505050565b6001600160a01b0383166137bf5760405162461bcd60e51b815260206004820152601960248201527f496e76616c696420726563697069656e742061646472657373000000000000006044820152606401610be7565b6000811161380f5760405162461bcd60e51b815260206004820152601660248201527f496e76616c6964207061796d656e7420616d6f756e74000000000000000000006044820152606401610be7565b6001600160a01b03831660009081526006602052604090205460ff16156138e7576000828152600b60205260409020600c01541561373b576040516001600160a01b0384169082156108fc029083906000818181858888f1935050505015801561387d573d6000803e3d6000fd5b506000828152600b6020908152604091829020600d01805462ff000019166201000017905581516001600160a01b03861681529081018390527f3ad0c8d1bbd63d54c5f14180eae95cab7c2420b2dbb90603a6e5d206668f52ec91015b60405180910390a1505050565b6001600160a01b03831660009081526005602052604090205460ff16156139b5576000828152600b6020819052604090912001541561373b576040516001600160a01b0384169082156108fc029083906000818181858888f19350505050158015613956573d6000803e3d6000fd5b506000828152600b6020908152604091829020600d01805461ff00191661010017905581516001600160a01b03861681529081018390527f3ad0c8d1bbd63d54c5f14180eae95cab7c2420b2dbb90603a6e5d206668f52ec91016138da565b6001600160a01b03831660009081526004602052604090205460ff1615613a69576040516001600160a01b0384169082156108fc029083906000818181858888f19350505050158015613a0c573d6000803e3d6000fd5b506000828152600b6020908152604091829020600d01805460ff1916600117905581516001600160a01b03861681529081018390527f3ad0c8d1bbd63d54c5f14180eae95cab7c2420b2dbb90603a6e5d206668f52ec91016138da565b60405162461bcd60e51b815260206004820152602f60248201527f496e76616c696420726563697069656e7420726f6c65206f72206d697373696e60448201527f67207472616e73616374696f6e494400000000000000000000000000000000006064820152608401610be7565b60006a636f6e736f6c652e6c6f679050600080835160208501845afa505050565b61057c80613f7083390190565b828054613b1190613ee1565b90600052602060002090601f016020900481019282613b335760008555613b79565b82601f10613b4c57805160ff1916838001178555613b79565b82800160010185558215613b79579182015b82811115613b79578251825591602001919060010190613b5e565b50613b85929150613c57565b5090565b604051806101600160405280600081526020016000815260200160006001600160a01b0316815260200160006001600160a01b03168152602001600081526020016000815260200160006005811115613be457613be4613d6a565b815260200160008152604080516080810182526000808252602082810182905292820181905260608201529101908152602001613c34604051806040016040528060008152602001600081525090565b815260408051606081018252600080825260208281018290529282015291015290565b5b80821115613b855760008155600101613c58565b80356001600160a01b0381168114613c8357600080fd5b919050565b60008060408385031215613c9b57600080fd5b82359150613cab60208401613c6c565b90509250929050565b600060208284031215613cc657600080fd5b5035919050565b600060208284031215613cdf57600080fd5b61376282613c6c565b6000815180845260005b81811015613d0e57602081850181015186830182015201613cf2565b81811115613d20576000602083870101525b50601f01601f19169290920160200192915050565b6020815260006137626020830184613ce8565b60008060408385031215613d5b57600080fd5b50508035926020909101359150565b634e487b7160e01b600052602160045260246000fd5b60058110613d9057613d90613d6a565b9052565b60208101613da28284613d80565b92915050565b60068110613d9057613d90613d6a565b6000610220820190508c82528b60208301526001600160a01b03808c166040840152808b1660608401528960808401528860a0840152613dfb60c0840189613da8565b613e0860e0840188613d80565b855181166101008401526020860151811661012084015260408601518116610140840152606086015116610160830152613e5061018083018580518252602090810151910152565b825115156101c0830152602083015115156101e0830152604083015115156102008301529c9b505050505050505050505050565b60208101613da28284613da8565b604081526000613ea56040830185613ce8565b90508260208301529392505050565b634e487b7160e01b600052601160045260246000fd5b600082821015613edc57613edc613eb4565b500390565b600181811c90821680613ef557607f821691505b60208210811415613f1657634e487b7160e01b600052602260045260246000fd5b50919050565b600060208284031215613f2e57600080fd5b5051919050565b60008219821115613f4857613f48613eb4565b500190565b600082613f6a57634e487b7160e01b600052601260045260246000fd5b50049056fe60806040526302faf080600255600a60035534801561001d57600080fd5b50600080546001600160a01b0319163317905561053d8061003f6000396000f3fe60806040526004361061007b5760003560e01c8063a26759cb1161004e578063a26759cb146100fb578063e6361a8e14610103578063f851a44014610119578063fc9cc6e21461015157600080fd5b8063155dd5ee146100805780631c328f23146100a257806328443b18146100c65780634d8322c7146100db575b600080fd5b34801561008c57600080fd5b506100a061009b366004610490565b610171565b005b3480156100ae57600080fd5b506003545b6040519081526020015b60405180910390f35b3480156100d257600080fd5b506002546100b3565b3480156100e757600080fd5b506100a06100f6366004610490565b610285565b6100a061032c565b34801561010f57600080fd5b506100b360015481565b34801561012557600080fd5b50600054610139906001600160a01b031681565b6040516001600160a01b0390911681526020016100bd565b34801561015d57600080fd5b506100a061016c366004610490565b6103f0565b6000546001600160a01b031633146101df5760405162461bcd60e51b815260206004820152602660248201527f4f6e6c79207468652061646d696e2063616e20706572666f726d20746869732060448201526530b1ba34b7b760d11b60648201526084015b60405180910390fd5b6001548111156102315760405162461bcd60e51b815260206004820152601260248201527f496e73756666696369656e742066756e6473000000000000000000000000000060448201526064016101d6565b806001600082825461024391906104d8565b9091555050600080546040516001600160a01b039091169183156108fc02918491818181858888f19350505050158015610281573d6000803e3d6000fd5b5050565b6000546001600160a01b031633146102ee5760405162461bcd60e51b815260206004820152602660248201527f4f6e6c79207468652061646d696e2063616e20706572666f726d20746869732060448201526530b1ba34b7b760d11b60648201526084016101d6565b600281905560405181815233907fb77f58d7bdd9979ecd98ed048fc9d5657dfb51e810bb8c078af5b318a68bf1f4906020015b60405180910390a250565b600034116103a25760405162461bcd60e51b815260206004820152602160248201527f46756e64732073656e74206d7573742062652067726561746572207468616e2060448201527f300000000000000000000000000000000000000000000000000000000000000060648201526084016101d6565b34600160008282546103b491906104ef565b909155505060405134815233907f8fe10ae416f22f5e5220b0018a6c1d4ff534d6aa3a471f2a20cb7747fe63e5b99060200160405180910390a2565b6000546001600160a01b031633146104595760405162461bcd60e51b815260206004820152602660248201527f4f6e6c79207468652061646d696e2063616e20706572666f726d20746869732060448201526530b1ba34b7b760d11b60648201526084016101d6565b600381905560405181815233907f34949851b962a7f1c28710ba5e9ba656f8257419a4c3da8b9c6bd206856d1e2790602001610321565b6000602082840312156104a257600080fd5b5035919050565b7f4e487b7100000000000000000000000000000000000000000000000000000000600052601160045260246000fd5b6000828210156104ea576104ea6104a9565b500390565b60008219821115610502576105026104a9565b50019056fea264697066735822122058c83704e5573ddfa64e525229f2bc8a34b161e8276b9340e1e16ddf2a24211a64736f6c63430008090033a264697066735822122043c168980507b73dbe91a9a806267ee35ab97439da3459f6d3c7b641697892e664736f6c63430008090033",
  "linkReferences": {},
  "deployedLinkReferences": {}
}